{"contracts/Toju.sol":{"Toju":{"abi":[{"inputs":[{"internalType":"contract TojuToken","name":"_tojuToken","type":"address"}],"stateMutability":"nonpayable","type":"constructor"},{"inputs":[],"name":"CoolDownTimeNotmet","type":"error"},{"inputs":[],"name":"ExpiredTimestamp","type":"error"},{"inputs":[],"name":"FailedTransfer","type":"error"},{"inputs":[{"internalType":"uint256","name":"sent","type":"uint256"},{"internalType":"uint256","name":"required","type":"uint256"}],"name":"InCorrectAmount","type":"error"},{"inputs":[{"internalType":"uint256","name":"sent","type":"uint256"},{"internalType":"uint256","name":"remaining","type":"uint256"}],"name":"InsufficientAmountRemain","type":"error"},{"inputs":[],"name":"InvalidCoolDownInterval","type":"error"},{"inputs":[],"name":"InvalidMaxSellAmount","type":"error"},{"inputs":[],"name":"InvalidMilestoneExpired","type":"error"},{"inputs":[],"name":"InvalidMilestoneFinished","type":"error"},{"inputs":[],"name":"InvalidMilestonePassed","type":"error"},{"inputs":[],"name":"InvalidMilestonesCount","type":"error"},{"inputs":[],"name":"InvalidProofOfWork","type":"error"},{"inputs":[],"name":"InvalidSignature","type":"error"},{"inputs":[],"name":"InvalidStageActive","type":"error"},{"inputs":[],"name":"InvalidStageAllowReadyToFinish","type":"error"},{"inputs":[],"name":"InvalidStageReadyToFinish","type":"error"},{"inputs":[],"name":"InvalidStakeRate","type":"error"},{"inputs":[],"name":"InvalidStatusAllowOngoing","type":"error"},{"inputs":[],"name":"InvalidStatusAllowPending","type":"error"},{"inputs":[],"name":"InvalidStatusAllowPendingAndOngoing","type":"error"},{"inputs":[],"name":"InvalidThresholdIndex","type":"error"},{"inputs":[],"name":"InvalidTimestamp","type":"error"},{"inputs":[],"name":"NullDescription","type":"error"},{"inputs":[],"name":"RecordNotFound","type":"error"},{"anonymous":false,"inputs":[{"indexed":true,"internalType":"uint256","name":"projectId","type":"uint256"}],"name":"CancelProject","type":"event"},{"anonymous":false,"inputs":[{"indexed":true,"internalType":"address","name":"creator","type":"address"},{"indexed":true,"internalType":"uint256","name":"projectId","type":"uint256"},{"indexed":false,"internalType":"uint8","name":"milestoneCount","type":"uint8"}],"name":"DeclareProject","type":"event"},{"anonymous":false,"inputs":[{"indexed":true,"internalType":"uint256","name":"projectId","type":"uint256"},{"indexed":false,"internalType":"uint8","name":"milestoneIndex","type":"uint8"}],"name":"FinishMilestone","type":"event"},{"anonymous":false,"inputs":[{"indexed":true,"internalType":"uint256","name":"projectId","type":"uint256"}],"name":"FinishProject","type":"event"},{"anonymous":false,"inputs":[{"indexed":true,"internalType":"address","name":"previousOwner","type":"address"},{"indexed":true,"internalType":"address","name":"newOwner","type":"address"}],"name":"OwnershipTransferred","type":"event"},{"anonymous":false,"inputs":[{"indexed":true,"internalType":"address","name":"owner","type":"address"},{"indexed":true,"internalType":"uint256","name":"projectId","type":"uint256"},{"indexed":false,"internalType":"uint256","name":"amount","type":"uint256"}],"name":"PayStake","type":"event"},{"anonymous":false,"inputs":[{"indexed":true,"internalType":"address","name":"buyer","type":"address"},{"indexed":true,"internalType":"uint256","name":"projectId","type":"uint256"},{"indexed":false,"internalType":"uint256","name":"dealAmount","type":"uint256"}],"name":"PurchaseProject","type":"event"},{"anonymous":false,"inputs":[{"indexed":true,"internalType":"address","name":"buyer","type":"address"},{"indexed":true,"internalType":"uint256","name":"projectId","type":"uint256"},{"indexed":false,"internalType":"uint256","name":"buyerAmount","type":"uint256"},{"indexed":false,"internalType":"uint256","name":"toCreatorAmount","type":"uint256"}],"name":"Refund","type":"event"},{"inputs":[{"internalType":"uint256","name":"projectId","type":"uint256"}],"name":"cancelProject","outputs":[],"stateMutability":"nonpayable","type":"function"},{"inputs":[],"name":"counter","outputs":[{"internalType":"uint256","name":"","type":"uint256"}],"stateMutability":"view","type":"function"},{"inputs":[{"components":[{"internalType":"string","name":"projectDescription","type":"string"},{"internalType":"uint8","name":"stakeRate100","type":"uint8"},{"internalType":"uint256","name":"maxTokenSoldCount","type":"uint256"},{"internalType":"string[]","name":"milestoneTitles","type":"string[]"},{"internalType":"string[]","name":"milestoneDescriptions","type":"string[]"},{"internalType":"uint256[]","name":"endTimestamps","type":"uint256[]"},{"internalType":"uint8","name":"thresholdIndex","type":"uint8"},{"internalType":"uint256","name":"coolDownInterval","type":"uint256"}],"internalType":"struct ProjectInput","name":"input","type":"tuple"}],"name":"declareProject","outputs":[{"internalType":"uint256","name":"projectId","type":"uint256"}],"stateMutability":"nonpayable","type":"function"},{"inputs":[{"internalType":"uint256","name":"projectId","type":"uint256"},{"internalType":"uint8","name":"index","type":"uint8"},{"internalType":"string","name":"proofOfWork","type":"string"}],"name":"finishMilestone","outputs":[],"stateMutability":"nonpayable","type":"function"},{"inputs":[{"internalType":"uint256","name":"projectId","type":"uint256"}],"name":"finishProject","outputs":[],"stateMutability":"nonpayable","type":"function"},{"inputs":[{"internalType":"uint256","name":"amount","type":"uint256"},{"internalType":"uint256","name":"projectId","type":"uint256"}],"name":"onPayment","outputs":[],"stateMutability":"nonpayable","type":"function"},{"inputs":[],"name":"owner","outputs":[{"internalType":"address","name":"","type":"address"}],"stateMutability":"view","type":"function"},{"inputs":[{"internalType":"uint256","name":"","type":"uint256"},{"internalType":"uint256","name":"","type":"uint256"}],"name":"projectBuyers","outputs":[{"internalType":"address","name":"","type":"address"}],"stateMutability":"view","type":"function"},{"inputs":[{"internalType":"uint256","name":"projectId","type":"uint256"}],"name":"queryProjectProto","outputs":[{"components":[{"internalType":"string","name":"description","type":"string"},{"internalType":"address","name":"ownerAddress","type":"address"},{"internalType":"uint256","name":"creationTimestamp","type":"uint256"},{"internalType":"uint8","name":"stakeRate100","type":"uint8"},{"internalType":"uint256","name":"maxTokenSoldCount","type":"uint256"},{"internalType":"uint8","name":"milestonesCount","type":"uint8"},{"components":[{"internalType":"string","name":"title","type":"string"},{"internalType":"string","name":"description","type":"string"},{"internalType":"uint256","name":"endTimestamp","type":"uint256"},{"internalType":"string","name":"proofOfWork","type":"string"}],"internalType":"struct ProjectMilestone[]","name":"milestones","type":"tuple[]"},{"internalType":"uint8","name":"thresholdMilestoneIndex","type":"uint8"},{"internalType":"uint256","name":"coolDownInterval","type":"uint256"},{"internalType":"uint256","name":"lastUpdateTimestamp","type":"uint256"},{"internalType":"uint8","name":"nextMilestone","type":"uint8"},{"internalType":"uint256","name":"remainTokenCount","type":"uint256"},{"internalType":"uint256","name":"buyerCount","type":"uint256"},{"internalType":"string","name":"status","type":"string"},{"internalType":"string","name":"stage","type":"string"}],"internalType":"struct ProjectPojo","name":"projectPojo","type":"tuple"}],"stateMutability":"view","type":"function"},{"inputs":[{"internalType":"uint256","name":"projectId","type":"uint256"},{"internalType":"address","name":"buyer","type":"address"}],"name":"queryPurchase","outputs":[{"internalType":"uint256","name":"value","type":"uint256"}],"stateMutability":"view","type":"function"},{"inputs":[{"internalType":"uint256","name":"projectId","type":"uint256"}],"name":"refund","outputs":[],"stateMutability":"nonpayable","type":"function"},{"inputs":[],"name":"renounceOwnership","outputs":[],"stateMutability":"nonpayable","type":"function"},{"inputs":[{"internalType":"address","name":"newOwner","type":"address"}],"name":"transferOwnership","outputs":[],"stateMutability":"nonpayable","type":"function"}],"evm":{"bytecode":{"linkReferences":{},"object":"60806040523480156200001157600080fd5b5060405162006a3b38038062006a3b833981810160405281019062000037919062000224565b620000576200004b620000d760201b60201c565b620000df60201b60201c565b6200007367e6ad38ed4b7f532060c01b620001a360201b60201c565b6200008f673b8734eb42d1ab3960c01b620001a360201b60201c565b80600160006101000a81548173ffffffffffffffffffffffffffffffffffffffff021916908373ffffffffffffffffffffffffffffffffffffffff1602179055505062000256565b600033905090565b60008060009054906101000a900473ffffffffffffffffffffffffffffffffffffffff169050816000806101000a81548173ffffffffffffffffffffffffffffffffffffffff021916908373ffffffffffffffffffffffffffffffffffffffff1602179055508173ffffffffffffffffffffffffffffffffffffffff168173ffffffffffffffffffffffffffffffffffffffff167f8be0079c531659141344cd1fd0a4f28419497f9722a3daafe3b4186f6b6457e060405160405180910390a35050565b50565b600080fd5b600073ffffffffffffffffffffffffffffffffffffffff82169050919050565b6000620001d882620001ab565b9050919050565b6000620001ec82620001cb565b9050919050565b620001fe81620001df565b81146200020a57600080fd5b50565b6000815190506200021e81620001f3565b92915050565b6000602082840312156200023d576200023c620001a6565b5b60006200024d848285016200020d565b91505092915050565b6167d580620002666000396000f3fe608060405234801561001057600080fd5b50600436106100cf5760003560e01c8063715018a61161008c578063b5bf2ecf11610066578063b5bf2ecf146101fe578063dc7d80051461021a578063e4f23e611461024a578063f2fde38b14610266576100cf565b8063715018a6146101a65780637f901d7a146101b05780638da5cb5b146101e0576100cf565b80630b6b90a9146100d45780630f9f5c5b146101045780632494114714610120578063278ecde11461013c5780635ad99c3f1461015857806361bc221a14610188575b600080fd5b6100ee60048036038101906100e991906156c2565b610282565b6040516100fb9190615743565b60405180910390f35b61011e600480360381019061011991906157fc565b6102d0565b005b61013a60048036038101906101359190615870565b610bd8565b005b61015660048036038101906101519190615870565b6114be565b005b610172600480360381019061016d91906158c2565b611aab565b60405161017f919061591a565b60405180910390f35b610190612679565b60405161019d919061591a565b60405180910390f35b6101ae61267f565b005b6101ca60048036038101906101c59190615870565b612693565b6040516101d79190615c7d565b60405180910390f35b6101e8612778565b6040516101f59190615743565b60405180910390f35b610218600480360381019061021391906156c2565b6127a1565b005b610234600480360381019061022f9190615ccb565b61314a565b604051610241919061591a565b60405180910390f35b610264600480360381019061025f9190615870565b6131cd565b005b610280600480360381019061027b9190615d0b565b613918565b005b6006602052816000526040600020818154811061029e57600080fd5b906000526020600020016000915091509054906101000a900473ffffffffffffffffffffffffffffffffffffffff1681565b6102e4672a1a9a2abdf1015460c01b61399b565b6102f86776ca8a1963abcfdd60c01b61399b565b61030c674b78c3d22f17031160c01b61399b565b60006103178561399e565b905061032d67c8ca34947be88f2260c01b61399b565b6103416765fda1ca8585e87760c01b61399b565b806000015173ffffffffffffffffffffffffffffffffffffffff163373ffffffffffffffffffffffffffffffffffffffff16146103d25761038c67744536808453920060c01b61399b565b6103a067bd26d8e5ad3ac5f260c01b61399b565b6040517f8baa579f00000000000000000000000000000000000000000000000000000000815260040160405180910390fd5b6103e667d8b16eccb01f622060c01b61399b565b6103fa6741d85eff87da420660c01b61399b565b61040e678c732b4e115ab0f860c01b61399b565b600061041986613b65565b905061042f67d39032d83bcd43ca60c01b61399b565b6104436718d8edcce425176160c01b61399b565b600181610100015160ff16146104ad5761046767fb9ead077641a9ae60c01b61399b565b61047b6707420719582a2a2f60c01b61399b565b6040517f2dc7fe0f00000000000000000000000000000000000000000000000000000000815260040160405180910390fd5b6104c167c4489392263436d260c01b61399b565b6104d567c749841bcb41385860c01b61399b565b6104e967699185726393bd9660c01b61399b565b60006104f8878760ff16613c70565b905061050e67de0414202cb8bbe860c01b61399b565b61052267700c53d33cd61bd660c01b61399b565b600042905061053b67fb933eb6a10fd1c060c01b61399b565b61054f6794bc70b74e9b92a060c01b61399b565b808460c001518460a001516105649190615d67565b11156105c45761057e673529ce484cdc4d1760c01b61399b565b610592675054d0a7f33c403e60c01b61399b565b6040517f809b1ed300000000000000000000000000000000000000000000000000000000815260040160405180910390fd5b6105d867c4f41ad3976b66a060c01b61399b565b6105ec67286727fafe64a01860c01b61399b565b610600675a1542314dfb63b560c01b61399b565b8260e0015160ff168760ff16101561066c5761062667a7bd84b932708b6b60c01b61399b565b61063a6795224c37c1e9fe7360c01b61399b565b6040517fb92690b200000000000000000000000000000000000000000000000000000000815260040160405180910390fd5b610680670968b0698ad2f99d60c01b61399b565b6106946704978513a69fbabe60c01b61399b565b6106a867d7ea5226d3e5f02a60c01b61399b565b6106b182613ece565b15610710576106ca673d0f29e29a1ec26d60c01b61399b565b6106de6790b34a7e0046238560c01b61399b565b6040517f4bec8c2500000000000000000000000000000000000000000000000000000000815260040160405180910390fd5b610724677234c688993dabaf60c01b61399b565b610738671ce4920ec1374dbe60c01b61399b565b61074c6788c3590419333d8e60c01b61399b565b6107568242613f1d565b156107b55761076f67df44add9db5938d260c01b61399b565b61078367eaad2aa1a0033a3060c01b61399b565b6040517f7a1a4e1e00000000000000000000000000000000000000000000000000000000815260040160405180910390fd5b6107c967d89343fcce89948c60c01b61399b565b6107dd6705c43e3240130f3f60c01b61399b565b6107f167558242017d94fe1060c01b61399b565b60008686905003610856576108106779f72e06b6eea1d960c01b61399b565b61082467bf7d9d10057ecafe60c01b61399b565b6040517fc2e63ef700000000000000000000000000000000000000000000000000000000815260040160405180910390fd5b61086a672368790fe0d0528c60c01b61399b565b61087e67965eaa2a3f86765e60c01b61399b565b85858080601f016020809104026020016040519081016040528093929190818152602001838380828437600081840152601f19601f8201169050808301925050505050505082606001819052506108df67cb8e4921aa0d8ff160c01b61399b565b6001876108ec9190615d9b565b8360e0019060ff16908160ff1681525050610911673719df001d750f8060c01b61399b565b8260c001805180919061092390615dd0565b60ff1660ff16815250506109416735b995c33a5843f760c01b61399b565b808360a001818152505061095f672dc59ecff06baff460c01b61399b565b610973672044d635bda626ed60c01b61399b565b8360a0015160ff168760ff16106109c25761099867641d1e682f48d36a60c01b61399b565b6109ac675fd070dd5b58b88b60c01b61399b565b60018360600190151590811515815250506109d7565b6109d6674703efa4e093a22760c01b61399b565b5b6109eb67d7b83e59451e458060c01b61399b565b6109ff6748d1493776060de560c01b61399b565b60018460800151610a109190615df9565b60ff168760ff1603610a5a57610a30674337daa2197674ec60c01b61399b565b610a44672d01c3404f6a478a60c01b61399b565b6001836080019015159081151581525050610a6f565b610a6e67fbcd92430c44db3d60c01b61399b565b5b610a83677e14dee13607e4ab60c01b61399b565b610a9767c0d5438ba2977c6e60c01b61399b565b610aa18884613f6b565b610ab567f7abef470524f14c60c01b61399b565b610ac9672c0705fa4adc551860c01b61399b565b610ad7888860ff168461407a565b610aeb67ed7614a42c8e415b60c01b61399b565b610aff67f5db384540561f1c60c01b61399b565b877fd7e09ddf6e37d5245e3a812f582f4835f581449495c8ab3cc3172b1d9734d71b88604051610b2f9190615e3d565b60405180910390a2610b4b6738a07d482fa17cac60c01b61399b565b610b5f67b610bdbc2d4a8ff260c01b61399b565b610b6a84844261412a565b15610bb957610b8367806b762cd5393e3e60c01b61399b565b610b97675e9fa17a20dba37760c01b61399b565b610bab6783ede017320f326860c01b61399b565b610bb4886131cd565b610bce565b610bcd677f54f084c782cc8860c01b61399b565b5b5050505050505050565b610bec6758466ba8b552903260c01b61399b565b610c006740bbc467485b50d460c01b61399b565b610c146788c408511b8c301e60c01b61399b565b6000610c1f8261399e565b9050610c35672a4ae80c871fd0c760c01b61399b565b60036000808152602001908152602001600020600360008481526020019081526020016000206000820160009054906101000a900473ffffffffffffffffffffffffffffffffffffffff168160000160006101000a81548173ffffffffffffffffffffffffffffffffffffffff021916908373ffffffffffffffffffffffffffffffffffffffff16021790555060018201816001019081610cd691906160a9565b506002820160009054906101000a900460ff168160020160006101000a81548160ff021916908360ff160217905550600382015481600301556004820160009054906101000a900460ff168160040160006101000a81548160ff021916908360ff1602179055506004820160019054906101000a900460ff168160040160016101000a81548160ff021916908360ff16021790555060058201548160050155600682015481600601556007820154816007015560088201548160080155905050610daa67f00452adaf9b58b260c01b61399b565b610dbe67d3e6b53dc9de60b360c01b61399b565b6000610dc983613b65565b9050610ddf6724bb4cf789da6bad60c01b61399b565b60046000808152602001908152602001600020600460008581526020019081526020016000206000820154816000015560018201548160010155600282015481600201556003820160009054906101000a900460ff168160030160006101000a81548160ff0219169083151502179055506003820160019054906101000a900460ff168160030160016101000a81548160ff021916908315150217905550600482015481600401556005820160009054906101000a900460ff168160050160006101000a81548160ff021916908360ff1602179055506005820160019054906101000a900460ff168160050160016101000a81548160ff021916908360ff1602179055506005820160029054906101000a900460ff168160050160026101000a81548160ff021916908360ff160217905550905050610f2867142e512f72b7c21d60c01b61399b565b610f3c67c6bf0a991e0a0d8d60c01b61399b565b816000015173ffffffffffffffffffffffffffffffffffffffff163373ffffffffffffffffffffffffffffffffffffffff1614610fcd57610f876707781f60899c5c8b60c01b61399b565b610f9b67c993ffbd7eda2c7860c01b61399b565b6040517f8baa579f00000000000000000000000000000000000000000000000000000000815260040160405180910390fd5b610fe1674e697f7567a9a66660c01b61399b565b610ff5671afb5ee3a25df05760c01b61399b565b611009672c23c5411b6177cf60c01b61399b565b600081610100015160ff16036110325761102d6791f81a54117a3a5560c01b61399b565b611431565b61104667b07787bf34812d6860c01b61399b565b61105a67c5460f4cea1c960660c01b61399b565b600181610100015160ff16036113d65761107e6715714c8140548c5960c01b61399b565b61109267bdd2e286402496a260c01b61399b565b6110a667ce5e5c29491dfeec60c01b61399b565b6110b1828242614251565b15611110576110ca67b0363c3c82c3bb1460c01b61399b565b6110de67186f9ce3a253a24260c01b61399b565b6040517f4b8b485c00000000000000000000000000000000000000000000000000000000815260040160405180910390fd5b6111246768171544a020770360c01b61399b565b611138671dd66d279744834e60c01b61399b565b61114c673ee1474854d762f260c01b61399b565b611162826000015161115d84614378565b6143cc565b611176677be38297d44ad07560c01b61399b565b61118a67a8d65449228e498060c01b61399b565b60006006600085815260200190815260200160002080548060200260200160405190810160405280929190818152602001828054801561121f57602002820191906000526020600020905b8160009054906101000a900473ffffffffffffffffffffffffffffffffffffffff1673ffffffffffffffffffffffffffffffffffffffff16815260200190600101908083116111d5575b5050505050905061123a678044ac871d4cd62c60c01b61399b565b61124e671c5498f6eedf00c160c01b61399b565b60005b81518110156113cf5761126e679cd67671622e76f960c01b61399b565b61128267b6c5f9467f71a02b60c01b61399b565b600082828151811061129757611296616191565b5b602002602001015190506112b567d32a2058db75bee860c01b61399b565b6112c9676059f832f154047260c01b61399b565b60006007600088815260200190815260200160002060008373ffffffffffffffffffffffffffffffffffffffff1673ffffffffffffffffffffffffffffffffffffffff16815260200190815260200160002054905061133267124edb27e0d576c260c01b61399b565b60006007600089815260200190815260200160002060008473ffffffffffffffffffffffffffffffffffffffff1673ffffffffffffffffffffffffffffffffffffffff1681526020019081526020016000208190555061139c676cd7c95cc8a95af160c01b61399b565b6113b0675083d121df76bf0060c01b61399b565b6113ba82826143cc565b505080806113c7906161c0565b915050611251565b5050611430565b6113ea671d5513429203314c60c01b61399b565b6113fe67f75857137be56ed960c01b61399b565b6040517fe50a91b900000000000000000000000000000000000000000000000000000000815260040160405180910390fd5b5b611445674e86c5bd1caed67360c01b61399b565b6005600084815260200190815260200160002060006114649190615427565b61147867c1a349e18ee5088260c01b61399b565b61148c67d515a889d520aea760c01b61399b565b827f74acb192d39829b88a66ad5363afa9120c5a306a458287a870351ae34a04d34660405160405180910390a2505050565b6114d2678c2692bad4c75cda60c01b61399b565b6114e667ae8158e64c734ff960c01b61399b565b6114fa67a476802d7fac031260c01b61399b565b60006115058261399e565b905061151b67088a02d1222a303a60c01b61399b565b61152f67e2e21ee6bc04a22860c01b61399b565b600061153a83613b65565b905061155067a37cf8ac9234d45e60c01b61399b565b611564678e9b9f9190afe66460c01b61399b565b600181610100015160ff16146115ce5761158867b3c4df2c22a2e21c60c01b61399b565b61159c67c002f553684480f060c01b61399b565b6040517f2dc7fe0f00000000000000000000000000000000000000000000000000000000815260040160405180910390fd5b6115e267824b30a57c4a2d8b60c01b61399b565b6115f667f7f85427246b2dc160c01b61399b565b61160a6707707580a8e3e07b60c01b61399b565b61161582824261412a565b156116745761162e67359eb0ba990501cd60c01b61399b565b6116426792c31ae6737390a660c01b61399b565b6040517fe8f82dd700000000000000000000000000000000000000000000000000000000815260040160405180910390fd5b611688670272c7f7be322e6160c01b61399b565b61169c67010be78951652fe560c01b61399b565b6116b0679ad215c06fd78c6660c01b61399b565b60006007600085815260200190815260200160002060003373ffffffffffffffffffffffffffffffffffffffff1673ffffffffffffffffffffffffffffffffffffffff168152602001908152602001600020549050611719674d936eba1625974760c01b61399b565b61172d676e701a6972ad76de60c01b61399b565b6000810361178f5761174967d888d77df4532f3c60c01b61399b565b61175d67d95b3c85e7f0369460c01b61399b565b6040517f3e07f1a100000000000000000000000000000000000000000000000000000000815260040160405180910390fd5b6117a3670b63cb30ee74eb8760c01b61399b565b6117b767b539996bb08dcbb060c01b61399b565b60006007600086815260200190815260200160002060003373ffffffffffffffffffffffffffffffffffffffff1673ffffffffffffffffffffffffffffffffffffffff1681526020019081526020016000208190555061182167f1d7378b81eb5f3360c01b61399b565b6118356745a48611b5774ce960c01b61399b565b611840838342614251565b1561197b5761185967eb65310f0c29c7f860c01b61399b565b61186d6730893c378e35e95960c01b61399b565b61188167bf8448df4e23802260c01b61399b565b60008061188f84868561454c565b915091506118a7670274062c5abf470a60c01b61399b565b6118bb6725d498563496c3f060c01b61399b565b6118c533836143cc565b6118d96733bec071bbdf9bb260c01b61399b565b6118ed670fe4d331446bba1760c01b61399b565b6118fb8560000151826143cc565b61190f67ce12accfb1a36fdf60c01b61399b565b6119236707a9aabe5ac494d060c01b61399b565b853373ffffffffffffffffffffffffffffffffffffffff167fb7048c2ad36aadee977bb16b4543a18866044d27a2ca753e1c7dbcfa7d7a6962848460405161196c929190616208565b60405180910390a35050611a73565b61198f67f85ddd82ce6492fd60c01b61399b565b6119a367fdf46d00e2a73fb560c01b61399b565b6119b767e95223d7c2a8a42960c01b61399b565b60006119c383836146a2565b90506119d9670c4dfa8f2681b86e60c01b61399b565b6119ed6723b0945c2562a23a60c01b61399b565b6119f733826143cc565b611a0b6721b4a7d0310263d260c01b61399b565b611a1f67f23cde643aa30a9660c01b61399b565b843373ffffffffffffffffffffffffffffffffffffffff167fb7048c2ad36aadee977bb16b4543a18866044d27a2ca753e1c7dbcfa7d7a6962836000604051611a6992919061626c565b60405180910390a3505b611a87675a8acffd987a0a3860c01b61399b565b611a9b67824c5b35e5ab948260c01b61399b565b611aa58483613f6b565b50505050565b6000611ac16703c503b27f6c159a60c01b61399b565b611ad5674bfbec845895768e60c01b61399b565b60026000815480929190611ae8906161c0565b9190505550611b0167b57e8b5fb2abfe7960c01b61399b565b6002549050611b1a67623f07046ca2d16760c01b61399b565b611b2e67f22feb3db84d9e1060c01b61399b565b6000828060000190611b4091906162a4565b905003611ba157611b5b67e6efbb006ee5e36860c01b61399b565b611b6f6705fe40560eb862c160c01b61399b565b6040517f0a37e92500000000000000000000000000000000000000000000000000000000815260040160405180910390fd5b611bb567396d071fe4970abd60c01b61399b565b611bc967ad99490a905f2aad60c01b61399b565b611bdd678041d39fbfabae7460c01b61399b565b6001826020016020810190611bf29190616307565b60ff161015611c5557611c0f6798e3781617a89e1060c01b61399b565b611c2367f797fb785a8fe07060c01b61399b565b6040517fab4102ac00000000000000000000000000000000000000000000000000000000815260040160405180910390fd5b611c696766ab489ad214bbee60c01b61399b565b611c7d67f392eb5de592545060c01b61399b565b611c9167710cdb233f6a4b9960c01b61399b565b600182604001351015611cf857611cb26788270be1d6a046ed60c01b61399b565b611cc6677534d6089d2e6f4660c01b61399b565b6040517fee4e342b00000000000000000000000000000000000000000000000000000000815260040160405180910390fd5b611d0c67f487e9b19cbf00a460c01b61399b565b611d2067680c6775a468155660c01b61399b565b611d3467659a99b8d84ab55360c01b61399b565b6000828060a00190611d469190616334565b90509050611d5e679de696000ad5420e60c01b61399b565b611d72679a6fec8895c14c3560c01b61399b565b80838060600190611d839190616397565b905014611de457611d9e6776bbf43fb793070a60c01b61399b565b611db2675a01d7cf5b04845060c01b61399b565b6040517f2d1ebeb800000000000000000000000000000000000000000000000000000000815260040160405180910390fd5b611df867e11d6f37a7f5f75460c01b61399b565b611e0c67072d0c71bbd0dac860c01b61399b565b611e2067e616be460d66491b60c01b61399b565b80838060800190611e319190616397565b905014611e9257611e4c6720a405695bde0f5760c01b61399b565b611e60674f6314749c62d3af60c01b61399b565b6040517f2d1ebeb800000000000000000000000000000000000000000000000000000000815260040160405180910390fd5b611ea6673dfc986d7a3ab37d60c01b61399b565b611eba673aa8ff503ca3efaa60c01b61399b565b611ece6795c433d39b3fbd2d60c01b61399b565b6000611ee4676c0cf99a9db701dc60c01b61399b565b611ef867f3d0c476e62b73b460c01b61399b565b42848060a00190611f099190616334565b6000818110611f1b57611f1a616191565b5b9050602002013511611f8157611f3b677ef1a6b2aee7b55960c01b61399b565b611f4f67f5012e458d3c1fc160c01b61399b565b6040517fa3644e9f00000000000000000000000000000000000000000000000000000000815260040160405180910390fd5b611f95673ea8fe12aab2265260c01b61399b565b611fa967ab738a879241746e60c01b61399b565b611fbd6707241090ee69135e60c01b61399b565b60005b8281101561226657611fdc67eb98aae558a6daed60c01b61399b565b611ff0675b30191f5e2bef7660c01b61399b565b6000858060a001906120029190616334565b8381811061201357612012616191565b5b90506020020135905061203067d0c73fe856e64b3660c01b61399b565b6120446763fdbaffd61e0d7860c01b61399b565b8083106120a55761205f674bb634fe1484de8460c01b61399b565b61207367a43655ab1f26dad160c01b61399b565b6040517fb7d0949700000000000000000000000000000000000000000000000000000000815260040160405180910390fd5b6120b96766c013618e0abffc60c01b61399b565b6120cd67527dacaeb62bc36f60c01b61399b565b8092506120e467e8a28a0080dab34360c01b61399b565b6120f867be9f076c437edfbd60c01b61399b565b600086806060019061210a9190616397565b8481811061211b5761211a616191565b5b905060200281019061212d91906162a4565b8080601f016020809104026020016040519081016040528093929190818152602001838380828437600081840152601f19601f82011690508083019250505050505050905061218667d1739fcf7c5343dd60c01b61399b565b61219a6703f48de3af1dbcb360c01b61399b565b60008780608001906121ac9190616397565b858181106121bd576121bc616191565b5b90506020028101906121cf91906162a4565b8080601f016020809104026020016040519081016040528093929190818152602001838380828437600081840152601f19601f8201169050808301925050505050505090506122286755431bdbba06a2ff60c01b61399b565b61223c67de720b92ac62411f60c01b61399b565b6122508761224b84848761476d565b6147d6565b505050808061225e906161c0565b915050611fc0565b5061227b67f68eb6decdfc334860c01b61399b565b61228f6742150901c207f41a60c01b61399b565b818460c00160208101906122a39190616307565b60ff1610612305576122bf675d1996b48cb52b4460c01b61399b565b6122d3677d81b6b62a59982e60c01b61399b565b6040517f5861ac5e00000000000000000000000000000000000000000000000000000000815260040160405180910390fd5b61231967542382f81c2aed3860c01b61399b565b61232d67b09369ecd53f4e6460c01b61399b565b61234167a44881135c1bfd1460c01b61399b565b60008460e00135116123a7576123616760c4c8273a5c9e9760c01b61399b565b612375679a2012bddf7e279a60c01b61399b565b6040517fa8e0bc8500000000000000000000000000000000000000000000000000000000815260040160405180910390fd5b6123bb67ac8e0c252c3ccabf60c01b61399b565b6123cf67231f79fbd99fa90a60c01b61399b565b61248b338580600001906123e391906162a4565b8760200160208101906123f69190616307565b8860400135878a60c001602081019061240f9190616307565b8b60e001358c8060a001906124249190616334565b8e60c00160208101906124379190616307565b60ff1681811061244a57612449616191565b5b905060200201358d8060a001906124619190616334565b60018e61246e91906163fa565b81811061247e5761247d616191565b5b90506020020135426148a1565b6003600085815260200190815260200160002060008201518160000160006101000a81548173ffffffffffffffffffffffffffffffffffffffff021916908373ffffffffffffffffffffffffffffffffffffffff16021790555060208201518160010190816124fa919061642e565b5060408201518160020160006101000a81548160ff021916908360ff1602179055506060820151816003015560808201518160040160006101000a81548160ff021916908360ff16021790555060a08201518160040160016101000a81548160ff021916908360ff16021790555060c0820151816005015560e08201518160060155610100820151816007015561012082015181600801559050506125a96779bbd213ef6f516760c01b61399b565b6125bd67f40ef19090c4566060c01b61399b565b6125d3836125ce866040013561498b565b613f6b565b6125e767e58b12d7883ce7e560c01b61399b565b6125fb67269b61692f7ba63660c01b61399b565b823373ffffffffffffffffffffffffffffffffffffffff167f3eace93fd0c19b6c99d9bde3f97f64d4236c6d3d477771c0c3836fc25d376bb7846040516126429190615e3d565b60405180910390a361265e6797dfce3166af160d60c01b61399b565b61267267e2042b2449267c9c60c01b61399b565b5050919050565b60025481565b612687614a3f565b6126916000614abd565b565b61269b61544b565b6126af67352d197f19d6199d60c01b61399b565b6126c367e2a719190029c08960c01b61399b565b6126d76770b0932ffa06945e60c01b61399b565b60006126e28361399e565b90506126f86704de3c7219de5e0360c01b61399b565b61270c678d1fe0a69dec4a5860c01b61399b565b600061271784613b65565b905061272d67affa4d6f90ac318f60c01b61399b565b61274167093e8525b89fe69960c01b61399b565b600061274c85614b81565b905061276267cfc042ee9059c20960c01b61399b565b61276e83838342614ddb565b9350505050919050565b60008060009054906101000a900473ffffffffffffffffffffffffffffffffffffffff16905090565b6127b567a4f475e931e13cd360c01b61399b565b6127c9678bd48eb855025c1360c01b61399b565b6127dd67b860833ebc7717cb60c01b61399b565b60006127e88261399e565b90506127fe6762d20fe56b51a1bd60c01b61399b565b612812672aa70005cda0490c60c01b61399b565b600061281d83613b65565b905061283367c42f7f74ef55bec460c01b61399b565b61284767c36d5d2bc3ebbaa260c01b61399b565b6000600160009054906101000a900473ffffffffffffffffffffffffffffffffffffffff1673ffffffffffffffffffffffffffffffffffffffff166323b872dd3330886040518463ffffffff1660e01b81526004016128a893929190616500565b6020604051808303816000875af11580156128c7573d6000803e3d6000fd5b505050506040513d601f19601f820116820180604052508101906128eb919061656f565b9050612901673ae9a8f7a26293d660c01b61399b565b61291567b1e45e077d426ea660c01b61399b565b806129745761292e67a1a7723f9c4d99ef60c01b61399b565b61294267ce620c6679b7e0e660c01b61399b565b6040517fbfa871c500000000000000000000000000000000000000000000000000000000815260040160405180910390fd5b6129886748c663fbe1c6d68560c01b61399b565b61299c67754cab12d3d9d95760c01b61399b565b6129b067a0acb36463df59ef60c01b61399b565b3373ffffffffffffffffffffffffffffffffffffffff16836000015173ffffffffffffffffffffffffffffffffffffffff1603612bff576129fb673da0377133a6494060c01b61399b565b612a0f67775d6864d9da7b5d60c01b61399b565b612a2367af69b404ab26c81d60c01b61399b565b600082610100015160ff1614612a8d57612a4767e5303bae72fe559360c01b61399b565b612a5b6739ad974b41505b9060c01b61399b565b6040517f378f52d100000000000000000000000000000000000000000000000000000000815260040160405180910390fd5b612aa16743292c2106df118c60c01b61399b565b612ab567f7709e15371a006360c01b61399b565b612ac967ff745e6134eeb8e060c01b61399b565b84612ad384614378565b14612b4757612aec67cf0c511b6851e74660c01b61399b565b612b0067266eff3188a8e06160c01b61399b565b84612b0a84614378565b6040517f46d86618000000000000000000000000000000000000000000000000000000008152600401612b3e929190616208565b60405180910390fd5b612b5b672a877249ac3cb6d960c01b61399b565b612b6f671e1eadf0578349b660c01b61399b565b600182610100019060ff16908160ff1681525050612b976719d07c47e3f2674660c01b61399b565b612bab671b3774bd9736e65460c01b61399b565b833373ffffffffffffffffffffffffffffffffffffffff167fd9cf864d1e601dbe70e5c673d763a8737acf74d0e3a562e9dbfa2d9e932116d787604051612bf2919061591a565b60405180910390a3613111565b612c136780ecea4a6c5b267660c01b61399b565b612c2767e36a34f5112d734760c01b61399b565b612c3b674bf8f93482aa00a160c01b61399b565b600182610100015160ff1614612ca557612c5f67536a694d5a93333f60c01b61399b565b612c7367b66376ce429491cd60c01b61399b565b6040517f2dc7fe0f00000000000000000000000000000000000000000000000000000000815260040160405180910390fd5b612cb96703648df0160a9a6760c01b61399b565b612ccd6749641f83cc09540560c01b61399b565b612ce167815cec325aa5996860c01b61399b565b612cec83834261412a565b15612d4b57612d0567a1fd69c5d750353460c01b61399b565b612d196780ef0478f38b155f60c01b61399b565b6040517fd677665000000000000000000000000000000000000000000000000000000000815260040160405180910390fd5b612d5f67c6d89bc18907bfce60c01b61399b565b612d73670e4be30669d41e3d60c01b61399b565b612d8767be8476eb34b7398560c01b61399b565b8482600001511015612dfe57612da7674a75cd96ea77461760c01b61399b565b612dbb67a3ea60f798f903b560c01b61399b565b8482600001516040517fa3895ba2000000000000000000000000000000000000000000000000000000008152600401612df5929190616208565b60405180910390fd5b612e1267de56386f9ff6f63260c01b61399b565b612e26677905cdc7b787dde460c01b61399b565b8482600001818151612e3891906163fa565b91508181525050612e5367837f64b4ae85337e60c01b61399b565b8482602001818151612e659190615d67565b91508181525050612e806729b05b6ef358944860c01b61399b565b612e9467b034fa1bb6a6ddb760c01b61399b565b60006007600086815260200190815260200160002060003373ffffffffffffffffffffffffffffffffffffffff1673ffffffffffffffffffffffffffffffffffffffff168152602001908152602001600020549050612efd67aff0c0f4335a9e7c60c01b61399b565b612f1167be35693235a5764760c01b61399b565b60008103612ff857612f2d678f438d1c38aab7b660c01b61399b565b612f4167bea99508a42cc7ae60c01b61399b565b826040018051809190612f53906161c0565b81525050612f6b6733eca3e25cbefc9760c01b61399b565b612f7f67cb9e5748eb35202160c01b61399b565b60066000868152602001908152602001600020339080600181540180825580915050600190039060005260206000200160009091909190916101000a81548173ffffffffffffffffffffffffffffffffffffffff021916908373ffffffffffffffffffffffffffffffffffffffff16021790555061300d565b61300c67d84b270eec0e065160c01b61399b565b5b61302167af2f2614ae720c7960c01b61399b565b858161302d9190615d67565b905061304367c37c1e3f946d13a760c01b61399b565b806007600087815260200190815260200160002060003373ffffffffffffffffffffffffffffffffffffffff1673ffffffffffffffffffffffffffffffffffffffff168152602001908152602001600020819055506130ac6746d9d2663f2f4b4260c01b61399b565b6130c067c583a9cf1379dd2760c01b61399b565b843373ffffffffffffffffffffffffffffffffffffffff167ff5a91574d9882c88af7aa33d99f0db5413f71f214cffcc17de8d3821d6c7146088604051613107919061591a565b60405180910390a3505b6131256704c70fd578ad635660c01b61399b565b613139672d1c803b544e6a4060c01b61399b565b6131438483613f6b565b5050505050565b60006131606796f1cca3d0835cf160c01b61399b565b6131746742ec313f312586be60c01b61399b565b6007600084815260200190815260200160002060008373ffffffffffffffffffffffffffffffffffffffff1673ffffffffffffffffffffffffffffffffffffffff16815260200190815260200160002054905092915050565b6131e1672e684e8b845d77a460c01b61399b565b6131f567b89ac35edb06053c60c01b61399b565b613209676f898e9bb0e4c00060c01b61399b565b60006132148261399e565b905061322a67f1160408cf8f8ad560c01b61399b565b61323e67dbe66e384ecd381260c01b61399b565b600061324983613b65565b905061325f67a3a979ad7a7cad6760c01b61399b565b6132736776e659f3e050308260c01b61399b565b600181610100015160ff16146132dd5761329767dab24c2d270f6df860c01b61399b565b6132ab67f6273d215b49584760c01b61399b565b6040517f2dc7fe0f00000000000000000000000000000000000000000000000000000000815260040160405180910390fd5b6132f1679c9991e4b5eae43160c01b61399b565b613305673d9976d9b2c3caac60c01b61399b565b61331967705d1bd350edb6f060c01b61399b565b816000015173ffffffffffffffffffffffffffffffffffffffff163373ffffffffffffffffffffffffffffffffffffffff1614158015613361575061335f82824261412a565b155b156133c05761337a67e32daa027861ab7c60c01b61399b565b61338e6702ce52acaa34fcd960c01b61399b565b6040517fe8f82dd700000000000000000000000000000000000000000000000000000000815260040160405180910390fd5b6133d4675b481df22ce8f21560c01b61399b565b6133e867757d56db49ce4c7d60c01b61399b565b600281610100019060ff16908160ff16815250506134106789ef35e2503066a460c01b61399b565b428160a001818152505061342e67def4a0fa8fdc3de660c01b61399b565b61344267d19347055cf79d0960c01b61399b565b61344c8382613f6b565b61346067ddbd85e366e4eb8460c01b61399b565b6134746774434143af9d0b6060c01b61399b565b6000816020015161348484614378565b61348e9190615d67565b90506134a467765706884190a86660c01b61399b565b6134b867c0122cbcd561740460c01b61399b565b6000836080015190506134d5676d65c70adb07ef6560c01b61399b565b6134e96711f9298aa58207ce60c01b61399b565b60008360c00151826134fb9190615df9565b9050613511672894aa468608dd1760c01b61399b565b613525679b4d8cd67e980f2660c01b61399b565b60008160ff1614613811576135446771c5cae91571174760c01b61399b565b6135586781701f71691d7e3960c01b61399b565b61356c675a8b117e19aebf7d60c01b61399b565b60006006600088815260200190815260200160002080548060200260200160405190810160405280929190818152602001828054801561360157602002820191906000526020600020905b8160009054906101000a900473ffffffffffffffffffffffffffffffffffffffff1673ffffffffffffffffffffffffffffffffffffffff16815260200190600101908083116135b7575b5050505050905061361c6738ae300d2173160660c01b61399b565b6136306721ea1269d001960260c01b61399b565b60005b815181101561380a57613650679fa32adf8b7cf8af60c01b61399b565b613664677f79d6850e07f06360c01b61399b565b600082828151811061367957613678616191565b5b60200260200101519050613697673b308c78ce21841060c01b61399b565b6136ab67e2c172490cd1938f60c01b61399b565b6000600760008b815260200190815260200160002060008373ffffffffffffffffffffffffffffffffffffffff1673ffffffffffffffffffffffffffffffffffffffff16815260200190815260200160002054905061371467f8266058d868efd060c01b61399b565b613728674827bc74648727ec60c01b61399b565b600060648a6040015160ff168361373f919061659c565b613749919061660d565b826137549190615d67565b905061376a67b1b762a782256bfc60c01b61399b565b61377e67d2e575ffa5a6297f60c01b61399b565b60008760ff168760ff1683613793919061659c565b61379d919061660d565b90506137b367b2e963db838b869660c01b61399b565b6137c76733c58206fc83552e60c01b61399b565b6137d184826143cc565b6137e567a7c2ca13723db1d860c01b61399b565b80896137f191906163fa565b9850505050508080613802906161c0565b915050613633565b5050613826565b6138256781c61240c24d95bd60c01b61399b565b5b61383a676a67663314f4d57760c01b61399b565b61384e672acc031564ac572660c01b61399b565b60008311156138a65761386b678fa7d3b50ccfe04f60c01b61399b565b61387f67b98b4de6c747297160c01b61399b565b61389367c0c084947f7ed82d60c01b61399b565b6138a18560000151846143cc565b6138bb565b6138ba67ef4430a4eddc130c60c01b61399b565b5b6138cf67c7c45751bd3226dc60c01b61399b565b6138e367b965aa20aa58ad2a60c01b61399b565b857f14b4183e201be6a1b013e8a321c9dba34a041dfc6d26969f78276f430eec8e1660405160405180910390a2505050505050565b613920614a3f565b600073ffffffffffffffffffffffffffffffffffffffff168173ffffffffffffffffffffffffffffffffffffffff160361398f576040517f08c379a0000000000000000000000000000000000000000000000000000000008152600401613986906166c1565b60405180910390fd5b61399881614abd565b50565b50565b6139a66154e3565b6139ba674bdaca25b3fe169260c01b61399b565b6139ce6757f0e297abc1680460c01b61399b565b60036000838152602001908152602001600020604051806101400160405290816000820160009054906101000a900473ffffffffffffffffffffffffffffffffffffffff1673ffffffffffffffffffffffffffffffffffffffff1673ffffffffffffffffffffffffffffffffffffffff168152602001600182018054613a5390615e87565b80601f0160208091040260200160405190810160405280929190818152602001828054613a7f90615e87565b8015613acc5780601f10613aa157610100808354040283529160200191613acc565b820191906000526020600020905b815481529060010190602001808311613aaf57829003601f168201915b505050505081526020016002820160009054906101000a900460ff1660ff1660ff168152602001600382015481526020016004820160009054906101000a900460ff1660ff1660ff1681526020016004820160019054906101000a900460ff1660ff1660ff1681526020016005820154815260200160068201548152602001600782015481526020016008820154815250509050919050565b613b6d615555565b613b816763a61bdb1be9c0f260c01b61399b565b613b9567dc5f725fe6ee2ab960c01b61399b565b60046000838152602001908152602001600020604051806101200160405290816000820154815260200160018201548152602001600282015481526020016003820160009054906101000a900460ff161515151581526020016003820160019054906101000a900460ff16151515158152602001600482015481526020016005820160009054906101000a900460ff1660ff1660ff1681526020016005820160019054906101000a900460ff1660ff1660ff1681526020016005820160029054906101000a900460ff1660ff1660ff16815250509050919050565b613c786155ae565b613c8c671eeba401414da10a60c01b61399b565b613ca0675b5cf8f8c30729b160c01b61399b565b600560008481526020019081526020016000208281548110613cc557613cc4616191565b5b9060005260206000209060040201604051806080016040529081600082018054613cee90615e87565b80601f0160208091040260200160405190810160405280929190818152602001828054613d1a90615e87565b8015613d675780601f10613d3c57610100808354040283529160200191613d67565b820191906000526020600020905b815481529060010190602001808311613d4a57829003601f168201915b50505050508152602001600182018054613d8090615e87565b80601f0160208091040260200160405190810160405280929190818152602001828054613dac90615e87565b8015613df95780601f10613dce57610100808354040283529160200191613df9565b820191906000526020600020905b815481529060010190602001808311613ddc57829003601f168201915b5050505050815260200160028201548152602001600382018054613e1c90615e87565b80601f0160208091040260200160405190810160405280929190818152602001828054613e4890615e87565b8015613e955780601f10613e6a57610100808354040283529160200191613e95565b820191906000526020600020905b815481529060010190602001808311613e7857829003601f168201915b5050505050815250509050613eb46704f3653a58d4aea660c01b61399b565b613ec867cbc55c72dac8087b60c01b61399b565b92915050565b6000613ee4670f4701c9eea62d8b60c01b615373565b613ef8671b8fbcfef17cff3560c01b615373565b613f0c674f17f7ebb7b7d21c60c01b615373565b600082606001515114159050919050565b6000613f33675deafcaf3fe4cc1e60c01b615373565b613f476722608c2daef65dc360c01b615373565b613f5b6744f2a6d37d4be79760c01b615373565b8183604001511115905092915050565b613f7f671e1f8269df0a66ec60c01b61399b565b613f93673f7401a9ebbc4f2260c01b61399b565b806004600084815260200190815260200160002060008201518160000155602082015181600101556040820151816002015560608201518160030160006101000a81548160ff02191690831515021790555060808201518160030160016101000a81548160ff02191690831515021790555060a0820151816004015560c08201518160050160006101000a81548160ff021916908360ff16021790555060e08201518160050160016101000a81548160ff021916908360ff1602179055506101008201518160050160026101000a81548160ff021916908360ff1602179055509050505050565b61408e6778ae06832775745260c01b61399b565b6140a267fdadb6169231192560c01b61399b565b806005600085815260200190815260200160002083815481106140c8576140c7616191565b5b906000526020600020906004020160008201518160000190816140eb919061642e565b506020820151816001019081614101919061642e565b50604082015181600201556060820151816003019081614121919061642e565b50905050505050565b6000614140672681343860bac09360c01b615373565b61415467a0ba0cd92e3da3bd60c01b615373565b614168670ae35bef134b936f60c01b615373565b600183610100015160ff16146141bd5761418c67f828fb08515a003260c01b615373565b6141a067ef4218bd0176ba0a60c01b615373565b6141b467c55be2f0dfad4cd260c01b615373565b6000905061424a565b6141d16763521a486ae45e7c60c01b615373565b6141e567f433828196140f0960c01b615373565b6141f96792d116567cbf661960c01b615373565b8260800151801561421a575061421967379789a9dbdcccc160c01b615376565b5b80614247575061422a8483615381565b8015614246575061424567507edb8432702ef760c01b615376565b5b5b90505b9392505050565b600061426767b6c0ed97ee00fde760c01b615373565b61427b678d46eac51cfd0cc160c01b615373565b61428f67eef774677fb9b5c760c01b615373565b600183610100015160ff16146142e4576142b367ca07a9e5fc1d86e460c01b615373565b6142c76706d11f30ef775e1060c01b615373565b6142db67ff015bfb24714a6360c01b615373565b60009050614371565b6142f8679386e0a5176fa5fc60c01b615373565b61430c67a1825039d407707c60c01b615373565b61432067e88a07cba9667f6360c01b615373565b826060015180156143415750614340678816737553f5980f60c01b615376565b5b8061436e575061435184836153d0565b801561436d575061436c67f3fabd49047ddb9a60c01b615376565b5b5b90505b9392505050565b600061438e67aa19c9a6bcd73e1c60c01b615373565b6143a2675c64265e110ddcbb60c01b615373565b60648260600151836040015160ff166143bb919061659c565b6143c5919061660d565b9050919050565b6143e0673933896c1d1d55be60c01b61399b565b6143f46767d8e659cc381d2460c01b61399b565b614408670c2400978ff14a8f60c01b61399b565b6000600160009054906101000a900473ffffffffffffffffffffffffffffffffffffffff1673ffffffffffffffffffffffffffffffffffffffff1663a9059cbb84846040518363ffffffff1660e01b81526004016144679291906166e1565b6020604051808303816000875af1158015614486573d6000803e3d6000fd5b505050506040513d601f19601f820116820180604052508101906144aa919061656f565b90506144c067d0638322fc42c6af60c01b61399b565b6144d467f04959e1c719a52560c01b61399b565b80614533576144ed67ef038c35e407969c60c01b61399b565b61450167ea189fe31f33409060c01b61399b565b6040517fbfa871c500000000000000000000000000000000000000000000000000000000815260040160405180910390fd5b614547673726894cde73d90a60c01b61399b565b505050565b60008061456367116777f73ab6a6a660c01b615373565b61457767e3915308a1ac421f60c01b615373565b61458b6791e7ca2966a89b3560c01b615373565b6000846080015160ff1690506145ab67018127cbf3e2e9bf60c01b615373565b808660c0015160ff16856145bf919061659c565b6145c9919061660d565b91506145df673e48494e61bd503160c01b615373565b81846145eb91906163fa565b9250614601674cd5ff1e16aca39860c01b615373565b83866000018181516146139190615d67565b9150818152505061462e67979808be62da5bd060c01b615373565b838660200181815161464091906163fa565b9150818152505061465b676bbc8b2c8837323460c01b615373565b85604001805180919061466d9061670a565b8152505061468567c246e5f7e357acc260c01b615373565b614699676b3c7999001eb3c660c01b615373565b50935093915050565b60006146b8674aa2df61b1e9604d60c01b615373565b6146cc674ae7c0b5b11101ae60c01b615373565b81836000018181516146de9190615d67565b915081815250506146f967d5e22f24d2790fed60c01b615373565b818360200181815161470b91906163fa565b91508181525050614726677c61985a327f7a8060c01b615373565b8260400180518091906147389061670a565b81525050614750671b89e007f1fdf38e60c01b615373565b614764671af1f1d8c8fc438f60c01b615373565b81905092915050565b6147756155ae565b61478967f8afff0e452f71b360c01b615373565b61479d676716fb803401852a60c01b615373565b60405180608001604052808581526020018481526020018381526020016040518060200160405280600081525081525090509392505050565b6147ea6767268f73c23b6d3360c01b61399b565b6147fe678bcc5e38f5d1663a60c01b61399b565b61481267487861b3b17ce36360c01b61399b565b600560008381526020019081526020016000208190806001815401808255809150506001900390600052602060002090600402016000909190919091506000820151816000019081614864919061642e565b50602082015181600101908161487a919061642e565b5060408201518160020155606082015181600301908161489a919061642e565b5050505050565b6148a96154e3565b6148bd6721adb09af4c9c5ff60c01b615373565b6148d167c7f5bebe493f8a8260c01b615373565b6040518061014001604052808d73ffffffffffffffffffffffffffffffffffffffff1681526020018c8c8080601f016020809104026020016040519081016040528093929190818152602001838380828437600081840152601f19601f8201169050808301925050505050505081526020018a60ff1681526020018981526020018860ff1681526020018760ff1681526020018681526020018381526020018581526020018481525090509b9a5050505050505050505050565b614993615555565b6149a767f94259efef0f2c3f60c01b615373565b6149bb67a6cdeddefc7654f160c01b615373565b604051806101200160405280838152602001600081526020016000815260200160001515815260200160001515815260200160008152602001600060ff168152602001600060ff168152602001600060ff168152509050614a2667322bcd7cb42845e260c01b615373565b614a3a67d7b6c3d7f22a4f8b60c01b615373565b919050565b614a4761541f565b73ffffffffffffffffffffffffffffffffffffffff16614a65612778565b73ffffffffffffffffffffffffffffffffffffffff1614614abb576040517f08c379a0000000000000000000000000000000000000000000000000000000008152600401614ab29061677f565b60405180910390fd5b565b60008060009054906101000a900473ffffffffffffffffffffffffffffffffffffffff169050816000806101000a81548173ffffffffffffffffffffffffffffffffffffffff021916908373ffffffffffffffffffffffffffffffffffffffff1602179055508173ffffffffffffffffffffffffffffffffffffffff168173ffffffffffffffffffffffffffffffffffffffff167f8be0079c531659141344cd1fd0a4f28419497f9722a3daafe3b4186f6b6457e060405160405180910390a35050565b6060614b97670392ec0404ab762d60c01b61399b565b614bab6715092ca99e91b9c060c01b61399b565b60056000838152602001908152602001600020805480602002602001604051908101604052809291908181526020016000905b82821015614dd05783829060005260206000209060040201604051806080016040529081600082018054614c1190615e87565b80601f0160208091040260200160405190810160405280929190818152602001828054614c3d90615e87565b8015614c8a5780601f10614c5f57610100808354040283529160200191614c8a565b820191906000526020600020905b815481529060010190602001808311614c6d57829003601f168201915b50505050508152602001600182018054614ca390615e87565b80601f0160208091040260200160405190810160405280929190818152602001828054614ccf90615e87565b8015614d1c5780601f10614cf157610100808354040283529160200191614d1c565b820191906000526020600020905b815481529060010190602001808311614cff57829003601f168201915b5050505050815260200160028201548152602001600382018054614d3f90615e87565b80601f0160208091040260200160405190810160405280929190818152602001828054614d6b90615e87565b8015614db85780601f10614d8d57610100808354040283529160200191614db8565b820191906000526020600020905b815481529060010190602001808311614d9b57829003601f168201915b50505050508152505081526020019060010190614bde565b505050509050919050565b614de361544b565b614df767838abdac09ec8fa660c01b615373565b614e0b6747d456ada822fda260c01b615373565b604051806101e0016040528086602001518152602001866000015173ffffffffffffffffffffffffffffffffffffffff168152602001838152602001866040015160ff16815260200186606001518152602001866080015160ff1681526020018481526020018660a0015160ff1681526020018660c0015181526020018560a0015181526020018560e0015160ff1681526020018560000151815260200185604001518152602001604051806020016040528060008152508152602001604051806020016040528060008152508152509050614ef16729165b85f0b9186260c01b615373565b614f056770f7bd6f7d8e98e560c01b615373565b600084610100015160ff1603614fae57614f29676e8bd8f0712e794860c01b615373565b614f3d673eb2714337c3f0ab60c01b615373565b6040518060400160405280600781526020017f50454e44494e4700000000000000000000000000000000000000000000000000815250816101a00181905250614f9067b907c70d2c69d59e60c01b615373565b60405180602001604052806000815250816101c0018190525061536b565b614fc267ad388ca124de949b60c01b615373565b614fd66757a80c15336145e460c01b615373565b600184610100015160ff160361520357614ffa67b170b2c97971df9060c01b615373565b61500e679a864bbb8226c8ac60c01b615373565b6040518060400160405280600781526020017f4f4e474f494e4700000000000000000000000000000000000000000000000000815250816101a00181905250615061679c2a9e1c1dd000e060c01b615373565b615075671487f0423f2f2ad560c01b615373565b61508085858461412a565b156150f157615099672790830a0e39e38760c01b615373565b6150ad67c2dc1da0d87cbd7360c01b615373565b6040518060400160405280600f81526020017f52656164792d546f2d46696e6973680000000000000000000000000000000000815250816101c001819052506151fe565b615105675449132ef80a6a7260c01b615373565b6151196706d763386ddcb51a60c01b615373565b615124858584614251565b156151955761513d67e67cfa10d6f05d3660c01b615373565b615151674e608c1389b4c7de60c01b615373565b6040518060400160405280600681526020017f4163746976650000000000000000000000000000000000000000000000000000815250816101c001819052506151fd565b6151a9675cc3b6a83306ac6a60c01b615373565b6151bd672fecced517f1d4d960c01b615373565b6040518060400160405280600481526020017f4f70656e00000000000000000000000000000000000000000000000000000000815250816101c001819052505b5b61536a565b61521767c596f033959c4dff60c01b615373565b61522b679dd39272cbf3214660c01b615373565b600284610100015160ff16036152d45761524f677c1e96aa5bb1174260c01b615373565b615263678ed1ce259e66687460c01b615373565b6040518060400160405280600881526020017f46494e4953484544000000000000000000000000000000000000000000000000815250816101a001819052506152b667c16252c3a3a7bcaf60c01b615373565b60405180602001604052806000815250816101c00181905250615369565b6152e8671dbca687a0148da960c01b615373565b6152fc678279c8cf32d10c4960c01b615373565b6040518060400160405280600781526020017f554e4b4e4f574e00000000000000000000000000000000000000000000000000815250816101a0018190525061534f67aec6a48a45dc208460c01b615373565b60405180602001604052806000815250816101c001819052505b5b5b949350505050565b50565b600060019050919050565b6000615397676d3bd08da6db971260c01b615373565b6153ab67b8ed54f869379d2360c01b615373565b6153bf676e6b895cb89a6b6f60c01b615373565b818361012001511115905092915050565b60006153e667e0d2ae598cf5eb8660c01b615373565b6153fa67fd47442b2f85532c60c01b615373565b61540e676860eb42c43f986e60c01b615373565b818361010001511115905092915050565b600033905090565b508054600082556004029060005260206000209081019061544891906155d6565b50565b604051806101e0016040528060608152602001600073ffffffffffffffffffffffffffffffffffffffff16815260200160008152602001600060ff16815260200160008152602001600060ff16815260200160608152602001600060ff1681526020016000815260200160008152602001600060ff168152602001600081526020016000815260200160608152602001606081525090565b604051806101400160405280600073ffffffffffffffffffffffffffffffffffffffff16815260200160608152602001600060ff16815260200160008152602001600060ff168152602001600060ff168152602001600081526020016000815260200160008152602001600081525090565b60405180610120016040528060008152602001600081526020016000815260200160001515815260200160001515815260200160008152602001600060ff168152602001600060ff168152602001600060ff1681525090565b6040518060800160405280606081526020016060815260200160008152602001606081525090565b5b8082111561562157600080820160006155f09190615625565b6001820160006156009190615625565b60028201600090556003820160006156189190615625565b506004016155d7565b5090565b50805461563190615e87565b6000825580601f106156435750615662565b601f0160209004906000526020600020908101906156619190615665565b5b50565b5b8082111561567e576000816000905550600101615666565b5090565b600080fd5b600080fd5b6000819050919050565b61569f8161568c565b81146156aa57600080fd5b50565b6000813590506156bc81615696565b92915050565b600080604083850312156156d9576156d8615682565b5b60006156e7858286016156ad565b92505060206156f8858286016156ad565b9150509250929050565b600073ffffffffffffffffffffffffffffffffffffffff82169050919050565b600061572d82615702565b9050919050565b61573d81615722565b82525050565b60006020820190506157586000830184615734565b92915050565b600060ff82169050919050565b6157748161575e565b811461577f57600080fd5b50565b6000813590506157918161576b565b92915050565b600080fd5b600080fd5b600080fd5b60008083601f8401126157bc576157bb615797565b5b8235905067ffffffffffffffff8111156157d9576157d861579c565b5b6020830191508360018202830111156157f5576157f46157a1565b5b9250929050565b6000806000806060858703121561581657615815615682565b5b6000615824878288016156ad565b945050602061583587828801615782565b935050604085013567ffffffffffffffff81111561585657615855615687565b5b615862878288016157a6565b925092505092959194509250565b60006020828403121561588657615885615682565b5b6000615894848285016156ad565b91505092915050565b600080fd5b600061010082840312156158b9576158b861589d565b5b81905092915050565b6000602082840312156158d8576158d7615682565b5b600082013567ffffffffffffffff8111156158f6576158f5615687565b5b615902848285016158a2565b91505092915050565b6159148161568c565b82525050565b600060208201905061592f600083018461590b565b92915050565b600081519050919050565b600082825260208201905092915050565b60005b8381101561596f578082015181840152602081019050615954565b60008484015250505050565b6000601f19601f8301169050919050565b600061599782615935565b6159a18185615940565b93506159b1818560208601615951565b6159ba8161597b565b840191505092915050565b6159ce81615722565b82525050565b6159dd8161568c565b82525050565b6159ec8161575e565b82525050565b600081519050919050565b600082825260208201905092915050565b6000819050602082019050919050565b60006080830160008301518482036000860152615a3b828261598c565b91505060208301518482036020860152615a55828261598c565b9150506040830151615a6a60408601826159d4565b5060608301518482036060860152615a82828261598c565b9150508091505092915050565b6000615a9b8383615a1e565b905092915050565b6000602082019050919050565b6000615abb826159f2565b615ac581856159fd565b935083602082028501615ad785615a0e565b8060005b85811015615b135784840389528151615af48582615a8f565b9450615aff83615aa3565b925060208a01995050600181019050615adb565b50829750879550505050505092915050565b60006101e0830160008301518482036000860152615b43828261598c565b9150506020830151615b5860208601826159c5565b506040830151615b6b60408601826159d4565b506060830151615b7e60608601826159e3565b506080830151615b9160808601826159d4565b5060a0830151615ba460a08601826159e3565b5060c083015184820360c0860152615bbc8282615ab0565b91505060e0830151615bd160e08601826159e3565b50610100830151615be66101008601826159d4565b50610120830151615bfb6101208601826159d4565b50610140830151615c106101408601826159e3565b50610160830151615c256101608601826159d4565b50610180830151615c3a6101808601826159d4565b506101a08301518482036101a0860152615c54828261598c565b9150506101c08301518482036101c0860152615c70828261598c565b9150508091505092915050565b60006020820190508181036000830152615c978184615b25565b905092915050565b615ca881615722565b8114615cb357600080fd5b50565b600081359050615cc581615c9f565b92915050565b60008060408385031215615ce257615ce1615682565b5b6000615cf0858286016156ad565b9250506020615d0185828601615cb6565b9150509250929050565b600060208284031215615d2157615d20615682565b5b6000615d2f84828501615cb6565b91505092915050565b7f4e487b7100000000000000000000000000000000000000000000000000000000600052601160045260246000fd5b6000615d728261568c565b9150615d7d8361568c565b9250828201905080821115615d9557615d94615d38565b5b92915050565b6000615da68261575e565b9150615db18361575e565b9250828201905060ff811115615dca57615dc9615d38565b5b92915050565b6000615ddb8261575e565b915060ff8203615dee57615ded615d38565b5b600182019050919050565b6000615e048261575e565b9150615e0f8361575e565b9250828203905060ff811115615e2857615e27615d38565b5b92915050565b615e378161575e565b82525050565b6000602082019050615e526000830184615e2e565b92915050565b7f4e487b7100000000000000000000000000000000000000000000000000000000600052602260045260246000fd5b60006002820490506001821680615e9f57607f821691505b602082108103615eb257615eb1615e58565b5b50919050565b600081549050615ec781615e87565b9050919050565b7f4e487b7100000000000000000000000000000000000000000000000000000000600052604160045260246000fd5b60008190508160005260206000209050919050565b60006020601f8301049050919050565b600082821b905092915050565b600060088302615f5f7fffffffffffffffffffffffffffffffffffffffffffffffffffffffffffffffff82615f22565b615f698683615f22565b95508019841693508086168417925050509392505050565b6000819050919050565b6000615fa6615fa1615f9c8461568c565b615f81565b61568c565b9050919050565b6000819050919050565b615fc083615f8b565b615fd4615fcc82615fad565b848454615f2f565b825550505050565b600090565b615fe9615fdc565b615ff4818484615fb7565b505050565b5b818110156160185761600d600082615fe1565b600181019050615ffa565b5050565b601f82111561605d5761602e81615efd565b61603784615f12565b81016020851015616046578190505b61605a61605285615f12565b830182615ff9565b50505b505050565b600082821c905092915050565b600061608060001984600802616062565b1980831691505092915050565b6000616099838361606f565b9150826002028217905092915050565b8181036160b757505061618f565b6160c082615eb8565b67ffffffffffffffff8111156160d9576160d8615ece565b5b6160e38254615e87565b6160ee82828561601c565b6000601f83116001811461611d576000841561610b578287015490505b616115858261608d565b865550616188565b601f19841661612b87615efd565b965061613686615efd565b60005b8281101561615e57848901548255600182019150600185019450602081019050616139565b8683101561617b5784890154616177601f89168261606f565b8355505b6001600288020188555050505b5050505050505b565b7f4e487b7100000000000000000000000000000000000000000000000000000000600052603260045260246000fd5b60006161cb8261568c565b91507fffffffffffffffffffffffffffffffffffffffffffffffffffffffffffffffff82036161fd576161fc615d38565b5b600182019050919050565b600060408201905061621d600083018561590b565b61622a602083018461590b565b9392505050565b6000819050919050565b600061625661625161624c84616231565b615f81565b61568c565b9050919050565b6162668161623b565b82525050565b6000604082019050616281600083018561590b565b61628e602083018461625d565b9392505050565b600080fd5b600080fd5b600080fd5b600080833560016020038436030381126162c1576162c0616295565b5b80840192508235915067ffffffffffffffff8211156162e3576162e261629a565b5b6020830192506001820236038313156162ff576162fe61629f565b5b509250929050565b60006020828403121561631d5761631c615682565b5b600061632b84828501615782565b91505092915050565b6000808335600160200384360303811261635157616350616295565b5b80840192508235915067ffffffffffffffff8211156163735761637261629a565b5b60208301925060208202360383131561638f5761638e61629f565b5b509250929050565b600080833560016020038436030381126163b4576163b3616295565b5b80840192508235915067ffffffffffffffff8211156163d6576163d561629a565b5b6020830192506020820236038313156163f2576163f161629f565b5b509250929050565b60006164058261568c565b91506164108361568c565b925082820390508181111561642857616427615d38565b5b92915050565b61643782615935565b67ffffffffffffffff8111156164505761644f615ece565b5b61645a8254615e87565b61646582828561601c565b600060209050601f8311600181146164985760008415616486578287015190505b616490858261608d565b8655506164f8565b601f1984166164a686615efd565b60005b828110156164ce578489015182556001820191506020850194506020810190506164a9565b868310156164eb57848901516164e7601f89168261606f565b8355505b6001600288020188555050505b505050505050565b60006060820190506165156000830186615734565b6165226020830185615734565b61652f604083018461590b565b949350505050565b60008115159050919050565b61654c81616537565b811461655757600080fd5b50565b60008151905061656981616543565b92915050565b60006020828403121561658557616584615682565b5b60006165938482850161655a565b91505092915050565b60006165a78261568c565b91506165b28361568c565b92508282026165c08161568c565b915082820484148315176165d7576165d6615d38565b5b5092915050565b7f4e487b7100000000000000000000000000000000000000000000000000000000600052601260045260246000fd5b60006166188261568c565b91506166238361568c565b925082616633576166326165de565b5b828204905092915050565b600082825260208201905092915050565b7f4f776e61626c653a206e6577206f776e657220697320746865207a65726f206160008201527f6464726573730000000000000000000000000000000000000000000000000000602082015250565b60006166ab60268361663e565b91506166b68261664f565b604082019050919050565b600060208201905081810360008301526166da8161669e565b9050919050565b60006040820190506166f66000830185615734565b616703602083018461590b565b9392505050565b60006167158261568c565b91506000820361672857616727615d38565b5b600182039050919050565b7f4f776e61626c653a2063616c6c6572206973206e6f7420746865206f776e6572600082015250565b600061676960208361663e565b915061677482616733565b602082019050919050565b600060208201905081810360008301526167988161675c565b905091905056fea26469706673582212200040aa8eb6a6a37706cdbd1a8e62410befcf7ff7c019e77ef9522c084354c8a564736f6c63430008110033","opcodes":"PUSH1 0x80 PUSH1 0x40 MSTORE CALLVALUE DUP1 ISZERO PUSH3 0x11 JUMPI PUSH1 0x0 DUP1 REVERT JUMPDEST POP PUSH1 0x40 MLOAD PUSH3 0x6A3B CODESIZE SUB DUP1 PUSH3 0x6A3B DUP4 CODECOPY DUP2 DUP2 ADD PUSH1 0x40 MSTORE DUP2 ADD SWAP1 PUSH3 0x37 SWAP2 SWAP1 PUSH3 0x224 JUMP JUMPDEST PUSH3 0x57 PUSH3 0x4B PUSH3 0xD7 PUSH1 0x20 SHL PUSH1 0x20 SHR JUMP JUMPDEST PUSH3 0xDF PUSH1 0x20 SHL PUSH1 0x20 SHR JUMP JUMPDEST PUSH3 0x73 PUSH8 0xE6AD38ED4B7F5320 PUSH1 0xC0 SHL PUSH3 0x1A3 PUSH1 0x20 SHL PUSH1 0x20 SHR JUMP JUMPDEST PUSH3 0x8F PUSH8 0x3B8734EB42D1AB39 PUSH1 0xC0 SHL PUSH3 0x1A3 PUSH1 0x20 SHL PUSH1 0x20 SHR JUMP JUMPDEST DUP1 PUSH1 0x1 PUSH1 0x0 PUSH2 0x100 EXP DUP2 SLOAD DUP2 PUSH20 0xFFFFFFFFFFFFFFFFFFFFFFFFFFFFFFFFFFFFFFFF MUL NOT AND SWAP1 DUP4 PUSH20 0xFFFFFFFFFFFFFFFFFFFFFFFFFFFFFFFFFFFFFFFF AND MUL OR SWAP1 SSTORE POP POP PUSH3 0x256 JUMP JUMPDEST PUSH1 0x0 CALLER SWAP1 POP SWAP1 JUMP JUMPDEST PUSH1 0x0 DUP1 PUSH1 0x0 SWAP1 SLOAD SWAP1 PUSH2 0x100 EXP SWAP1 DIV PUSH20 0xFFFFFFFFFFFFFFFFFFFFFFFFFFFFFFFFFFFFFFFF AND SWAP1 POP DUP2 PUSH1 0x0 DUP1 PUSH2 0x100 EXP DUP2 SLOAD DUP2 PUSH20 0xFFFFFFFFFFFFFFFFFFFFFFFFFFFFFFFFFFFFFFFF MUL NOT AND SWAP1 DUP4 PUSH20 0xFFFFFFFFFFFFFFFFFFFFFFFFFFFFFFFFFFFFFFFF AND MUL OR SWAP1 SSTORE POP DUP2 PUSH20 0xFFFFFFFFFFFFFFFFFFFFFFFFFFFFFFFFFFFFFFFF AND DUP2 PUSH20 0xFFFFFFFFFFFFFFFFFFFFFFFFFFFFFFFFFFFFFFFF AND PUSH32 0x8BE0079C531659141344CD1FD0A4F28419497F9722A3DAAFE3B4186F6B6457E0 PUSH1 0x40 MLOAD PUSH1 0x40 MLOAD DUP1 SWAP2 SUB SWAP1 LOG3 POP POP JUMP JUMPDEST POP JUMP JUMPDEST PUSH1 0x0 DUP1 REVERT JUMPDEST PUSH1 0x0 PUSH20 0xFFFFFFFFFFFFFFFFFFFFFFFFFFFFFFFFFFFFFFFF DUP3 AND SWAP1 POP SWAP2 SWAP1 POP JUMP JUMPDEST PUSH1 0x0 PUSH3 0x1D8 DUP3 PUSH3 0x1AB JUMP JUMPDEST SWAP1 POP SWAP2 SWAP1 POP JUMP JUMPDEST PUSH1 0x0 PUSH3 0x1EC DUP3 PUSH3 0x1CB JUMP JUMPDEST SWAP1 POP SWAP2 SWAP1 POP JUMP JUMPDEST PUSH3 0x1FE DUP2 PUSH3 0x1DF JUMP JUMPDEST DUP2 EQ PUSH3 0x20A JUMPI PUSH1 0x0 DUP1 REVERT JUMPDEST POP JUMP JUMPDEST PUSH1 0x0 DUP2 MLOAD SWAP1 POP PUSH3 0x21E DUP2 PUSH3 0x1F3 JUMP JUMPDEST SWAP3 SWAP2 POP POP JUMP JUMPDEST PUSH1 0x0 PUSH1 0x20 DUP3 DUP5 SUB SLT ISZERO PUSH3 0x23D JUMPI PUSH3 0x23C PUSH3 0x1A6 JUMP JUMPDEST JUMPDEST PUSH1 0x0 PUSH3 0x24D DUP5 DUP3 DUP6 ADD PUSH3 0x20D JUMP JUMPDEST SWAP2 POP POP SWAP3 SWAP2 POP POP JUMP JUMPDEST PUSH2 0x67D5 DUP1 PUSH3 0x266 PUSH1 0x0 CODECOPY PUSH1 0x0 RETURN INVALID PUSH1 0x80 PUSH1 0x40 MSTORE CALLVALUE DUP1 ISZERO PUSH2 0x10 JUMPI PUSH1 0x0 DUP1 REVERT JUMPDEST POP PUSH1 0x4 CALLDATASIZE LT PUSH2 0xCF JUMPI PUSH1 0x0 CALLDATALOAD PUSH1 0xE0 SHR DUP1 PUSH4 0x715018A6 GT PUSH2 0x8C JUMPI DUP1 PUSH4 0xB5BF2ECF GT PUSH2 0x66 JUMPI DUP1 PUSH4 0xB5BF2ECF EQ PUSH2 0x1FE JUMPI DUP1 PUSH4 0xDC7D8005 EQ PUSH2 0x21A JUMPI DUP1 PUSH4 0xE4F23E61 EQ PUSH2 0x24A JUMPI DUP1 PUSH4 0xF2FDE38B EQ PUSH2 0x266 JUMPI PUSH2 0xCF JUMP JUMPDEST DUP1 PUSH4 0x715018A6 EQ PUSH2 0x1A6 JUMPI DUP1 PUSH4 0x7F901D7A EQ PUSH2 0x1B0 JUMPI DUP1 PUSH4 0x8DA5CB5B EQ PUSH2 0x1E0 JUMPI PUSH2 0xCF JUMP JUMPDEST DUP1 PUSH4 0xB6B90A9 EQ PUSH2 0xD4 JUMPI DUP1 PUSH4 0xF9F5C5B EQ PUSH2 0x104 JUMPI DUP1 PUSH4 0x24941147 EQ PUSH2 0x120 JUMPI DUP1 PUSH4 0x278ECDE1 EQ PUSH2 0x13C JUMPI DUP1 PUSH4 0x5AD99C3F EQ PUSH2 0x158 JUMPI DUP1 PUSH4 0x61BC221A EQ PUSH2 0x188 JUMPI JUMPDEST PUSH1 0x0 DUP1 REVERT JUMPDEST PUSH2 0xEE PUSH1 0x4 DUP1 CALLDATASIZE SUB DUP2 ADD SWAP1 PUSH2 0xE9 SWAP2 SWAP1 PUSH2 0x56C2 JUMP JUMPDEST PUSH2 0x282 JUMP JUMPDEST PUSH1 0x40 MLOAD PUSH2 0xFB SWAP2 SWAP1 PUSH2 0x5743 JUMP JUMPDEST PUSH1 0x40 MLOAD DUP1 SWAP2 SUB SWAP1 RETURN JUMPDEST PUSH2 0x11E PUSH1 0x4 DUP1 CALLDATASIZE SUB DUP2 ADD SWAP1 PUSH2 0x119 SWAP2 SWAP1 PUSH2 0x57FC JUMP JUMPDEST PUSH2 0x2D0 JUMP JUMPDEST STOP JUMPDEST PUSH2 0x13A PUSH1 0x4 DUP1 CALLDATASIZE SUB DUP2 ADD SWAP1 PUSH2 0x135 SWAP2 SWAP1 PUSH2 0x5870 JUMP JUMPDEST PUSH2 0xBD8 JUMP JUMPDEST STOP JUMPDEST PUSH2 0x156 PUSH1 0x4 DUP1 CALLDATASIZE SUB DUP2 ADD SWAP1 PUSH2 0x151 SWAP2 SWAP1 PUSH2 0x5870 JUMP JUMPDEST PUSH2 0x14BE JUMP JUMPDEST STOP JUMPDEST PUSH2 0x172 PUSH1 0x4 DUP1 CALLDATASIZE SUB DUP2 ADD SWAP1 PUSH2 0x16D SWAP2 SWAP1 PUSH2 0x58C2 JUMP JUMPDEST PUSH2 0x1AAB JUMP JUMPDEST PUSH1 0x40 MLOAD PUSH2 0x17F SWAP2 SWAP1 PUSH2 0x591A JUMP JUMPDEST PUSH1 0x40 MLOAD DUP1 SWAP2 SUB SWAP1 RETURN JUMPDEST PUSH2 0x190 PUSH2 0x2679 JUMP JUMPDEST PUSH1 0x40 MLOAD PUSH2 0x19D SWAP2 SWAP1 PUSH2 0x591A JUMP JUMPDEST PUSH1 0x40 MLOAD DUP1 SWAP2 SUB SWAP1 RETURN JUMPDEST PUSH2 0x1AE PUSH2 0x267F JUMP JUMPDEST STOP JUMPDEST PUSH2 0x1CA PUSH1 0x4 DUP1 CALLDATASIZE SUB DUP2 ADD SWAP1 PUSH2 0x1C5 SWAP2 SWAP1 PUSH2 0x5870 JUMP JUMPDEST PUSH2 0x2693 JUMP JUMPDEST PUSH1 0x40 MLOAD PUSH2 0x1D7 SWAP2 SWAP1 PUSH2 0x5C7D JUMP JUMPDEST PUSH1 0x40 MLOAD DUP1 SWAP2 SUB SWAP1 RETURN JUMPDEST PUSH2 0x1E8 PUSH2 0x2778 JUMP JUMPDEST PUSH1 0x40 MLOAD PUSH2 0x1F5 SWAP2 SWAP1 PUSH2 0x5743 JUMP JUMPDEST PUSH1 0x40 MLOAD DUP1 SWAP2 SUB SWAP1 RETURN JUMPDEST PUSH2 0x218 PUSH1 0x4 DUP1 CALLDATASIZE SUB DUP2 ADD SWAP1 PUSH2 0x213 SWAP2 SWAP1 PUSH2 0x56C2 JUMP JUMPDEST PUSH2 0x27A1 JUMP JUMPDEST STOP JUMPDEST PUSH2 0x234 PUSH1 0x4 DUP1 CALLDATASIZE SUB DUP2 ADD SWAP1 PUSH2 0x22F SWAP2 SWAP1 PUSH2 0x5CCB JUMP JUMPDEST PUSH2 0x314A JUMP JUMPDEST PUSH1 0x40 MLOAD PUSH2 0x241 SWAP2 SWAP1 PUSH2 0x591A JUMP JUMPDEST PUSH1 0x40 MLOAD DUP1 SWAP2 SUB SWAP1 RETURN JUMPDEST PUSH2 0x264 PUSH1 0x4 DUP1 CALLDATASIZE SUB DUP2 ADD SWAP1 PUSH2 0x25F SWAP2 SWAP1 PUSH2 0x5870 JUMP JUMPDEST PUSH2 0x31CD JUMP JUMPDEST STOP JUMPDEST PUSH2 0x280 PUSH1 0x4 DUP1 CALLDATASIZE SUB DUP2 ADD SWAP1 PUSH2 0x27B SWAP2 SWAP1 PUSH2 0x5D0B JUMP JUMPDEST PUSH2 0x3918 JUMP JUMPDEST STOP JUMPDEST PUSH1 0x6 PUSH1 0x20 MSTORE DUP2 PUSH1 0x0 MSTORE PUSH1 0x40 PUSH1 0x0 KECCAK256 DUP2 DUP2 SLOAD DUP2 LT PUSH2 0x29E JUMPI PUSH1 0x0 DUP1 REVERT JUMPDEST SWAP1 PUSH1 0x0 MSTORE PUSH1 0x20 PUSH1 0x0 KECCAK256 ADD PUSH1 0x0 SWAP2 POP SWAP2 POP SWAP1 SLOAD SWAP1 PUSH2 0x100 EXP SWAP1 DIV PUSH20 0xFFFFFFFFFFFFFFFFFFFFFFFFFFFFFFFFFFFFFFFF AND DUP2 JUMP JUMPDEST PUSH2 0x2E4 PUSH8 0x2A1A9A2ABDF10154 PUSH1 0xC0 SHL PUSH2 0x399B JUMP JUMPDEST PUSH2 0x2F8 PUSH8 0x76CA8A1963ABCFDD PUSH1 0xC0 SHL PUSH2 0x399B JUMP JUMPDEST PUSH2 0x30C PUSH8 0x4B78C3D22F170311 PUSH1 0xC0 SHL PUSH2 0x399B JUMP JUMPDEST PUSH1 0x0 PUSH2 0x317 DUP6 PUSH2 0x399E JUMP JUMPDEST SWAP1 POP PUSH2 0x32D PUSH8 0xC8CA34947BE88F22 PUSH1 0xC0 SHL PUSH2 0x399B JUMP JUMPDEST PUSH2 0x341 PUSH8 0x65FDA1CA8585E877 PUSH1 0xC0 SHL PUSH2 0x399B JUMP JUMPDEST DUP1 PUSH1 0x0 ADD MLOAD PUSH20 0xFFFFFFFFFFFFFFFFFFFFFFFFFFFFFFFFFFFFFFFF AND CALLER PUSH20 0xFFFFFFFFFFFFFFFFFFFFFFFFFFFFFFFFFFFFFFFF AND EQ PUSH2 0x3D2 JUMPI PUSH2 0x38C PUSH8 0x7445368084539200 PUSH1 0xC0 SHL PUSH2 0x399B JUMP JUMPDEST PUSH2 0x3A0 PUSH8 0xBD26D8E5AD3AC5F2 PUSH1 0xC0 SHL PUSH2 0x399B JUMP JUMPDEST PUSH1 0x40 MLOAD PUSH32 0x8BAA579F00000000000000000000000000000000000000000000000000000000 DUP2 MSTORE PUSH1 0x4 ADD PUSH1 0x40 MLOAD DUP1 SWAP2 SUB SWAP1 REVERT JUMPDEST PUSH2 0x3E6 PUSH8 0xD8B16ECCB01F6220 PUSH1 0xC0 SHL PUSH2 0x399B JUMP JUMPDEST PUSH2 0x3FA PUSH8 0x41D85EFF87DA4206 PUSH1 0xC0 SHL PUSH2 0x399B JUMP JUMPDEST PUSH2 0x40E PUSH8 0x8C732B4E115AB0F8 PUSH1 0xC0 SHL PUSH2 0x399B JUMP JUMPDEST PUSH1 0x0 PUSH2 0x419 DUP7 PUSH2 0x3B65 JUMP JUMPDEST SWAP1 POP PUSH2 0x42F PUSH8 0xD39032D83BCD43CA PUSH1 0xC0 SHL PUSH2 0x399B JUMP JUMPDEST PUSH2 0x443 PUSH8 0x18D8EDCCE4251761 PUSH1 0xC0 SHL PUSH2 0x399B JUMP JUMPDEST PUSH1 0x1 DUP2 PUSH2 0x100 ADD MLOAD PUSH1 0xFF AND EQ PUSH2 0x4AD JUMPI PUSH2 0x467 PUSH8 0xFB9EAD077641A9AE PUSH1 0xC0 SHL PUSH2 0x399B JUMP JUMPDEST PUSH2 0x47B PUSH8 0x7420719582A2A2F PUSH1 0xC0 SHL PUSH2 0x399B JUMP JUMPDEST PUSH1 0x40 MLOAD PUSH32 0x2DC7FE0F00000000000000000000000000000000000000000000000000000000 DUP2 MSTORE PUSH1 0x4 ADD PUSH1 0x40 MLOAD DUP1 SWAP2 SUB SWAP1 REVERT JUMPDEST PUSH2 0x4C1 PUSH8 0xC4489392263436D2 PUSH1 0xC0 SHL PUSH2 0x399B JUMP JUMPDEST PUSH2 0x4D5 PUSH8 0xC749841BCB413858 PUSH1 0xC0 SHL PUSH2 0x399B JUMP JUMPDEST PUSH2 0x4E9 PUSH8 0x699185726393BD96 PUSH1 0xC0 SHL PUSH2 0x399B JUMP JUMPDEST PUSH1 0x0 PUSH2 0x4F8 DUP8 DUP8 PUSH1 0xFF AND PUSH2 0x3C70 JUMP JUMPDEST SWAP1 POP PUSH2 0x50E PUSH8 0xDE0414202CB8BBE8 PUSH1 0xC0 SHL PUSH2 0x399B JUMP JUMPDEST PUSH2 0x522 PUSH8 0x700C53D33CD61BD6 PUSH1 0xC0 SHL PUSH2 0x399B JUMP JUMPDEST PUSH1 0x0 TIMESTAMP SWAP1 POP PUSH2 0x53B PUSH8 0xFB933EB6A10FD1C0 PUSH1 0xC0 SHL PUSH2 0x399B JUMP JUMPDEST PUSH2 0x54F PUSH8 0x94BC70B74E9B92A0 PUSH1 0xC0 SHL PUSH2 0x399B JUMP JUMPDEST DUP1 DUP5 PUSH1 0xC0 ADD MLOAD DUP5 PUSH1 0xA0 ADD MLOAD PUSH2 0x564 SWAP2 SWAP1 PUSH2 0x5D67 JUMP JUMPDEST GT ISZERO PUSH2 0x5C4 JUMPI PUSH2 0x57E PUSH8 0x3529CE484CDC4D17 PUSH1 0xC0 SHL PUSH2 0x399B JUMP JUMPDEST PUSH2 0x592 PUSH8 0x5054D0A7F33C403E PUSH1 0xC0 SHL PUSH2 0x399B JUMP JUMPDEST PUSH1 0x40 MLOAD PUSH32 0x809B1ED300000000000000000000000000000000000000000000000000000000 DUP2 MSTORE PUSH1 0x4 ADD PUSH1 0x40 MLOAD DUP1 SWAP2 SUB SWAP1 REVERT JUMPDEST PUSH2 0x5D8 PUSH8 0xC4F41AD3976B66A0 PUSH1 0xC0 SHL PUSH2 0x399B JUMP JUMPDEST PUSH2 0x5EC PUSH8 0x286727FAFE64A018 PUSH1 0xC0 SHL PUSH2 0x399B JUMP JUMPDEST PUSH2 0x600 PUSH8 0x5A1542314DFB63B5 PUSH1 0xC0 SHL PUSH2 0x399B JUMP JUMPDEST DUP3 PUSH1 0xE0 ADD MLOAD PUSH1 0xFF AND DUP8 PUSH1 0xFF AND LT ISZERO PUSH2 0x66C JUMPI PUSH2 0x626 PUSH8 0xA7BD84B932708B6B PUSH1 0xC0 SHL PUSH2 0x399B JUMP JUMPDEST PUSH2 0x63A PUSH8 0x95224C37C1E9FE73 PUSH1 0xC0 SHL PUSH2 0x399B JUMP JUMPDEST PUSH1 0x40 MLOAD PUSH32 0xB92690B200000000000000000000000000000000000000000000000000000000 DUP2 MSTORE PUSH1 0x4 ADD PUSH1 0x40 MLOAD DUP1 SWAP2 SUB SWAP1 REVERT JUMPDEST PUSH2 0x680 PUSH8 0x968B0698AD2F99D PUSH1 0xC0 SHL PUSH2 0x399B JUMP JUMPDEST PUSH2 0x694 PUSH8 0x4978513A69FBABE PUSH1 0xC0 SHL PUSH2 0x399B JUMP JUMPDEST PUSH2 0x6A8 PUSH8 0xD7EA5226D3E5F02A PUSH1 0xC0 SHL PUSH2 0x399B JUMP JUMPDEST PUSH2 0x6B1 DUP3 PUSH2 0x3ECE JUMP JUMPDEST ISZERO PUSH2 0x710 JUMPI PUSH2 0x6CA PUSH8 0x3D0F29E29A1EC26D PUSH1 0xC0 SHL PUSH2 0x399B JUMP JUMPDEST PUSH2 0x6DE PUSH8 0x90B34A7E00462385 PUSH1 0xC0 SHL PUSH2 0x399B JUMP JUMPDEST PUSH1 0x40 MLOAD PUSH32 0x4BEC8C2500000000000000000000000000000000000000000000000000000000 DUP2 MSTORE PUSH1 0x4 ADD PUSH1 0x40 MLOAD DUP1 SWAP2 SUB SWAP1 REVERT JUMPDEST PUSH2 0x724 PUSH8 0x7234C688993DABAF PUSH1 0xC0 SHL PUSH2 0x399B JUMP JUMPDEST PUSH2 0x738 PUSH8 0x1CE4920EC1374DBE PUSH1 0xC0 SHL PUSH2 0x399B JUMP JUMPDEST PUSH2 0x74C PUSH8 0x88C3590419333D8E PUSH1 0xC0 SHL PUSH2 0x399B JUMP JUMPDEST PUSH2 0x756 DUP3 TIMESTAMP PUSH2 0x3F1D JUMP JUMPDEST ISZERO PUSH2 0x7B5 JUMPI PUSH2 0x76F PUSH8 0xDF44ADD9DB5938D2 PUSH1 0xC0 SHL PUSH2 0x399B JUMP JUMPDEST PUSH2 0x783 PUSH8 0xEAAD2AA1A0033A30 PUSH1 0xC0 SHL PUSH2 0x399B JUMP JUMPDEST PUSH1 0x40 MLOAD PUSH32 0x7A1A4E1E00000000000000000000000000000000000000000000000000000000 DUP2 MSTORE PUSH1 0x4 ADD PUSH1 0x40 MLOAD DUP1 SWAP2 SUB SWAP1 REVERT JUMPDEST PUSH2 0x7C9 PUSH8 0xD89343FCCE89948C PUSH1 0xC0 SHL PUSH2 0x399B JUMP JUMPDEST PUSH2 0x7DD PUSH8 0x5C43E3240130F3F PUSH1 0xC0 SHL PUSH2 0x399B JUMP JUMPDEST PUSH2 0x7F1 PUSH8 0x558242017D94FE10 PUSH1 0xC0 SHL PUSH2 0x399B JUMP JUMPDEST PUSH1 0x0 DUP7 DUP7 SWAP1 POP SUB PUSH2 0x856 JUMPI PUSH2 0x810 PUSH8 0x79F72E06B6EEA1D9 PUSH1 0xC0 SHL PUSH2 0x399B JUMP JUMPDEST PUSH2 0x824 PUSH8 0xBF7D9D10057ECAFE PUSH1 0xC0 SHL PUSH2 0x399B JUMP JUMPDEST PUSH1 0x40 MLOAD PUSH32 0xC2E63EF700000000000000000000000000000000000000000000000000000000 DUP2 MSTORE PUSH1 0x4 ADD PUSH1 0x40 MLOAD DUP1 SWAP2 SUB SWAP1 REVERT JUMPDEST PUSH2 0x86A PUSH8 0x2368790FE0D0528C PUSH1 0xC0 SHL PUSH2 0x399B JUMP JUMPDEST PUSH2 0x87E PUSH8 0x965EAA2A3F86765E PUSH1 0xC0 SHL PUSH2 0x399B JUMP JUMPDEST DUP6 DUP6 DUP1 DUP1 PUSH1 0x1F ADD PUSH1 0x20 DUP1 SWAP2 DIV MUL PUSH1 0x20 ADD PUSH1 0x40 MLOAD SWAP1 DUP2 ADD PUSH1 0x40 MSTORE DUP1 SWAP4 SWAP3 SWAP2 SWAP1 DUP2 DUP2 MSTORE PUSH1 0x20 ADD DUP4 DUP4 DUP1 DUP3 DUP5 CALLDATACOPY PUSH1 0x0 DUP2 DUP5 ADD MSTORE PUSH1 0x1F NOT PUSH1 0x1F DUP3 ADD AND SWAP1 POP DUP1 DUP4 ADD SWAP3 POP POP POP POP POP POP POP DUP3 PUSH1 0x60 ADD DUP2 SWAP1 MSTORE POP PUSH2 0x8DF PUSH8 0xCB8E4921AA0D8FF1 PUSH1 0xC0 SHL PUSH2 0x399B JUMP JUMPDEST PUSH1 0x1 DUP8 PUSH2 0x8EC SWAP2 SWAP1 PUSH2 0x5D9B JUMP JUMPDEST DUP4 PUSH1 0xE0 ADD SWAP1 PUSH1 0xFF AND SWAP1 DUP2 PUSH1 0xFF AND DUP2 MSTORE POP POP PUSH2 0x911 PUSH8 0x3719DF001D750F80 PUSH1 0xC0 SHL PUSH2 0x399B JUMP JUMPDEST DUP3 PUSH1 0xC0 ADD DUP1 MLOAD DUP1 SWAP2 SWAP1 PUSH2 0x923 SWAP1 PUSH2 0x5DD0 JUMP JUMPDEST PUSH1 0xFF AND PUSH1 0xFF AND DUP2 MSTORE POP POP PUSH2 0x941 PUSH8 0x35B995C33A5843F7 PUSH1 0xC0 SHL PUSH2 0x399B JUMP JUMPDEST DUP1 DUP4 PUSH1 0xA0 ADD DUP2 DUP2 MSTORE POP POP PUSH2 0x95F PUSH8 0x2DC59ECFF06BAFF4 PUSH1 0xC0 SHL PUSH2 0x399B JUMP JUMPDEST PUSH2 0x973 PUSH8 0x2044D635BDA626ED PUSH1 0xC0 SHL PUSH2 0x399B JUMP JUMPDEST DUP4 PUSH1 0xA0 ADD MLOAD PUSH1 0xFF AND DUP8 PUSH1 0xFF AND LT PUSH2 0x9C2 JUMPI PUSH2 0x998 PUSH8 0x641D1E682F48D36A PUSH1 0xC0 SHL PUSH2 0x399B JUMP JUMPDEST PUSH2 0x9AC PUSH8 0x5FD070DD5B58B88B PUSH1 0xC0 SHL PUSH2 0x399B JUMP JUMPDEST PUSH1 0x1 DUP4 PUSH1 0x60 ADD SWAP1 ISZERO ISZERO SWAP1 DUP2 ISZERO ISZERO DUP2 MSTORE POP POP PUSH2 0x9D7 JUMP JUMPDEST PUSH2 0x9D6 PUSH8 0x4703EFA4E093A227 PUSH1 0xC0 SHL PUSH2 0x399B JUMP JUMPDEST JUMPDEST PUSH2 0x9EB PUSH8 0xD7B83E59451E4580 PUSH1 0xC0 SHL PUSH2 0x399B JUMP JUMPDEST PUSH2 0x9FF PUSH8 0x48D1493776060DE5 PUSH1 0xC0 SHL PUSH2 0x399B JUMP JUMPDEST PUSH1 0x1 DUP5 PUSH1 0x80 ADD MLOAD PUSH2 0xA10 SWAP2 SWAP1 PUSH2 0x5DF9 JUMP JUMPDEST PUSH1 0xFF AND DUP8 PUSH1 0xFF AND SUB PUSH2 0xA5A JUMPI PUSH2 0xA30 PUSH8 0x4337DAA2197674EC PUSH1 0xC0 SHL PUSH2 0x399B JUMP JUMPDEST PUSH2 0xA44 PUSH8 0x2D01C3404F6A478A PUSH1 0xC0 SHL PUSH2 0x399B JUMP JUMPDEST PUSH1 0x1 DUP4 PUSH1 0x80 ADD SWAP1 ISZERO ISZERO SWAP1 DUP2 ISZERO ISZERO DUP2 MSTORE POP POP PUSH2 0xA6F JUMP JUMPDEST PUSH2 0xA6E PUSH8 0xFBCD92430C44DB3D PUSH1 0xC0 SHL PUSH2 0x399B JUMP JUMPDEST JUMPDEST PUSH2 0xA83 PUSH8 0x7E14DEE13607E4AB PUSH1 0xC0 SHL PUSH2 0x399B JUMP JUMPDEST PUSH2 0xA97 PUSH8 0xC0D5438BA2977C6E PUSH1 0xC0 SHL PUSH2 0x399B JUMP JUMPDEST PUSH2 0xAA1 DUP9 DUP5 PUSH2 0x3F6B JUMP JUMPDEST PUSH2 0xAB5 PUSH8 0xF7ABEF470524F14C PUSH1 0xC0 SHL PUSH2 0x399B JUMP JUMPDEST PUSH2 0xAC9 PUSH8 0x2C0705FA4ADC5518 PUSH1 0xC0 SHL PUSH2 0x399B JUMP JUMPDEST PUSH2 0xAD7 DUP9 DUP9 PUSH1 0xFF AND DUP5 PUSH2 0x407A JUMP JUMPDEST PUSH2 0xAEB PUSH8 0xED7614A42C8E415B PUSH1 0xC0 SHL PUSH2 0x399B JUMP JUMPDEST PUSH2 0xAFF PUSH8 0xF5DB384540561F1C PUSH1 0xC0 SHL PUSH2 0x399B JUMP JUMPDEST DUP8 PUSH32 0xD7E09DDF6E37D5245E3A812F582F4835F581449495C8AB3CC3172B1D9734D71B DUP9 PUSH1 0x40 MLOAD PUSH2 0xB2F SWAP2 SWAP1 PUSH2 0x5E3D JUMP JUMPDEST PUSH1 0x40 MLOAD DUP1 SWAP2 SUB SWAP1 LOG2 PUSH2 0xB4B PUSH8 0x38A07D482FA17CAC PUSH1 0xC0 SHL PUSH2 0x399B JUMP JUMPDEST PUSH2 0xB5F PUSH8 0xB610BDBC2D4A8FF2 PUSH1 0xC0 SHL PUSH2 0x399B JUMP JUMPDEST PUSH2 0xB6A DUP5 DUP5 TIMESTAMP PUSH2 0x412A JUMP JUMPDEST ISZERO PUSH2 0xBB9 JUMPI PUSH2 0xB83 PUSH8 0x806B762CD5393E3E PUSH1 0xC0 SHL PUSH2 0x399B JUMP JUMPDEST PUSH2 0xB97 PUSH8 0x5E9FA17A20DBA377 PUSH1 0xC0 SHL PUSH2 0x399B JUMP JUMPDEST PUSH2 0xBAB PUSH8 0x83EDE017320F3268 PUSH1 0xC0 SHL PUSH2 0x399B JUMP JUMPDEST PUSH2 0xBB4 DUP9 PUSH2 0x31CD JUMP JUMPDEST PUSH2 0xBCE JUMP JUMPDEST PUSH2 0xBCD PUSH8 0x7F54F084C782CC88 PUSH1 0xC0 SHL PUSH2 0x399B JUMP JUMPDEST JUMPDEST POP POP POP POP POP POP POP POP JUMP JUMPDEST PUSH2 0xBEC PUSH8 0x58466BA8B5529032 PUSH1 0xC0 SHL PUSH2 0x399B JUMP JUMPDEST PUSH2 0xC00 PUSH8 0x40BBC467485B50D4 PUSH1 0xC0 SHL PUSH2 0x399B JUMP JUMPDEST PUSH2 0xC14 PUSH8 0x88C408511B8C301E PUSH1 0xC0 SHL PUSH2 0x399B JUMP JUMPDEST PUSH1 0x0 PUSH2 0xC1F DUP3 PUSH2 0x399E JUMP JUMPDEST SWAP1 POP PUSH2 0xC35 PUSH8 0x2A4AE80C871FD0C7 PUSH1 0xC0 SHL PUSH2 0x399B JUMP JUMPDEST PUSH1 0x3 PUSH1 0x0 DUP1 DUP2 MSTORE PUSH1 0x20 ADD SWAP1 DUP2 MSTORE PUSH1 0x20 ADD PUSH1 0x0 KECCAK256 PUSH1 0x3 PUSH1 0x0 DUP5 DUP2 MSTORE PUSH1 0x20 ADD SWAP1 DUP2 MSTORE PUSH1 0x20 ADD PUSH1 0x0 KECCAK256 PUSH1 0x0 DUP3 ADD PUSH1 0x0 SWAP1 SLOAD SWAP1 PUSH2 0x100 EXP SWAP1 DIV PUSH20 0xFFFFFFFFFFFFFFFFFFFFFFFFFFFFFFFFFFFFFFFF AND DUP2 PUSH1 0x0 ADD PUSH1 0x0 PUSH2 0x100 EXP DUP2 SLOAD DUP2 PUSH20 0xFFFFFFFFFFFFFFFFFFFFFFFFFFFFFFFFFFFFFFFF MUL NOT AND SWAP1 DUP4 PUSH20 0xFFFFFFFFFFFFFFFFFFFFFFFFFFFFFFFFFFFFFFFF AND MUL OR SWAP1 SSTORE POP PUSH1 0x1 DUP3 ADD DUP2 PUSH1 0x1 ADD SWAP1 DUP2 PUSH2 0xCD6 SWAP2 SWAP1 PUSH2 0x60A9 JUMP JUMPDEST POP PUSH1 0x2 DUP3 ADD PUSH1 0x0 SWAP1 SLOAD SWAP1 PUSH2 0x100 EXP SWAP1 DIV PUSH1 0xFF AND DUP2 PUSH1 0x2 ADD PUSH1 0x0 PUSH2 0x100 EXP DUP2 SLOAD DUP2 PUSH1 0xFF MUL NOT AND SWAP1 DUP4 PUSH1 0xFF AND MUL OR SWAP1 SSTORE POP PUSH1 0x3 DUP3 ADD SLOAD DUP2 PUSH1 0x3 ADD SSTORE PUSH1 0x4 DUP3 ADD PUSH1 0x0 SWAP1 SLOAD SWAP1 PUSH2 0x100 EXP SWAP1 DIV PUSH1 0xFF AND DUP2 PUSH1 0x4 ADD PUSH1 0x0 PUSH2 0x100 EXP DUP2 SLOAD DUP2 PUSH1 0xFF MUL NOT AND SWAP1 DUP4 PUSH1 0xFF AND MUL OR SWAP1 SSTORE POP PUSH1 0x4 DUP3 ADD PUSH1 0x1 SWAP1 SLOAD SWAP1 PUSH2 0x100 EXP SWAP1 DIV PUSH1 0xFF AND DUP2 PUSH1 0x4 ADD PUSH1 0x1 PUSH2 0x100 EXP DUP2 SLOAD DUP2 PUSH1 0xFF MUL NOT AND SWAP1 DUP4 PUSH1 0xFF AND MUL OR SWAP1 SSTORE POP PUSH1 0x5 DUP3 ADD SLOAD DUP2 PUSH1 0x5 ADD SSTORE PUSH1 0x6 DUP3 ADD SLOAD DUP2 PUSH1 0x6 ADD SSTORE PUSH1 0x7 DUP3 ADD SLOAD DUP2 PUSH1 0x7 ADD SSTORE PUSH1 0x8 DUP3 ADD SLOAD DUP2 PUSH1 0x8 ADD SSTORE SWAP1 POP POP PUSH2 0xDAA PUSH8 0xF00452ADAF9B58B2 PUSH1 0xC0 SHL PUSH2 0x399B JUMP JUMPDEST PUSH2 0xDBE PUSH8 0xD3E6B53DC9DE60B3 PUSH1 0xC0 SHL PUSH2 0x399B JUMP JUMPDEST PUSH1 0x0 PUSH2 0xDC9 DUP4 PUSH2 0x3B65 JUMP JUMPDEST SWAP1 POP PUSH2 0xDDF PUSH8 0x24BB4CF789DA6BAD PUSH1 0xC0 SHL PUSH2 0x399B JUMP JUMPDEST PUSH1 0x4 PUSH1 0x0 DUP1 DUP2 MSTORE PUSH1 0x20 ADD SWAP1 DUP2 MSTORE PUSH1 0x20 ADD PUSH1 0x0 KECCAK256 PUSH1 0x4 PUSH1 0x0 DUP6 DUP2 MSTORE PUSH1 0x20 ADD SWAP1 DUP2 MSTORE PUSH1 0x20 ADD PUSH1 0x0 KECCAK256 PUSH1 0x0 DUP3 ADD SLOAD DUP2 PUSH1 0x0 ADD SSTORE PUSH1 0x1 DUP3 ADD SLOAD DUP2 PUSH1 0x1 ADD SSTORE PUSH1 0x2 DUP3 ADD SLOAD DUP2 PUSH1 0x2 ADD SSTORE PUSH1 0x3 DUP3 ADD PUSH1 0x0 SWAP1 SLOAD SWAP1 PUSH2 0x100 EXP SWAP1 DIV PUSH1 0xFF AND DUP2 PUSH1 0x3 ADD PUSH1 0x0 PUSH2 0x100 EXP DUP2 SLOAD DUP2 PUSH1 0xFF MUL NOT AND SWAP1 DUP4 ISZERO ISZERO MUL OR SWAP1 SSTORE POP PUSH1 0x3 DUP3 ADD PUSH1 0x1 SWAP1 SLOAD SWAP1 PUSH2 0x100 EXP SWAP1 DIV PUSH1 0xFF AND DUP2 PUSH1 0x3 ADD PUSH1 0x1 PUSH2 0x100 EXP DUP2 SLOAD DUP2 PUSH1 0xFF MUL NOT AND SWAP1 DUP4 ISZERO ISZERO MUL OR SWAP1 SSTORE POP PUSH1 0x4 DUP3 ADD SLOAD DUP2 PUSH1 0x4 ADD SSTORE PUSH1 0x5 DUP3 ADD PUSH1 0x0 SWAP1 SLOAD SWAP1 PUSH2 0x100 EXP SWAP1 DIV PUSH1 0xFF AND DUP2 PUSH1 0x5 ADD PUSH1 0x0 PUSH2 0x100 EXP DUP2 SLOAD DUP2 PUSH1 0xFF MUL NOT AND SWAP1 DUP4 PUSH1 0xFF AND MUL OR SWAP1 SSTORE POP PUSH1 0x5 DUP3 ADD PUSH1 0x1 SWAP1 SLOAD SWAP1 PUSH2 0x100 EXP SWAP1 DIV PUSH1 0xFF AND DUP2 PUSH1 0x5 ADD PUSH1 0x1 PUSH2 0x100 EXP DUP2 SLOAD DUP2 PUSH1 0xFF MUL NOT AND SWAP1 DUP4 PUSH1 0xFF AND MUL OR SWAP1 SSTORE POP PUSH1 0x5 DUP3 ADD PUSH1 0x2 SWAP1 SLOAD SWAP1 PUSH2 0x100 EXP SWAP1 DIV PUSH1 0xFF AND DUP2 PUSH1 0x5 ADD PUSH1 0x2 PUSH2 0x100 EXP DUP2 SLOAD DUP2 PUSH1 0xFF MUL NOT AND SWAP1 DUP4 PUSH1 0xFF AND MUL OR SWAP1 SSTORE POP SWAP1 POP POP PUSH2 0xF28 PUSH8 0x142E512F72B7C21D PUSH1 0xC0 SHL PUSH2 0x399B JUMP JUMPDEST PUSH2 0xF3C PUSH8 0xC6BF0A991E0A0D8D PUSH1 0xC0 SHL PUSH2 0x399B JUMP JUMPDEST DUP2 PUSH1 0x0 ADD MLOAD PUSH20 0xFFFFFFFFFFFFFFFFFFFFFFFFFFFFFFFFFFFFFFFF AND CALLER PUSH20 0xFFFFFFFFFFFFFFFFFFFFFFFFFFFFFFFFFFFFFFFF AND EQ PUSH2 0xFCD JUMPI PUSH2 0xF87 PUSH8 0x7781F60899C5C8B PUSH1 0xC0 SHL PUSH2 0x399B JUMP JUMPDEST PUSH2 0xF9B PUSH8 0xC993FFBD7EDA2C78 PUSH1 0xC0 SHL PUSH2 0x399B JUMP JUMPDEST PUSH1 0x40 MLOAD PUSH32 0x8BAA579F00000000000000000000000000000000000000000000000000000000 DUP2 MSTORE PUSH1 0x4 ADD PUSH1 0x40 MLOAD DUP1 SWAP2 SUB SWAP1 REVERT JUMPDEST PUSH2 0xFE1 PUSH8 0x4E697F7567A9A666 PUSH1 0xC0 SHL PUSH2 0x399B JUMP JUMPDEST PUSH2 0xFF5 PUSH8 0x1AFB5EE3A25DF057 PUSH1 0xC0 SHL PUSH2 0x399B JUMP JUMPDEST PUSH2 0x1009 PUSH8 0x2C23C5411B6177CF PUSH1 0xC0 SHL PUSH2 0x399B JUMP JUMPDEST PUSH1 0x0 DUP2 PUSH2 0x100 ADD MLOAD PUSH1 0xFF AND SUB PUSH2 0x1032 JUMPI PUSH2 0x102D PUSH8 0x91F81A54117A3A55 PUSH1 0xC0 SHL PUSH2 0x399B JUMP JUMPDEST PUSH2 0x1431 JUMP JUMPDEST PUSH2 0x1046 PUSH8 0xB07787BF34812D68 PUSH1 0xC0 SHL PUSH2 0x399B JUMP JUMPDEST PUSH2 0x105A PUSH8 0xC5460F4CEA1C9606 PUSH1 0xC0 SHL PUSH2 0x399B JUMP JUMPDEST PUSH1 0x1 DUP2 PUSH2 0x100 ADD MLOAD PUSH1 0xFF AND SUB PUSH2 0x13D6 JUMPI PUSH2 0x107E PUSH8 0x15714C8140548C59 PUSH1 0xC0 SHL PUSH2 0x399B JUMP JUMPDEST PUSH2 0x1092 PUSH8 0xBDD2E286402496A2 PUSH1 0xC0 SHL PUSH2 0x399B JUMP JUMPDEST PUSH2 0x10A6 PUSH8 0xCE5E5C29491DFEEC PUSH1 0xC0 SHL PUSH2 0x399B JUMP JUMPDEST PUSH2 0x10B1 DUP3 DUP3 TIMESTAMP PUSH2 0x4251 JUMP JUMPDEST ISZERO PUSH2 0x1110 JUMPI PUSH2 0x10CA PUSH8 0xB0363C3C82C3BB14 PUSH1 0xC0 SHL PUSH2 0x399B JUMP JUMPDEST PUSH2 0x10DE PUSH8 0x186F9CE3A253A242 PUSH1 0xC0 SHL PUSH2 0x399B JUMP JUMPDEST PUSH1 0x40 MLOAD PUSH32 0x4B8B485C00000000000000000000000000000000000000000000000000000000 DUP2 MSTORE PUSH1 0x4 ADD PUSH1 0x40 MLOAD DUP1 SWAP2 SUB SWAP1 REVERT JUMPDEST PUSH2 0x1124 PUSH8 0x68171544A0207703 PUSH1 0xC0 SHL PUSH2 0x399B JUMP JUMPDEST PUSH2 0x1138 PUSH8 0x1DD66D279744834E PUSH1 0xC0 SHL PUSH2 0x399B JUMP JUMPDEST PUSH2 0x114C PUSH8 0x3EE1474854D762F2 PUSH1 0xC0 SHL PUSH2 0x399B JUMP JUMPDEST PUSH2 0x1162 DUP3 PUSH1 0x0 ADD MLOAD PUSH2 0x115D DUP5 PUSH2 0x4378 JUMP JUMPDEST PUSH2 0x43CC JUMP JUMPDEST PUSH2 0x1176 PUSH8 0x7BE38297D44AD075 PUSH1 0xC0 SHL PUSH2 0x399B JUMP JUMPDEST PUSH2 0x118A PUSH8 0xA8D65449228E4980 PUSH1 0xC0 SHL PUSH2 0x399B JUMP JUMPDEST PUSH1 0x0 PUSH1 0x6 PUSH1 0x0 DUP6 DUP2 MSTORE PUSH1 0x20 ADD SWAP1 DUP2 MSTORE PUSH1 0x20 ADD PUSH1 0x0 KECCAK256 DUP1 SLOAD DUP1 PUSH1 0x20 MUL PUSH1 0x20 ADD PUSH1 0x40 MLOAD SWAP1 DUP2 ADD PUSH1 0x40 MSTORE DUP1 SWAP3 SWAP2 SWAP1 DUP2 DUP2 MSTORE PUSH1 0x20 ADD DUP3 DUP1 SLOAD DUP1 ISZERO PUSH2 0x121F JUMPI PUSH1 0x20 MUL DUP3 ADD SWAP2 SWAP1 PUSH1 0x0 MSTORE PUSH1 0x20 PUSH1 0x0 KECCAK256 SWAP1 JUMPDEST DUP2 PUSH1 0x0 SWAP1 SLOAD SWAP1 PUSH2 0x100 EXP SWAP1 DIV PUSH20 0xFFFFFFFFFFFFFFFFFFFFFFFFFFFFFFFFFFFFFFFF AND PUSH20 0xFFFFFFFFFFFFFFFFFFFFFFFFFFFFFFFFFFFFFFFF AND DUP2 MSTORE PUSH1 0x20 ADD SWAP1 PUSH1 0x1 ADD SWAP1 DUP1 DUP4 GT PUSH2 0x11D5 JUMPI JUMPDEST POP POP POP POP POP SWAP1 POP PUSH2 0x123A PUSH8 0x8044AC871D4CD62C PUSH1 0xC0 SHL PUSH2 0x399B JUMP JUMPDEST PUSH2 0x124E PUSH8 0x1C5498F6EEDF00C1 PUSH1 0xC0 SHL PUSH2 0x399B JUMP JUMPDEST PUSH1 0x0 JUMPDEST DUP2 MLOAD DUP2 LT ISZERO PUSH2 0x13CF JUMPI PUSH2 0x126E PUSH8 0x9CD67671622E76F9 PUSH1 0xC0 SHL PUSH2 0x399B JUMP JUMPDEST PUSH2 0x1282 PUSH8 0xB6C5F9467F71A02B PUSH1 0xC0 SHL PUSH2 0x399B JUMP JUMPDEST PUSH1 0x0 DUP3 DUP3 DUP2 MLOAD DUP2 LT PUSH2 0x1297 JUMPI PUSH2 0x1296 PUSH2 0x6191 JUMP JUMPDEST JUMPDEST PUSH1 0x20 MUL PUSH1 0x20 ADD ADD MLOAD SWAP1 POP PUSH2 0x12B5 PUSH8 0xD32A2058DB75BEE8 PUSH1 0xC0 SHL PUSH2 0x399B JUMP JUMPDEST PUSH2 0x12C9 PUSH8 0x6059F832F1540472 PUSH1 0xC0 SHL PUSH2 0x399B JUMP JUMPDEST PUSH1 0x0 PUSH1 0x7 PUSH1 0x0 DUP9 DUP2 MSTORE PUSH1 0x20 ADD SWAP1 DUP2 MSTORE PUSH1 0x20 ADD PUSH1 0x0 KECCAK256 PUSH1 0x0 DUP4 PUSH20 0xFFFFFFFFFFFFFFFFFFFFFFFFFFFFFFFFFFFFFFFF AND PUSH20 0xFFFFFFFFFFFFFFFFFFFFFFFFFFFFFFFFFFFFFFFF AND DUP2 MSTORE PUSH1 0x20 ADD SWAP1 DUP2 MSTORE PUSH1 0x20 ADD PUSH1 0x0 KECCAK256 SLOAD SWAP1 POP PUSH2 0x1332 PUSH8 0x124EDB27E0D576C2 PUSH1 0xC0 SHL PUSH2 0x399B JUMP JUMPDEST PUSH1 0x0 PUSH1 0x7 PUSH1 0x0 DUP10 DUP2 MSTORE PUSH1 0x20 ADD SWAP1 DUP2 MSTORE PUSH1 0x20 ADD PUSH1 0x0 KECCAK256 PUSH1 0x0 DUP5 PUSH20 0xFFFFFFFFFFFFFFFFFFFFFFFFFFFFFFFFFFFFFFFF AND PUSH20 0xFFFFFFFFFFFFFFFFFFFFFFFFFFFFFFFFFFFFFFFF AND DUP2 MSTORE PUSH1 0x20 ADD SWAP1 DUP2 MSTORE PUSH1 0x20 ADD PUSH1 0x0 KECCAK256 DUP2 SWAP1 SSTORE POP PUSH2 0x139C PUSH8 0x6CD7C95CC8A95AF1 PUSH1 0xC0 SHL PUSH2 0x399B JUMP JUMPDEST PUSH2 0x13B0 PUSH8 0x5083D121DF76BF00 PUSH1 0xC0 SHL PUSH2 0x399B JUMP JUMPDEST PUSH2 0x13BA DUP3 DUP3 PUSH2 0x43CC JUMP JUMPDEST POP POP DUP1 DUP1 PUSH2 0x13C7 SWAP1 PUSH2 0x61C0 JUMP JUMPDEST SWAP2 POP POP PUSH2 0x1251 JUMP JUMPDEST POP POP PUSH2 0x1430 JUMP JUMPDEST PUSH2 0x13EA PUSH8 0x1D5513429203314C PUSH1 0xC0 SHL PUSH2 0x399B JUMP JUMPDEST PUSH2 0x13FE PUSH8 0xF75857137BE56ED9 PUSH1 0xC0 SHL PUSH2 0x399B JUMP JUMPDEST PUSH1 0x40 MLOAD PUSH32 0xE50A91B900000000000000000000000000000000000000000000000000000000 DUP2 MSTORE PUSH1 0x4 ADD PUSH1 0x40 MLOAD DUP1 SWAP2 SUB SWAP1 REVERT JUMPDEST JUMPDEST PUSH2 0x1445 PUSH8 0x4E86C5BD1CAED673 PUSH1 0xC0 SHL PUSH2 0x399B JUMP JUMPDEST PUSH1 0x5 PUSH1 0x0 DUP5 DUP2 MSTORE PUSH1 0x20 ADD SWAP1 DUP2 MSTORE PUSH1 0x20 ADD PUSH1 0x0 KECCAK256 PUSH1 0x0 PUSH2 0x1464 SWAP2 SWAP1 PUSH2 0x5427 JUMP JUMPDEST PUSH2 0x1478 PUSH8 0xC1A349E18EE50882 PUSH1 0xC0 SHL PUSH2 0x399B JUMP JUMPDEST PUSH2 0x148C PUSH8 0xD515A889D520AEA7 PUSH1 0xC0 SHL PUSH2 0x399B JUMP JUMPDEST DUP3 PUSH32 0x74ACB192D39829B88A66AD5363AFA9120C5A306A458287A870351AE34A04D346 PUSH1 0x40 MLOAD PUSH1 0x40 MLOAD DUP1 SWAP2 SUB SWAP1 LOG2 POP POP POP JUMP JUMPDEST PUSH2 0x14D2 PUSH8 0x8C2692BAD4C75CDA PUSH1 0xC0 SHL PUSH2 0x399B JUMP JUMPDEST PUSH2 0x14E6 PUSH8 0xAE8158E64C734FF9 PUSH1 0xC0 SHL PUSH2 0x399B JUMP JUMPDEST PUSH2 0x14FA PUSH8 0xA476802D7FAC0312 PUSH1 0xC0 SHL PUSH2 0x399B JUMP JUMPDEST PUSH1 0x0 PUSH2 0x1505 DUP3 PUSH2 0x399E JUMP JUMPDEST SWAP1 POP PUSH2 0x151B PUSH8 0x88A02D1222A303A PUSH1 0xC0 SHL PUSH2 0x399B JUMP JUMPDEST PUSH2 0x152F PUSH8 0xE2E21EE6BC04A228 PUSH1 0xC0 SHL PUSH2 0x399B JUMP JUMPDEST PUSH1 0x0 PUSH2 0x153A DUP4 PUSH2 0x3B65 JUMP JUMPDEST SWAP1 POP PUSH2 0x1550 PUSH8 0xA37CF8AC9234D45E PUSH1 0xC0 SHL PUSH2 0x399B JUMP JUMPDEST PUSH2 0x1564 PUSH8 0x8E9B9F9190AFE664 PUSH1 0xC0 SHL PUSH2 0x399B JUMP JUMPDEST PUSH1 0x1 DUP2 PUSH2 0x100 ADD MLOAD PUSH1 0xFF AND EQ PUSH2 0x15CE JUMPI PUSH2 0x1588 PUSH8 0xB3C4DF2C22A2E21C PUSH1 0xC0 SHL PUSH2 0x399B JUMP JUMPDEST PUSH2 0x159C PUSH8 0xC002F553684480F0 PUSH1 0xC0 SHL PUSH2 0x399B JUMP JUMPDEST PUSH1 0x40 MLOAD PUSH32 0x2DC7FE0F00000000000000000000000000000000000000000000000000000000 DUP2 MSTORE PUSH1 0x4 ADD PUSH1 0x40 MLOAD DUP1 SWAP2 SUB SWAP1 REVERT JUMPDEST PUSH2 0x15E2 PUSH8 0x824B30A57C4A2D8B PUSH1 0xC0 SHL PUSH2 0x399B JUMP JUMPDEST PUSH2 0x15F6 PUSH8 0xF7F85427246B2DC1 PUSH1 0xC0 SHL PUSH2 0x399B JUMP JUMPDEST PUSH2 0x160A PUSH8 0x7707580A8E3E07B PUSH1 0xC0 SHL PUSH2 0x399B JUMP JUMPDEST PUSH2 0x1615 DUP3 DUP3 TIMESTAMP PUSH2 0x412A JUMP JUMPDEST ISZERO PUSH2 0x1674 JUMPI PUSH2 0x162E PUSH8 0x359EB0BA990501CD PUSH1 0xC0 SHL PUSH2 0x399B JUMP JUMPDEST PUSH2 0x1642 PUSH8 0x92C31AE6737390A6 PUSH1 0xC0 SHL PUSH2 0x399B JUMP JUMPDEST PUSH1 0x40 MLOAD PUSH32 0xE8F82DD700000000000000000000000000000000000000000000000000000000 DUP2 MSTORE PUSH1 0x4 ADD PUSH1 0x40 MLOAD DUP1 SWAP2 SUB SWAP1 REVERT JUMPDEST PUSH2 0x1688 PUSH8 0x272C7F7BE322E61 PUSH1 0xC0 SHL PUSH2 0x399B JUMP JUMPDEST PUSH2 0x169C PUSH8 0x10BE78951652FE5 PUSH1 0xC0 SHL PUSH2 0x399B JUMP JUMPDEST PUSH2 0x16B0 PUSH8 0x9AD215C06FD78C66 PUSH1 0xC0 SHL PUSH2 0x399B JUMP JUMPDEST PUSH1 0x0 PUSH1 0x7 PUSH1 0x0 DUP6 DUP2 MSTORE PUSH1 0x20 ADD SWAP1 DUP2 MSTORE PUSH1 0x20 ADD PUSH1 0x0 KECCAK256 PUSH1 0x0 CALLER PUSH20 0xFFFFFFFFFFFFFFFFFFFFFFFFFFFFFFFFFFFFFFFF AND PUSH20 0xFFFFFFFFFFFFFFFFFFFFFFFFFFFFFFFFFFFFFFFF AND DUP2 MSTORE PUSH1 0x20 ADD SWAP1 DUP2 MSTORE PUSH1 0x20 ADD PUSH1 0x0 KECCAK256 SLOAD SWAP1 POP PUSH2 0x1719 PUSH8 0x4D936EBA16259747 PUSH1 0xC0 SHL PUSH2 0x399B JUMP JUMPDEST PUSH2 0x172D PUSH8 0x6E701A6972AD76DE PUSH1 0xC0 SHL PUSH2 0x399B JUMP JUMPDEST PUSH1 0x0 DUP2 SUB PUSH2 0x178F JUMPI PUSH2 0x1749 PUSH8 0xD888D77DF4532F3C PUSH1 0xC0 SHL PUSH2 0x399B JUMP JUMPDEST PUSH2 0x175D PUSH8 0xD95B3C85E7F03694 PUSH1 0xC0 SHL PUSH2 0x399B JUMP JUMPDEST PUSH1 0x40 MLOAD PUSH32 0x3E07F1A100000000000000000000000000000000000000000000000000000000 DUP2 MSTORE PUSH1 0x4 ADD PUSH1 0x40 MLOAD DUP1 SWAP2 SUB SWAP1 REVERT JUMPDEST PUSH2 0x17A3 PUSH8 0xB63CB30EE74EB87 PUSH1 0xC0 SHL PUSH2 0x399B JUMP JUMPDEST PUSH2 0x17B7 PUSH8 0xB539996BB08DCBB0 PUSH1 0xC0 SHL PUSH2 0x399B JUMP JUMPDEST PUSH1 0x0 PUSH1 0x7 PUSH1 0x0 DUP7 DUP2 MSTORE PUSH1 0x20 ADD SWAP1 DUP2 MSTORE PUSH1 0x20 ADD PUSH1 0x0 KECCAK256 PUSH1 0x0 CALLER PUSH20 0xFFFFFFFFFFFFFFFFFFFFFFFFFFFFFFFFFFFFFFFF AND PUSH20 0xFFFFFFFFFFFFFFFFFFFFFFFFFFFFFFFFFFFFFFFF AND DUP2 MSTORE PUSH1 0x20 ADD SWAP1 DUP2 MSTORE PUSH1 0x20 ADD PUSH1 0x0 KECCAK256 DUP2 SWAP1 SSTORE POP PUSH2 0x1821 PUSH8 0xF1D7378B81EB5F33 PUSH1 0xC0 SHL PUSH2 0x399B JUMP JUMPDEST PUSH2 0x1835 PUSH8 0x45A48611B5774CE9 PUSH1 0xC0 SHL PUSH2 0x399B JUMP JUMPDEST PUSH2 0x1840 DUP4 DUP4 TIMESTAMP PUSH2 0x4251 JUMP JUMPDEST ISZERO PUSH2 0x197B JUMPI PUSH2 0x1859 PUSH8 0xEB65310F0C29C7F8 PUSH1 0xC0 SHL PUSH2 0x399B JUMP JUMPDEST PUSH2 0x186D PUSH8 0x30893C378E35E959 PUSH1 0xC0 SHL PUSH2 0x399B JUMP JUMPDEST PUSH2 0x1881 PUSH8 0xBF8448DF4E238022 PUSH1 0xC0 SHL PUSH2 0x399B JUMP JUMPDEST PUSH1 0x0 DUP1 PUSH2 0x188F DUP5 DUP7 DUP6 PUSH2 0x454C JUMP JUMPDEST SWAP2 POP SWAP2 POP PUSH2 0x18A7 PUSH8 0x274062C5ABF470A PUSH1 0xC0 SHL PUSH2 0x399B JUMP JUMPDEST PUSH2 0x18BB PUSH8 0x25D498563496C3F0 PUSH1 0xC0 SHL PUSH2 0x399B JUMP JUMPDEST PUSH2 0x18C5 CALLER DUP4 PUSH2 0x43CC JUMP JUMPDEST PUSH2 0x18D9 PUSH8 0x33BEC071BBDF9BB2 PUSH1 0xC0 SHL PUSH2 0x399B JUMP JUMPDEST PUSH2 0x18ED PUSH8 0xFE4D331446BBA17 PUSH1 0xC0 SHL PUSH2 0x399B JUMP JUMPDEST PUSH2 0x18FB DUP6 PUSH1 0x0 ADD MLOAD DUP3 PUSH2 0x43CC JUMP JUMPDEST PUSH2 0x190F PUSH8 0xCE12ACCFB1A36FDF PUSH1 0xC0 SHL PUSH2 0x399B JUMP JUMPDEST PUSH2 0x1923 PUSH8 0x7A9AABE5AC494D0 PUSH1 0xC0 SHL PUSH2 0x399B JUMP JUMPDEST DUP6 CALLER PUSH20 0xFFFFFFFFFFFFFFFFFFFFFFFFFFFFFFFFFFFFFFFF AND PUSH32 0xB7048C2AD36AADEE977BB16B4543A18866044D27A2CA753E1C7DBCFA7D7A6962 DUP5 DUP5 PUSH1 0x40 MLOAD PUSH2 0x196C SWAP3 SWAP2 SWAP1 PUSH2 0x6208 JUMP JUMPDEST PUSH1 0x40 MLOAD DUP1 SWAP2 SUB SWAP1 LOG3 POP POP PUSH2 0x1A73 JUMP JUMPDEST PUSH2 0x198F PUSH8 0xF85DDD82CE6492FD PUSH1 0xC0 SHL PUSH2 0x399B JUMP JUMPDEST PUSH2 0x19A3 PUSH8 0xFDF46D00E2A73FB5 PUSH1 0xC0 SHL PUSH2 0x399B JUMP JUMPDEST PUSH2 0x19B7 PUSH8 0xE95223D7C2A8A429 PUSH1 0xC0 SHL PUSH2 0x399B JUMP JUMPDEST PUSH1 0x0 PUSH2 0x19C3 DUP4 DUP4 PUSH2 0x46A2 JUMP JUMPDEST SWAP1 POP PUSH2 0x19D9 PUSH8 0xC4DFA8F2681B86E PUSH1 0xC0 SHL PUSH2 0x399B JUMP JUMPDEST PUSH2 0x19ED PUSH8 0x23B0945C2562A23A PUSH1 0xC0 SHL PUSH2 0x399B JUMP JUMPDEST PUSH2 0x19F7 CALLER DUP3 PUSH2 0x43CC JUMP JUMPDEST PUSH2 0x1A0B PUSH8 0x21B4A7D0310263D2 PUSH1 0xC0 SHL PUSH2 0x399B JUMP JUMPDEST PUSH2 0x1A1F PUSH8 0xF23CDE643AA30A96 PUSH1 0xC0 SHL PUSH2 0x399B JUMP JUMPDEST DUP5 CALLER PUSH20 0xFFFFFFFFFFFFFFFFFFFFFFFFFFFFFFFFFFFFFFFF AND PUSH32 0xB7048C2AD36AADEE977BB16B4543A18866044D27A2CA753E1C7DBCFA7D7A6962 DUP4 PUSH1 0x0 PUSH1 0x40 MLOAD PUSH2 0x1A69 SWAP3 SWAP2 SWAP1 PUSH2 0x626C JUMP JUMPDEST PUSH1 0x40 MLOAD DUP1 SWAP2 SUB SWAP1 LOG3 POP JUMPDEST PUSH2 0x1A87 PUSH8 0x5A8ACFFD987A0A38 PUSH1 0xC0 SHL PUSH2 0x399B JUMP JUMPDEST PUSH2 0x1A9B PUSH8 0x824C5B35E5AB9482 PUSH1 0xC0 SHL PUSH2 0x399B JUMP JUMPDEST PUSH2 0x1AA5 DUP5 DUP4 PUSH2 0x3F6B JUMP JUMPDEST POP POP POP POP JUMP JUMPDEST PUSH1 0x0 PUSH2 0x1AC1 PUSH8 0x3C503B27F6C159A PUSH1 0xC0 SHL PUSH2 0x399B JUMP JUMPDEST PUSH2 0x1AD5 PUSH8 0x4BFBEC845895768E PUSH1 0xC0 SHL PUSH2 0x399B JUMP JUMPDEST PUSH1 0x2 PUSH1 0x0 DUP2 SLOAD DUP1 SWAP3 SWAP2 SWAP1 PUSH2 0x1AE8 SWAP1 PUSH2 0x61C0 JUMP JUMPDEST SWAP2 SWAP1 POP SSTORE POP PUSH2 0x1B01 PUSH8 0xB57E8B5FB2ABFE79 PUSH1 0xC0 SHL PUSH2 0x399B JUMP JUMPDEST PUSH1 0x2 SLOAD SWAP1 POP PUSH2 0x1B1A PUSH8 0x623F07046CA2D167 PUSH1 0xC0 SHL PUSH2 0x399B JUMP JUMPDEST PUSH2 0x1B2E PUSH8 0xF22FEB3DB84D9E10 PUSH1 0xC0 SHL PUSH2 0x399B JUMP JUMPDEST PUSH1 0x0 DUP3 DUP1 PUSH1 0x0 ADD SWAP1 PUSH2 0x1B40 SWAP2 SWAP1 PUSH2 0x62A4 JUMP JUMPDEST SWAP1 POP SUB PUSH2 0x1BA1 JUMPI PUSH2 0x1B5B PUSH8 0xE6EFBB006EE5E368 PUSH1 0xC0 SHL PUSH2 0x399B JUMP JUMPDEST PUSH2 0x1B6F PUSH8 0x5FE40560EB862C1 PUSH1 0xC0 SHL PUSH2 0x399B JUMP JUMPDEST PUSH1 0x40 MLOAD PUSH32 0xA37E92500000000000000000000000000000000000000000000000000000000 DUP2 MSTORE PUSH1 0x4 ADD PUSH1 0x40 MLOAD DUP1 SWAP2 SUB SWAP1 REVERT JUMPDEST PUSH2 0x1BB5 PUSH8 0x396D071FE4970ABD PUSH1 0xC0 SHL PUSH2 0x399B JUMP JUMPDEST PUSH2 0x1BC9 PUSH8 0xAD99490A905F2AAD PUSH1 0xC0 SHL PUSH2 0x399B JUMP JUMPDEST PUSH2 0x1BDD PUSH8 0x8041D39FBFABAE74 PUSH1 0xC0 SHL PUSH2 0x399B JUMP JUMPDEST PUSH1 0x1 DUP3 PUSH1 0x20 ADD PUSH1 0x20 DUP2 ADD SWAP1 PUSH2 0x1BF2 SWAP2 SWAP1 PUSH2 0x6307 JUMP JUMPDEST PUSH1 0xFF AND LT ISZERO PUSH2 0x1C55 JUMPI PUSH2 0x1C0F PUSH8 0x98E3781617A89E10 PUSH1 0xC0 SHL PUSH2 0x399B JUMP JUMPDEST PUSH2 0x1C23 PUSH8 0xF797FB785A8FE070 PUSH1 0xC0 SHL PUSH2 0x399B JUMP JUMPDEST PUSH1 0x40 MLOAD PUSH32 0xAB4102AC00000000000000000000000000000000000000000000000000000000 DUP2 MSTORE PUSH1 0x4 ADD PUSH1 0x40 MLOAD DUP1 SWAP2 SUB SWAP1 REVERT JUMPDEST PUSH2 0x1C69 PUSH8 0x66AB489AD214BBEE PUSH1 0xC0 SHL PUSH2 0x399B JUMP JUMPDEST PUSH2 0x1C7D PUSH8 0xF392EB5DE5925450 PUSH1 0xC0 SHL PUSH2 0x399B JUMP JUMPDEST PUSH2 0x1C91 PUSH8 0x710CDB233F6A4B99 PUSH1 0xC0 SHL PUSH2 0x399B JUMP JUMPDEST PUSH1 0x1 DUP3 PUSH1 0x40 ADD CALLDATALOAD LT ISZERO PUSH2 0x1CF8 JUMPI PUSH2 0x1CB2 PUSH8 0x88270BE1D6A046ED PUSH1 0xC0 SHL PUSH2 0x399B JUMP JUMPDEST PUSH2 0x1CC6 PUSH8 0x7534D6089D2E6F46 PUSH1 0xC0 SHL PUSH2 0x399B JUMP JUMPDEST PUSH1 0x40 MLOAD PUSH32 0xEE4E342B00000000000000000000000000000000000000000000000000000000 DUP2 MSTORE PUSH1 0x4 ADD PUSH1 0x40 MLOAD DUP1 SWAP2 SUB SWAP1 REVERT JUMPDEST PUSH2 0x1D0C PUSH8 0xF487E9B19CBF00A4 PUSH1 0xC0 SHL PUSH2 0x399B JUMP JUMPDEST PUSH2 0x1D20 PUSH8 0x680C6775A4681556 PUSH1 0xC0 SHL PUSH2 0x399B JUMP JUMPDEST PUSH2 0x1D34 PUSH8 0x659A99B8D84AB553 PUSH1 0xC0 SHL PUSH2 0x399B JUMP JUMPDEST PUSH1 0x0 DUP3 DUP1 PUSH1 0xA0 ADD SWAP1 PUSH2 0x1D46 SWAP2 SWAP1 PUSH2 0x6334 JUMP JUMPDEST SWAP1 POP SWAP1 POP PUSH2 0x1D5E PUSH8 0x9DE696000AD5420E PUSH1 0xC0 SHL PUSH2 0x399B JUMP JUMPDEST PUSH2 0x1D72 PUSH8 0x9A6FEC8895C14C35 PUSH1 0xC0 SHL PUSH2 0x399B JUMP JUMPDEST DUP1 DUP4 DUP1 PUSH1 0x60 ADD SWAP1 PUSH2 0x1D83 SWAP2 SWAP1 PUSH2 0x6397 JUMP JUMPDEST SWAP1 POP EQ PUSH2 0x1DE4 JUMPI PUSH2 0x1D9E PUSH8 0x76BBF43FB793070A PUSH1 0xC0 SHL PUSH2 0x399B JUMP JUMPDEST PUSH2 0x1DB2 PUSH8 0x5A01D7CF5B048450 PUSH1 0xC0 SHL PUSH2 0x399B JUMP JUMPDEST PUSH1 0x40 MLOAD PUSH32 0x2D1EBEB800000000000000000000000000000000000000000000000000000000 DUP2 MSTORE PUSH1 0x4 ADD PUSH1 0x40 MLOAD DUP1 SWAP2 SUB SWAP1 REVERT JUMPDEST PUSH2 0x1DF8 PUSH8 0xE11D6F37A7F5F754 PUSH1 0xC0 SHL PUSH2 0x399B JUMP JUMPDEST PUSH2 0x1E0C PUSH8 0x72D0C71BBD0DAC8 PUSH1 0xC0 SHL PUSH2 0x399B JUMP JUMPDEST PUSH2 0x1E20 PUSH8 0xE616BE460D66491B PUSH1 0xC0 SHL PUSH2 0x399B JUMP JUMPDEST DUP1 DUP4 DUP1 PUSH1 0x80 ADD SWAP1 PUSH2 0x1E31 SWAP2 SWAP1 PUSH2 0x6397 JUMP JUMPDEST SWAP1 POP EQ PUSH2 0x1E92 JUMPI PUSH2 0x1E4C PUSH8 0x20A405695BDE0F57 PUSH1 0xC0 SHL PUSH2 0x399B JUMP JUMPDEST PUSH2 0x1E60 PUSH8 0x4F6314749C62D3AF PUSH1 0xC0 SHL PUSH2 0x399B JUMP JUMPDEST PUSH1 0x40 MLOAD PUSH32 0x2D1EBEB800000000000000000000000000000000000000000000000000000000 DUP2 MSTORE PUSH1 0x4 ADD PUSH1 0x40 MLOAD DUP1 SWAP2 SUB SWAP1 REVERT JUMPDEST PUSH2 0x1EA6 PUSH8 0x3DFC986D7A3AB37D PUSH1 0xC0 SHL PUSH2 0x399B JUMP JUMPDEST PUSH2 0x1EBA PUSH8 0x3AA8FF503CA3EFAA PUSH1 0xC0 SHL PUSH2 0x399B JUMP JUMPDEST PUSH2 0x1ECE PUSH8 0x95C433D39B3FBD2D PUSH1 0xC0 SHL PUSH2 0x399B JUMP JUMPDEST PUSH1 0x0 PUSH2 0x1EE4 PUSH8 0x6C0CF99A9DB701DC PUSH1 0xC0 SHL PUSH2 0x399B JUMP JUMPDEST PUSH2 0x1EF8 PUSH8 0xF3D0C476E62B73B4 PUSH1 0xC0 SHL PUSH2 0x399B JUMP JUMPDEST TIMESTAMP DUP5 DUP1 PUSH1 0xA0 ADD SWAP1 PUSH2 0x1F09 SWAP2 SWAP1 PUSH2 0x6334 JUMP JUMPDEST PUSH1 0x0 DUP2 DUP2 LT PUSH2 0x1F1B JUMPI PUSH2 0x1F1A PUSH2 0x6191 JUMP JUMPDEST JUMPDEST SWAP1 POP PUSH1 0x20 MUL ADD CALLDATALOAD GT PUSH2 0x1F81 JUMPI PUSH2 0x1F3B PUSH8 0x7EF1A6B2AEE7B559 PUSH1 0xC0 SHL PUSH2 0x399B JUMP JUMPDEST PUSH2 0x1F4F PUSH8 0xF5012E458D3C1FC1 PUSH1 0xC0 SHL PUSH2 0x399B JUMP JUMPDEST PUSH1 0x40 MLOAD PUSH32 0xA3644E9F00000000000000000000000000000000000000000000000000000000 DUP2 MSTORE PUSH1 0x4 ADD PUSH1 0x40 MLOAD DUP1 SWAP2 SUB SWAP1 REVERT JUMPDEST PUSH2 0x1F95 PUSH8 0x3EA8FE12AAB22652 PUSH1 0xC0 SHL PUSH2 0x399B JUMP JUMPDEST PUSH2 0x1FA9 PUSH8 0xAB738A879241746E PUSH1 0xC0 SHL PUSH2 0x399B JUMP JUMPDEST PUSH2 0x1FBD PUSH8 0x7241090EE69135E PUSH1 0xC0 SHL PUSH2 0x399B JUMP JUMPDEST PUSH1 0x0 JUMPDEST DUP3 DUP2 LT ISZERO PUSH2 0x2266 JUMPI PUSH2 0x1FDC PUSH8 0xEB98AAE558A6DAED PUSH1 0xC0 SHL PUSH2 0x399B JUMP JUMPDEST PUSH2 0x1FF0 PUSH8 0x5B30191F5E2BEF76 PUSH1 0xC0 SHL PUSH2 0x399B JUMP JUMPDEST PUSH1 0x0 DUP6 DUP1 PUSH1 0xA0 ADD SWAP1 PUSH2 0x2002 SWAP2 SWAP1 PUSH2 0x6334 JUMP JUMPDEST DUP4 DUP2 DUP2 LT PUSH2 0x2013 JUMPI PUSH2 0x2012 PUSH2 0x6191 JUMP JUMPDEST JUMPDEST SWAP1 POP PUSH1 0x20 MUL ADD CALLDATALOAD SWAP1 POP PUSH2 0x2030 PUSH8 0xD0C73FE856E64B36 PUSH1 0xC0 SHL PUSH2 0x399B JUMP JUMPDEST PUSH2 0x2044 PUSH8 0x63FDBAFFD61E0D78 PUSH1 0xC0 SHL PUSH2 0x399B JUMP JUMPDEST DUP1 DUP4 LT PUSH2 0x20A5 JUMPI PUSH2 0x205F PUSH8 0x4BB634FE1484DE84 PUSH1 0xC0 SHL PUSH2 0x399B JUMP JUMPDEST PUSH2 0x2073 PUSH8 0xA43655AB1F26DAD1 PUSH1 0xC0 SHL PUSH2 0x399B JUMP JUMPDEST PUSH1 0x40 MLOAD PUSH32 0xB7D0949700000000000000000000000000000000000000000000000000000000 DUP2 MSTORE PUSH1 0x4 ADD PUSH1 0x40 MLOAD DUP1 SWAP2 SUB SWAP1 REVERT JUMPDEST PUSH2 0x20B9 PUSH8 0x66C013618E0ABFFC PUSH1 0xC0 SHL PUSH2 0x399B JUMP JUMPDEST PUSH2 0x20CD PUSH8 0x527DACAEB62BC36F PUSH1 0xC0 SHL PUSH2 0x399B JUMP JUMPDEST DUP1 SWAP3 POP PUSH2 0x20E4 PUSH8 0xE8A28A0080DAB343 PUSH1 0xC0 SHL PUSH2 0x399B JUMP JUMPDEST PUSH2 0x20F8 PUSH8 0xBE9F076C437EDFBD PUSH1 0xC0 SHL PUSH2 0x399B JUMP JUMPDEST PUSH1 0x0 DUP7 DUP1 PUSH1 0x60 ADD SWAP1 PUSH2 0x210A SWAP2 SWAP1 PUSH2 0x6397 JUMP JUMPDEST DUP5 DUP2 DUP2 LT PUSH2 0x211B JUMPI PUSH2 0x211A PUSH2 0x6191 JUMP JUMPDEST JUMPDEST SWAP1 POP PUSH1 0x20 MUL DUP2 ADD SWAP1 PUSH2 0x212D SWAP2 SWAP1 PUSH2 0x62A4 JUMP JUMPDEST DUP1 DUP1 PUSH1 0x1F ADD PUSH1 0x20 DUP1 SWAP2 DIV MUL PUSH1 0x20 ADD PUSH1 0x40 MLOAD SWAP1 DUP2 ADD PUSH1 0x40 MSTORE DUP1 SWAP4 SWAP3 SWAP2 SWAP1 DUP2 DUP2 MSTORE PUSH1 0x20 ADD DUP4 DUP4 DUP1 DUP3 DUP5 CALLDATACOPY PUSH1 0x0 DUP2 DUP5 ADD MSTORE PUSH1 0x1F NOT PUSH1 0x1F DUP3 ADD AND SWAP1 POP DUP1 DUP4 ADD SWAP3 POP POP POP POP POP POP POP SWAP1 POP PUSH2 0x2186 PUSH8 0xD1739FCF7C5343DD PUSH1 0xC0 SHL PUSH2 0x399B JUMP JUMPDEST PUSH2 0x219A PUSH8 0x3F48DE3AF1DBCB3 PUSH1 0xC0 SHL PUSH2 0x399B JUMP JUMPDEST PUSH1 0x0 DUP8 DUP1 PUSH1 0x80 ADD SWAP1 PUSH2 0x21AC SWAP2 SWAP1 PUSH2 0x6397 JUMP JUMPDEST DUP6 DUP2 DUP2 LT PUSH2 0x21BD JUMPI PUSH2 0x21BC PUSH2 0x6191 JUMP JUMPDEST JUMPDEST SWAP1 POP PUSH1 0x20 MUL DUP2 ADD SWAP1 PUSH2 0x21CF SWAP2 SWAP1 PUSH2 0x62A4 JUMP JUMPDEST DUP1 DUP1 PUSH1 0x1F ADD PUSH1 0x20 DUP1 SWAP2 DIV MUL PUSH1 0x20 ADD PUSH1 0x40 MLOAD SWAP1 DUP2 ADD PUSH1 0x40 MSTORE DUP1 SWAP4 SWAP3 SWAP2 SWAP1 DUP2 DUP2 MSTORE PUSH1 0x20 ADD DUP4 DUP4 DUP1 DUP3 DUP5 CALLDATACOPY PUSH1 0x0 DUP2 DUP5 ADD MSTORE PUSH1 0x1F NOT PUSH1 0x1F DUP3 ADD AND SWAP1 POP DUP1 DUP4 ADD SWAP3 POP POP POP POP POP POP POP SWAP1 POP PUSH2 0x2228 PUSH8 0x55431BDBBA06A2FF PUSH1 0xC0 SHL PUSH2 0x399B JUMP JUMPDEST PUSH2 0x223C PUSH8 0xDE720B92AC62411F PUSH1 0xC0 SHL PUSH2 0x399B JUMP JUMPDEST PUSH2 0x2250 DUP8 PUSH2 0x224B DUP5 DUP5 DUP8 PUSH2 0x476D JUMP JUMPDEST PUSH2 0x47D6 JUMP JUMPDEST POP POP POP DUP1 DUP1 PUSH2 0x225E SWAP1 PUSH2 0x61C0 JUMP JUMPDEST SWAP2 POP POP PUSH2 0x1FC0 JUMP JUMPDEST POP PUSH2 0x227B PUSH8 0xF68EB6DECDFC3348 PUSH1 0xC0 SHL PUSH2 0x399B JUMP JUMPDEST PUSH2 0x228F PUSH8 0x42150901C207F41A PUSH1 0xC0 SHL PUSH2 0x399B JUMP JUMPDEST DUP2 DUP5 PUSH1 0xC0 ADD PUSH1 0x20 DUP2 ADD SWAP1 PUSH2 0x22A3 SWAP2 SWAP1 PUSH2 0x6307 JUMP JUMPDEST PUSH1 0xFF AND LT PUSH2 0x2305 JUMPI PUSH2 0x22BF PUSH8 0x5D1996B48CB52B44 PUSH1 0xC0 SHL PUSH2 0x399B JUMP JUMPDEST PUSH2 0x22D3 PUSH8 0x7D81B6B62A59982E PUSH1 0xC0 SHL PUSH2 0x399B JUMP JUMPDEST PUSH1 0x40 MLOAD PUSH32 0x5861AC5E00000000000000000000000000000000000000000000000000000000 DUP2 MSTORE PUSH1 0x4 ADD PUSH1 0x40 MLOAD DUP1 SWAP2 SUB SWAP1 REVERT JUMPDEST PUSH2 0x2319 PUSH8 0x542382F81C2AED38 PUSH1 0xC0 SHL PUSH2 0x399B JUMP JUMPDEST PUSH2 0x232D PUSH8 0xB09369ECD53F4E64 PUSH1 0xC0 SHL PUSH2 0x399B JUMP JUMPDEST PUSH2 0x2341 PUSH8 0xA44881135C1BFD14 PUSH1 0xC0 SHL PUSH2 0x399B JUMP JUMPDEST PUSH1 0x0 DUP5 PUSH1 0xE0 ADD CALLDATALOAD GT PUSH2 0x23A7 JUMPI PUSH2 0x2361 PUSH8 0x60C4C8273A5C9E97 PUSH1 0xC0 SHL PUSH2 0x399B JUMP JUMPDEST PUSH2 0x2375 PUSH8 0x9A2012BDDF7E279A PUSH1 0xC0 SHL PUSH2 0x399B JUMP JUMPDEST PUSH1 0x40 MLOAD PUSH32 0xA8E0BC8500000000000000000000000000000000000000000000000000000000 DUP2 MSTORE PUSH1 0x4 ADD PUSH1 0x40 MLOAD DUP1 SWAP2 SUB SWAP1 REVERT JUMPDEST PUSH2 0x23BB PUSH8 0xAC8E0C252C3CCABF PUSH1 0xC0 SHL PUSH2 0x399B JUMP JUMPDEST PUSH2 0x23CF PUSH8 0x231F79FBD99FA90A PUSH1 0xC0 SHL PUSH2 0x399B JUMP JUMPDEST PUSH2 0x248B CALLER DUP6 DUP1 PUSH1 0x0 ADD SWAP1 PUSH2 0x23E3 SWAP2 SWAP1 PUSH2 0x62A4 JUMP JUMPDEST DUP8 PUSH1 0x20 ADD PUSH1 0x20 DUP2 ADD SWAP1 PUSH2 0x23F6 SWAP2 SWAP1 PUSH2 0x6307 JUMP JUMPDEST DUP9 PUSH1 0x40 ADD CALLDATALOAD DUP8 DUP11 PUSH1 0xC0 ADD PUSH1 0x20 DUP2 ADD SWAP1 PUSH2 0x240F SWAP2 SWAP1 PUSH2 0x6307 JUMP JUMPDEST DUP12 PUSH1 0xE0 ADD CALLDATALOAD DUP13 DUP1 PUSH1 0xA0 ADD SWAP1 PUSH2 0x2424 SWAP2 SWAP1 PUSH2 0x6334 JUMP JUMPDEST DUP15 PUSH1 0xC0 ADD PUSH1 0x20 DUP2 ADD SWAP1 PUSH2 0x2437 SWAP2 SWAP1 PUSH2 0x6307 JUMP JUMPDEST PUSH1 0xFF AND DUP2 DUP2 LT PUSH2 0x244A JUMPI PUSH2 0x2449 PUSH2 0x6191 JUMP JUMPDEST JUMPDEST SWAP1 POP PUSH1 0x20 MUL ADD CALLDATALOAD DUP14 DUP1 PUSH1 0xA0 ADD SWAP1 PUSH2 0x2461 SWAP2 SWAP1 PUSH2 0x6334 JUMP JUMPDEST PUSH1 0x1 DUP15 PUSH2 0x246E SWAP2 SWAP1 PUSH2 0x63FA JUMP JUMPDEST DUP2 DUP2 LT PUSH2 0x247E JUMPI PUSH2 0x247D PUSH2 0x6191 JUMP JUMPDEST JUMPDEST SWAP1 POP PUSH1 0x20 MUL ADD CALLDATALOAD TIMESTAMP PUSH2 0x48A1 JUMP JUMPDEST PUSH1 0x3 PUSH1 0x0 DUP6 DUP2 MSTORE PUSH1 0x20 ADD SWAP1 DUP2 MSTORE PUSH1 0x20 ADD PUSH1 0x0 KECCAK256 PUSH1 0x0 DUP3 ADD MLOAD DUP2 PUSH1 0x0 ADD PUSH1 0x0 PUSH2 0x100 EXP DUP2 SLOAD DUP2 PUSH20 0xFFFFFFFFFFFFFFFFFFFFFFFFFFFFFFFFFFFFFFFF MUL NOT AND SWAP1 DUP4 PUSH20 0xFFFFFFFFFFFFFFFFFFFFFFFFFFFFFFFFFFFFFFFF AND MUL OR SWAP1 SSTORE POP PUSH1 0x20 DUP3 ADD MLOAD DUP2 PUSH1 0x1 ADD SWAP1 DUP2 PUSH2 0x24FA SWAP2 SWAP1 PUSH2 0x642E JUMP JUMPDEST POP PUSH1 0x40 DUP3 ADD MLOAD DUP2 PUSH1 0x2 ADD PUSH1 0x0 PUSH2 0x100 EXP DUP2 SLOAD DUP2 PUSH1 0xFF MUL NOT AND SWAP1 DUP4 PUSH1 0xFF AND MUL OR SWAP1 SSTORE POP PUSH1 0x60 DUP3 ADD MLOAD DUP2 PUSH1 0x3 ADD SSTORE PUSH1 0x80 DUP3 ADD MLOAD DUP2 PUSH1 0x4 ADD PUSH1 0x0 PUSH2 0x100 EXP DUP2 SLOAD DUP2 PUSH1 0xFF MUL NOT AND SWAP1 DUP4 PUSH1 0xFF AND MUL OR SWAP1 SSTORE POP PUSH1 0xA0 DUP3 ADD MLOAD DUP2 PUSH1 0x4 ADD PUSH1 0x1 PUSH2 0x100 EXP DUP2 SLOAD DUP2 PUSH1 0xFF MUL NOT AND SWAP1 DUP4 PUSH1 0xFF AND MUL OR SWAP1 SSTORE POP PUSH1 0xC0 DUP3 ADD MLOAD DUP2 PUSH1 0x5 ADD SSTORE PUSH1 0xE0 DUP3 ADD MLOAD DUP2 PUSH1 0x6 ADD SSTORE PUSH2 0x100 DUP3 ADD MLOAD DUP2 PUSH1 0x7 ADD SSTORE PUSH2 0x120 DUP3 ADD MLOAD DUP2 PUSH1 0x8 ADD SSTORE SWAP1 POP POP PUSH2 0x25A9 PUSH8 0x79BBD213EF6F5167 PUSH1 0xC0 SHL PUSH2 0x399B JUMP JUMPDEST PUSH2 0x25BD PUSH8 0xF40EF19090C45660 PUSH1 0xC0 SHL PUSH2 0x399B JUMP JUMPDEST PUSH2 0x25D3 DUP4 PUSH2 0x25CE DUP7 PUSH1 0x40 ADD CALLDATALOAD PUSH2 0x498B JUMP JUMPDEST PUSH2 0x3F6B JUMP JUMPDEST PUSH2 0x25E7 PUSH8 0xE58B12D7883CE7E5 PUSH1 0xC0 SHL PUSH2 0x399B JUMP JUMPDEST PUSH2 0x25FB PUSH8 0x269B61692F7BA636 PUSH1 0xC0 SHL PUSH2 0x399B JUMP JUMPDEST DUP3 CALLER PUSH20 0xFFFFFFFFFFFFFFFFFFFFFFFFFFFFFFFFFFFFFFFF AND PUSH32 0x3EACE93FD0C19B6C99D9BDE3F97F64D4236C6D3D477771C0C3836FC25D376BB7 DUP5 PUSH1 0x40 MLOAD PUSH2 0x2642 SWAP2 SWAP1 PUSH2 0x5E3D JUMP JUMPDEST PUSH1 0x40 MLOAD DUP1 SWAP2 SUB SWAP1 LOG3 PUSH2 0x265E PUSH8 0x97DFCE3166AF160D PUSH1 0xC0 SHL PUSH2 0x399B JUMP JUMPDEST PUSH2 0x2672 PUSH8 0xE2042B2449267C9C PUSH1 0xC0 SHL PUSH2 0x399B JUMP JUMPDEST POP POP SWAP2 SWAP1 POP JUMP JUMPDEST PUSH1 0x2 SLOAD DUP2 JUMP JUMPDEST PUSH2 0x2687 PUSH2 0x4A3F JUMP JUMPDEST PUSH2 0x2691 PUSH1 0x0 PUSH2 0x4ABD JUMP JUMPDEST JUMP JUMPDEST PUSH2 0x269B PUSH2 0x544B JUMP JUMPDEST PUSH2 0x26AF PUSH8 0x352D197F19D6199D PUSH1 0xC0 SHL PUSH2 0x399B JUMP JUMPDEST PUSH2 0x26C3 PUSH8 0xE2A719190029C089 PUSH1 0xC0 SHL PUSH2 0x399B JUMP JUMPDEST PUSH2 0x26D7 PUSH8 0x70B0932FFA06945E PUSH1 0xC0 SHL PUSH2 0x399B JUMP JUMPDEST PUSH1 0x0 PUSH2 0x26E2 DUP4 PUSH2 0x399E JUMP JUMPDEST SWAP1 POP PUSH2 0x26F8 PUSH8 0x4DE3C7219DE5E03 PUSH1 0xC0 SHL PUSH2 0x399B JUMP JUMPDEST PUSH2 0x270C PUSH8 0x8D1FE0A69DEC4A58 PUSH1 0xC0 SHL PUSH2 0x399B JUMP JUMPDEST PUSH1 0x0 PUSH2 0x2717 DUP5 PUSH2 0x3B65 JUMP JUMPDEST SWAP1 POP PUSH2 0x272D PUSH8 0xAFFA4D6F90AC318F PUSH1 0xC0 SHL PUSH2 0x399B JUMP JUMPDEST PUSH2 0x2741 PUSH8 0x93E8525B89FE699 PUSH1 0xC0 SHL PUSH2 0x399B JUMP JUMPDEST PUSH1 0x0 PUSH2 0x274C DUP6 PUSH2 0x4B81 JUMP JUMPDEST SWAP1 POP PUSH2 0x2762 PUSH8 0xCFC042EE9059C209 PUSH1 0xC0 SHL PUSH2 0x399B JUMP JUMPDEST PUSH2 0x276E DUP4 DUP4 DUP4 TIMESTAMP PUSH2 0x4DDB JUMP JUMPDEST SWAP4 POP POP POP POP SWAP2 SWAP1 POP JUMP JUMPDEST PUSH1 0x0 DUP1 PUSH1 0x0 SWAP1 SLOAD SWAP1 PUSH2 0x100 EXP SWAP1 DIV PUSH20 0xFFFFFFFFFFFFFFFFFFFFFFFFFFFFFFFFFFFFFFFF AND SWAP1 POP SWAP1 JUMP JUMPDEST PUSH2 0x27B5 PUSH8 0xA4F475E931E13CD3 PUSH1 0xC0 SHL PUSH2 0x399B JUMP JUMPDEST PUSH2 0x27C9 PUSH8 0x8BD48EB855025C13 PUSH1 0xC0 SHL PUSH2 0x399B JUMP JUMPDEST PUSH2 0x27DD PUSH8 0xB860833EBC7717CB PUSH1 0xC0 SHL PUSH2 0x399B JUMP JUMPDEST PUSH1 0x0 PUSH2 0x27E8 DUP3 PUSH2 0x399E JUMP JUMPDEST SWAP1 POP PUSH2 0x27FE PUSH8 0x62D20FE56B51A1BD PUSH1 0xC0 SHL PUSH2 0x399B JUMP JUMPDEST PUSH2 0x2812 PUSH8 0x2AA70005CDA0490C PUSH1 0xC0 SHL PUSH2 0x399B JUMP JUMPDEST PUSH1 0x0 PUSH2 0x281D DUP4 PUSH2 0x3B65 JUMP JUMPDEST SWAP1 POP PUSH2 0x2833 PUSH8 0xC42F7F74EF55BEC4 PUSH1 0xC0 SHL PUSH2 0x399B JUMP JUMPDEST PUSH2 0x2847 PUSH8 0xC36D5D2BC3EBBAA2 PUSH1 0xC0 SHL PUSH2 0x399B JUMP JUMPDEST PUSH1 0x0 PUSH1 0x1 PUSH1 0x0 SWAP1 SLOAD SWAP1 PUSH2 0x100 EXP SWAP1 DIV PUSH20 0xFFFFFFFFFFFFFFFFFFFFFFFFFFFFFFFFFFFFFFFF AND PUSH20 0xFFFFFFFFFFFFFFFFFFFFFFFFFFFFFFFFFFFFFFFF AND PUSH4 0x23B872DD CALLER ADDRESS DUP9 PUSH1 0x40 MLOAD DUP5 PUSH4 0xFFFFFFFF AND PUSH1 0xE0 SHL DUP2 MSTORE PUSH1 0x4 ADD PUSH2 0x28A8 SWAP4 SWAP3 SWAP2 SWAP1 PUSH2 0x6500 JUMP JUMPDEST PUSH1 0x20 PUSH1 0x40 MLOAD DUP1 DUP4 SUB DUP2 PUSH1 0x0 DUP8 GAS CALL ISZERO DUP1 ISZERO PUSH2 0x28C7 JUMPI RETURNDATASIZE PUSH1 0x0 DUP1 RETURNDATACOPY RETURNDATASIZE PUSH1 0x0 REVERT JUMPDEST POP POP POP POP PUSH1 0x40 MLOAD RETURNDATASIZE PUSH1 0x1F NOT PUSH1 0x1F DUP3 ADD AND DUP3 ADD DUP1 PUSH1 0x40 MSTORE POP DUP2 ADD SWAP1 PUSH2 0x28EB SWAP2 SWAP1 PUSH2 0x656F JUMP JUMPDEST SWAP1 POP PUSH2 0x2901 PUSH8 0x3AE9A8F7A26293D6 PUSH1 0xC0 SHL PUSH2 0x399B JUMP JUMPDEST PUSH2 0x2915 PUSH8 0xB1E45E077D426EA6 PUSH1 0xC0 SHL PUSH2 0x399B JUMP JUMPDEST DUP1 PUSH2 0x2974 JUMPI PUSH2 0x292E PUSH8 0xA1A7723F9C4D99EF PUSH1 0xC0 SHL PUSH2 0x399B JUMP JUMPDEST PUSH2 0x2942 PUSH8 0xCE620C6679B7E0E6 PUSH1 0xC0 SHL PUSH2 0x399B JUMP JUMPDEST PUSH1 0x40 MLOAD PUSH32 0xBFA871C500000000000000000000000000000000000000000000000000000000 DUP2 MSTORE PUSH1 0x4 ADD PUSH1 0x40 MLOAD DUP1 SWAP2 SUB SWAP1 REVERT JUMPDEST PUSH2 0x2988 PUSH8 0x48C663FBE1C6D685 PUSH1 0xC0 SHL PUSH2 0x399B JUMP JUMPDEST PUSH2 0x299C PUSH8 0x754CAB12D3D9D957 PUSH1 0xC0 SHL PUSH2 0x399B JUMP JUMPDEST PUSH2 0x29B0 PUSH8 0xA0ACB36463DF59EF PUSH1 0xC0 SHL PUSH2 0x399B JUMP JUMPDEST CALLER PUSH20 0xFFFFFFFFFFFFFFFFFFFFFFFFFFFFFFFFFFFFFFFF AND DUP4 PUSH1 0x0 ADD MLOAD PUSH20 0xFFFFFFFFFFFFFFFFFFFFFFFFFFFFFFFFFFFFFFFF AND SUB PUSH2 0x2BFF JUMPI PUSH2 0x29FB PUSH8 0x3DA0377133A64940 PUSH1 0xC0 SHL PUSH2 0x399B JUMP JUMPDEST PUSH2 0x2A0F PUSH8 0x775D6864D9DA7B5D PUSH1 0xC0 SHL PUSH2 0x399B JUMP JUMPDEST PUSH2 0x2A23 PUSH8 0xAF69B404AB26C81D PUSH1 0xC0 SHL PUSH2 0x399B JUMP JUMPDEST PUSH1 0x0 DUP3 PUSH2 0x100 ADD MLOAD PUSH1 0xFF AND EQ PUSH2 0x2A8D JUMPI PUSH2 0x2A47 PUSH8 0xE5303BAE72FE5593 PUSH1 0xC0 SHL PUSH2 0x399B JUMP JUMPDEST PUSH2 0x2A5B PUSH8 0x39AD974B41505B90 PUSH1 0xC0 SHL PUSH2 0x399B JUMP JUMPDEST PUSH1 0x40 MLOAD PUSH32 0x378F52D100000000000000000000000000000000000000000000000000000000 DUP2 MSTORE PUSH1 0x4 ADD PUSH1 0x40 MLOAD DUP1 SWAP2 SUB SWAP1 REVERT JUMPDEST PUSH2 0x2AA1 PUSH8 0x43292C2106DF118C PUSH1 0xC0 SHL PUSH2 0x399B JUMP JUMPDEST PUSH2 0x2AB5 PUSH8 0xF7709E15371A0063 PUSH1 0xC0 SHL PUSH2 0x399B JUMP JUMPDEST PUSH2 0x2AC9 PUSH8 0xFF745E6134EEB8E0 PUSH1 0xC0 SHL PUSH2 0x399B JUMP JUMPDEST DUP5 PUSH2 0x2AD3 DUP5 PUSH2 0x4378 JUMP JUMPDEST EQ PUSH2 0x2B47 JUMPI PUSH2 0x2AEC PUSH8 0xCF0C511B6851E746 PUSH1 0xC0 SHL PUSH2 0x399B JUMP JUMPDEST PUSH2 0x2B00 PUSH8 0x266EFF3188A8E061 PUSH1 0xC0 SHL PUSH2 0x399B JUMP JUMPDEST DUP5 PUSH2 0x2B0A DUP5 PUSH2 0x4378 JUMP JUMPDEST PUSH1 0x40 MLOAD PUSH32 0x46D8661800000000000000000000000000000000000000000000000000000000 DUP2 MSTORE PUSH1 0x4 ADD PUSH2 0x2B3E SWAP3 SWAP2 SWAP1 PUSH2 0x6208 JUMP JUMPDEST PUSH1 0x40 MLOAD DUP1 SWAP2 SUB SWAP1 REVERT JUMPDEST PUSH2 0x2B5B PUSH8 0x2A877249AC3CB6D9 PUSH1 0xC0 SHL PUSH2 0x399B JUMP JUMPDEST PUSH2 0x2B6F PUSH8 0x1E1EADF0578349B6 PUSH1 0xC0 SHL PUSH2 0x399B JUMP JUMPDEST PUSH1 0x1 DUP3 PUSH2 0x100 ADD SWAP1 PUSH1 0xFF AND SWAP1 DUP2 PUSH1 0xFF AND DUP2 MSTORE POP POP PUSH2 0x2B97 PUSH8 0x19D07C47E3F26746 PUSH1 0xC0 SHL PUSH2 0x399B JUMP JUMPDEST PUSH2 0x2BAB PUSH8 0x1B3774BD9736E654 PUSH1 0xC0 SHL PUSH2 0x399B JUMP JUMPDEST DUP4 CALLER PUSH20 0xFFFFFFFFFFFFFFFFFFFFFFFFFFFFFFFFFFFFFFFF AND PUSH32 0xD9CF864D1E601DBE70E5C673D763A8737ACF74D0E3A562E9DBFA2D9E932116D7 DUP8 PUSH1 0x40 MLOAD PUSH2 0x2BF2 SWAP2 SWAP1 PUSH2 0x591A JUMP JUMPDEST PUSH1 0x40 MLOAD DUP1 SWAP2 SUB SWAP1 LOG3 PUSH2 0x3111 JUMP JUMPDEST PUSH2 0x2C13 PUSH8 0x80ECEA4A6C5B2676 PUSH1 0xC0 SHL PUSH2 0x399B JUMP JUMPDEST PUSH2 0x2C27 PUSH8 0xE36A34F5112D7347 PUSH1 0xC0 SHL PUSH2 0x399B JUMP JUMPDEST PUSH2 0x2C3B PUSH8 0x4BF8F93482AA00A1 PUSH1 0xC0 SHL PUSH2 0x399B JUMP JUMPDEST PUSH1 0x1 DUP3 PUSH2 0x100 ADD MLOAD PUSH1 0xFF AND EQ PUSH2 0x2CA5 JUMPI PUSH2 0x2C5F PUSH8 0x536A694D5A93333F PUSH1 0xC0 SHL PUSH2 0x399B JUMP JUMPDEST PUSH2 0x2C73 PUSH8 0xB66376CE429491CD PUSH1 0xC0 SHL PUSH2 0x399B JUMP JUMPDEST PUSH1 0x40 MLOAD PUSH32 0x2DC7FE0F00000000000000000000000000000000000000000000000000000000 DUP2 MSTORE PUSH1 0x4 ADD PUSH1 0x40 MLOAD DUP1 SWAP2 SUB SWAP1 REVERT JUMPDEST PUSH2 0x2CB9 PUSH8 0x3648DF0160A9A67 PUSH1 0xC0 SHL PUSH2 0x399B JUMP JUMPDEST PUSH2 0x2CCD PUSH8 0x49641F83CC095405 PUSH1 0xC0 SHL PUSH2 0x399B JUMP JUMPDEST PUSH2 0x2CE1 PUSH8 0x815CEC325AA59968 PUSH1 0xC0 SHL PUSH2 0x399B JUMP JUMPDEST PUSH2 0x2CEC DUP4 DUP4 TIMESTAMP PUSH2 0x412A JUMP JUMPDEST ISZERO PUSH2 0x2D4B JUMPI PUSH2 0x2D05 PUSH8 0xA1FD69C5D7503534 PUSH1 0xC0 SHL PUSH2 0x399B JUMP JUMPDEST PUSH2 0x2D19 PUSH8 0x80EF0478F38B155F PUSH1 0xC0 SHL PUSH2 0x399B JUMP JUMPDEST PUSH1 0x40 MLOAD PUSH32 0xD677665000000000000000000000000000000000000000000000000000000000 DUP2 MSTORE PUSH1 0x4 ADD PUSH1 0x40 MLOAD DUP1 SWAP2 SUB SWAP1 REVERT JUMPDEST PUSH2 0x2D5F PUSH8 0xC6D89BC18907BFCE PUSH1 0xC0 SHL PUSH2 0x399B JUMP JUMPDEST PUSH2 0x2D73 PUSH8 0xE4BE30669D41E3D PUSH1 0xC0 SHL PUSH2 0x399B JUMP JUMPDEST PUSH2 0x2D87 PUSH8 0xBE8476EB34B73985 PUSH1 0xC0 SHL PUSH2 0x399B JUMP JUMPDEST DUP5 DUP3 PUSH1 0x0 ADD MLOAD LT ISZERO PUSH2 0x2DFE JUMPI PUSH2 0x2DA7 PUSH8 0x4A75CD96EA774617 PUSH1 0xC0 SHL PUSH2 0x399B JUMP JUMPDEST PUSH2 0x2DBB PUSH8 0xA3EA60F798F903B5 PUSH1 0xC0 SHL PUSH2 0x399B JUMP JUMPDEST DUP5 DUP3 PUSH1 0x0 ADD MLOAD PUSH1 0x40 MLOAD PUSH32 0xA3895BA200000000000000000000000000000000000000000000000000000000 DUP2 MSTORE PUSH1 0x4 ADD PUSH2 0x2DF5 SWAP3 SWAP2 SWAP1 PUSH2 0x6208 JUMP JUMPDEST PUSH1 0x40 MLOAD DUP1 SWAP2 SUB SWAP1 REVERT JUMPDEST PUSH2 0x2E12 PUSH8 0xDE56386F9FF6F632 PUSH1 0xC0 SHL PUSH2 0x399B JUMP JUMPDEST PUSH2 0x2E26 PUSH8 0x7905CDC7B787DDE4 PUSH1 0xC0 SHL PUSH2 0x399B JUMP JUMPDEST DUP5 DUP3 PUSH1 0x0 ADD DUP2 DUP2 MLOAD PUSH2 0x2E38 SWAP2 SWAP1 PUSH2 0x63FA JUMP JUMPDEST SWAP2 POP DUP2 DUP2 MSTORE POP POP PUSH2 0x2E53 PUSH8 0x837F64B4AE85337E PUSH1 0xC0 SHL PUSH2 0x399B JUMP JUMPDEST DUP5 DUP3 PUSH1 0x20 ADD DUP2 DUP2 MLOAD PUSH2 0x2E65 SWAP2 SWAP1 PUSH2 0x5D67 JUMP JUMPDEST SWAP2 POP DUP2 DUP2 MSTORE POP POP PUSH2 0x2E80 PUSH8 0x29B05B6EF3589448 PUSH1 0xC0 SHL PUSH2 0x399B JUMP JUMPDEST PUSH2 0x2E94 PUSH8 0xB034FA1BB6A6DDB7 PUSH1 0xC0 SHL PUSH2 0x399B JUMP JUMPDEST PUSH1 0x0 PUSH1 0x7 PUSH1 0x0 DUP7 DUP2 MSTORE PUSH1 0x20 ADD SWAP1 DUP2 MSTORE PUSH1 0x20 ADD PUSH1 0x0 KECCAK256 PUSH1 0x0 CALLER PUSH20 0xFFFFFFFFFFFFFFFFFFFFFFFFFFFFFFFFFFFFFFFF AND PUSH20 0xFFFFFFFFFFFFFFFFFFFFFFFFFFFFFFFFFFFFFFFF AND DUP2 MSTORE PUSH1 0x20 ADD SWAP1 DUP2 MSTORE PUSH1 0x20 ADD PUSH1 0x0 KECCAK256 SLOAD SWAP1 POP PUSH2 0x2EFD PUSH8 0xAFF0C0F4335A9E7C PUSH1 0xC0 SHL PUSH2 0x399B JUMP JUMPDEST PUSH2 0x2F11 PUSH8 0xBE35693235A57647 PUSH1 0xC0 SHL PUSH2 0x399B JUMP JUMPDEST PUSH1 0x0 DUP2 SUB PUSH2 0x2FF8 JUMPI PUSH2 0x2F2D PUSH8 0x8F438D1C38AAB7B6 PUSH1 0xC0 SHL PUSH2 0x399B JUMP JUMPDEST PUSH2 0x2F41 PUSH8 0xBEA99508A42CC7AE PUSH1 0xC0 SHL PUSH2 0x399B JUMP JUMPDEST DUP3 PUSH1 0x40 ADD DUP1 MLOAD DUP1 SWAP2 SWAP1 PUSH2 0x2F53 SWAP1 PUSH2 0x61C0 JUMP JUMPDEST DUP2 MSTORE POP POP PUSH2 0x2F6B PUSH8 0x33ECA3E25CBEFC97 PUSH1 0xC0 SHL PUSH2 0x399B JUMP JUMPDEST PUSH2 0x2F7F PUSH8 0xCB9E5748EB352021 PUSH1 0xC0 SHL PUSH2 0x399B JUMP JUMPDEST PUSH1 0x6 PUSH1 0x0 DUP7 DUP2 MSTORE PUSH1 0x20 ADD SWAP1 DUP2 MSTORE PUSH1 0x20 ADD PUSH1 0x0 KECCAK256 CALLER SWAP1 DUP1 PUSH1 0x1 DUP2 SLOAD ADD DUP1 DUP3 SSTORE DUP1 SWAP2 POP POP PUSH1 0x1 SWAP1 SUB SWAP1 PUSH1 0x0 MSTORE PUSH1 0x20 PUSH1 0x0 KECCAK256 ADD PUSH1 0x0 SWAP1 SWAP2 SWAP1 SWAP2 SWAP1 SWAP2 PUSH2 0x100 EXP DUP2 SLOAD DUP2 PUSH20 0xFFFFFFFFFFFFFFFFFFFFFFFFFFFFFFFFFFFFFFFF MUL NOT AND SWAP1 DUP4 PUSH20 0xFFFFFFFFFFFFFFFFFFFFFFFFFFFFFFFFFFFFFFFF AND MUL OR SWAP1 SSTORE POP PUSH2 0x300D JUMP JUMPDEST PUSH2 0x300C PUSH8 0xD84B270EEC0E0651 PUSH1 0xC0 SHL PUSH2 0x399B JUMP JUMPDEST JUMPDEST PUSH2 0x3021 PUSH8 0xAF2F2614AE720C79 PUSH1 0xC0 SHL PUSH2 0x399B JUMP JUMPDEST DUP6 DUP2 PUSH2 0x302D SWAP2 SWAP1 PUSH2 0x5D67 JUMP JUMPDEST SWAP1 POP PUSH2 0x3043 PUSH8 0xC37C1E3F946D13A7 PUSH1 0xC0 SHL PUSH2 0x399B JUMP JUMPDEST DUP1 PUSH1 0x7 PUSH1 0x0 DUP8 DUP2 MSTORE PUSH1 0x20 ADD SWAP1 DUP2 MSTORE PUSH1 0x20 ADD PUSH1 0x0 KECCAK256 PUSH1 0x0 CALLER PUSH20 0xFFFFFFFFFFFFFFFFFFFFFFFFFFFFFFFFFFFFFFFF AND PUSH20 0xFFFFFFFFFFFFFFFFFFFFFFFFFFFFFFFFFFFFFFFF AND DUP2 MSTORE PUSH1 0x20 ADD SWAP1 DUP2 MSTORE PUSH1 0x20 ADD PUSH1 0x0 KECCAK256 DUP2 SWAP1 SSTORE POP PUSH2 0x30AC PUSH8 0x46D9D2663F2F4B42 PUSH1 0xC0 SHL PUSH2 0x399B JUMP JUMPDEST PUSH2 0x30C0 PUSH8 0xC583A9CF1379DD27 PUSH1 0xC0 SHL PUSH2 0x399B JUMP JUMPDEST DUP5 CALLER PUSH20 0xFFFFFFFFFFFFFFFFFFFFFFFFFFFFFFFFFFFFFFFF AND PUSH32 0xF5A91574D9882C88AF7AA33D99F0DB5413F71F214CFFCC17DE8D3821D6C71460 DUP9 PUSH1 0x40 MLOAD PUSH2 0x3107 SWAP2 SWAP1 PUSH2 0x591A JUMP JUMPDEST PUSH1 0x40 MLOAD DUP1 SWAP2 SUB SWAP1 LOG3 POP JUMPDEST PUSH2 0x3125 PUSH8 0x4C70FD578AD6356 PUSH1 0xC0 SHL PUSH2 0x399B JUMP JUMPDEST PUSH2 0x3139 PUSH8 0x2D1C803B544E6A40 PUSH1 0xC0 SHL PUSH2 0x399B JUMP JUMPDEST PUSH2 0x3143 DUP5 DUP4 PUSH2 0x3F6B JUMP JUMPDEST POP POP POP POP POP JUMP JUMPDEST PUSH1 0x0 PUSH2 0x3160 PUSH8 0x96F1CCA3D0835CF1 PUSH1 0xC0 SHL PUSH2 0x399B JUMP JUMPDEST PUSH2 0x3174 PUSH8 0x42EC313F312586BE PUSH1 0xC0 SHL PUSH2 0x399B JUMP JUMPDEST PUSH1 0x7 PUSH1 0x0 DUP5 DUP2 MSTORE PUSH1 0x20 ADD SWAP1 DUP2 MSTORE PUSH1 0x20 ADD PUSH1 0x0 KECCAK256 PUSH1 0x0 DUP4 PUSH20 0xFFFFFFFFFFFFFFFFFFFFFFFFFFFFFFFFFFFFFFFF AND PUSH20 0xFFFFFFFFFFFFFFFFFFFFFFFFFFFFFFFFFFFFFFFF AND DUP2 MSTORE PUSH1 0x20 ADD SWAP1 DUP2 MSTORE PUSH1 0x20 ADD PUSH1 0x0 KECCAK256 SLOAD SWAP1 POP SWAP3 SWAP2 POP POP JUMP JUMPDEST PUSH2 0x31E1 PUSH8 0x2E684E8B845D77A4 PUSH1 0xC0 SHL PUSH2 0x399B JUMP JUMPDEST PUSH2 0x31F5 PUSH8 0xB89AC35EDB06053C PUSH1 0xC0 SHL PUSH2 0x399B JUMP JUMPDEST PUSH2 0x3209 PUSH8 0x6F898E9BB0E4C000 PUSH1 0xC0 SHL PUSH2 0x399B JUMP JUMPDEST PUSH1 0x0 PUSH2 0x3214 DUP3 PUSH2 0x399E JUMP JUMPDEST SWAP1 POP PUSH2 0x322A PUSH8 0xF1160408CF8F8AD5 PUSH1 0xC0 SHL PUSH2 0x399B JUMP JUMPDEST PUSH2 0x323E PUSH8 0xDBE66E384ECD3812 PUSH1 0xC0 SHL PUSH2 0x399B JUMP JUMPDEST PUSH1 0x0 PUSH2 0x3249 DUP4 PUSH2 0x3B65 JUMP JUMPDEST SWAP1 POP PUSH2 0x325F PUSH8 0xA3A979AD7A7CAD67 PUSH1 0xC0 SHL PUSH2 0x399B JUMP JUMPDEST PUSH2 0x3273 PUSH8 0x76E659F3E0503082 PUSH1 0xC0 SHL PUSH2 0x399B JUMP JUMPDEST PUSH1 0x1 DUP2 PUSH2 0x100 ADD MLOAD PUSH1 0xFF AND EQ PUSH2 0x32DD JUMPI PUSH2 0x3297 PUSH8 0xDAB24C2D270F6DF8 PUSH1 0xC0 SHL PUSH2 0x399B JUMP JUMPDEST PUSH2 0x32AB PUSH8 0xF6273D215B495847 PUSH1 0xC0 SHL PUSH2 0x399B JUMP JUMPDEST PUSH1 0x40 MLOAD PUSH32 0x2DC7FE0F00000000000000000000000000000000000000000000000000000000 DUP2 MSTORE PUSH1 0x4 ADD PUSH1 0x40 MLOAD DUP1 SWAP2 SUB SWAP1 REVERT JUMPDEST PUSH2 0x32F1 PUSH8 0x9C9991E4B5EAE431 PUSH1 0xC0 SHL PUSH2 0x399B JUMP JUMPDEST PUSH2 0x3305 PUSH8 0x3D9976D9B2C3CAAC PUSH1 0xC0 SHL PUSH2 0x399B JUMP JUMPDEST PUSH2 0x3319 PUSH8 0x705D1BD350EDB6F0 PUSH1 0xC0 SHL PUSH2 0x399B JUMP JUMPDEST DUP2 PUSH1 0x0 ADD MLOAD PUSH20 0xFFFFFFFFFFFFFFFFFFFFFFFFFFFFFFFFFFFFFFFF AND CALLER PUSH20 0xFFFFFFFFFFFFFFFFFFFFFFFFFFFFFFFFFFFFFFFF AND EQ ISZERO DUP1 ISZERO PUSH2 0x3361 JUMPI POP PUSH2 0x335F DUP3 DUP3 TIMESTAMP PUSH2 0x412A JUMP JUMPDEST ISZERO JUMPDEST ISZERO PUSH2 0x33C0 JUMPI PUSH2 0x337A PUSH8 0xE32DAA027861AB7C PUSH1 0xC0 SHL PUSH2 0x399B JUMP JUMPDEST PUSH2 0x338E PUSH8 0x2CE52ACAA34FCD9 PUSH1 0xC0 SHL PUSH2 0x399B JUMP JUMPDEST PUSH1 0x40 MLOAD PUSH32 0xE8F82DD700000000000000000000000000000000000000000000000000000000 DUP2 MSTORE PUSH1 0x4 ADD PUSH1 0x40 MLOAD DUP1 SWAP2 SUB SWAP1 REVERT JUMPDEST PUSH2 0x33D4 PUSH8 0x5B481DF22CE8F215 PUSH1 0xC0 SHL PUSH2 0x399B JUMP JUMPDEST PUSH2 0x33E8 PUSH8 0x757D56DB49CE4C7D PUSH1 0xC0 SHL PUSH2 0x399B JUMP JUMPDEST PUSH1 0x2 DUP2 PUSH2 0x100 ADD SWAP1 PUSH1 0xFF AND SWAP1 DUP2 PUSH1 0xFF AND DUP2 MSTORE POP POP PUSH2 0x3410 PUSH8 0x89EF35E2503066A4 PUSH1 0xC0 SHL PUSH2 0x399B JUMP JUMPDEST TIMESTAMP DUP2 PUSH1 0xA0 ADD DUP2 DUP2 MSTORE POP POP PUSH2 0x342E PUSH8 0xDEF4A0FA8FDC3DE6 PUSH1 0xC0 SHL PUSH2 0x399B JUMP JUMPDEST PUSH2 0x3442 PUSH8 0xD19347055CF79D09 PUSH1 0xC0 SHL PUSH2 0x399B JUMP JUMPDEST PUSH2 0x344C DUP4 DUP3 PUSH2 0x3F6B JUMP JUMPDEST PUSH2 0x3460 PUSH8 0xDDBD85E366E4EB84 PUSH1 0xC0 SHL PUSH2 0x399B JUMP JUMPDEST PUSH2 0x3474 PUSH8 0x74434143AF9D0B60 PUSH1 0xC0 SHL PUSH2 0x399B JUMP JUMPDEST PUSH1 0x0 DUP2 PUSH1 0x20 ADD MLOAD PUSH2 0x3484 DUP5 PUSH2 0x4378 JUMP JUMPDEST PUSH2 0x348E SWAP2 SWAP1 PUSH2 0x5D67 JUMP JUMPDEST SWAP1 POP PUSH2 0x34A4 PUSH8 0x765706884190A866 PUSH1 0xC0 SHL PUSH2 0x399B JUMP JUMPDEST PUSH2 0x34B8 PUSH8 0xC0122CBCD5617404 PUSH1 0xC0 SHL PUSH2 0x399B JUMP JUMPDEST PUSH1 0x0 DUP4 PUSH1 0x80 ADD MLOAD SWAP1 POP PUSH2 0x34D5 PUSH8 0x6D65C70ADB07EF65 PUSH1 0xC0 SHL PUSH2 0x399B JUMP JUMPDEST PUSH2 0x34E9 PUSH8 0x11F9298AA58207CE PUSH1 0xC0 SHL PUSH2 0x399B JUMP JUMPDEST PUSH1 0x0 DUP4 PUSH1 0xC0 ADD MLOAD DUP3 PUSH2 0x34FB SWAP2 SWAP1 PUSH2 0x5DF9 JUMP JUMPDEST SWAP1 POP PUSH2 0x3511 PUSH8 0x2894AA468608DD17 PUSH1 0xC0 SHL PUSH2 0x399B JUMP JUMPDEST PUSH2 0x3525 PUSH8 0x9B4D8CD67E980F26 PUSH1 0xC0 SHL PUSH2 0x399B JUMP JUMPDEST PUSH1 0x0 DUP2 PUSH1 0xFF AND EQ PUSH2 0x3811 JUMPI PUSH2 0x3544 PUSH8 0x71C5CAE915711747 PUSH1 0xC0 SHL PUSH2 0x399B JUMP JUMPDEST PUSH2 0x3558 PUSH8 0x81701F71691D7E39 PUSH1 0xC0 SHL PUSH2 0x399B JUMP JUMPDEST PUSH2 0x356C PUSH8 0x5A8B117E19AEBF7D PUSH1 0xC0 SHL PUSH2 0x399B JUMP JUMPDEST PUSH1 0x0 PUSH1 0x6 PUSH1 0x0 DUP9 DUP2 MSTORE PUSH1 0x20 ADD SWAP1 DUP2 MSTORE PUSH1 0x20 ADD PUSH1 0x0 KECCAK256 DUP1 SLOAD DUP1 PUSH1 0x20 MUL PUSH1 0x20 ADD PUSH1 0x40 MLOAD SWAP1 DUP2 ADD PUSH1 0x40 MSTORE DUP1 SWAP3 SWAP2 SWAP1 DUP2 DUP2 MSTORE PUSH1 0x20 ADD DUP3 DUP1 SLOAD DUP1 ISZERO PUSH2 0x3601 JUMPI PUSH1 0x20 MUL DUP3 ADD SWAP2 SWAP1 PUSH1 0x0 MSTORE PUSH1 0x20 PUSH1 0x0 KECCAK256 SWAP1 JUMPDEST DUP2 PUSH1 0x0 SWAP1 SLOAD SWAP1 PUSH2 0x100 EXP SWAP1 DIV PUSH20 0xFFFFFFFFFFFFFFFFFFFFFFFFFFFFFFFFFFFFFFFF AND PUSH20 0xFFFFFFFFFFFFFFFFFFFFFFFFFFFFFFFFFFFFFFFF AND DUP2 MSTORE PUSH1 0x20 ADD SWAP1 PUSH1 0x1 ADD SWAP1 DUP1 DUP4 GT PUSH2 0x35B7 JUMPI JUMPDEST POP POP POP POP POP SWAP1 POP PUSH2 0x361C PUSH8 0x38AE300D21731606 PUSH1 0xC0 SHL PUSH2 0x399B JUMP JUMPDEST PUSH2 0x3630 PUSH8 0x21EA1269D0019602 PUSH1 0xC0 SHL PUSH2 0x399B JUMP JUMPDEST PUSH1 0x0 JUMPDEST DUP2 MLOAD DUP2 LT ISZERO PUSH2 0x380A JUMPI PUSH2 0x3650 PUSH8 0x9FA32ADF8B7CF8AF PUSH1 0xC0 SHL PUSH2 0x399B JUMP JUMPDEST PUSH2 0x3664 PUSH8 0x7F79D6850E07F063 PUSH1 0xC0 SHL PUSH2 0x399B JUMP JUMPDEST PUSH1 0x0 DUP3 DUP3 DUP2 MLOAD DUP2 LT PUSH2 0x3679 JUMPI PUSH2 0x3678 PUSH2 0x6191 JUMP JUMPDEST JUMPDEST PUSH1 0x20 MUL PUSH1 0x20 ADD ADD MLOAD SWAP1 POP PUSH2 0x3697 PUSH8 0x3B308C78CE218410 PUSH1 0xC0 SHL PUSH2 0x399B JUMP JUMPDEST PUSH2 0x36AB PUSH8 0xE2C172490CD1938F PUSH1 0xC0 SHL PUSH2 0x399B JUMP JUMPDEST PUSH1 0x0 PUSH1 0x7 PUSH1 0x0 DUP12 DUP2 MSTORE PUSH1 0x20 ADD SWAP1 DUP2 MSTORE PUSH1 0x20 ADD PUSH1 0x0 KECCAK256 PUSH1 0x0 DUP4 PUSH20 0xFFFFFFFFFFFFFFFFFFFFFFFFFFFFFFFFFFFFFFFF AND PUSH20 0xFFFFFFFFFFFFFFFFFFFFFFFFFFFFFFFFFFFFFFFF AND DUP2 MSTORE PUSH1 0x20 ADD SWAP1 DUP2 MSTORE PUSH1 0x20 ADD PUSH1 0x0 KECCAK256 SLOAD SWAP1 POP PUSH2 0x3714 PUSH8 0xF8266058D868EFD0 PUSH1 0xC0 SHL PUSH2 0x399B JUMP JUMPDEST PUSH2 0x3728 PUSH8 0x4827BC74648727EC PUSH1 0xC0 SHL PUSH2 0x399B JUMP JUMPDEST PUSH1 0x0 PUSH1 0x64 DUP11 PUSH1 0x40 ADD MLOAD PUSH1 0xFF AND DUP4 PUSH2 0x373F SWAP2 SWAP1 PUSH2 0x659C JUMP JUMPDEST PUSH2 0x3749 SWAP2 SWAP1 PUSH2 0x660D JUMP JUMPDEST DUP3 PUSH2 0x3754 SWAP2 SWAP1 PUSH2 0x5D67 JUMP JUMPDEST SWAP1 POP PUSH2 0x376A PUSH8 0xB1B762A782256BFC PUSH1 0xC0 SHL PUSH2 0x399B JUMP JUMPDEST PUSH2 0x377E PUSH8 0xD2E575FFA5A6297F PUSH1 0xC0 SHL PUSH2 0x399B JUMP JUMPDEST PUSH1 0x0 DUP8 PUSH1 0xFF AND DUP8 PUSH1 0xFF AND DUP4 PUSH2 0x3793 SWAP2 SWAP1 PUSH2 0x659C JUMP JUMPDEST PUSH2 0x379D SWAP2 SWAP1 PUSH2 0x660D JUMP JUMPDEST SWAP1 POP PUSH2 0x37B3 PUSH8 0xB2E963DB838B8696 PUSH1 0xC0 SHL PUSH2 0x399B JUMP JUMPDEST PUSH2 0x37C7 PUSH8 0x33C58206FC83552E PUSH1 0xC0 SHL PUSH2 0x399B JUMP JUMPDEST PUSH2 0x37D1 DUP5 DUP3 PUSH2 0x43CC JUMP JUMPDEST PUSH2 0x37E5 PUSH8 0xA7C2CA13723DB1D8 PUSH1 0xC0 SHL PUSH2 0x399B JUMP JUMPDEST DUP1 DUP10 PUSH2 0x37F1 SWAP2 SWAP1 PUSH2 0x63FA JUMP JUMPDEST SWAP9 POP POP POP POP POP DUP1 DUP1 PUSH2 0x3802 SWAP1 PUSH2 0x61C0 JUMP JUMPDEST SWAP2 POP POP PUSH2 0x3633 JUMP JUMPDEST POP POP PUSH2 0x3826 JUMP JUMPDEST PUSH2 0x3825 PUSH8 0x81C61240C24D95BD PUSH1 0xC0 SHL PUSH2 0x399B JUMP JUMPDEST JUMPDEST PUSH2 0x383A PUSH8 0x6A67663314F4D577 PUSH1 0xC0 SHL PUSH2 0x399B JUMP JUMPDEST PUSH2 0x384E PUSH8 0x2ACC031564AC5726 PUSH1 0xC0 SHL PUSH2 0x399B JUMP JUMPDEST PUSH1 0x0 DUP4 GT ISZERO PUSH2 0x38A6 JUMPI PUSH2 0x386B PUSH8 0x8FA7D3B50CCFE04F PUSH1 0xC0 SHL PUSH2 0x399B JUMP JUMPDEST PUSH2 0x387F PUSH8 0xB98B4DE6C7472971 PUSH1 0xC0 SHL PUSH2 0x399B JUMP JUMPDEST PUSH2 0x3893 PUSH8 0xC0C084947F7ED82D PUSH1 0xC0 SHL PUSH2 0x399B JUMP JUMPDEST PUSH2 0x38A1 DUP6 PUSH1 0x0 ADD MLOAD DUP5 PUSH2 0x43CC JUMP JUMPDEST PUSH2 0x38BB JUMP JUMPDEST PUSH2 0x38BA PUSH8 0xEF4430A4EDDC130C PUSH1 0xC0 SHL PUSH2 0x399B JUMP JUMPDEST JUMPDEST PUSH2 0x38CF PUSH8 0xC7C45751BD3226DC PUSH1 0xC0 SHL PUSH2 0x399B JUMP JUMPDEST PUSH2 0x38E3 PUSH8 0xB965AA20AA58AD2A PUSH1 0xC0 SHL PUSH2 0x399B JUMP JUMPDEST DUP6 PUSH32 0x14B4183E201BE6A1B013E8A321C9DBA34A041DFC6D26969F78276F430EEC8E16 PUSH1 0x40 MLOAD PUSH1 0x40 MLOAD DUP1 SWAP2 SUB SWAP1 LOG2 POP POP POP POP POP POP JUMP JUMPDEST PUSH2 0x3920 PUSH2 0x4A3F JUMP JUMPDEST PUSH1 0x0 PUSH20 0xFFFFFFFFFFFFFFFFFFFFFFFFFFFFFFFFFFFFFFFF AND DUP2 PUSH20 0xFFFFFFFFFFFFFFFFFFFFFFFFFFFFFFFFFFFFFFFF AND SUB PUSH2 0x398F JUMPI PUSH1 0x40 MLOAD PUSH32 0x8C379A000000000000000000000000000000000000000000000000000000000 DUP2 MSTORE PUSH1 0x4 ADD PUSH2 0x3986 SWAP1 PUSH2 0x66C1 JUMP JUMPDEST PUSH1 0x40 MLOAD DUP1 SWAP2 SUB SWAP1 REVERT JUMPDEST PUSH2 0x3998 DUP2 PUSH2 0x4ABD JUMP JUMPDEST POP JUMP JUMPDEST POP JUMP JUMPDEST PUSH2 0x39A6 PUSH2 0x54E3 JUMP JUMPDEST PUSH2 0x39BA PUSH8 0x4BDACA25B3FE1692 PUSH1 0xC0 SHL PUSH2 0x399B JUMP JUMPDEST PUSH2 0x39CE PUSH8 0x57F0E297ABC16804 PUSH1 0xC0 SHL PUSH2 0x399B JUMP JUMPDEST PUSH1 0x3 PUSH1 0x0 DUP4 DUP2 MSTORE PUSH1 0x20 ADD SWAP1 DUP2 MSTORE PUSH1 0x20 ADD PUSH1 0x0 KECCAK256 PUSH1 0x40 MLOAD DUP1 PUSH2 0x140 ADD PUSH1 0x40 MSTORE SWAP1 DUP2 PUSH1 0x0 DUP3 ADD PUSH1 0x0 SWAP1 SLOAD SWAP1 PUSH2 0x100 EXP SWAP1 DIV PUSH20 0xFFFFFFFFFFFFFFFFFFFFFFFFFFFFFFFFFFFFFFFF AND PUSH20 0xFFFFFFFFFFFFFFFFFFFFFFFFFFFFFFFFFFFFFFFF AND PUSH20 0xFFFFFFFFFFFFFFFFFFFFFFFFFFFFFFFFFFFFFFFF AND DUP2 MSTORE PUSH1 0x20 ADD PUSH1 0x1 DUP3 ADD DUP1 SLOAD PUSH2 0x3A53 SWAP1 PUSH2 0x5E87 JUMP JUMPDEST DUP1 PUSH1 0x1F ADD PUSH1 0x20 DUP1 SWAP2 DIV MUL PUSH1 0x20 ADD PUSH1 0x40 MLOAD SWAP1 DUP2 ADD PUSH1 0x40 MSTORE DUP1 SWAP3 SWAP2 SWAP1 DUP2 DUP2 MSTORE PUSH1 0x20 ADD DUP3 DUP1 SLOAD PUSH2 0x3A7F SWAP1 PUSH2 0x5E87 JUMP JUMPDEST DUP1 ISZERO PUSH2 0x3ACC JUMPI DUP1 PUSH1 0x1F LT PUSH2 0x3AA1 JUMPI PUSH2 0x100 DUP1 DUP4 SLOAD DIV MUL DUP4 MSTORE SWAP2 PUSH1 0x20 ADD SWAP2 PUSH2 0x3ACC JUMP JUMPDEST DUP3 ADD SWAP2 SWAP1 PUSH1 0x0 MSTORE PUSH1 0x20 PUSH1 0x0 KECCAK256 SWAP1 JUMPDEST DUP2 SLOAD DUP2 MSTORE SWAP1 PUSH1 0x1 ADD SWAP1 PUSH1 0x20 ADD DUP1 DUP4 GT PUSH2 0x3AAF JUMPI DUP3 SWAP1 SUB PUSH1 0x1F AND DUP3 ADD SWAP2 JUMPDEST POP POP POP POP POP DUP2 MSTORE PUSH1 0x20 ADD PUSH1 0x2 DUP3 ADD PUSH1 0x0 SWAP1 SLOAD SWAP1 PUSH2 0x100 EXP SWAP1 DIV PUSH1 0xFF AND PUSH1 0xFF AND PUSH1 0xFF AND DUP2 MSTORE PUSH1 0x20 ADD PUSH1 0x3 DUP3 ADD SLOAD DUP2 MSTORE PUSH1 0x20 ADD PUSH1 0x4 DUP3 ADD PUSH1 0x0 SWAP1 SLOAD SWAP1 PUSH2 0x100 EXP SWAP1 DIV PUSH1 0xFF AND PUSH1 0xFF AND PUSH1 0xFF AND DUP2 MSTORE PUSH1 0x20 ADD PUSH1 0x4 DUP3 ADD PUSH1 0x1 SWAP1 SLOAD SWAP1 PUSH2 0x100 EXP SWAP1 DIV PUSH1 0xFF AND PUSH1 0xFF AND PUSH1 0xFF AND DUP2 MSTORE PUSH1 0x20 ADD PUSH1 0x5 DUP3 ADD SLOAD DUP2 MSTORE PUSH1 0x20 ADD PUSH1 0x6 DUP3 ADD SLOAD DUP2 MSTORE PUSH1 0x20 ADD PUSH1 0x7 DUP3 ADD SLOAD DUP2 MSTORE PUSH1 0x20 ADD PUSH1 0x8 DUP3 ADD SLOAD DUP2 MSTORE POP POP SWAP1 POP SWAP2 SWAP1 POP JUMP JUMPDEST PUSH2 0x3B6D PUSH2 0x5555 JUMP JUMPDEST PUSH2 0x3B81 PUSH8 0x63A61BDB1BE9C0F2 PUSH1 0xC0 SHL PUSH2 0x399B JUMP JUMPDEST PUSH2 0x3B95 PUSH8 0xDC5F725FE6EE2AB9 PUSH1 0xC0 SHL PUSH2 0x399B JUMP JUMPDEST PUSH1 0x4 PUSH1 0x0 DUP4 DUP2 MSTORE PUSH1 0x20 ADD SWAP1 DUP2 MSTORE PUSH1 0x20 ADD PUSH1 0x0 KECCAK256 PUSH1 0x40 MLOAD DUP1 PUSH2 0x120 ADD PUSH1 0x40 MSTORE SWAP1 DUP2 PUSH1 0x0 DUP3 ADD SLOAD DUP2 MSTORE PUSH1 0x20 ADD PUSH1 0x1 DUP3 ADD SLOAD DUP2 MSTORE PUSH1 0x20 ADD PUSH1 0x2 DUP3 ADD SLOAD DUP2 MSTORE PUSH1 0x20 ADD PUSH1 0x3 DUP3 ADD PUSH1 0x0 SWAP1 SLOAD SWAP1 PUSH2 0x100 EXP SWAP1 DIV PUSH1 0xFF AND ISZERO ISZERO ISZERO ISZERO DUP2 MSTORE PUSH1 0x20 ADD PUSH1 0x3 DUP3 ADD PUSH1 0x1 SWAP1 SLOAD SWAP1 PUSH2 0x100 EXP SWAP1 DIV PUSH1 0xFF AND ISZERO ISZERO ISZERO ISZERO DUP2 MSTORE PUSH1 0x20 ADD PUSH1 0x4 DUP3 ADD SLOAD DUP2 MSTORE PUSH1 0x20 ADD PUSH1 0x5 DUP3 ADD PUSH1 0x0 SWAP1 SLOAD SWAP1 PUSH2 0x100 EXP SWAP1 DIV PUSH1 0xFF AND PUSH1 0xFF AND PUSH1 0xFF AND DUP2 MSTORE PUSH1 0x20 ADD PUSH1 0x5 DUP3 ADD PUSH1 0x1 SWAP1 SLOAD SWAP1 PUSH2 0x100 EXP SWAP1 DIV PUSH1 0xFF AND PUSH1 0xFF AND PUSH1 0xFF AND DUP2 MSTORE PUSH1 0x20 ADD PUSH1 0x5 DUP3 ADD PUSH1 0x2 SWAP1 SLOAD SWAP1 PUSH2 0x100 EXP SWAP1 DIV PUSH1 0xFF AND PUSH1 0xFF AND PUSH1 0xFF AND DUP2 MSTORE POP POP SWAP1 POP SWAP2 SWAP1 POP JUMP JUMPDEST PUSH2 0x3C78 PUSH2 0x55AE JUMP JUMPDEST PUSH2 0x3C8C PUSH8 0x1EEBA401414DA10A PUSH1 0xC0 SHL PUSH2 0x399B JUMP JUMPDEST PUSH2 0x3CA0 PUSH8 0x5B5CF8F8C30729B1 PUSH1 0xC0 SHL PUSH2 0x399B JUMP JUMPDEST PUSH1 0x5 PUSH1 0x0 DUP5 DUP2 MSTORE PUSH1 0x20 ADD SWAP1 DUP2 MSTORE PUSH1 0x20 ADD PUSH1 0x0 KECCAK256 DUP3 DUP2 SLOAD DUP2 LT PUSH2 0x3CC5 JUMPI PUSH2 0x3CC4 PUSH2 0x6191 JUMP JUMPDEST JUMPDEST SWAP1 PUSH1 0x0 MSTORE PUSH1 0x20 PUSH1 0x0 KECCAK256 SWAP1 PUSH1 0x4 MUL ADD PUSH1 0x40 MLOAD DUP1 PUSH1 0x80 ADD PUSH1 0x40 MSTORE SWAP1 DUP2 PUSH1 0x0 DUP3 ADD DUP1 SLOAD PUSH2 0x3CEE SWAP1 PUSH2 0x5E87 JUMP JUMPDEST DUP1 PUSH1 0x1F ADD PUSH1 0x20 DUP1 SWAP2 DIV MUL PUSH1 0x20 ADD PUSH1 0x40 MLOAD SWAP1 DUP2 ADD PUSH1 0x40 MSTORE DUP1 SWAP3 SWAP2 SWAP1 DUP2 DUP2 MSTORE PUSH1 0x20 ADD DUP3 DUP1 SLOAD PUSH2 0x3D1A SWAP1 PUSH2 0x5E87 JUMP JUMPDEST DUP1 ISZERO PUSH2 0x3D67 JUMPI DUP1 PUSH1 0x1F LT PUSH2 0x3D3C JUMPI PUSH2 0x100 DUP1 DUP4 SLOAD DIV MUL DUP4 MSTORE SWAP2 PUSH1 0x20 ADD SWAP2 PUSH2 0x3D67 JUMP JUMPDEST DUP3 ADD SWAP2 SWAP1 PUSH1 0x0 MSTORE PUSH1 0x20 PUSH1 0x0 KECCAK256 SWAP1 JUMPDEST DUP2 SLOAD DUP2 MSTORE SWAP1 PUSH1 0x1 ADD SWAP1 PUSH1 0x20 ADD DUP1 DUP4 GT PUSH2 0x3D4A JUMPI DUP3 SWAP1 SUB PUSH1 0x1F AND DUP3 ADD SWAP2 JUMPDEST POP POP POP POP POP DUP2 MSTORE PUSH1 0x20 ADD PUSH1 0x1 DUP3 ADD DUP1 SLOAD PUSH2 0x3D80 SWAP1 PUSH2 0x5E87 JUMP JUMPDEST DUP1 PUSH1 0x1F ADD PUSH1 0x20 DUP1 SWAP2 DIV MUL PUSH1 0x20 ADD PUSH1 0x40 MLOAD SWAP1 DUP2 ADD PUSH1 0x40 MSTORE DUP1 SWAP3 SWAP2 SWAP1 DUP2 DUP2 MSTORE PUSH1 0x20 ADD DUP3 DUP1 SLOAD PUSH2 0x3DAC SWAP1 PUSH2 0x5E87 JUMP JUMPDEST DUP1 ISZERO PUSH2 0x3DF9 JUMPI DUP1 PUSH1 0x1F LT PUSH2 0x3DCE JUMPI PUSH2 0x100 DUP1 DUP4 SLOAD DIV MUL DUP4 MSTORE SWAP2 PUSH1 0x20 ADD SWAP2 PUSH2 0x3DF9 JUMP JUMPDEST DUP3 ADD SWAP2 SWAP1 PUSH1 0x0 MSTORE PUSH1 0x20 PUSH1 0x0 KECCAK256 SWAP1 JUMPDEST DUP2 SLOAD DUP2 MSTORE SWAP1 PUSH1 0x1 ADD SWAP1 PUSH1 0x20 ADD DUP1 DUP4 GT PUSH2 0x3DDC JUMPI DUP3 SWAP1 SUB PUSH1 0x1F AND DUP3 ADD SWAP2 JUMPDEST POP POP POP POP POP DUP2 MSTORE PUSH1 0x20 ADD PUSH1 0x2 DUP3 ADD SLOAD DUP2 MSTORE PUSH1 0x20 ADD PUSH1 0x3 DUP3 ADD DUP1 SLOAD PUSH2 0x3E1C SWAP1 PUSH2 0x5E87 JUMP JUMPDEST DUP1 PUSH1 0x1F ADD PUSH1 0x20 DUP1 SWAP2 DIV MUL PUSH1 0x20 ADD PUSH1 0x40 MLOAD SWAP1 DUP2 ADD PUSH1 0x40 MSTORE DUP1 SWAP3 SWAP2 SWAP1 DUP2 DUP2 MSTORE PUSH1 0x20 ADD DUP3 DUP1 SLOAD PUSH2 0x3E48 SWAP1 PUSH2 0x5E87 JUMP JUMPDEST DUP1 ISZERO PUSH2 0x3E95 JUMPI DUP1 PUSH1 0x1F LT PUSH2 0x3E6A JUMPI PUSH2 0x100 DUP1 DUP4 SLOAD DIV MUL DUP4 MSTORE SWAP2 PUSH1 0x20 ADD SWAP2 PUSH2 0x3E95 JUMP JUMPDEST DUP3 ADD SWAP2 SWAP1 PUSH1 0x0 MSTORE PUSH1 0x20 PUSH1 0x0 KECCAK256 SWAP1 JUMPDEST DUP2 SLOAD DUP2 MSTORE SWAP1 PUSH1 0x1 ADD SWAP1 PUSH1 0x20 ADD DUP1 DUP4 GT PUSH2 0x3E78 JUMPI DUP3 SWAP1 SUB PUSH1 0x1F AND DUP3 ADD SWAP2 JUMPDEST POP POP POP POP POP DUP2 MSTORE POP POP SWAP1 POP PUSH2 0x3EB4 PUSH8 0x4F3653A58D4AEA6 PUSH1 0xC0 SHL PUSH2 0x399B JUMP JUMPDEST PUSH2 0x3EC8 PUSH8 0xCBC55C72DAC8087B PUSH1 0xC0 SHL PUSH2 0x399B JUMP JUMPDEST SWAP3 SWAP2 POP POP JUMP JUMPDEST PUSH1 0x0 PUSH2 0x3EE4 PUSH8 0xF4701C9EEA62D8B PUSH1 0xC0 SHL PUSH2 0x5373 JUMP JUMPDEST PUSH2 0x3EF8 PUSH8 0x1B8FBCFEF17CFF35 PUSH1 0xC0 SHL PUSH2 0x5373 JUMP JUMPDEST PUSH2 0x3F0C PUSH8 0x4F17F7EBB7B7D21C PUSH1 0xC0 SHL PUSH2 0x5373 JUMP JUMPDEST PUSH1 0x0 DUP3 PUSH1 0x60 ADD MLOAD MLOAD EQ ISZERO SWAP1 POP SWAP2 SWAP1 POP JUMP JUMPDEST PUSH1 0x0 PUSH2 0x3F33 PUSH8 0x5DEAFCAF3FE4CC1E PUSH1 0xC0 SHL PUSH2 0x5373 JUMP JUMPDEST PUSH2 0x3F47 PUSH8 0x22608C2DAEF65DC3 PUSH1 0xC0 SHL PUSH2 0x5373 JUMP JUMPDEST PUSH2 0x3F5B PUSH8 0x44F2A6D37D4BE797 PUSH1 0xC0 SHL PUSH2 0x5373 JUMP JUMPDEST DUP2 DUP4 PUSH1 0x40 ADD MLOAD GT ISZERO SWAP1 POP SWAP3 SWAP2 POP POP JUMP JUMPDEST PUSH2 0x3F7F PUSH8 0x1E1F8269DF0A66EC PUSH1 0xC0 SHL PUSH2 0x399B JUMP JUMPDEST PUSH2 0x3F93 PUSH8 0x3F7401A9EBBC4F22 PUSH1 0xC0 SHL PUSH2 0x399B JUMP JUMPDEST DUP1 PUSH1 0x4 PUSH1 0x0 DUP5 DUP2 MSTORE PUSH1 0x20 ADD SWAP1 DUP2 MSTORE PUSH1 0x20 ADD PUSH1 0x0 KECCAK256 PUSH1 0x0 DUP3 ADD MLOAD DUP2 PUSH1 0x0 ADD SSTORE PUSH1 0x20 DUP3 ADD MLOAD DUP2 PUSH1 0x1 ADD SSTORE PUSH1 0x40 DUP3 ADD MLOAD DUP2 PUSH1 0x2 ADD SSTORE PUSH1 0x60 DUP3 ADD MLOAD DUP2 PUSH1 0x3 ADD PUSH1 0x0 PUSH2 0x100 EXP DUP2 SLOAD DUP2 PUSH1 0xFF MUL NOT AND SWAP1 DUP4 ISZERO ISZERO MUL OR SWAP1 SSTORE POP PUSH1 0x80 DUP3 ADD MLOAD DUP2 PUSH1 0x3 ADD PUSH1 0x1 PUSH2 0x100 EXP DUP2 SLOAD DUP2 PUSH1 0xFF MUL NOT AND SWAP1 DUP4 ISZERO ISZERO MUL OR SWAP1 SSTORE POP PUSH1 0xA0 DUP3 ADD MLOAD DUP2 PUSH1 0x4 ADD SSTORE PUSH1 0xC0 DUP3 ADD MLOAD DUP2 PUSH1 0x5 ADD PUSH1 0x0 PUSH2 0x100 EXP DUP2 SLOAD DUP2 PUSH1 0xFF MUL NOT AND SWAP1 DUP4 PUSH1 0xFF AND MUL OR SWAP1 SSTORE POP PUSH1 0xE0 DUP3 ADD MLOAD DUP2 PUSH1 0x5 ADD PUSH1 0x1 PUSH2 0x100 EXP DUP2 SLOAD DUP2 PUSH1 0xFF MUL NOT AND SWAP1 DUP4 PUSH1 0xFF AND MUL OR SWAP1 SSTORE POP PUSH2 0x100 DUP3 ADD MLOAD DUP2 PUSH1 0x5 ADD PUSH1 0x2 PUSH2 0x100 EXP DUP2 SLOAD DUP2 PUSH1 0xFF MUL NOT AND SWAP1 DUP4 PUSH1 0xFF AND MUL OR SWAP1 SSTORE POP SWAP1 POP POP POP POP JUMP JUMPDEST PUSH2 0x408E PUSH8 0x78AE068327757452 PUSH1 0xC0 SHL PUSH2 0x399B JUMP JUMPDEST PUSH2 0x40A2 PUSH8 0xFDADB61692311925 PUSH1 0xC0 SHL PUSH2 0x399B JUMP JUMPDEST DUP1 PUSH1 0x5 PUSH1 0x0 DUP6 DUP2 MSTORE PUSH1 0x20 ADD SWAP1 DUP2 MSTORE PUSH1 0x20 ADD PUSH1 0x0 KECCAK256 DUP4 DUP2 SLOAD DUP2 LT PUSH2 0x40C8 JUMPI PUSH2 0x40C7 PUSH2 0x6191 JUMP JUMPDEST JUMPDEST SWAP1 PUSH1 0x0 MSTORE PUSH1 0x20 PUSH1 0x0 KECCAK256 SWAP1 PUSH1 0x4 MUL ADD PUSH1 0x0 DUP3 ADD MLOAD DUP2 PUSH1 0x0 ADD SWAP1 DUP2 PUSH2 0x40EB SWAP2 SWAP1 PUSH2 0x642E JUMP JUMPDEST POP PUSH1 0x20 DUP3 ADD MLOAD DUP2 PUSH1 0x1 ADD SWAP1 DUP2 PUSH2 0x4101 SWAP2 SWAP1 PUSH2 0x642E JUMP JUMPDEST POP PUSH1 0x40 DUP3 ADD MLOAD DUP2 PUSH1 0x2 ADD SSTORE PUSH1 0x60 DUP3 ADD MLOAD DUP2 PUSH1 0x3 ADD SWAP1 DUP2 PUSH2 0x4121 SWAP2 SWAP1 PUSH2 0x642E JUMP JUMPDEST POP SWAP1 POP POP POP POP POP JUMP JUMPDEST PUSH1 0x0 PUSH2 0x4140 PUSH8 0x2681343860BAC093 PUSH1 0xC0 SHL PUSH2 0x5373 JUMP JUMPDEST PUSH2 0x4154 PUSH8 0xA0BA0CD92E3DA3BD PUSH1 0xC0 SHL PUSH2 0x5373 JUMP JUMPDEST PUSH2 0x4168 PUSH8 0xAE35BEF134B936F PUSH1 0xC0 SHL PUSH2 0x5373 JUMP JUMPDEST PUSH1 0x1 DUP4 PUSH2 0x100 ADD MLOAD PUSH1 0xFF AND EQ PUSH2 0x41BD JUMPI PUSH2 0x418C PUSH8 0xF828FB08515A0032 PUSH1 0xC0 SHL PUSH2 0x5373 JUMP JUMPDEST PUSH2 0x41A0 PUSH8 0xEF4218BD0176BA0A PUSH1 0xC0 SHL PUSH2 0x5373 JUMP JUMPDEST PUSH2 0x41B4 PUSH8 0xC55BE2F0DFAD4CD2 PUSH1 0xC0 SHL PUSH2 0x5373 JUMP JUMPDEST PUSH1 0x0 SWAP1 POP PUSH2 0x424A JUMP JUMPDEST PUSH2 0x41D1 PUSH8 0x63521A486AE45E7C PUSH1 0xC0 SHL PUSH2 0x5373 JUMP JUMPDEST PUSH2 0x41E5 PUSH8 0xF433828196140F09 PUSH1 0xC0 SHL PUSH2 0x5373 JUMP JUMPDEST PUSH2 0x41F9 PUSH8 0x92D116567CBF6619 PUSH1 0xC0 SHL PUSH2 0x5373 JUMP JUMPDEST DUP3 PUSH1 0x80 ADD MLOAD DUP1 ISZERO PUSH2 0x421A JUMPI POP PUSH2 0x4219 PUSH8 0x379789A9DBDCCCC1 PUSH1 0xC0 SHL PUSH2 0x5376 JUMP JUMPDEST JUMPDEST DUP1 PUSH2 0x4247 JUMPI POP PUSH2 0x422A DUP5 DUP4 PUSH2 0x5381 JUMP JUMPDEST DUP1 ISZERO PUSH2 0x4246 JUMPI POP PUSH2 0x4245 PUSH8 0x507EDB8432702EF7 PUSH1 0xC0 SHL PUSH2 0x5376 JUMP JUMPDEST JUMPDEST JUMPDEST SWAP1 POP JUMPDEST SWAP4 SWAP3 POP POP POP JUMP JUMPDEST PUSH1 0x0 PUSH2 0x4267 PUSH8 0xB6C0ED97EE00FDE7 PUSH1 0xC0 SHL PUSH2 0x5373 JUMP JUMPDEST PUSH2 0x427B PUSH8 0x8D46EAC51CFD0CC1 PUSH1 0xC0 SHL PUSH2 0x5373 JUMP JUMPDEST PUSH2 0x428F PUSH8 0xEEF774677FB9B5C7 PUSH1 0xC0 SHL PUSH2 0x5373 JUMP JUMPDEST PUSH1 0x1 DUP4 PUSH2 0x100 ADD MLOAD PUSH1 0xFF AND EQ PUSH2 0x42E4 JUMPI PUSH2 0x42B3 PUSH8 0xCA07A9E5FC1D86E4 PUSH1 0xC0 SHL PUSH2 0x5373 JUMP JUMPDEST PUSH2 0x42C7 PUSH8 0x6D11F30EF775E10 PUSH1 0xC0 SHL PUSH2 0x5373 JUMP JUMPDEST PUSH2 0x42DB PUSH8 0xFF015BFB24714A63 PUSH1 0xC0 SHL PUSH2 0x5373 JUMP JUMPDEST PUSH1 0x0 SWAP1 POP PUSH2 0x4371 JUMP JUMPDEST PUSH2 0x42F8 PUSH8 0x9386E0A5176FA5FC PUSH1 0xC0 SHL PUSH2 0x5373 JUMP JUMPDEST PUSH2 0x430C PUSH8 0xA1825039D407707C PUSH1 0xC0 SHL PUSH2 0x5373 JUMP JUMPDEST PUSH2 0x4320 PUSH8 0xE88A07CBA9667F63 PUSH1 0xC0 SHL PUSH2 0x5373 JUMP JUMPDEST DUP3 PUSH1 0x60 ADD MLOAD DUP1 ISZERO PUSH2 0x4341 JUMPI POP PUSH2 0x4340 PUSH8 0x8816737553F5980F PUSH1 0xC0 SHL PUSH2 0x5376 JUMP JUMPDEST JUMPDEST DUP1 PUSH2 0x436E JUMPI POP PUSH2 0x4351 DUP5 DUP4 PUSH2 0x53D0 JUMP JUMPDEST DUP1 ISZERO PUSH2 0x436D JUMPI POP PUSH2 0x436C PUSH8 0xF3FABD49047DDB9A PUSH1 0xC0 SHL PUSH2 0x5376 JUMP JUMPDEST JUMPDEST JUMPDEST SWAP1 POP JUMPDEST SWAP4 SWAP3 POP POP POP JUMP JUMPDEST PUSH1 0x0 PUSH2 0x438E PUSH8 0xAA19C9A6BCD73E1C PUSH1 0xC0 SHL PUSH2 0x5373 JUMP JUMPDEST PUSH2 0x43A2 PUSH8 0x5C64265E110DDCBB PUSH1 0xC0 SHL PUSH2 0x5373 JUMP JUMPDEST PUSH1 0x64 DUP3 PUSH1 0x60 ADD MLOAD DUP4 PUSH1 0x40 ADD MLOAD PUSH1 0xFF AND PUSH2 0x43BB SWAP2 SWAP1 PUSH2 0x659C JUMP JUMPDEST PUSH2 0x43C5 SWAP2 SWAP1 PUSH2 0x660D JUMP JUMPDEST SWAP1 POP SWAP2 SWAP1 POP JUMP JUMPDEST PUSH2 0x43E0 PUSH8 0x3933896C1D1D55BE PUSH1 0xC0 SHL PUSH2 0x399B JUMP JUMPDEST PUSH2 0x43F4 PUSH8 0x67D8E659CC381D24 PUSH1 0xC0 SHL PUSH2 0x399B JUMP JUMPDEST PUSH2 0x4408 PUSH8 0xC2400978FF14A8F PUSH1 0xC0 SHL PUSH2 0x399B JUMP JUMPDEST PUSH1 0x0 PUSH1 0x1 PUSH1 0x0 SWAP1 SLOAD SWAP1 PUSH2 0x100 EXP SWAP1 DIV PUSH20 0xFFFFFFFFFFFFFFFFFFFFFFFFFFFFFFFFFFFFFFFF AND PUSH20 0xFFFFFFFFFFFFFFFFFFFFFFFFFFFFFFFFFFFFFFFF AND PUSH4 0xA9059CBB DUP5 DUP5 PUSH1 0x40 MLOAD DUP4 PUSH4 0xFFFFFFFF AND PUSH1 0xE0 SHL DUP2 MSTORE PUSH1 0x4 ADD PUSH2 0x4467 SWAP3 SWAP2 SWAP1 PUSH2 0x66E1 JUMP JUMPDEST PUSH1 0x20 PUSH1 0x40 MLOAD DUP1 DUP4 SUB DUP2 PUSH1 0x0 DUP8 GAS CALL ISZERO DUP1 ISZERO PUSH2 0x4486 JUMPI RETURNDATASIZE PUSH1 0x0 DUP1 RETURNDATACOPY RETURNDATASIZE PUSH1 0x0 REVERT JUMPDEST POP POP POP POP PUSH1 0x40 MLOAD RETURNDATASIZE PUSH1 0x1F NOT PUSH1 0x1F DUP3 ADD AND DUP3 ADD DUP1 PUSH1 0x40 MSTORE POP DUP2 ADD SWAP1 PUSH2 0x44AA SWAP2 SWAP1 PUSH2 0x656F JUMP JUMPDEST SWAP1 POP PUSH2 0x44C0 PUSH8 0xD0638322FC42C6AF PUSH1 0xC0 SHL PUSH2 0x399B JUMP JUMPDEST PUSH2 0x44D4 PUSH8 0xF04959E1C719A525 PUSH1 0xC0 SHL PUSH2 0x399B JUMP JUMPDEST DUP1 PUSH2 0x4533 JUMPI PUSH2 0x44ED PUSH8 0xEF038C35E407969C PUSH1 0xC0 SHL PUSH2 0x399B JUMP JUMPDEST PUSH2 0x4501 PUSH8 0xEA189FE31F334090 PUSH1 0xC0 SHL PUSH2 0x399B JUMP JUMPDEST PUSH1 0x40 MLOAD PUSH32 0xBFA871C500000000000000000000000000000000000000000000000000000000 DUP2 MSTORE PUSH1 0x4 ADD PUSH1 0x40 MLOAD DUP1 SWAP2 SUB SWAP1 REVERT JUMPDEST PUSH2 0x4547 PUSH8 0x3726894CDE73D90A PUSH1 0xC0 SHL PUSH2 0x399B JUMP JUMPDEST POP POP POP JUMP JUMPDEST PUSH1 0x0 DUP1 PUSH2 0x4563 PUSH8 0x116777F73AB6A6A6 PUSH1 0xC0 SHL PUSH2 0x5373 JUMP JUMPDEST PUSH2 0x4577 PUSH8 0xE3915308A1AC421F PUSH1 0xC0 SHL PUSH2 0x5373 JUMP JUMPDEST PUSH2 0x458B PUSH8 0x91E7CA2966A89B35 PUSH1 0xC0 SHL PUSH2 0x5373 JUMP JUMPDEST PUSH1 0x0 DUP5 PUSH1 0x80 ADD MLOAD PUSH1 0xFF AND SWAP1 POP PUSH2 0x45AB PUSH8 0x18127CBF3E2E9BF PUSH1 0xC0 SHL PUSH2 0x5373 JUMP JUMPDEST DUP1 DUP7 PUSH1 0xC0 ADD MLOAD PUSH1 0xFF AND DUP6 PUSH2 0x45BF SWAP2 SWAP1 PUSH2 0x659C JUMP JUMPDEST PUSH2 0x45C9 SWAP2 SWAP1 PUSH2 0x660D JUMP JUMPDEST SWAP2 POP PUSH2 0x45DF PUSH8 0x3E48494E61BD5031 PUSH1 0xC0 SHL PUSH2 0x5373 JUMP JUMPDEST DUP2 DUP5 PUSH2 0x45EB SWAP2 SWAP1 PUSH2 0x63FA JUMP JUMPDEST SWAP3 POP PUSH2 0x4601 PUSH8 0x4CD5FF1E16ACA398 PUSH1 0xC0 SHL PUSH2 0x5373 JUMP JUMPDEST DUP4 DUP7 PUSH1 0x0 ADD DUP2 DUP2 MLOAD PUSH2 0x4613 SWAP2 SWAP1 PUSH2 0x5D67 JUMP JUMPDEST SWAP2 POP DUP2 DUP2 MSTORE POP POP PUSH2 0x462E PUSH8 0x979808BE62DA5BD0 PUSH1 0xC0 SHL PUSH2 0x5373 JUMP JUMPDEST DUP4 DUP7 PUSH1 0x20 ADD DUP2 DUP2 MLOAD PUSH2 0x4640 SWAP2 SWAP1 PUSH2 0x63FA JUMP JUMPDEST SWAP2 POP DUP2 DUP2 MSTORE POP POP PUSH2 0x465B PUSH8 0x6BBC8B2C88373234 PUSH1 0xC0 SHL PUSH2 0x5373 JUMP JUMPDEST DUP6 PUSH1 0x40 ADD DUP1 MLOAD DUP1 SWAP2 SWAP1 PUSH2 0x466D SWAP1 PUSH2 0x670A JUMP JUMPDEST DUP2 MSTORE POP POP PUSH2 0x4685 PUSH8 0xC246E5F7E357ACC2 PUSH1 0xC0 SHL PUSH2 0x5373 JUMP JUMPDEST PUSH2 0x4699 PUSH8 0x6B3C7999001EB3C6 PUSH1 0xC0 SHL PUSH2 0x5373 JUMP JUMPDEST POP SWAP4 POP SWAP4 SWAP2 POP POP JUMP JUMPDEST PUSH1 0x0 PUSH2 0x46B8 PUSH8 0x4AA2DF61B1E9604D PUSH1 0xC0 SHL PUSH2 0x5373 JUMP JUMPDEST PUSH2 0x46CC PUSH8 0x4AE7C0B5B11101AE PUSH1 0xC0 SHL PUSH2 0x5373 JUMP JUMPDEST DUP2 DUP4 PUSH1 0x0 ADD DUP2 DUP2 MLOAD PUSH2 0x46DE SWAP2 SWAP1 PUSH2 0x5D67 JUMP JUMPDEST SWAP2 POP DUP2 DUP2 MSTORE POP POP PUSH2 0x46F9 PUSH8 0xD5E22F24D2790FED PUSH1 0xC0 SHL PUSH2 0x5373 JUMP JUMPDEST DUP2 DUP4 PUSH1 0x20 ADD DUP2 DUP2 MLOAD PUSH2 0x470B SWAP2 SWAP1 PUSH2 0x63FA JUMP JUMPDEST SWAP2 POP DUP2 DUP2 MSTORE POP POP PUSH2 0x4726 PUSH8 0x7C61985A327F7A80 PUSH1 0xC0 SHL PUSH2 0x5373 JUMP JUMPDEST DUP3 PUSH1 0x40 ADD DUP1 MLOAD DUP1 SWAP2 SWAP1 PUSH2 0x4738 SWAP1 PUSH2 0x670A JUMP JUMPDEST DUP2 MSTORE POP POP PUSH2 0x4750 PUSH8 0x1B89E007F1FDF38E PUSH1 0xC0 SHL PUSH2 0x5373 JUMP JUMPDEST PUSH2 0x4764 PUSH8 0x1AF1F1D8C8FC438F PUSH1 0xC0 SHL PUSH2 0x5373 JUMP JUMPDEST DUP2 SWAP1 POP SWAP3 SWAP2 POP POP JUMP JUMPDEST PUSH2 0x4775 PUSH2 0x55AE JUMP JUMPDEST PUSH2 0x4789 PUSH8 0xF8AFFF0E452F71B3 PUSH1 0xC0 SHL PUSH2 0x5373 JUMP JUMPDEST PUSH2 0x479D PUSH8 0x6716FB803401852A PUSH1 0xC0 SHL PUSH2 0x5373 JUMP JUMPDEST PUSH1 0x40 MLOAD DUP1 PUSH1 0x80 ADD PUSH1 0x40 MSTORE DUP1 DUP6 DUP2 MSTORE PUSH1 0x20 ADD DUP5 DUP2 MSTORE PUSH1 0x20 ADD DUP4 DUP2 MSTORE PUSH1 0x20 ADD PUSH1 0x40 MLOAD DUP1 PUSH1 0x20 ADD PUSH1 0x40 MSTORE DUP1 PUSH1 0x0 DUP2 MSTORE POP DUP2 MSTORE POP SWAP1 POP SWAP4 SWAP3 POP POP POP JUMP JUMPDEST PUSH2 0x47EA PUSH8 0x67268F73C23B6D33 PUSH1 0xC0 SHL PUSH2 0x399B JUMP JUMPDEST PUSH2 0x47FE PUSH8 0x8BCC5E38F5D1663A PUSH1 0xC0 SHL PUSH2 0x399B JUMP JUMPDEST PUSH2 0x4812 PUSH8 0x487861B3B17CE363 PUSH1 0xC0 SHL PUSH2 0x399B JUMP JUMPDEST PUSH1 0x5 PUSH1 0x0 DUP4 DUP2 MSTORE PUSH1 0x20 ADD SWAP1 DUP2 MSTORE PUSH1 0x20 ADD PUSH1 0x0 KECCAK256 DUP2 SWAP1 DUP1 PUSH1 0x1 DUP2 SLOAD ADD DUP1 DUP3 SSTORE DUP1 SWAP2 POP POP PUSH1 0x1 SWAP1 SUB SWAP1 PUSH1 0x0 MSTORE PUSH1 0x20 PUSH1 0x0 KECCAK256 SWAP1 PUSH1 0x4 MUL ADD PUSH1 0x0 SWAP1 SWAP2 SWAP1 SWAP2 SWAP1 SWAP2 POP PUSH1 0x0 DUP3 ADD MLOAD DUP2 PUSH1 0x0 ADD SWAP1 DUP2 PUSH2 0x4864 SWAP2 SWAP1 PUSH2 0x642E JUMP JUMPDEST POP PUSH1 0x20 DUP3 ADD MLOAD DUP2 PUSH1 0x1 ADD SWAP1 DUP2 PUSH2 0x487A SWAP2 SWAP1 PUSH2 0x642E JUMP JUMPDEST POP PUSH1 0x40 DUP3 ADD MLOAD DUP2 PUSH1 0x2 ADD SSTORE PUSH1 0x60 DUP3 ADD MLOAD DUP2 PUSH1 0x3 ADD SWAP1 DUP2 PUSH2 0x489A SWAP2 SWAP1 PUSH2 0x642E JUMP JUMPDEST POP POP POP POP POP JUMP JUMPDEST PUSH2 0x48A9 PUSH2 0x54E3 JUMP JUMPDEST PUSH2 0x48BD PUSH8 0x21ADB09AF4C9C5FF PUSH1 0xC0 SHL PUSH2 0x5373 JUMP JUMPDEST PUSH2 0x48D1 PUSH8 0xC7F5BEBE493F8A82 PUSH1 0xC0 SHL PUSH2 0x5373 JUMP JUMPDEST PUSH1 0x40 MLOAD DUP1 PUSH2 0x140 ADD PUSH1 0x40 MSTORE DUP1 DUP14 PUSH20 0xFFFFFFFFFFFFFFFFFFFFFFFFFFFFFFFFFFFFFFFF AND DUP2 MSTORE PUSH1 0x20 ADD DUP13 DUP13 DUP1 DUP1 PUSH1 0x1F ADD PUSH1 0x20 DUP1 SWAP2 DIV MUL PUSH1 0x20 ADD PUSH1 0x40 MLOAD SWAP1 DUP2 ADD PUSH1 0x40 MSTORE DUP1 SWAP4 SWAP3 SWAP2 SWAP1 DUP2 DUP2 MSTORE PUSH1 0x20 ADD DUP4 DUP4 DUP1 DUP3 DUP5 CALLDATACOPY PUSH1 0x0 DUP2 DUP5 ADD MSTORE PUSH1 0x1F NOT PUSH1 0x1F DUP3 ADD AND SWAP1 POP DUP1 DUP4 ADD SWAP3 POP POP POP POP POP POP POP DUP2 MSTORE PUSH1 0x20 ADD DUP11 PUSH1 0xFF AND DUP2 MSTORE PUSH1 0x20 ADD DUP10 DUP2 MSTORE PUSH1 0x20 ADD DUP9 PUSH1 0xFF AND DUP2 MSTORE PUSH1 0x20 ADD DUP8 PUSH1 0xFF AND DUP2 MSTORE PUSH1 0x20 ADD DUP7 DUP2 MSTORE PUSH1 0x20 ADD DUP4 DUP2 MSTORE PUSH1 0x20 ADD DUP6 DUP2 MSTORE PUSH1 0x20 ADD DUP5 DUP2 MSTORE POP SWAP1 POP SWAP12 SWAP11 POP POP POP POP POP POP POP POP POP POP POP JUMP JUMPDEST PUSH2 0x4993 PUSH2 0x5555 JUMP JUMPDEST PUSH2 0x49A7 PUSH8 0xF94259EFEF0F2C3F PUSH1 0xC0 SHL PUSH2 0x5373 JUMP JUMPDEST PUSH2 0x49BB PUSH8 0xA6CDEDDEFC7654F1 PUSH1 0xC0 SHL PUSH2 0x5373 JUMP JUMPDEST PUSH1 0x40 MLOAD DUP1 PUSH2 0x120 ADD PUSH1 0x40 MSTORE DUP1 DUP4 DUP2 MSTORE PUSH1 0x20 ADD PUSH1 0x0 DUP2 MSTORE PUSH1 0x20 ADD PUSH1 0x0 DUP2 MSTORE PUSH1 0x20 ADD PUSH1 0x0 ISZERO ISZERO DUP2 MSTORE PUSH1 0x20 ADD PUSH1 0x0 ISZERO ISZERO DUP2 MSTORE PUSH1 0x20 ADD PUSH1 0x0 DUP2 MSTORE PUSH1 0x20 ADD PUSH1 0x0 PUSH1 0xFF AND DUP2 MSTORE PUSH1 0x20 ADD PUSH1 0x0 PUSH1 0xFF AND DUP2 MSTORE PUSH1 0x20 ADD PUSH1 0x0 PUSH1 0xFF AND DUP2 MSTORE POP SWAP1 POP PUSH2 0x4A26 PUSH8 0x322BCD7CB42845E2 PUSH1 0xC0 SHL PUSH2 0x5373 JUMP JUMPDEST PUSH2 0x4A3A PUSH8 0xD7B6C3D7F22A4F8B PUSH1 0xC0 SHL PUSH2 0x5373 JUMP JUMPDEST SWAP2 SWAP1 POP JUMP JUMPDEST PUSH2 0x4A47 PUSH2 0x541F JUMP JUMPDEST PUSH20 0xFFFFFFFFFFFFFFFFFFFFFFFFFFFFFFFFFFFFFFFF AND PUSH2 0x4A65 PUSH2 0x2778 JUMP JUMPDEST PUSH20 0xFFFFFFFFFFFFFFFFFFFFFFFFFFFFFFFFFFFFFFFF AND EQ PUSH2 0x4ABB JUMPI PUSH1 0x40 MLOAD PUSH32 0x8C379A000000000000000000000000000000000000000000000000000000000 DUP2 MSTORE PUSH1 0x4 ADD PUSH2 0x4AB2 SWAP1 PUSH2 0x677F JUMP JUMPDEST PUSH1 0x40 MLOAD DUP1 SWAP2 SUB SWAP1 REVERT JUMPDEST JUMP JUMPDEST PUSH1 0x0 DUP1 PUSH1 0x0 SWAP1 SLOAD SWAP1 PUSH2 0x100 EXP SWAP1 DIV PUSH20 0xFFFFFFFFFFFFFFFFFFFFFFFFFFFFFFFFFFFFFFFF AND SWAP1 POP DUP2 PUSH1 0x0 DUP1 PUSH2 0x100 EXP DUP2 SLOAD DUP2 PUSH20 0xFFFFFFFFFFFFFFFFFFFFFFFFFFFFFFFFFFFFFFFF MUL NOT AND SWAP1 DUP4 PUSH20 0xFFFFFFFFFFFFFFFFFFFFFFFFFFFFFFFFFFFFFFFF AND MUL OR SWAP1 SSTORE POP DUP2 PUSH20 0xFFFFFFFFFFFFFFFFFFFFFFFFFFFFFFFFFFFFFFFF AND DUP2 PUSH20 0xFFFFFFFFFFFFFFFFFFFFFFFFFFFFFFFFFFFFFFFF AND PUSH32 0x8BE0079C531659141344CD1FD0A4F28419497F9722A3DAAFE3B4186F6B6457E0 PUSH1 0x40 MLOAD PUSH1 0x40 MLOAD DUP1 SWAP2 SUB SWAP1 LOG3 POP POP JUMP JUMPDEST PUSH1 0x60 PUSH2 0x4B97 PUSH8 0x392EC0404AB762D PUSH1 0xC0 SHL PUSH2 0x399B JUMP JUMPDEST PUSH2 0x4BAB PUSH8 0x15092CA99E91B9C0 PUSH1 0xC0 SHL PUSH2 0x399B JUMP JUMPDEST PUSH1 0x5 PUSH1 0x0 DUP4 DUP2 MSTORE PUSH1 0x20 ADD SWAP1 DUP2 MSTORE PUSH1 0x20 ADD PUSH1 0x0 KECCAK256 DUP1 SLOAD DUP1 PUSH1 0x20 MUL PUSH1 0x20 ADD PUSH1 0x40 MLOAD SWAP1 DUP2 ADD PUSH1 0x40 MSTORE DUP1 SWAP3 SWAP2 SWAP1 DUP2 DUP2 MSTORE PUSH1 0x20 ADD PUSH1 0x0 SWAP1 JUMPDEST DUP3 DUP3 LT ISZERO PUSH2 0x4DD0 JUMPI DUP4 DUP3 SWAP1 PUSH1 0x0 MSTORE PUSH1 0x20 PUSH1 0x0 KECCAK256 SWAP1 PUSH1 0x4 MUL ADD PUSH1 0x40 MLOAD DUP1 PUSH1 0x80 ADD PUSH1 0x40 MSTORE SWAP1 DUP2 PUSH1 0x0 DUP3 ADD DUP1 SLOAD PUSH2 0x4C11 SWAP1 PUSH2 0x5E87 JUMP JUMPDEST DUP1 PUSH1 0x1F ADD PUSH1 0x20 DUP1 SWAP2 DIV MUL PUSH1 0x20 ADD PUSH1 0x40 MLOAD SWAP1 DUP2 ADD PUSH1 0x40 MSTORE DUP1 SWAP3 SWAP2 SWAP1 DUP2 DUP2 MSTORE PUSH1 0x20 ADD DUP3 DUP1 SLOAD PUSH2 0x4C3D SWAP1 PUSH2 0x5E87 JUMP JUMPDEST DUP1 ISZERO PUSH2 0x4C8A JUMPI DUP1 PUSH1 0x1F LT PUSH2 0x4C5F JUMPI PUSH2 0x100 DUP1 DUP4 SLOAD DIV MUL DUP4 MSTORE SWAP2 PUSH1 0x20 ADD SWAP2 PUSH2 0x4C8A JUMP JUMPDEST DUP3 ADD SWAP2 SWAP1 PUSH1 0x0 MSTORE PUSH1 0x20 PUSH1 0x0 KECCAK256 SWAP1 JUMPDEST DUP2 SLOAD DUP2 MSTORE SWAP1 PUSH1 0x1 ADD SWAP1 PUSH1 0x20 ADD DUP1 DUP4 GT PUSH2 0x4C6D JUMPI DUP3 SWAP1 SUB PUSH1 0x1F AND DUP3 ADD SWAP2 JUMPDEST POP POP POP POP POP DUP2 MSTORE PUSH1 0x20 ADD PUSH1 0x1 DUP3 ADD DUP1 SLOAD PUSH2 0x4CA3 SWAP1 PUSH2 0x5E87 JUMP JUMPDEST DUP1 PUSH1 0x1F ADD PUSH1 0x20 DUP1 SWAP2 DIV MUL PUSH1 0x20 ADD PUSH1 0x40 MLOAD SWAP1 DUP2 ADD PUSH1 0x40 MSTORE DUP1 SWAP3 SWAP2 SWAP1 DUP2 DUP2 MSTORE PUSH1 0x20 ADD DUP3 DUP1 SLOAD PUSH2 0x4CCF SWAP1 PUSH2 0x5E87 JUMP JUMPDEST DUP1 ISZERO PUSH2 0x4D1C JUMPI DUP1 PUSH1 0x1F LT PUSH2 0x4CF1 JUMPI PUSH2 0x100 DUP1 DUP4 SLOAD DIV MUL DUP4 MSTORE SWAP2 PUSH1 0x20 ADD SWAP2 PUSH2 0x4D1C JUMP JUMPDEST DUP3 ADD SWAP2 SWAP1 PUSH1 0x0 MSTORE PUSH1 0x20 PUSH1 0x0 KECCAK256 SWAP1 JUMPDEST DUP2 SLOAD DUP2 MSTORE SWAP1 PUSH1 0x1 ADD SWAP1 PUSH1 0x20 ADD DUP1 DUP4 GT PUSH2 0x4CFF JUMPI DUP3 SWAP1 SUB PUSH1 0x1F AND DUP3 ADD SWAP2 JUMPDEST POP POP POP POP POP DUP2 MSTORE PUSH1 0x20 ADD PUSH1 0x2 DUP3 ADD SLOAD DUP2 MSTORE PUSH1 0x20 ADD PUSH1 0x3 DUP3 ADD DUP1 SLOAD PUSH2 0x4D3F SWAP1 PUSH2 0x5E87 JUMP JUMPDEST DUP1 PUSH1 0x1F ADD PUSH1 0x20 DUP1 SWAP2 DIV MUL PUSH1 0x20 ADD PUSH1 0x40 MLOAD SWAP1 DUP2 ADD PUSH1 0x40 MSTORE DUP1 SWAP3 SWAP2 SWAP1 DUP2 DUP2 MSTORE PUSH1 0x20 ADD DUP3 DUP1 SLOAD PUSH2 0x4D6B SWAP1 PUSH2 0x5E87 JUMP JUMPDEST DUP1 ISZERO PUSH2 0x4DB8 JUMPI DUP1 PUSH1 0x1F LT PUSH2 0x4D8D JUMPI PUSH2 0x100 DUP1 DUP4 SLOAD DIV MUL DUP4 MSTORE SWAP2 PUSH1 0x20 ADD SWAP2 PUSH2 0x4DB8 JUMP JUMPDEST DUP3 ADD SWAP2 SWAP1 PUSH1 0x0 MSTORE PUSH1 0x20 PUSH1 0x0 KECCAK256 SWAP1 JUMPDEST DUP2 SLOAD DUP2 MSTORE SWAP1 PUSH1 0x1 ADD SWAP1 PUSH1 0x20 ADD DUP1 DUP4 GT PUSH2 0x4D9B JUMPI DUP3 SWAP1 SUB PUSH1 0x1F AND DUP3 ADD SWAP2 JUMPDEST POP POP POP POP POP DUP2 MSTORE POP POP DUP2 MSTORE PUSH1 0x20 ADD SWAP1 PUSH1 0x1 ADD SWAP1 PUSH2 0x4BDE JUMP JUMPDEST POP POP POP POP SWAP1 POP SWAP2 SWAP1 POP JUMP JUMPDEST PUSH2 0x4DE3 PUSH2 0x544B JUMP JUMPDEST PUSH2 0x4DF7 PUSH8 0x838ABDAC09EC8FA6 PUSH1 0xC0 SHL PUSH2 0x5373 JUMP JUMPDEST PUSH2 0x4E0B PUSH8 0x47D456ADA822FDA2 PUSH1 0xC0 SHL PUSH2 0x5373 JUMP JUMPDEST PUSH1 0x40 MLOAD DUP1 PUSH2 0x1E0 ADD PUSH1 0x40 MSTORE DUP1 DUP7 PUSH1 0x20 ADD MLOAD DUP2 MSTORE PUSH1 0x20 ADD DUP7 PUSH1 0x0 ADD MLOAD PUSH20 0xFFFFFFFFFFFFFFFFFFFFFFFFFFFFFFFFFFFFFFFF AND DUP2 MSTORE PUSH1 0x20 ADD DUP4 DUP2 MSTORE PUSH1 0x20 ADD DUP7 PUSH1 0x40 ADD MLOAD PUSH1 0xFF AND DUP2 MSTORE PUSH1 0x20 ADD DUP7 PUSH1 0x60 ADD MLOAD DUP2 MSTORE PUSH1 0x20 ADD DUP7 PUSH1 0x80 ADD MLOAD PUSH1 0xFF AND DUP2 MSTORE PUSH1 0x20 ADD DUP5 DUP2 MSTORE PUSH1 0x20 ADD DUP7 PUSH1 0xA0 ADD MLOAD PUSH1 0xFF AND DUP2 MSTORE PUSH1 0x20 ADD DUP7 PUSH1 0xC0 ADD MLOAD DUP2 MSTORE PUSH1 0x20 ADD DUP6 PUSH1 0xA0 ADD MLOAD DUP2 MSTORE PUSH1 0x20 ADD DUP6 PUSH1 0xE0 ADD MLOAD PUSH1 0xFF AND DUP2 MSTORE PUSH1 0x20 ADD DUP6 PUSH1 0x0 ADD MLOAD DUP2 MSTORE PUSH1 0x20 ADD DUP6 PUSH1 0x40 ADD MLOAD DUP2 MSTORE PUSH1 0x20 ADD PUSH1 0x40 MLOAD DUP1 PUSH1 0x20 ADD PUSH1 0x40 MSTORE DUP1 PUSH1 0x0 DUP2 MSTORE POP DUP2 MSTORE PUSH1 0x20 ADD PUSH1 0x40 MLOAD DUP1 PUSH1 0x20 ADD PUSH1 0x40 MSTORE DUP1 PUSH1 0x0 DUP2 MSTORE POP DUP2 MSTORE POP SWAP1 POP PUSH2 0x4EF1 PUSH8 0x29165B85F0B91862 PUSH1 0xC0 SHL PUSH2 0x5373 JUMP JUMPDEST PUSH2 0x4F05 PUSH8 0x70F7BD6F7D8E98E5 PUSH1 0xC0 SHL PUSH2 0x5373 JUMP JUMPDEST PUSH1 0x0 DUP5 PUSH2 0x100 ADD MLOAD PUSH1 0xFF AND SUB PUSH2 0x4FAE JUMPI PUSH2 0x4F29 PUSH8 0x6E8BD8F0712E7948 PUSH1 0xC0 SHL PUSH2 0x5373 JUMP JUMPDEST PUSH2 0x4F3D PUSH8 0x3EB2714337C3F0AB PUSH1 0xC0 SHL PUSH2 0x5373 JUMP JUMPDEST PUSH1 0x40 MLOAD DUP1 PUSH1 0x40 ADD PUSH1 0x40 MSTORE DUP1 PUSH1 0x7 DUP2 MSTORE PUSH1 0x20 ADD PUSH32 0x50454E44494E4700000000000000000000000000000000000000000000000000 DUP2 MSTORE POP DUP2 PUSH2 0x1A0 ADD DUP2 SWAP1 MSTORE POP PUSH2 0x4F90 PUSH8 0xB907C70D2C69D59E PUSH1 0xC0 SHL PUSH2 0x5373 JUMP JUMPDEST PUSH1 0x40 MLOAD DUP1 PUSH1 0x20 ADD PUSH1 0x40 MSTORE DUP1 PUSH1 0x0 DUP2 MSTORE POP DUP2 PUSH2 0x1C0 ADD DUP2 SWAP1 MSTORE POP PUSH2 0x536B JUMP JUMPDEST PUSH2 0x4FC2 PUSH8 0xAD388CA124DE949B PUSH1 0xC0 SHL PUSH2 0x5373 JUMP JUMPDEST PUSH2 0x4FD6 PUSH8 0x57A80C15336145E4 PUSH1 0xC0 SHL PUSH2 0x5373 JUMP JUMPDEST PUSH1 0x1 DUP5 PUSH2 0x100 ADD MLOAD PUSH1 0xFF AND SUB PUSH2 0x5203 JUMPI PUSH2 0x4FFA PUSH8 0xB170B2C97971DF90 PUSH1 0xC0 SHL PUSH2 0x5373 JUMP JUMPDEST PUSH2 0x500E PUSH8 0x9A864BBB8226C8AC PUSH1 0xC0 SHL PUSH2 0x5373 JUMP JUMPDEST PUSH1 0x40 MLOAD DUP1 PUSH1 0x40 ADD PUSH1 0x40 MSTORE DUP1 PUSH1 0x7 DUP2 MSTORE PUSH1 0x20 ADD PUSH32 0x4F4E474F494E4700000000000000000000000000000000000000000000000000 DUP2 MSTORE POP DUP2 PUSH2 0x1A0 ADD DUP2 SWAP1 MSTORE POP PUSH2 0x5061 PUSH8 0x9C2A9E1C1DD000E0 PUSH1 0xC0 SHL PUSH2 0x5373 JUMP JUMPDEST PUSH2 0x5075 PUSH8 0x1487F0423F2F2AD5 PUSH1 0xC0 SHL PUSH2 0x5373 JUMP JUMPDEST PUSH2 0x5080 DUP6 DUP6 DUP5 PUSH2 0x412A JUMP JUMPDEST ISZERO PUSH2 0x50F1 JUMPI PUSH2 0x5099 PUSH8 0x2790830A0E39E387 PUSH1 0xC0 SHL PUSH2 0x5373 JUMP JUMPDEST PUSH2 0x50AD PUSH8 0xC2DC1DA0D87CBD73 PUSH1 0xC0 SHL PUSH2 0x5373 JUMP JUMPDEST PUSH1 0x40 MLOAD DUP1 PUSH1 0x40 ADD PUSH1 0x40 MSTORE DUP1 PUSH1 0xF DUP2 MSTORE PUSH1 0x20 ADD PUSH32 0x52656164792D546F2D46696E6973680000000000000000000000000000000000 DUP2 MSTORE POP DUP2 PUSH2 0x1C0 ADD DUP2 SWAP1 MSTORE POP PUSH2 0x51FE JUMP JUMPDEST PUSH2 0x5105 PUSH8 0x5449132EF80A6A72 PUSH1 0xC0 SHL PUSH2 0x5373 JUMP JUMPDEST PUSH2 0x5119 PUSH8 0x6D763386DDCB51A PUSH1 0xC0 SHL PUSH2 0x5373 JUMP JUMPDEST PUSH2 0x5124 DUP6 DUP6 DUP5 PUSH2 0x4251 JUMP JUMPDEST ISZERO PUSH2 0x5195 JUMPI PUSH2 0x513D PUSH8 0xE67CFA10D6F05D36 PUSH1 0xC0 SHL PUSH2 0x5373 JUMP JUMPDEST PUSH2 0x5151 PUSH8 0x4E608C1389B4C7DE PUSH1 0xC0 SHL PUSH2 0x5373 JUMP JUMPDEST PUSH1 0x40 MLOAD DUP1 PUSH1 0x40 ADD PUSH1 0x40 MSTORE DUP1 PUSH1 0x6 DUP2 MSTORE PUSH1 0x20 ADD PUSH32 0x4163746976650000000000000000000000000000000000000000000000000000 DUP2 MSTORE POP DUP2 PUSH2 0x1C0 ADD DUP2 SWAP1 MSTORE POP PUSH2 0x51FD JUMP JUMPDEST PUSH2 0x51A9 PUSH8 0x5CC3B6A83306AC6A PUSH1 0xC0 SHL PUSH2 0x5373 JUMP JUMPDEST PUSH2 0x51BD PUSH8 0x2FECCED517F1D4D9 PUSH1 0xC0 SHL PUSH2 0x5373 JUMP JUMPDEST PUSH1 0x40 MLOAD DUP1 PUSH1 0x40 ADD PUSH1 0x40 MSTORE DUP1 PUSH1 0x4 DUP2 MSTORE PUSH1 0x20 ADD PUSH32 0x4F70656E00000000000000000000000000000000000000000000000000000000 DUP2 MSTORE POP DUP2 PUSH2 0x1C0 ADD DUP2 SWAP1 MSTORE POP JUMPDEST JUMPDEST PUSH2 0x536A JUMP JUMPDEST PUSH2 0x5217 PUSH8 0xC596F033959C4DFF PUSH1 0xC0 SHL PUSH2 0x5373 JUMP JUMPDEST PUSH2 0x522B PUSH8 0x9DD39272CBF32146 PUSH1 0xC0 SHL PUSH2 0x5373 JUMP JUMPDEST PUSH1 0x2 DUP5 PUSH2 0x100 ADD MLOAD PUSH1 0xFF AND SUB PUSH2 0x52D4 JUMPI PUSH2 0x524F PUSH8 0x7C1E96AA5BB11742 PUSH1 0xC0 SHL PUSH2 0x5373 JUMP JUMPDEST PUSH2 0x5263 PUSH8 0x8ED1CE259E666874 PUSH1 0xC0 SHL PUSH2 0x5373 JUMP JUMPDEST PUSH1 0x40 MLOAD DUP1 PUSH1 0x40 ADD PUSH1 0x40 MSTORE DUP1 PUSH1 0x8 DUP2 MSTORE PUSH1 0x20 ADD PUSH32 0x46494E4953484544000000000000000000000000000000000000000000000000 DUP2 MSTORE POP DUP2 PUSH2 0x1A0 ADD DUP2 SWAP1 MSTORE POP PUSH2 0x52B6 PUSH8 0xC16252C3A3A7BCAF PUSH1 0xC0 SHL PUSH2 0x5373 JUMP JUMPDEST PUSH1 0x40 MLOAD DUP1 PUSH1 0x20 ADD PUSH1 0x40 MSTORE DUP1 PUSH1 0x0 DUP2 MSTORE POP DUP2 PUSH2 0x1C0 ADD DUP2 SWAP1 MSTORE POP PUSH2 0x5369 JUMP JUMPDEST PUSH2 0x52E8 PUSH8 0x1DBCA687A0148DA9 PUSH1 0xC0 SHL PUSH2 0x5373 JUMP JUMPDEST PUSH2 0x52FC PUSH8 0x8279C8CF32D10C49 PUSH1 0xC0 SHL PUSH2 0x5373 JUMP JUMPDEST PUSH1 0x40 MLOAD DUP1 PUSH1 0x40 ADD PUSH1 0x40 MSTORE DUP1 PUSH1 0x7 DUP2 MSTORE PUSH1 0x20 ADD PUSH32 0x554E4B4E4F574E00000000000000000000000000000000000000000000000000 DUP2 MSTORE POP DUP2 PUSH2 0x1A0 ADD DUP2 SWAP1 MSTORE POP PUSH2 0x534F PUSH8 0xAEC6A48A45DC2084 PUSH1 0xC0 SHL PUSH2 0x5373 JUMP JUMPDEST PUSH1 0x40 MLOAD DUP1 PUSH1 0x20 ADD PUSH1 0x40 MSTORE DUP1 PUSH1 0x0 DUP2 MSTORE POP DUP2 PUSH2 0x1C0 ADD DUP2 SWAP1 MSTORE POP JUMPDEST JUMPDEST JUMPDEST SWAP5 SWAP4 POP POP POP POP JUMP JUMPDEST POP JUMP JUMPDEST PUSH1 0x0 PUSH1 0x1 SWAP1 POP SWAP2 SWAP1 POP JUMP JUMPDEST PUSH1 0x0 PUSH2 0x5397 PUSH8 0x6D3BD08DA6DB9712 PUSH1 0xC0 SHL PUSH2 0x5373 JUMP JUMPDEST PUSH2 0x53AB PUSH8 0xB8ED54F869379D23 PUSH1 0xC0 SHL PUSH2 0x5373 JUMP JUMPDEST PUSH2 0x53BF PUSH8 0x6E6B895CB89A6B6F PUSH1 0xC0 SHL PUSH2 0x5373 JUMP JUMPDEST DUP2 DUP4 PUSH2 0x120 ADD MLOAD GT ISZERO SWAP1 POP SWAP3 SWAP2 POP POP JUMP JUMPDEST PUSH1 0x0 PUSH2 0x53E6 PUSH8 0xE0D2AE598CF5EB86 PUSH1 0xC0 SHL PUSH2 0x5373 JUMP JUMPDEST PUSH2 0x53FA PUSH8 0xFD47442B2F85532C PUSH1 0xC0 SHL PUSH2 0x5373 JUMP JUMPDEST PUSH2 0x540E PUSH8 0x6860EB42C43F986E PUSH1 0xC0 SHL PUSH2 0x5373 JUMP JUMPDEST DUP2 DUP4 PUSH2 0x100 ADD MLOAD GT ISZERO SWAP1 POP SWAP3 SWAP2 POP POP JUMP JUMPDEST PUSH1 0x0 CALLER SWAP1 POP SWAP1 JUMP JUMPDEST POP DUP1 SLOAD PUSH1 0x0 DUP3 SSTORE PUSH1 0x4 MUL SWAP1 PUSH1 0x0 MSTORE PUSH1 0x20 PUSH1 0x0 KECCAK256 SWAP1 DUP2 ADD SWAP1 PUSH2 0x5448 SWAP2 SWAP1 PUSH2 0x55D6 JUMP JUMPDEST POP JUMP JUMPDEST PUSH1 0x40 MLOAD DUP1 PUSH2 0x1E0 ADD PUSH1 0x40 MSTORE DUP1 PUSH1 0x60 DUP2 MSTORE PUSH1 0x20 ADD PUSH1 0x0 PUSH20 0xFFFFFFFFFFFFFFFFFFFFFFFFFFFFFFFFFFFFFFFF AND DUP2 MSTORE PUSH1 0x20 ADD PUSH1 0x0 DUP2 MSTORE PUSH1 0x20 ADD PUSH1 0x0 PUSH1 0xFF AND DUP2 MSTORE PUSH1 0x20 ADD PUSH1 0x0 DUP2 MSTORE PUSH1 0x20 ADD PUSH1 0x0 PUSH1 0xFF AND DUP2 MSTORE PUSH1 0x20 ADD PUSH1 0x60 DUP2 MSTORE PUSH1 0x20 ADD PUSH1 0x0 PUSH1 0xFF AND DUP2 MSTORE PUSH1 0x20 ADD PUSH1 0x0 DUP2 MSTORE PUSH1 0x20 ADD PUSH1 0x0 DUP2 MSTORE PUSH1 0x20 ADD PUSH1 0x0 PUSH1 0xFF AND DUP2 MSTORE PUSH1 0x20 ADD PUSH1 0x0 DUP2 MSTORE PUSH1 0x20 ADD PUSH1 0x0 DUP2 MSTORE PUSH1 0x20 ADD PUSH1 0x60 DUP2 MSTORE PUSH1 0x20 ADD PUSH1 0x60 DUP2 MSTORE POP SWAP1 JUMP JUMPDEST PUSH1 0x40 MLOAD DUP1 PUSH2 0x140 ADD PUSH1 0x40 MSTORE DUP1 PUSH1 0x0 PUSH20 0xFFFFFFFFFFFFFFFFFFFFFFFFFFFFFFFFFFFFFFFF AND DUP2 MSTORE PUSH1 0x20 ADD PUSH1 0x60 DUP2 MSTORE PUSH1 0x20 ADD PUSH1 0x0 PUSH1 0xFF AND DUP2 MSTORE PUSH1 0x20 ADD PUSH1 0x0 DUP2 MSTORE PUSH1 0x20 ADD PUSH1 0x0 PUSH1 0xFF AND DUP2 MSTORE PUSH1 0x20 ADD PUSH1 0x0 PUSH1 0xFF AND DUP2 MSTORE PUSH1 0x20 ADD PUSH1 0x0 DUP2 MSTORE PUSH1 0x20 ADD PUSH1 0x0 DUP2 MSTORE PUSH1 0x20 ADD PUSH1 0x0 DUP2 MSTORE PUSH1 0x20 ADD PUSH1 0x0 DUP2 MSTORE POP SWAP1 JUMP JUMPDEST PUSH1 0x40 MLOAD DUP1 PUSH2 0x120 ADD PUSH1 0x40 MSTORE DUP1 PUSH1 0x0 DUP2 MSTORE PUSH1 0x20 ADD PUSH1 0x0 DUP2 MSTORE PUSH1 0x20 ADD PUSH1 0x0 DUP2 MSTORE PUSH1 0x20 ADD PUSH1 0x0 ISZERO ISZERO DUP2 MSTORE PUSH1 0x20 ADD PUSH1 0x0 ISZERO ISZERO DUP2 MSTORE PUSH1 0x20 ADD PUSH1 0x0 DUP2 MSTORE PUSH1 0x20 ADD PUSH1 0x0 PUSH1 0xFF AND DUP2 MSTORE PUSH1 0x20 ADD PUSH1 0x0 PUSH1 0xFF AND DUP2 MSTORE PUSH1 0x20 ADD PUSH1 0x0 PUSH1 0xFF AND DUP2 MSTORE POP SWAP1 JUMP JUMPDEST PUSH1 0x40 MLOAD DUP1 PUSH1 0x80 ADD PUSH1 0x40 MSTORE DUP1 PUSH1 0x60 DUP2 MSTORE PUSH1 0x20 ADD PUSH1 0x60 DUP2 MSTORE PUSH1 0x20 ADD PUSH1 0x0 DUP2 MSTORE PUSH1 0x20 ADD PUSH1 0x60 DUP2 MSTORE POP SWAP1 JUMP JUMPDEST JUMPDEST DUP1 DUP3 GT ISZERO PUSH2 0x5621 JUMPI PUSH1 0x0 DUP1 DUP3 ADD PUSH1 0x0 PUSH2 0x55F0 SWAP2 SWAP1 PUSH2 0x5625 JUMP JUMPDEST PUSH1 0x1 DUP3 ADD PUSH1 0x0 PUSH2 0x5600 SWAP2 SWAP1 PUSH2 0x5625 JUMP JUMPDEST PUSH1 0x2 DUP3 ADD PUSH1 0x0 SWAP1 SSTORE PUSH1 0x3 DUP3 ADD PUSH1 0x0 PUSH2 0x5618 SWAP2 SWAP1 PUSH2 0x5625 JUMP JUMPDEST POP PUSH1 0x4 ADD PUSH2 0x55D7 JUMP JUMPDEST POP SWAP1 JUMP JUMPDEST POP DUP1 SLOAD PUSH2 0x5631 SWAP1 PUSH2 0x5E87 JUMP JUMPDEST PUSH1 0x0 DUP3 SSTORE DUP1 PUSH1 0x1F LT PUSH2 0x5643 JUMPI POP PUSH2 0x5662 JUMP JUMPDEST PUSH1 0x1F ADD PUSH1 0x20 SWAP1 DIV SWAP1 PUSH1 0x0 MSTORE PUSH1 0x20 PUSH1 0x0 KECCAK256 SWAP1 DUP2 ADD SWAP1 PUSH2 0x5661 SWAP2 SWAP1 PUSH2 0x5665 JUMP JUMPDEST JUMPDEST POP JUMP JUMPDEST JUMPDEST DUP1 DUP3 GT ISZERO PUSH2 0x567E JUMPI PUSH1 0x0 DUP2 PUSH1 0x0 SWAP1 SSTORE POP PUSH1 0x1 ADD PUSH2 0x5666 JUMP JUMPDEST POP SWAP1 JUMP JUMPDEST PUSH1 0x0 DUP1 REVERT JUMPDEST PUSH1 0x0 DUP1 REVERT JUMPDEST PUSH1 0x0 DUP2 SWAP1 POP SWAP2 SWAP1 POP JUMP JUMPDEST PUSH2 0x569F DUP2 PUSH2 0x568C JUMP JUMPDEST DUP2 EQ PUSH2 0x56AA JUMPI PUSH1 0x0 DUP1 REVERT JUMPDEST POP JUMP JUMPDEST PUSH1 0x0 DUP2 CALLDATALOAD SWAP1 POP PUSH2 0x56BC DUP2 PUSH2 0x5696 JUMP JUMPDEST SWAP3 SWAP2 POP POP JUMP JUMPDEST PUSH1 0x0 DUP1 PUSH1 0x40 DUP4 DUP6 SUB SLT ISZERO PUSH2 0x56D9 JUMPI PUSH2 0x56D8 PUSH2 0x5682 JUMP JUMPDEST JUMPDEST PUSH1 0x0 PUSH2 0x56E7 DUP6 DUP3 DUP7 ADD PUSH2 0x56AD JUMP JUMPDEST SWAP3 POP POP PUSH1 0x20 PUSH2 0x56F8 DUP6 DUP3 DUP7 ADD PUSH2 0x56AD JUMP JUMPDEST SWAP2 POP POP SWAP3 POP SWAP3 SWAP1 POP JUMP JUMPDEST PUSH1 0x0 PUSH20 0xFFFFFFFFFFFFFFFFFFFFFFFFFFFFFFFFFFFFFFFF DUP3 AND SWAP1 POP SWAP2 SWAP1 POP JUMP JUMPDEST PUSH1 0x0 PUSH2 0x572D DUP3 PUSH2 0x5702 JUMP JUMPDEST SWAP1 POP SWAP2 SWAP1 POP JUMP JUMPDEST PUSH2 0x573D DUP2 PUSH2 0x5722 JUMP JUMPDEST DUP3 MSTORE POP POP JUMP JUMPDEST PUSH1 0x0 PUSH1 0x20 DUP3 ADD SWAP1 POP PUSH2 0x5758 PUSH1 0x0 DUP4 ADD DUP5 PUSH2 0x5734 JUMP JUMPDEST SWAP3 SWAP2 POP POP JUMP JUMPDEST PUSH1 0x0 PUSH1 0xFF DUP3 AND SWAP1 POP SWAP2 SWAP1 POP JUMP JUMPDEST PUSH2 0x5774 DUP2 PUSH2 0x575E JUMP JUMPDEST DUP2 EQ PUSH2 0x577F JUMPI PUSH1 0x0 DUP1 REVERT JUMPDEST POP JUMP JUMPDEST PUSH1 0x0 DUP2 CALLDATALOAD SWAP1 POP PUSH2 0x5791 DUP2 PUSH2 0x576B JUMP JUMPDEST SWAP3 SWAP2 POP POP JUMP JUMPDEST PUSH1 0x0 DUP1 REVERT JUMPDEST PUSH1 0x0 DUP1 REVERT JUMPDEST PUSH1 0x0 DUP1 REVERT JUMPDEST PUSH1 0x0 DUP1 DUP4 PUSH1 0x1F DUP5 ADD SLT PUSH2 0x57BC JUMPI PUSH2 0x57BB PUSH2 0x5797 JUMP JUMPDEST JUMPDEST DUP3 CALLDATALOAD SWAP1 POP PUSH8 0xFFFFFFFFFFFFFFFF DUP2 GT ISZERO PUSH2 0x57D9 JUMPI PUSH2 0x57D8 PUSH2 0x579C JUMP JUMPDEST JUMPDEST PUSH1 0x20 DUP4 ADD SWAP2 POP DUP4 PUSH1 0x1 DUP3 MUL DUP4 ADD GT ISZERO PUSH2 0x57F5 JUMPI PUSH2 0x57F4 PUSH2 0x57A1 JUMP JUMPDEST JUMPDEST SWAP3 POP SWAP3 SWAP1 POP JUMP JUMPDEST PUSH1 0x0 DUP1 PUSH1 0x0 DUP1 PUSH1 0x60 DUP6 DUP8 SUB SLT ISZERO PUSH2 0x5816 JUMPI PUSH2 0x5815 PUSH2 0x5682 JUMP JUMPDEST JUMPDEST PUSH1 0x0 PUSH2 0x5824 DUP8 DUP3 DUP9 ADD PUSH2 0x56AD JUMP JUMPDEST SWAP5 POP POP PUSH1 0x20 PUSH2 0x5835 DUP8 DUP3 DUP9 ADD PUSH2 0x5782 JUMP JUMPDEST SWAP4 POP POP PUSH1 0x40 DUP6 ADD CALLDATALOAD PUSH8 0xFFFFFFFFFFFFFFFF DUP2 GT ISZERO PUSH2 0x5856 JUMPI PUSH2 0x5855 PUSH2 0x5687 JUMP JUMPDEST JUMPDEST PUSH2 0x5862 DUP8 DUP3 DUP9 ADD PUSH2 0x57A6 JUMP JUMPDEST SWAP3 POP SWAP3 POP POP SWAP3 SWAP6 SWAP2 SWAP5 POP SWAP3 POP JUMP JUMPDEST PUSH1 0x0 PUSH1 0x20 DUP3 DUP5 SUB SLT ISZERO PUSH2 0x5886 JUMPI PUSH2 0x5885 PUSH2 0x5682 JUMP JUMPDEST JUMPDEST PUSH1 0x0 PUSH2 0x5894 DUP5 DUP3 DUP6 ADD PUSH2 0x56AD JUMP JUMPDEST SWAP2 POP POP SWAP3 SWAP2 POP POP JUMP JUMPDEST PUSH1 0x0 DUP1 REVERT JUMPDEST PUSH1 0x0 PUSH2 0x100 DUP3 DUP5 SUB SLT ISZERO PUSH2 0x58B9 JUMPI PUSH2 0x58B8 PUSH2 0x589D JUMP JUMPDEST JUMPDEST DUP2 SWAP1 POP SWAP3 SWAP2 POP POP JUMP JUMPDEST PUSH1 0x0 PUSH1 0x20 DUP3 DUP5 SUB SLT ISZERO PUSH2 0x58D8 JUMPI PUSH2 0x58D7 PUSH2 0x5682 JUMP JUMPDEST JUMPDEST PUSH1 0x0 DUP3 ADD CALLDATALOAD PUSH8 0xFFFFFFFFFFFFFFFF DUP2 GT ISZERO PUSH2 0x58F6 JUMPI PUSH2 0x58F5 PUSH2 0x5687 JUMP JUMPDEST JUMPDEST PUSH2 0x5902 DUP5 DUP3 DUP6 ADD PUSH2 0x58A2 JUMP JUMPDEST SWAP2 POP POP SWAP3 SWAP2 POP POP JUMP JUMPDEST PUSH2 0x5914 DUP2 PUSH2 0x568C JUMP JUMPDEST DUP3 MSTORE POP POP JUMP JUMPDEST PUSH1 0x0 PUSH1 0x20 DUP3 ADD SWAP1 POP PUSH2 0x592F PUSH1 0x0 DUP4 ADD DUP5 PUSH2 0x590B JUMP JUMPDEST SWAP3 SWAP2 POP POP JUMP JUMPDEST PUSH1 0x0 DUP2 MLOAD SWAP1 POP SWAP2 SWAP1 POP JUMP JUMPDEST PUSH1 0x0 DUP3 DUP3 MSTORE PUSH1 0x20 DUP3 ADD SWAP1 POP SWAP3 SWAP2 POP POP JUMP JUMPDEST PUSH1 0x0 JUMPDEST DUP4 DUP2 LT ISZERO PUSH2 0x596F JUMPI DUP1 DUP3 ADD MLOAD DUP2 DUP5 ADD MSTORE PUSH1 0x20 DUP2 ADD SWAP1 POP PUSH2 0x5954 JUMP JUMPDEST PUSH1 0x0 DUP5 DUP5 ADD MSTORE POP POP POP POP JUMP JUMPDEST PUSH1 0x0 PUSH1 0x1F NOT PUSH1 0x1F DUP4 ADD AND SWAP1 POP SWAP2 SWAP1 POP JUMP JUMPDEST PUSH1 0x0 PUSH2 0x5997 DUP3 PUSH2 0x5935 JUMP JUMPDEST PUSH2 0x59A1 DUP2 DUP6 PUSH2 0x5940 JUMP JUMPDEST SWAP4 POP PUSH2 0x59B1 DUP2 DUP6 PUSH1 0x20 DUP7 ADD PUSH2 0x5951 JUMP JUMPDEST PUSH2 0x59BA DUP2 PUSH2 0x597B JUMP JUMPDEST DUP5 ADD SWAP2 POP POP SWAP3 SWAP2 POP POP JUMP JUMPDEST PUSH2 0x59CE DUP2 PUSH2 0x5722 JUMP JUMPDEST DUP3 MSTORE POP POP JUMP JUMPDEST PUSH2 0x59DD DUP2 PUSH2 0x568C JUMP JUMPDEST DUP3 MSTORE POP POP JUMP JUMPDEST PUSH2 0x59EC DUP2 PUSH2 0x575E JUMP JUMPDEST DUP3 MSTORE POP POP JUMP JUMPDEST PUSH1 0x0 DUP2 MLOAD SWAP1 POP SWAP2 SWAP1 POP JUMP JUMPDEST PUSH1 0x0 DUP3 DUP3 MSTORE PUSH1 0x20 DUP3 ADD SWAP1 POP SWAP3 SWAP2 POP POP JUMP JUMPDEST PUSH1 0x0 DUP2 SWAP1 POP PUSH1 0x20 DUP3 ADD SWAP1 POP SWAP2 SWAP1 POP JUMP JUMPDEST PUSH1 0x0 PUSH1 0x80 DUP4 ADD PUSH1 0x0 DUP4 ADD MLOAD DUP5 DUP3 SUB PUSH1 0x0 DUP7 ADD MSTORE PUSH2 0x5A3B DUP3 DUP3 PUSH2 0x598C JUMP JUMPDEST SWAP2 POP POP PUSH1 0x20 DUP4 ADD MLOAD DUP5 DUP3 SUB PUSH1 0x20 DUP7 ADD MSTORE PUSH2 0x5A55 DUP3 DUP3 PUSH2 0x598C JUMP JUMPDEST SWAP2 POP POP PUSH1 0x40 DUP4 ADD MLOAD PUSH2 0x5A6A PUSH1 0x40 DUP7 ADD DUP3 PUSH2 0x59D4 JUMP JUMPDEST POP PUSH1 0x60 DUP4 ADD MLOAD DUP5 DUP3 SUB PUSH1 0x60 DUP7 ADD MSTORE PUSH2 0x5A82 DUP3 DUP3 PUSH2 0x598C JUMP JUMPDEST SWAP2 POP POP DUP1 SWAP2 POP POP SWAP3 SWAP2 POP POP JUMP JUMPDEST PUSH1 0x0 PUSH2 0x5A9B DUP4 DUP4 PUSH2 0x5A1E JUMP JUMPDEST SWAP1 POP SWAP3 SWAP2 POP POP JUMP JUMPDEST PUSH1 0x0 PUSH1 0x20 DUP3 ADD SWAP1 POP SWAP2 SWAP1 POP JUMP JUMPDEST PUSH1 0x0 PUSH2 0x5ABB DUP3 PUSH2 0x59F2 JUMP JUMPDEST PUSH2 0x5AC5 DUP2 DUP6 PUSH2 0x59FD JUMP JUMPDEST SWAP4 POP DUP4 PUSH1 0x20 DUP3 MUL DUP6 ADD PUSH2 0x5AD7 DUP6 PUSH2 0x5A0E JUMP JUMPDEST DUP1 PUSH1 0x0 JUMPDEST DUP6 DUP2 LT ISZERO PUSH2 0x5B13 JUMPI DUP5 DUP5 SUB DUP10 MSTORE DUP2 MLOAD PUSH2 0x5AF4 DUP6 DUP3 PUSH2 0x5A8F JUMP JUMPDEST SWAP5 POP PUSH2 0x5AFF DUP4 PUSH2 0x5AA3 JUMP JUMPDEST SWAP3 POP PUSH1 0x20 DUP11 ADD SWAP10 POP POP PUSH1 0x1 DUP2 ADD SWAP1 POP PUSH2 0x5ADB JUMP JUMPDEST POP DUP3 SWAP8 POP DUP8 SWAP6 POP POP POP POP POP POP SWAP3 SWAP2 POP POP JUMP JUMPDEST PUSH1 0x0 PUSH2 0x1E0 DUP4 ADD PUSH1 0x0 DUP4 ADD MLOAD DUP5 DUP3 SUB PUSH1 0x0 DUP7 ADD MSTORE PUSH2 0x5B43 DUP3 DUP3 PUSH2 0x598C JUMP JUMPDEST SWAP2 POP POP PUSH1 0x20 DUP4 ADD MLOAD PUSH2 0x5B58 PUSH1 0x20 DUP7 ADD DUP3 PUSH2 0x59C5 JUMP JUMPDEST POP PUSH1 0x40 DUP4 ADD MLOAD PUSH2 0x5B6B PUSH1 0x40 DUP7 ADD DUP3 PUSH2 0x59D4 JUMP JUMPDEST POP PUSH1 0x60 DUP4 ADD MLOAD PUSH2 0x5B7E PUSH1 0x60 DUP7 ADD DUP3 PUSH2 0x59E3 JUMP JUMPDEST POP PUSH1 0x80 DUP4 ADD MLOAD PUSH2 0x5B91 PUSH1 0x80 DUP7 ADD DUP3 PUSH2 0x59D4 JUMP JUMPDEST POP PUSH1 0xA0 DUP4 ADD MLOAD PUSH2 0x5BA4 PUSH1 0xA0 DUP7 ADD DUP3 PUSH2 0x59E3 JUMP JUMPDEST POP PUSH1 0xC0 DUP4 ADD MLOAD DUP5 DUP3 SUB PUSH1 0xC0 DUP7 ADD MSTORE PUSH2 0x5BBC DUP3 DUP3 PUSH2 0x5AB0 JUMP JUMPDEST SWAP2 POP POP PUSH1 0xE0 DUP4 ADD MLOAD PUSH2 0x5BD1 PUSH1 0xE0 DUP7 ADD DUP3 PUSH2 0x59E3 JUMP JUMPDEST POP PUSH2 0x100 DUP4 ADD MLOAD PUSH2 0x5BE6 PUSH2 0x100 DUP7 ADD DUP3 PUSH2 0x59D4 JUMP JUMPDEST POP PUSH2 0x120 DUP4 ADD MLOAD PUSH2 0x5BFB PUSH2 0x120 DUP7 ADD DUP3 PUSH2 0x59D4 JUMP JUMPDEST POP PUSH2 0x140 DUP4 ADD MLOAD PUSH2 0x5C10 PUSH2 0x140 DUP7 ADD DUP3 PUSH2 0x59E3 JUMP JUMPDEST POP PUSH2 0x160 DUP4 ADD MLOAD PUSH2 0x5C25 PUSH2 0x160 DUP7 ADD DUP3 PUSH2 0x59D4 JUMP JUMPDEST POP PUSH2 0x180 DUP4 ADD MLOAD PUSH2 0x5C3A PUSH2 0x180 DUP7 ADD DUP3 PUSH2 0x59D4 JUMP JUMPDEST POP PUSH2 0x1A0 DUP4 ADD MLOAD DUP5 DUP3 SUB PUSH2 0x1A0 DUP7 ADD MSTORE PUSH2 0x5C54 DUP3 DUP3 PUSH2 0x598C JUMP JUMPDEST SWAP2 POP POP PUSH2 0x1C0 DUP4 ADD MLOAD DUP5 DUP3 SUB PUSH2 0x1C0 DUP7 ADD MSTORE PUSH2 0x5C70 DUP3 DUP3 PUSH2 0x598C JUMP JUMPDEST SWAP2 POP POP DUP1 SWAP2 POP POP SWAP3 SWAP2 POP POP JUMP JUMPDEST PUSH1 0x0 PUSH1 0x20 DUP3 ADD SWAP1 POP DUP2 DUP2 SUB PUSH1 0x0 DUP4 ADD MSTORE PUSH2 0x5C97 DUP2 DUP5 PUSH2 0x5B25 JUMP JUMPDEST SWAP1 POP SWAP3 SWAP2 POP POP JUMP JUMPDEST PUSH2 0x5CA8 DUP2 PUSH2 0x5722 JUMP JUMPDEST DUP2 EQ PUSH2 0x5CB3 JUMPI PUSH1 0x0 DUP1 REVERT JUMPDEST POP JUMP JUMPDEST PUSH1 0x0 DUP2 CALLDATALOAD SWAP1 POP PUSH2 0x5CC5 DUP2 PUSH2 0x5C9F JUMP JUMPDEST SWAP3 SWAP2 POP POP JUMP JUMPDEST PUSH1 0x0 DUP1 PUSH1 0x40 DUP4 DUP6 SUB SLT ISZERO PUSH2 0x5CE2 JUMPI PUSH2 0x5CE1 PUSH2 0x5682 JUMP JUMPDEST JUMPDEST PUSH1 0x0 PUSH2 0x5CF0 DUP6 DUP3 DUP7 ADD PUSH2 0x56AD JUMP JUMPDEST SWAP3 POP POP PUSH1 0x20 PUSH2 0x5D01 DUP6 DUP3 DUP7 ADD PUSH2 0x5CB6 JUMP JUMPDEST SWAP2 POP POP SWAP3 POP SWAP3 SWAP1 POP JUMP JUMPDEST PUSH1 0x0 PUSH1 0x20 DUP3 DUP5 SUB SLT ISZERO PUSH2 0x5D21 JUMPI PUSH2 0x5D20 PUSH2 0x5682 JUMP JUMPDEST JUMPDEST PUSH1 0x0 PUSH2 0x5D2F DUP5 DUP3 DUP6 ADD PUSH2 0x5CB6 JUMP JUMPDEST SWAP2 POP POP SWAP3 SWAP2 POP POP JUMP JUMPDEST PUSH32 0x4E487B7100000000000000000000000000000000000000000000000000000000 PUSH1 0x0 MSTORE PUSH1 0x11 PUSH1 0x4 MSTORE PUSH1 0x24 PUSH1 0x0 REVERT JUMPDEST PUSH1 0x0 PUSH2 0x5D72 DUP3 PUSH2 0x568C JUMP JUMPDEST SWAP2 POP PUSH2 0x5D7D DUP4 PUSH2 0x568C JUMP JUMPDEST SWAP3 POP DUP3 DUP3 ADD SWAP1 POP DUP1 DUP3 GT ISZERO PUSH2 0x5D95 JUMPI PUSH2 0x5D94 PUSH2 0x5D38 JUMP JUMPDEST JUMPDEST SWAP3 SWAP2 POP POP JUMP JUMPDEST PUSH1 0x0 PUSH2 0x5DA6 DUP3 PUSH2 0x575E JUMP JUMPDEST SWAP2 POP PUSH2 0x5DB1 DUP4 PUSH2 0x575E JUMP JUMPDEST SWAP3 POP DUP3 DUP3 ADD SWAP1 POP PUSH1 0xFF DUP2 GT ISZERO PUSH2 0x5DCA JUMPI PUSH2 0x5DC9 PUSH2 0x5D38 JUMP JUMPDEST JUMPDEST SWAP3 SWAP2 POP POP JUMP JUMPDEST PUSH1 0x0 PUSH2 0x5DDB DUP3 PUSH2 0x575E JUMP JUMPDEST SWAP2 POP PUSH1 0xFF DUP3 SUB PUSH2 0x5DEE JUMPI PUSH2 0x5DED PUSH2 0x5D38 JUMP JUMPDEST JUMPDEST PUSH1 0x1 DUP3 ADD SWAP1 POP SWAP2 SWAP1 POP JUMP JUMPDEST PUSH1 0x0 PUSH2 0x5E04 DUP3 PUSH2 0x575E JUMP JUMPDEST SWAP2 POP PUSH2 0x5E0F DUP4 PUSH2 0x575E JUMP JUMPDEST SWAP3 POP DUP3 DUP3 SUB SWAP1 POP PUSH1 0xFF DUP2 GT ISZERO PUSH2 0x5E28 JUMPI PUSH2 0x5E27 PUSH2 0x5D38 JUMP JUMPDEST JUMPDEST SWAP3 SWAP2 POP POP JUMP JUMPDEST PUSH2 0x5E37 DUP2 PUSH2 0x575E JUMP JUMPDEST DUP3 MSTORE POP POP JUMP JUMPDEST PUSH1 0x0 PUSH1 0x20 DUP3 ADD SWAP1 POP PUSH2 0x5E52 PUSH1 0x0 DUP4 ADD DUP5 PUSH2 0x5E2E JUMP JUMPDEST SWAP3 SWAP2 POP POP JUMP JUMPDEST PUSH32 0x4E487B7100000000000000000000000000000000000000000000000000000000 PUSH1 0x0 MSTORE PUSH1 0x22 PUSH1 0x4 MSTORE PUSH1 0x24 PUSH1 0x0 REVERT JUMPDEST PUSH1 0x0 PUSH1 0x2 DUP3 DIV SWAP1 POP PUSH1 0x1 DUP3 AND DUP1 PUSH2 0x5E9F JUMPI PUSH1 0x7F DUP3 AND SWAP2 POP JUMPDEST PUSH1 0x20 DUP3 LT DUP2 SUB PUSH2 0x5EB2 JUMPI PUSH2 0x5EB1 PUSH2 0x5E58 JUMP JUMPDEST JUMPDEST POP SWAP2 SWAP1 POP JUMP JUMPDEST PUSH1 0x0 DUP2 SLOAD SWAP1 POP PUSH2 0x5EC7 DUP2 PUSH2 0x5E87 JUMP JUMPDEST SWAP1 POP SWAP2 SWAP1 POP JUMP JUMPDEST PUSH32 0x4E487B7100000000000000000000000000000000000000000000000000000000 PUSH1 0x0 MSTORE PUSH1 0x41 PUSH1 0x4 MSTORE PUSH1 0x24 PUSH1 0x0 REVERT JUMPDEST PUSH1 0x0 DUP2 SWAP1 POP DUP2 PUSH1 0x0 MSTORE PUSH1 0x20 PUSH1 0x0 KECCAK256 SWAP1 POP SWAP2 SWAP1 POP JUMP JUMPDEST PUSH1 0x0 PUSH1 0x20 PUSH1 0x1F DUP4 ADD DIV SWAP1 POP SWAP2 SWAP1 POP JUMP JUMPDEST PUSH1 0x0 DUP3 DUP3 SHL SWAP1 POP SWAP3 SWAP2 POP POP JUMP JUMPDEST PUSH1 0x0 PUSH1 0x8 DUP4 MUL PUSH2 0x5F5F PUSH32 0xFFFFFFFFFFFFFFFFFFFFFFFFFFFFFFFFFFFFFFFFFFFFFFFFFFFFFFFFFFFFFFFF DUP3 PUSH2 0x5F22 JUMP JUMPDEST PUSH2 0x5F69 DUP7 DUP4 PUSH2 0x5F22 JUMP JUMPDEST SWAP6 POP DUP1 NOT DUP5 AND SWAP4 POP DUP1 DUP7 AND DUP5 OR SWAP3 POP POP POP SWAP4 SWAP3 POP POP POP JUMP JUMPDEST PUSH1 0x0 DUP2 SWAP1 POP SWAP2 SWAP1 POP JUMP JUMPDEST PUSH1 0x0 PUSH2 0x5FA6 PUSH2 0x5FA1 PUSH2 0x5F9C DUP5 PUSH2 0x568C JUMP JUMPDEST PUSH2 0x5F81 JUMP JUMPDEST PUSH2 0x568C JUMP JUMPDEST SWAP1 POP SWAP2 SWAP1 POP JUMP JUMPDEST PUSH1 0x0 DUP2 SWAP1 POP SWAP2 SWAP1 POP JUMP JUMPDEST PUSH2 0x5FC0 DUP4 PUSH2 0x5F8B JUMP JUMPDEST PUSH2 0x5FD4 PUSH2 0x5FCC DUP3 PUSH2 0x5FAD JUMP JUMPDEST DUP5 DUP5 SLOAD PUSH2 0x5F2F JUMP JUMPDEST DUP3 SSTORE POP POP POP POP JUMP JUMPDEST PUSH1 0x0 SWAP1 JUMP JUMPDEST PUSH2 0x5FE9 PUSH2 0x5FDC JUMP JUMPDEST PUSH2 0x5FF4 DUP2 DUP5 DUP5 PUSH2 0x5FB7 JUMP JUMPDEST POP POP POP JUMP JUMPDEST JUMPDEST DUP2 DUP2 LT ISZERO PUSH2 0x6018 JUMPI PUSH2 0x600D PUSH1 0x0 DUP3 PUSH2 0x5FE1 JUMP JUMPDEST PUSH1 0x1 DUP2 ADD SWAP1 POP PUSH2 0x5FFA JUMP JUMPDEST POP POP JUMP JUMPDEST PUSH1 0x1F DUP3 GT ISZERO PUSH2 0x605D JUMPI PUSH2 0x602E DUP2 PUSH2 0x5EFD JUMP JUMPDEST PUSH2 0x6037 DUP5 PUSH2 0x5F12 JUMP JUMPDEST DUP2 ADD PUSH1 0x20 DUP6 LT ISZERO PUSH2 0x6046 JUMPI DUP2 SWAP1 POP JUMPDEST PUSH2 0x605A PUSH2 0x6052 DUP6 PUSH2 0x5F12 JUMP JUMPDEST DUP4 ADD DUP3 PUSH2 0x5FF9 JUMP JUMPDEST POP POP JUMPDEST POP POP POP JUMP JUMPDEST PUSH1 0x0 DUP3 DUP3 SHR SWAP1 POP SWAP3 SWAP2 POP POP JUMP JUMPDEST PUSH1 0x0 PUSH2 0x6080 PUSH1 0x0 NOT DUP5 PUSH1 0x8 MUL PUSH2 0x6062 JUMP JUMPDEST NOT DUP1 DUP4 AND SWAP2 POP POP SWAP3 SWAP2 POP POP JUMP JUMPDEST PUSH1 0x0 PUSH2 0x6099 DUP4 DUP4 PUSH2 0x606F JUMP JUMPDEST SWAP2 POP DUP3 PUSH1 0x2 MUL DUP3 OR SWAP1 POP SWAP3 SWAP2 POP POP JUMP JUMPDEST DUP2 DUP2 SUB PUSH2 0x60B7 JUMPI POP POP PUSH2 0x618F JUMP JUMPDEST PUSH2 0x60C0 DUP3 PUSH2 0x5EB8 JUMP JUMPDEST PUSH8 0xFFFFFFFFFFFFFFFF DUP2 GT ISZERO PUSH2 0x60D9 JUMPI PUSH2 0x60D8 PUSH2 0x5ECE JUMP JUMPDEST JUMPDEST PUSH2 0x60E3 DUP3 SLOAD PUSH2 0x5E87 JUMP JUMPDEST PUSH2 0x60EE DUP3 DUP3 DUP6 PUSH2 0x601C JUMP JUMPDEST PUSH1 0x0 PUSH1 0x1F DUP4 GT PUSH1 0x1 DUP2 EQ PUSH2 0x611D JUMPI PUSH1 0x0 DUP5 ISZERO PUSH2 0x610B JUMPI DUP3 DUP8 ADD SLOAD SWAP1 POP JUMPDEST PUSH2 0x6115 DUP6 DUP3 PUSH2 0x608D JUMP JUMPDEST DUP7 SSTORE POP PUSH2 0x6188 JUMP JUMPDEST PUSH1 0x1F NOT DUP5 AND PUSH2 0x612B DUP8 PUSH2 0x5EFD JUMP JUMPDEST SWAP7 POP PUSH2 0x6136 DUP7 PUSH2 0x5EFD JUMP JUMPDEST PUSH1 0x0 JUMPDEST DUP3 DUP2 LT ISZERO PUSH2 0x615E JUMPI DUP5 DUP10 ADD SLOAD DUP3 SSTORE PUSH1 0x1 DUP3 ADD SWAP2 POP PUSH1 0x1 DUP6 ADD SWAP5 POP PUSH1 0x20 DUP2 ADD SWAP1 POP PUSH2 0x6139 JUMP JUMPDEST DUP7 DUP4 LT ISZERO PUSH2 0x617B JUMPI DUP5 DUP10 ADD SLOAD PUSH2 0x6177 PUSH1 0x1F DUP10 AND DUP3 PUSH2 0x606F JUMP JUMPDEST DUP4 SSTORE POP JUMPDEST PUSH1 0x1 PUSH1 0x2 DUP9 MUL ADD DUP9 SSTORE POP POP POP JUMPDEST POP POP POP POP POP POP JUMPDEST JUMP JUMPDEST PUSH32 0x4E487B7100000000000000000000000000000000000000000000000000000000 PUSH1 0x0 MSTORE PUSH1 0x32 PUSH1 0x4 MSTORE PUSH1 0x24 PUSH1 0x0 REVERT JUMPDEST PUSH1 0x0 PUSH2 0x61CB DUP3 PUSH2 0x568C JUMP JUMPDEST SWAP2 POP PUSH32 0xFFFFFFFFFFFFFFFFFFFFFFFFFFFFFFFFFFFFFFFFFFFFFFFFFFFFFFFFFFFFFFFF DUP3 SUB PUSH2 0x61FD JUMPI PUSH2 0x61FC PUSH2 0x5D38 JUMP JUMPDEST JUMPDEST PUSH1 0x1 DUP3 ADD SWAP1 POP SWAP2 SWAP1 POP JUMP JUMPDEST PUSH1 0x0 PUSH1 0x40 DUP3 ADD SWAP1 POP PUSH2 0x621D PUSH1 0x0 DUP4 ADD DUP6 PUSH2 0x590B JUMP JUMPDEST PUSH2 0x622A PUSH1 0x20 DUP4 ADD DUP5 PUSH2 0x590B JUMP JUMPDEST SWAP4 SWAP3 POP POP POP JUMP JUMPDEST PUSH1 0x0 DUP2 SWAP1 POP SWAP2 SWAP1 POP JUMP JUMPDEST PUSH1 0x0 PUSH2 0x6256 PUSH2 0x6251 PUSH2 0x624C DUP5 PUSH2 0x6231 JUMP JUMPDEST PUSH2 0x5F81 JUMP JUMPDEST PUSH2 0x568C JUMP JUMPDEST SWAP1 POP SWAP2 SWAP1 POP JUMP JUMPDEST PUSH2 0x6266 DUP2 PUSH2 0x623B JUMP JUMPDEST DUP3 MSTORE POP POP JUMP JUMPDEST PUSH1 0x0 PUSH1 0x40 DUP3 ADD SWAP1 POP PUSH2 0x6281 PUSH1 0x0 DUP4 ADD DUP6 PUSH2 0x590B JUMP JUMPDEST PUSH2 0x628E PUSH1 0x20 DUP4 ADD DUP5 PUSH2 0x625D JUMP JUMPDEST SWAP4 SWAP3 POP POP POP JUMP JUMPDEST PUSH1 0x0 DUP1 REVERT JUMPDEST PUSH1 0x0 DUP1 REVERT JUMPDEST PUSH1 0x0 DUP1 REVERT JUMPDEST PUSH1 0x0 DUP1 DUP4 CALLDATALOAD PUSH1 0x1 PUSH1 0x20 SUB DUP5 CALLDATASIZE SUB SUB DUP2 SLT PUSH2 0x62C1 JUMPI PUSH2 0x62C0 PUSH2 0x6295 JUMP JUMPDEST JUMPDEST DUP1 DUP5 ADD SWAP3 POP DUP3 CALLDATALOAD SWAP2 POP PUSH8 0xFFFFFFFFFFFFFFFF DUP3 GT ISZERO PUSH2 0x62E3 JUMPI PUSH2 0x62E2 PUSH2 0x629A JUMP JUMPDEST JUMPDEST PUSH1 0x20 DUP4 ADD SWAP3 POP PUSH1 0x1 DUP3 MUL CALLDATASIZE SUB DUP4 SGT ISZERO PUSH2 0x62FF JUMPI PUSH2 0x62FE PUSH2 0x629F JUMP JUMPDEST JUMPDEST POP SWAP3 POP SWAP3 SWAP1 POP JUMP JUMPDEST PUSH1 0x0 PUSH1 0x20 DUP3 DUP5 SUB SLT ISZERO PUSH2 0x631D JUMPI PUSH2 0x631C PUSH2 0x5682 JUMP JUMPDEST JUMPDEST PUSH1 0x0 PUSH2 0x632B DUP5 DUP3 DUP6 ADD PUSH2 0x5782 JUMP JUMPDEST SWAP2 POP POP SWAP3 SWAP2 POP POP JUMP JUMPDEST PUSH1 0x0 DUP1 DUP4 CALLDATALOAD PUSH1 0x1 PUSH1 0x20 SUB DUP5 CALLDATASIZE SUB SUB DUP2 SLT PUSH2 0x6351 JUMPI PUSH2 0x6350 PUSH2 0x6295 JUMP JUMPDEST JUMPDEST DUP1 DUP5 ADD SWAP3 POP DUP3 CALLDATALOAD SWAP2 POP PUSH8 0xFFFFFFFFFFFFFFFF DUP3 GT ISZERO PUSH2 0x6373 JUMPI PUSH2 0x6372 PUSH2 0x629A JUMP JUMPDEST JUMPDEST PUSH1 0x20 DUP4 ADD SWAP3 POP PUSH1 0x20 DUP3 MUL CALLDATASIZE SUB DUP4 SGT ISZERO PUSH2 0x638F JUMPI PUSH2 0x638E PUSH2 0x629F JUMP JUMPDEST JUMPDEST POP SWAP3 POP SWAP3 SWAP1 POP JUMP JUMPDEST PUSH1 0x0 DUP1 DUP4 CALLDATALOAD PUSH1 0x1 PUSH1 0x20 SUB DUP5 CALLDATASIZE SUB SUB DUP2 SLT PUSH2 0x63B4 JUMPI PUSH2 0x63B3 PUSH2 0x6295 JUMP JUMPDEST JUMPDEST DUP1 DUP5 ADD SWAP3 POP DUP3 CALLDATALOAD SWAP2 POP PUSH8 0xFFFFFFFFFFFFFFFF DUP3 GT ISZERO PUSH2 0x63D6 JUMPI PUSH2 0x63D5 PUSH2 0x629A JUMP JUMPDEST JUMPDEST PUSH1 0x20 DUP4 ADD SWAP3 POP PUSH1 0x20 DUP3 MUL CALLDATASIZE SUB DUP4 SGT ISZERO PUSH2 0x63F2 JUMPI PUSH2 0x63F1 PUSH2 0x629F JUMP JUMPDEST JUMPDEST POP SWAP3 POP SWAP3 SWAP1 POP JUMP JUMPDEST PUSH1 0x0 PUSH2 0x6405 DUP3 PUSH2 0x568C JUMP JUMPDEST SWAP2 POP PUSH2 0x6410 DUP4 PUSH2 0x568C JUMP JUMPDEST SWAP3 POP DUP3 DUP3 SUB SWAP1 POP DUP2 DUP2 GT ISZERO PUSH2 0x6428 JUMPI PUSH2 0x6427 PUSH2 0x5D38 JUMP JUMPDEST JUMPDEST SWAP3 SWAP2 POP POP JUMP JUMPDEST PUSH2 0x6437 DUP3 PUSH2 0x5935 JUMP JUMPDEST PUSH8 0xFFFFFFFFFFFFFFFF DUP2 GT ISZERO PUSH2 0x6450 JUMPI PUSH2 0x644F PUSH2 0x5ECE JUMP JUMPDEST JUMPDEST PUSH2 0x645A DUP3 SLOAD PUSH2 0x5E87 JUMP JUMPDEST PUSH2 0x6465 DUP3 DUP3 DUP6 PUSH2 0x601C JUMP JUMPDEST PUSH1 0x0 PUSH1 0x20 SWAP1 POP PUSH1 0x1F DUP4 GT PUSH1 0x1 DUP2 EQ PUSH2 0x6498 JUMPI PUSH1 0x0 DUP5 ISZERO PUSH2 0x6486 JUMPI DUP3 DUP8 ADD MLOAD SWAP1 POP JUMPDEST PUSH2 0x6490 DUP6 DUP3 PUSH2 0x608D JUMP JUMPDEST DUP7 SSTORE POP PUSH2 0x64F8 JUMP JUMPDEST PUSH1 0x1F NOT DUP5 AND PUSH2 0x64A6 DUP7 PUSH2 0x5EFD JUMP JUMPDEST PUSH1 0x0 JUMPDEST DUP3 DUP2 LT ISZERO PUSH2 0x64CE JUMPI DUP5 DUP10 ADD MLOAD DUP3 SSTORE PUSH1 0x1 DUP3 ADD SWAP2 POP PUSH1 0x20 DUP6 ADD SWAP5 POP PUSH1 0x20 DUP2 ADD SWAP1 POP PUSH2 0x64A9 JUMP JUMPDEST DUP7 DUP4 LT ISZERO PUSH2 0x64EB JUMPI DUP5 DUP10 ADD MLOAD PUSH2 0x64E7 PUSH1 0x1F DUP10 AND DUP3 PUSH2 0x606F JUMP JUMPDEST DUP4 SSTORE POP JUMPDEST PUSH1 0x1 PUSH1 0x2 DUP9 MUL ADD DUP9 SSTORE POP POP POP JUMPDEST POP POP POP POP POP POP JUMP JUMPDEST PUSH1 0x0 PUSH1 0x60 DUP3 ADD SWAP1 POP PUSH2 0x6515 PUSH1 0x0 DUP4 ADD DUP7 PUSH2 0x5734 JUMP JUMPDEST PUSH2 0x6522 PUSH1 0x20 DUP4 ADD DUP6 PUSH2 0x5734 JUMP JUMPDEST PUSH2 0x652F PUSH1 0x40 DUP4 ADD DUP5 PUSH2 0x590B JUMP JUMPDEST SWAP5 SWAP4 POP POP POP POP JUMP JUMPDEST PUSH1 0x0 DUP2 ISZERO ISZERO SWAP1 POP SWAP2 SWAP1 POP JUMP JUMPDEST PUSH2 0x654C DUP2 PUSH2 0x6537 JUMP JUMPDEST DUP2 EQ PUSH2 0x6557 JUMPI PUSH1 0x0 DUP1 REVERT JUMPDEST POP JUMP JUMPDEST PUSH1 0x0 DUP2 MLOAD SWAP1 POP PUSH2 0x6569 DUP2 PUSH2 0x6543 JUMP JUMPDEST SWAP3 SWAP2 POP POP JUMP JUMPDEST PUSH1 0x0 PUSH1 0x20 DUP3 DUP5 SUB SLT ISZERO PUSH2 0x6585 JUMPI PUSH2 0x6584 PUSH2 0x5682 JUMP JUMPDEST JUMPDEST PUSH1 0x0 PUSH2 0x6593 DUP5 DUP3 DUP6 ADD PUSH2 0x655A JUMP JUMPDEST SWAP2 POP POP SWAP3 SWAP2 POP POP JUMP JUMPDEST PUSH1 0x0 PUSH2 0x65A7 DUP3 PUSH2 0x568C JUMP JUMPDEST SWAP2 POP PUSH2 0x65B2 DUP4 PUSH2 0x568C JUMP JUMPDEST SWAP3 POP DUP3 DUP3 MUL PUSH2 0x65C0 DUP2 PUSH2 0x568C JUMP JUMPDEST SWAP2 POP DUP3 DUP3 DIV DUP5 EQ DUP4 ISZERO OR PUSH2 0x65D7 JUMPI PUSH2 0x65D6 PUSH2 0x5D38 JUMP JUMPDEST JUMPDEST POP SWAP3 SWAP2 POP POP JUMP JUMPDEST PUSH32 0x4E487B7100000000000000000000000000000000000000000000000000000000 PUSH1 0x0 MSTORE PUSH1 0x12 PUSH1 0x4 MSTORE PUSH1 0x24 PUSH1 0x0 REVERT JUMPDEST PUSH1 0x0 PUSH2 0x6618 DUP3 PUSH2 0x568C JUMP JUMPDEST SWAP2 POP PUSH2 0x6623 DUP4 PUSH2 0x568C JUMP JUMPDEST SWAP3 POP DUP3 PUSH2 0x6633 JUMPI PUSH2 0x6632 PUSH2 0x65DE JUMP JUMPDEST JUMPDEST DUP3 DUP3 DIV SWAP1 POP SWAP3 SWAP2 POP POP JUMP JUMPDEST PUSH1 0x0 DUP3 DUP3 MSTORE PUSH1 0x20 DUP3 ADD SWAP1 POP SWAP3 SWAP2 POP POP JUMP JUMPDEST PUSH32 0x4F776E61626C653A206E6577206F776E657220697320746865207A65726F2061 PUSH1 0x0 DUP3 ADD MSTORE PUSH32 0x6464726573730000000000000000000000000000000000000000000000000000 PUSH1 0x20 DUP3 ADD MSTORE POP JUMP JUMPDEST PUSH1 0x0 PUSH2 0x66AB PUSH1 0x26 DUP4 PUSH2 0x663E JUMP JUMPDEST SWAP2 POP PUSH2 0x66B6 DUP3 PUSH2 0x664F JUMP JUMPDEST PUSH1 0x40 DUP3 ADD SWAP1 POP SWAP2 SWAP1 POP JUMP JUMPDEST PUSH1 0x0 PUSH1 0x20 DUP3 ADD SWAP1 POP DUP2 DUP2 SUB PUSH1 0x0 DUP4 ADD MSTORE PUSH2 0x66DA DUP2 PUSH2 0x669E JUMP JUMPDEST SWAP1 POP SWAP2 SWAP1 POP JUMP JUMPDEST PUSH1 0x0 PUSH1 0x40 DUP3 ADD SWAP1 POP PUSH2 0x66F6 PUSH1 0x0 DUP4 ADD DUP6 PUSH2 0x5734 JUMP JUMPDEST PUSH2 0x6703 PUSH1 0x20 DUP4 ADD DUP5 PUSH2 0x590B JUMP JUMPDEST SWAP4 SWAP3 POP POP POP JUMP JUMPDEST PUSH1 0x0 PUSH2 0x6715 DUP3 PUSH2 0x568C JUMP JUMPDEST SWAP2 POP PUSH1 0x0 DUP3 SUB PUSH2 0x6728 JUMPI PUSH2 0x6727 PUSH2 0x5D38 JUMP JUMPDEST JUMPDEST PUSH1 0x1 DUP3 SUB SWAP1 POP SWAP2 SWAP1 POP JUMP JUMPDEST PUSH32 0x4F776E61626C653A2063616C6C6572206973206E6F7420746865206F776E6572 PUSH1 0x0 DUP3 ADD MSTORE POP JUMP JUMPDEST PUSH1 0x0 PUSH2 0x6769 PUSH1 0x20 DUP4 PUSH2 0x663E JUMP JUMPDEST SWAP2 POP PUSH2 0x6774 DUP3 PUSH2 0x6733 JUMP JUMPDEST PUSH1 0x20 DUP3 ADD SWAP1 POP SWAP2 SWAP1 POP JUMP JUMPDEST PUSH1 0x0 PUSH1 0x20 DUP3 ADD SWAP1 POP DUP2 DUP2 SUB PUSH1 0x0 DUP4 ADD MSTORE PUSH2 0x6798 DUP2 PUSH2 0x675C JUMP JUMPDEST SWAP1 POP SWAP2 SWAP1 POP JUMP INVALID LOG2 PUSH5 0x6970667358 0x22 SLT KECCAK256 STOP BLOCKHASH 0xAA DUP15 0xB6 0xA6 LOG3 PUSH24 0x6CDBD1A8E62410BEFCF7FF7C019E77EF9522C084354C8A5 PUSH5 0x736F6C6343 STOP ADDMOD GT STOP CALLER "},"methodIdentifiers":{"cancelProject(uint256)":"24941147","counter()":"61bc221a","declareProject((string,uint8,uint256,string[],string[],uint256[],uint8,uint256))":"5ad99c3f","finishMilestone(uint256,uint8,string)":"0f9f5c5b","finishProject(uint256)":"e4f23e61","onPayment(uint256,uint256)":"b5bf2ecf","owner()":"8da5cb5b","projectBuyers(uint256,uint256)":"0b6b90a9","queryProjectProto(uint256)":"7f901d7a","queryPurchase(uint256,address)":"dc7d8005","refund(uint256)":"278ecde1","renounceOwnership()":"715018a6","transferOwnership(address)":"f2fde38b"}}}}}