{
  "_format": "hh-sol-artifact-1",
  "contractName": "TojuToken",
  "sourceName": "contracts/TojuToken.sol",
  "abi": [
    {
      "inputs": [
        {
          "internalType": "uint256",
          "name": "max_supply",
          "type": "uint256"
        }
      ],
      "stateMutability": "nonpayable",
      "type": "constructor"
    },
    {
      "anonymous": false,
      "inputs": [
        {
          "indexed": true,
          "internalType": "address",
          "name": "owner",
          "type": "address"
        },
        {
          "indexed": true,
          "internalType": "address",
          "name": "spender",
          "type": "address"
        },
        {
          "indexed": false,
          "internalType": "uint256",
          "name": "value",
          "type": "uint256"
        }
      ],
      "name": "Approval",
      "type": "event"
    },
    {
      "anonymous": false,
      "inputs": [
        {
          "indexed": true,
          "internalType": "address",
          "name": "previousOwner",
          "type": "address"
        },
        {
          "indexed": true,
          "internalType": "address",
          "name": "newOwner",
          "type": "address"
        }
      ],
      "name": "OwnershipTransferred",
      "type": "event"
    },
    {
      "anonymous": false,
      "inputs": [
        {
          "indexed": true,
          "internalType": "address",
          "name": "from",
          "type": "address"
        },
        {
          "indexed": true,
          "internalType": "address",
          "name": "to",
          "type": "address"
        },
        {
          "indexed": false,
          "internalType": "uint256",
          "name": "value",
          "type": "uint256"
        }
      ],
      "name": "Transfer",
      "type": "event"
    },
    {
      "stateMutability": "nonpayable",
      "type": "fallback"
    },
    {
      "inputs": [
        {
          "internalType": "address",
          "name": "owner",
          "type": "address"
        },
        {
          "internalType": "address",
          "name": "spender",
          "type": "address"
        }
      ],
      "name": "allowance",
      "outputs": [
        {
          "internalType": "uint256",
          "name": "",
          "type": "uint256"
        }
      ],
      "stateMutability": "view",
      "type": "function"
    },
    {
      "inputs": [
        {
          "internalType": "address",
          "name": "spender",
          "type": "address"
        },
        {
          "internalType": "uint256",
          "name": "amount",
          "type": "uint256"
        }
      ],
      "name": "approve",
      "outputs": [
        {
          "internalType": "bool",
          "name": "",
          "type": "bool"
        }
      ],
      "stateMutability": "nonpayable",
      "type": "function"
    },
    {
      "inputs": [
        {
          "internalType": "address",
          "name": "account",
          "type": "address"
        }
      ],
      "name": "balanceOf",
      "outputs": [
        {
          "internalType": "uint256",
          "name": "",
          "type": "uint256"
        }
      ],
      "stateMutability": "view",
      "type": "function"
    },
    {
      "inputs": [],
      "name": "decimals",
      "outputs": [
        {
          "internalType": "uint8",
          "name": "",
          "type": "uint8"
        }
      ],
      "stateMutability": "view",
      "type": "function"
    },
    {
      "inputs": [
        {
          "internalType": "address",
          "name": "spender",
          "type": "address"
        },
        {
          "internalType": "uint256",
          "name": "subtractedValue",
          "type": "uint256"
        }
      ],
      "name": "decreaseAllowance",
      "outputs": [
        {
          "internalType": "bool",
          "name": "",
          "type": "bool"
        }
      ],
      "stateMutability": "nonpayable",
      "type": "function"
    },
    {
      "inputs": [],
      "name": "i_max_supply",
      "outputs": [
        {
          "internalType": "uint256",
          "name": "",
          "type": "uint256"
        }
      ],
      "stateMutability": "view",
      "type": "function"
    },
    {
      "inputs": [
        {
          "internalType": "address",
          "name": "spender",
          "type": "address"
        },
        {
          "internalType": "uint256",
          "name": "addedValue",
          "type": "uint256"
        }
      ],
      "name": "increaseAllowance",
      "outputs": [
        {
          "internalType": "bool",
          "name": "",
          "type": "bool"
        }
      ],
      "stateMutability": "nonpayable",
      "type": "function"
    },
    {
      "inputs": [],
      "name": "mint",
      "outputs": [],
      "stateMutability": "payable",
      "type": "function"
    },
    {
      "inputs": [],
      "name": "name",
      "outputs": [
        {
          "internalType": "string",
          "name": "",
          "type": "string"
        }
      ],
      "stateMutability": "view",
      "type": "function"
    },
    {
      "inputs": [],
      "name": "owner",
      "outputs": [
        {
          "internalType": "address",
          "name": "",
          "type": "address"
        }
      ],
      "stateMutability": "view",
      "type": "function"
    },
    {
      "inputs": [],
      "name": "renounceOwnership",
      "outputs": [],
      "stateMutability": "nonpayable",
      "type": "function"
    },
    {
      "inputs": [],
      "name": "symbol",
      "outputs": [
        {
          "internalType": "string",
          "name": "",
          "type": "string"
        }
      ],
      "stateMutability": "view",
      "type": "function"
    },
    {
      "inputs": [],
      "name": "totalSupply",
      "outputs": [
        {
          "internalType": "uint256",
          "name": "",
          "type": "uint256"
        }
      ],
      "stateMutability": "view",
      "type": "function"
    },
    {
      "inputs": [
        {
          "internalType": "address",
          "name": "to",
          "type": "address"
        },
        {
          "internalType": "uint256",
          "name": "amount",
          "type": "uint256"
        }
      ],
      "name": "transfer",
      "outputs": [
        {
          "internalType": "bool",
          "name": "",
          "type": "bool"
        }
      ],
      "stateMutability": "nonpayable",
      "type": "function"
    },
    {
      "inputs": [
        {
          "internalType": "address",
          "name": "from",
          "type": "address"
        },
        {
          "internalType": "address",
          "name": "to",
          "type": "address"
        },
        {
          "internalType": "uint256",
          "name": "amount",
          "type": "uint256"
        }
      ],
      "name": "transferFrom",
      "outputs": [
        {
          "internalType": "bool",
          "name": "",
          "type": "bool"
        }
      ],
      "stateMutability": "nonpayable",
      "type": "function"
    },
    {
      "inputs": [
        {
          "internalType": "address",
          "name": "newOwner",
          "type": "address"
        }
      ],
      "name": "transferOwnership",
      "outputs": [],
      "stateMutability": "nonpayable",
      "type": "function"
    },
    {
      "inputs": [],
      "name": "withdrawTokens",
      "outputs": [],
      "stateMutability": "nonpayable",
      "type": "function"
    },
    {
      "stateMutability": "payable",
      "type": "receive"
    }
  ],
  "bytecode": "0x60a06040523480156200001157600080fd5b506040516200231738038062002317833981810160405281019062000037919062000241565b6040518060400160405280600481526020017f546f6a75000000000000000000000000000000000000000000000000000000008152506040518060400160405280600481526020017f544f4a55000000000000000000000000000000000000000000000000000000008152508160039081620000b49190620004e3565b508060049081620000c69190620004e3565b505050620000e9620000dd6200013060201b60201c565b6200013860201b60201c565b620001056757efec68f2c53cfd60c01b620001fe60201b60201c565b62000121679b1251187e2433dc60c01b620001fe60201b60201c565b806080818152505050620005ca565b600033905090565b6000600560009054906101000a900473ffffffffffffffffffffffffffffffffffffffff16905081600560006101000a81548173ffffffffffffffffffffffffffffffffffffffff021916908373ffffffffffffffffffffffffffffffffffffffff1602179055508173ffffffffffffffffffffffffffffffffffffffff168173ffffffffffffffffffffffffffffffffffffffff167f8be0079c531659141344cd1fd0a4f28419497f9722a3daafe3b4186f6b6457e060405160405180910390a35050565b50565b600080fd5b6000819050919050565b6200021b8162000206565b81146200022757600080fd5b50565b6000815190506200023b8162000210565b92915050565b6000602082840312156200025a576200025962000201565b5b60006200026a848285016200022a565b91505092915050565b600081519050919050565b7f4e487b7100000000000000000000000000000000000000000000000000000000600052604160045260246000fd5b7f4e487b7100000000000000000000000000000000000000000000000000000000600052602260045260246000fd5b60006002820490506001821680620002f557607f821691505b6020821081036200030b576200030a620002ad565b5b50919050565b60008190508160005260206000209050919050565b60006020601f8301049050919050565b600082821b905092915050565b600060088302620003757fffffffffffffffffffffffffffffffffffffffffffffffffffffffffffffffff8262000336565b62000381868362000336565b95508019841693508086168417925050509392505050565b6000819050919050565b6000620003c4620003be620003b88462000206565b62000399565b62000206565b9050919050565b6000819050919050565b620003e083620003a3565b620003f8620003ef82620003cb565b84845462000343565b825550505050565b600090565b6200040f62000400565b6200041c818484620003d5565b505050565b5b8181101562000444576200043860008262000405565b60018101905062000422565b5050565b601f82111562000493576200045d8162000311565b620004688462000326565b8101602085101562000478578190505b62000490620004878562000326565b83018262000421565b50505b505050565b600082821c905092915050565b6000620004b86000198460080262000498565b1980831691505092915050565b6000620004d38383620004a5565b9150826002028217905092915050565b620004ee8262000273565b67ffffffffffffffff8111156200050a57620005096200027e565b5b620005168254620002dc565b6200052382828562000448565b600060209050601f8311600181146200055b576000841562000546578287015190505b620005528582620004c5565b865550620005c2565b601f1984166200056b8662000311565b60005b8281101562000595578489015182556001820191506020850194506020810190506200056e565b86831015620005b55784890151620005b1601f891682620004a5565b8355505b6001600288020188555050505b505050505050565b608051611d2a620005ed6000396000818161054d01526107900152611d2a6000f3fe6080604052600436106101025760003560e01c8063715018a61161009557806395d89b411161006457806395d89b411461034b578063a457c2d714610376578063a9059cbb146103b3578063dd62ed3e146103f0578063f2fde38b1461042d57610125565b8063715018a6146102c7578063890629d7146102de5780638d8f2adb146103095780638da5cb5b1461032057610125565b806323b872dd116100d157806323b872dd146101e5578063313ce56714610222578063395093511461024d57806370a082311461028a57610125565b806306fdde0314610148578063095ea7b3146101735780631249c58b146101b057806318160ddd146101ba57610125565b366101255761011b6766080629609fdb7060c01b610456565b610123610459565b005b34801561013157600080fd5b50610146670939f5beb76943be60c01b610456565b005b34801561015457600080fd5b5061015d610604565b60405161016a9190611355565b60405180910390f35b34801561017f57600080fd5b5061019a60048036038101906101959190611410565b610696565b6040516101a7919061146b565b60405180910390f35b6101b8610459565b005b3480156101c657600080fd5b506101cf6106b9565b6040516101dc9190611495565b60405180910390f35b3480156101f157600080fd5b5061020c600480360381019061020791906114b0565b6106c3565b604051610219919061146b565b60405180910390f35b34801561022e57600080fd5b506102376106f2565b604051610244919061151f565b60405180910390f35b34801561025957600080fd5b50610274600480360381019061026f9190611410565b6106fb565b604051610281919061146b565b60405180910390f35b34801561029657600080fd5b506102b160048036038101906102ac919061153a565b610732565b6040516102be9190611495565b60405180910390f35b3480156102d357600080fd5b506102dc61077a565b005b3480156102ea57600080fd5b506102f361078e565b6040516103009190611495565b60405180910390f35b34801561031557600080fd5b5061031e6107b2565b005b34801561032c57600080fd5b506103356108ee565b6040516103429190611576565b60405180910390f35b34801561035757600080fd5b50610360610918565b60405161036d9190611355565b60405180910390f35b34801561038257600080fd5b5061039d60048036038101906103989190611410565b6109aa565b6040516103aa919061146b565b60405180910390f35b3480156103bf57600080fd5b506103da60048036038101906103d59190611410565b610a21565b6040516103e7919061146b565b60405180910390f35b3480156103fc57600080fd5b5061041760048036038101906104129190611591565b610a44565b6040516104249190611495565b60405180910390f35b34801561043957600080fd5b50610454600480360381019061044f919061153a565b610acb565b005b50565b61046d677f7463ea3e86189360c01b610456565b61048167c18b6a3efda004fc60c01b610456565b6104956716a1492c6d6c9f5c60c01b610456565b6104a967d43c81c54c5816e860c01b610456565b662386f26fc100003410156104f3576040517f08c379a00000000000000000000000000000000000000000000000000000000081526004016104ea9061161d565b60405180910390fd5b61050767d449370ea5d0c84660c01b610456565b61051b67cb1329abb827da8060c01b610456565b61052f67c064381a3909d62260c01b610456565b61054367bc65738f5ddd341660c01b610456565b61054b6106b9565b7f0000000000000000000000000000000000000000000000000000000000000000116105ac576040517f08c379a00000000000000000000000000000000000000000000000000000000081526004016105a390611689565b60405180910390fd5b6105c067f4e2a332e5eded1b60c01b610456565b6105d4674d957a7d2962940e60c01b610456565b6105e867e74b0f80f386ab9d60c01b610456565b6106026105f3610b4e565b683635c9adc5dea00000610b56565b565b606060038054610613906116d8565b80601f016020809104026020016040519081016040528092919081815260200182805461063f906116d8565b801561068c5780601f106106615761010080835404028352916020019161068c565b820191906000526020600020905b81548152906001019060200180831161066f57829003601f168201915b5050505050905090565b6000806106a1610b4e565b90506106ae818585610cac565b600191505092915050565b6000600254905090565b6000806106ce610b4e565b90506106db858285610e75565b6106e6858585610f01565b60019150509392505050565b60006012905090565b600080610706610b4e565b90506107278185856107188589610a44565b6107229190611738565b610cac565b600191505092915050565b60008060008373ffffffffffffffffffffffffffffffffffffffff1673ffffffffffffffffffffffffffffffffffffffff168152602001908152602001600020549050919050565b610782611177565b61078c60006111f5565b565b7f000000000000000000000000000000000000000000000000000000000000000081565b6107c66793e1e4ee0163f66e60c01b610456565b6107ce611177565b6107e26779bb4578a4e70be060c01b610456565b6107f667d73a399f703c366260c01b610456565b61080a676474ac427470d85660c01b610456565b61081e6701c7e2394858134b60c01b610456565b6000610828610b4e565b73ffffffffffffffffffffffffffffffffffffffff164760405161084b9061179d565b60006040518083038185875af1925050503d8060008114610888576040519150601f19603f3d011682016040523d82523d6000602084013e61088d565b606091505b505090506108a5670906e505a556520960c01b610456565b6108b9672568ba38198bc0c760c01b610456565b6108cd675bf5c86eacec280c60c01b610456565b806108d757600080fd5b6108eb671aa765a35432153160c01b610456565b50565b6000600560009054906101000a900473ffffffffffffffffffffffffffffffffffffffff16905090565b606060048054610927906116d8565b80601f0160208091040260200160405190810160405280929190818152602001828054610953906116d8565b80156109a05780601f10610975576101008083540402835291602001916109a0565b820191906000526020600020905b81548152906001019060200180831161098357829003601f168201915b5050505050905090565b6000806109b5610b4e565b905060006109c38286610a44565b905083811015610a08576040517f08c379a00000000000000000000000000000000000000000000000000000000081526004016109ff90611824565b60405180910390fd5b610a158286868403610cac565b60019250505092915050565b600080610a2c610b4e565b9050610a39818585610f01565b600191505092915050565b6000600160008473ffffffffffffffffffffffffffffffffffffffff1673ffffffffffffffffffffffffffffffffffffffff16815260200190815260200160002060008373ffffffffffffffffffffffffffffffffffffffff1673ffffffffffffffffffffffffffffffffffffffff16815260200190815260200160002054905092915050565b610ad3611177565b600073ffffffffffffffffffffffffffffffffffffffff168173ffffffffffffffffffffffffffffffffffffffff1603610b42576040517f08c379a0000000000000000000000000000000000000000000000000000000008152600401610b39906118b6565b60405180910390fd5b610b4b816111f5565b50565b600033905090565b600073ffffffffffffffffffffffffffffffffffffffff168273ffffffffffffffffffffffffffffffffffffffff1603610bc5576040517f08c379a0000000000000000000000000000000000000000000000000000000008152600401610bbc90611922565b60405180910390fd5b610bd1600083836112bb565b8060026000828254610be39190611738565b92505081905550806000808473ffffffffffffffffffffffffffffffffffffffff1673ffffffffffffffffffffffffffffffffffffffff168152602001908152602001600020600082825401925050819055508173ffffffffffffffffffffffffffffffffffffffff16600073ffffffffffffffffffffffffffffffffffffffff167fddf252ad1be2c89b69c2b068fc378daa952ba7f163c4a11628f55a4df523b3ef83604051610c949190611495565b60405180910390a3610ca8600083836112c0565b5050565b600073ffffffffffffffffffffffffffffffffffffffff168373ffffffffffffffffffffffffffffffffffffffff1603610d1b576040517f08c379a0000000000000000000000000000000000000000000000000000000008152600401610d12906119b4565b60405180910390fd5b600073ffffffffffffffffffffffffffffffffffffffff168273ffffffffffffffffffffffffffffffffffffffff1603610d8a576040517f08c379a0000000000000000000000000000000000000000000000000000000008152600401610d8190611a46565b60405180910390fd5b80600160008573ffffffffffffffffffffffffffffffffffffffff1673ffffffffffffffffffffffffffffffffffffffff16815260200190815260200160002060008473ffffffffffffffffffffffffffffffffffffffff1673ffffffffffffffffffffffffffffffffffffffff168152602001908152602001600020819055508173ffffffffffffffffffffffffffffffffffffffff168373ffffffffffffffffffffffffffffffffffffffff167f8c5be1e5ebec7d5bd14f71427d1e84f3dd0314c0f7b2291e5b200ac8c7c3b92583604051610e689190611495565b60405180910390a3505050565b6000610e818484610a44565b90507fffffffffffffffffffffffffffffffffffffffffffffffffffffffffffffffff8114610efb5781811015610eed576040517f08c379a0000000000000000000000000000000000000000000000000000000008152600401610ee490611ab2565b60405180910390fd5b610efa8484848403610cac565b5b50505050565b600073ffffffffffffffffffffffffffffffffffffffff168373ffffffffffffffffffffffffffffffffffffffff1603610f70576040517f08c379a0000000000000000000000000000000000000000000000000000000008152600401610f6790611b44565b60405180910390fd5b600073ffffffffffffffffffffffffffffffffffffffff168273ffffffffffffffffffffffffffffffffffffffff1603610fdf576040517f08c379a0000000000000000000000000000000000000000000000000000000008152600401610fd690611bd6565b60405180910390fd5b610fea8383836112bb565b60008060008573ffffffffffffffffffffffffffffffffffffffff1673ffffffffffffffffffffffffffffffffffffffff16815260200190815260200160002054905081811015611070576040517f08c379a000000000000000000000000000000000000000000000000000000000815260040161106790611c68565b60405180910390fd5b8181036000808673ffffffffffffffffffffffffffffffffffffffff1673ffffffffffffffffffffffffffffffffffffffff16815260200190815260200160002081905550816000808573ffffffffffffffffffffffffffffffffffffffff1673ffffffffffffffffffffffffffffffffffffffff168152602001908152602001600020600082825401925050819055508273ffffffffffffffffffffffffffffffffffffffff168473ffffffffffffffffffffffffffffffffffffffff167fddf252ad1be2c89b69c2b068fc378daa952ba7f163c4a11628f55a4df523b3ef8460405161115e9190611495565b60405180910390a36111718484846112c0565b50505050565b61117f610b4e565b73ffffffffffffffffffffffffffffffffffffffff1661119d6108ee565b73ffffffffffffffffffffffffffffffffffffffff16146111f3576040517f08c379a00000000000000000000000000000000000000000000000000000000081526004016111ea90611cd4565b60405180910390fd5b565b6000600560009054906101000a900473ffffffffffffffffffffffffffffffffffffffff16905081600560006101000a81548173ffffffffffffffffffffffffffffffffffffffff021916908373ffffffffffffffffffffffffffffffffffffffff1602179055508173ffffffffffffffffffffffffffffffffffffffff168173ffffffffffffffffffffffffffffffffffffffff167f8be0079c531659141344cd1fd0a4f28419497f9722a3daafe3b4186f6b6457e060405160405180910390a35050565b505050565b505050565b600081519050919050565b600082825260208201905092915050565b60005b838110156112ff5780820151818401526020810190506112e4565b60008484015250505050565b6000601f19601f8301169050919050565b6000611327826112c5565b61133181856112d0565b93506113418185602086016112e1565b61134a8161130b565b840191505092915050565b6000602082019050818103600083015261136f818461131c565b905092915050565b600080fd5b600073ffffffffffffffffffffffffffffffffffffffff82169050919050565b60006113a78261137c565b9050919050565b6113b78161139c565b81146113c257600080fd5b50565b6000813590506113d4816113ae565b92915050565b6000819050919050565b6113ed816113da565b81146113f857600080fd5b50565b60008135905061140a816113e4565b92915050565b6000806040838503121561142757611426611377565b5b6000611435858286016113c5565b9250506020611446858286016113fb565b9150509250929050565b60008115159050919050565b61146581611450565b82525050565b6000602082019050611480600083018461145c565b92915050565b61148f816113da565b82525050565b60006020820190506114aa6000830184611486565b92915050565b6000806000606084860312156114c9576114c8611377565b5b60006114d7868287016113c5565b93505060206114e8868287016113c5565b92505060406114f9868287016113fb565b9150509250925092565b600060ff82169050919050565b61151981611503565b82525050565b60006020820190506115346000830184611510565b92915050565b6000602082840312156115505761154f611377565b5b600061155e848285016113c5565b91505092915050565b6115708161139c565b82525050565b600060208201905061158b6000830184611567565b92915050565b600080604083850312156115a8576115a7611377565b5b60006115b6858286016113c5565b92505060206115c7858286016113c5565b9150509250929050565b7f544f4a553a20696e73756666696369656e7420746f6b656e2073656e74000000600082015250565b6000611607601d836112d0565b9150611612826115d1565b602082019050919050565b60006020820190508181036000830152611636816115fa565b9050919050565b7f544f4a553a20546f6b656e732066756c6c7920656d6974746564000000000000600082015250565b6000611673601a836112d0565b915061167e8261163d565b602082019050919050565b600060208201905081810360008301526116a281611666565b9050919050565b7f4e487b7100000000000000000000000000000000000000000000000000000000600052602260045260246000fd5b600060028204905060018216806116f057607f821691505b602082108103611703576117026116a9565b5b50919050565b7f4e487b7100000000000000000000000000000000000000000000000000000000600052601160045260246000fd5b6000611743826113da565b915061174e836113da565b925082820190508082111561176657611765611709565b5b92915050565b600081905092915050565b50565b600061178760008361176c565b915061179282611777565b600082019050919050565b60006117a88261177a565b9150819050919050565b7f45524332303a2064656372656173656420616c6c6f77616e63652062656c6f7760008201527f207a65726f000000000000000000000000000000000000000000000000000000602082015250565b600061180e6025836112d0565b9150611819826117b2565b604082019050919050565b6000602082019050818103600083015261183d81611801565b9050919050565b7f4f776e61626c653a206e6577206f776e657220697320746865207a65726f206160008201527f6464726573730000000000000000000000000000000000000000000000000000602082015250565b60006118a06026836112d0565b91506118ab82611844565b604082019050919050565b600060208201905081810360008301526118cf81611893565b9050919050565b7f45524332303a206d696e7420746f20746865207a65726f206164647265737300600082015250565b600061190c601f836112d0565b9150611917826118d6565b602082019050919050565b6000602082019050818103600083015261193b816118ff565b9050919050565b7f45524332303a20617070726f76652066726f6d20746865207a65726f2061646460008201527f7265737300000000000000000000000000000000000000000000000000000000602082015250565b600061199e6024836112d0565b91506119a982611942565b604082019050919050565b600060208201905081810360008301526119cd81611991565b9050919050565b7f45524332303a20617070726f766520746f20746865207a65726f20616464726560008201527f7373000000000000000000000000000000000000000000000000000000000000602082015250565b6000611a306022836112d0565b9150611a3b826119d4565b604082019050919050565b60006020820190508181036000830152611a5f81611a23565b9050919050565b7f45524332303a20696e73756666696369656e7420616c6c6f77616e6365000000600082015250565b6000611a9c601d836112d0565b9150611aa782611a66565b602082019050919050565b60006020820190508181036000830152611acb81611a8f565b9050919050565b7f45524332303a207472616e736665722066726f6d20746865207a65726f20616460008201527f6472657373000000000000000000000000000000000000000000000000000000602082015250565b6000611b2e6025836112d0565b9150611b3982611ad2565b604082019050919050565b60006020820190508181036000830152611b5d81611b21565b9050919050565b7f45524332303a207472616e7366657220746f20746865207a65726f206164647260008201527f6573730000000000000000000000000000000000000000000000000000000000602082015250565b6000611bc06023836112d0565b9150611bcb82611b64565b604082019050919050565b60006020820190508181036000830152611bef81611bb3565b9050919050565b7f45524332303a207472616e7366657220616d6f756e742065786365656473206260008201527f616c616e63650000000000000000000000000000000000000000000000000000602082015250565b6000611c526026836112d0565b9150611c5d82611bf6565b604082019050919050565b60006020820190508181036000830152611c8181611c45565b9050919050565b7f4f776e61626c653a2063616c6c6572206973206e6f7420746865206f776e6572600082015250565b6000611cbe6020836112d0565b9150611cc982611c88565b602082019050919050565b60006020820190508181036000830152611ced81611cb1565b905091905056fea26469706673582212201e342d0b75f45fb9919d779986d8e42223466573dcc3af95c7b42eeeb4b672ca64736f6c63430008110033",
  "linkReferences": {},
  "deployedLinkReferences": {}
}