{
  "_format": "hh-sol-artifact-1",
  "contractName": "Toju",
  "sourceName": "contracts/Toju.sol",
  "abi": [
    {
      "inputs": [
        {
          "internalType": "contract TojuToken",
          "name": "_tojuToken",
          "type": "address"
        }
      ],
      "stateMutability": "nonpayable",
      "type": "constructor"
    },
    {
      "inputs": [],
      "name": "CoolDownTimeNotmet",
      "type": "error"
    },
    {
      "inputs": [],
      "name": "ExpiredTimestamp",
      "type": "error"
    },
    {
      "inputs": [],
      "name": "FailedTransfer",
      "type": "error"
    },
    {
      "inputs": [
        {
          "internalType": "uint256",
          "name": "sent",
          "type": "uint256"
        },
        {
          "internalType": "uint256",
          "name": "required",
          "type": "uint256"
        }
      ],
      "name": "InCorrectAmount",
      "type": "error"
    },
    {
      "inputs": [
        {
          "internalType": "uint256",
          "name": "sent",
          "type": "uint256"
        },
        {
          "internalType": "uint256",
          "name": "remaining",
          "type": "uint256"
        }
      ],
      "name": "InsufficientAmountRemain",
      "type": "error"
    },
    {
      "inputs": [],
      "name": "InvalidCoolDownInterval",
      "type": "error"
    },
    {
      "inputs": [],
      "name": "InvalidMaxSellAmount",
      "type": "error"
    },
    {
      "inputs": [],
      "name": "InvalidMilestoneExpired",
      "type": "error"
    },
    {
      "inputs": [],
      "name": "InvalidMilestoneFinished",
      "type": "error"
    },
    {
      "inputs": [],
      "name": "InvalidMilestonePassed",
      "type": "error"
    },
    {
      "inputs": [],
      "name": "InvalidMilestonesCount",
      "type": "error"
    },
    {
      "inputs": [],
      "name": "InvalidProofOfWork",
      "type": "error"
    },
    {
      "inputs": [],
      "name": "InvalidSignature",
      "type": "error"
    },
    {
      "inputs": [],
      "name": "InvalidStageActive",
      "type": "error"
    },
    {
      "inputs": [],
      "name": "InvalidStageAllowReadyToFinish",
      "type": "error"
    },
    {
      "inputs": [],
      "name": "InvalidStageReadyToFinish",
      "type": "error"
    },
    {
      "inputs": [],
      "name": "InvalidStakeRate",
      "type": "error"
    },
    {
      "inputs": [],
      "name": "InvalidStatusAllowOngoing",
      "type": "error"
    },
    {
      "inputs": [],
      "name": "InvalidStatusAllowPending",
      "type": "error"
    },
    {
      "inputs": [],
      "name": "InvalidStatusAllowPendingAndOngoing",
      "type": "error"
    },
    {
      "inputs": [],
      "name": "InvalidThresholdIndex",
      "type": "error"
    },
    {
      "inputs": [],
      "name": "InvalidTimestamp",
      "type": "error"
    },
    {
      "inputs": [],
      "name": "NullDescription",
      "type": "error"
    },
    {
      "inputs": [],
      "name": "RecordNotFound",
      "type": "error"
    },
    {
      "anonymous": false,
      "inputs": [
        {
          "indexed": true,
          "internalType": "uint256",
          "name": "projectId",
          "type": "uint256"
        }
      ],
      "name": "CancelProject",
      "type": "event"
    },
    {
      "anonymous": false,
      "inputs": [
        {
          "indexed": true,
          "internalType": "address",
          "name": "creator",
          "type": "address"
        },
        {
          "indexed": true,
          "internalType": "uint256",
          "name": "projectId",
          "type": "uint256"
        },
        {
          "indexed": false,
          "internalType": "uint8",
          "name": "milestoneCount",
          "type": "uint8"
        }
      ],
      "name": "DeclareProject",
      "type": "event"
    },
    {
      "anonymous": false,
      "inputs": [
        {
          "indexed": true,
          "internalType": "uint256",
          "name": "projectId",
          "type": "uint256"
        },
        {
          "indexed": false,
          "internalType": "uint8",
          "name": "milestoneIndex",
          "type": "uint8"
        }
      ],
      "name": "FinishMilestone",
      "type": "event"
    },
    {
      "anonymous": false,
      "inputs": [
        {
          "indexed": true,
          "internalType": "uint256",
          "name": "projectId",
          "type": "uint256"
        }
      ],
      "name": "FinishProject",
      "type": "event"
    },
    {
      "anonymous": false,
      "inputs": [
        {
          "indexed": true,
          "internalType": "address",
          "name": "previousOwner",
          "type": "address"
        },
        {
          "indexed": true,
          "internalType": "address",
          "name": "newOwner",
          "type": "address"
        }
      ],
      "name": "OwnershipTransferred",
      "type": "event"
    },
    {
      "anonymous": false,
      "inputs": [
        {
          "indexed": true,
          "internalType": "address",
          "name": "owner",
          "type": "address"
        },
        {
          "indexed": true,
          "internalType": "uint256",
          "name": "projectId",
          "type": "uint256"
        },
        {
          "indexed": false,
          "internalType": "uint256",
          "name": "amount",
          "type": "uint256"
        }
      ],
      "name": "PayStake",
      "type": "event"
    },
    {
      "anonymous": false,
      "inputs": [
        {
          "indexed": true,
          "internalType": "address",
          "name": "buyer",
          "type": "address"
        },
        {
          "indexed": true,
          "internalType": "uint256",
          "name": "projectId",
          "type": "uint256"
        },
        {
          "indexed": false,
          "internalType": "uint256",
          "name": "dealAmount",
          "type": "uint256"
        }
      ],
      "name": "PurchaseProject",
      "type": "event"
    },
    {
      "anonymous": false,
      "inputs": [
        {
          "indexed": true,
          "internalType": "address",
          "name": "buyer",
          "type": "address"
        },
        {
          "indexed": true,
          "internalType": "uint256",
          "name": "projectId",
          "type": "uint256"
        },
        {
          "indexed": false,
          "internalType": "uint256",
          "name": "buyerAmount",
          "type": "uint256"
        },
        {
          "indexed": false,
          "internalType": "uint256",
          "name": "toCreatorAmount",
          "type": "uint256"
        }
      ],
      "name": "Refund",
      "type": "event"
    },
    {
      "inputs": [
        {
          "internalType": "uint256",
          "name": "projectId",
          "type": "uint256"
        }
      ],
      "name": "cancelProject",
      "outputs": [],
      "stateMutability": "nonpayable",
      "type": "function"
    },
    {
      "inputs": [],
      "name": "counter",
      "outputs": [
        {
          "internalType": "uint256",
          "name": "",
          "type": "uint256"
        }
      ],
      "stateMutability": "view",
      "type": "function"
    },
    {
      "inputs": [
        {
          "components": [
            {
              "internalType": "string",
              "name": "projectDescription",
              "type": "string"
            },
            {
              "internalType": "uint8",
              "name": "stakeRate100",
              "type": "uint8"
            },
            {
              "internalType": "uint256",
              "name": "maxTokenSoldCount",
              "type": "uint256"
            },
            {
              "internalType": "string[]",
              "name": "milestoneTitles",
              "type": "string[]"
            },
            {
              "internalType": "string[]",
              "name": "milestoneDescriptions",
              "type": "string[]"
            },
            {
              "internalType": "uint256[]",
              "name": "endTimestamps",
              "type": "uint256[]"
            },
            {
              "internalType": "uint8",
              "name": "thresholdIndex",
              "type": "uint8"
            },
            {
              "internalType": "uint256",
              "name": "coolDownInterval",
              "type": "uint256"
            }
          ],
          "internalType": "struct ProjectInput",
          "name": "input",
          "type": "tuple"
        }
      ],
      "name": "declareProject",
      "outputs": [
        {
          "internalType": "uint256",
          "name": "projectId",
          "type": "uint256"
        }
      ],
      "stateMutability": "nonpayable",
      "type": "function"
    },
    {
      "inputs": [
        {
          "internalType": "uint256",
          "name": "projectId",
          "type": "uint256"
        },
        {
          "internalType": "uint8",
          "name": "index",
          "type": "uint8"
        },
        {
          "internalType": "string",
          "name": "proofOfWork",
          "type": "string"
        }
      ],
      "name": "finishMilestone",
      "outputs": [],
      "stateMutability": "nonpayable",
      "type": "function"
    },
    {
      "inputs": [
        {
          "internalType": "uint256",
          "name": "projectId",
          "type": "uint256"
        }
      ],
      "name": "finishProject",
      "outputs": [],
      "stateMutability": "nonpayable",
      "type": "function"
    },
    {
      "inputs": [
        {
          "internalType": "uint256",
          "name": "amount",
          "type": "uint256"
        },
        {
          "internalType": "uint256",
          "name": "projectId",
          "type": "uint256"
        }
      ],
      "name": "onPayment",
      "outputs": [],
      "stateMutability": "nonpayable",
      "type": "function"
    },
    {
      "inputs": [],
      "name": "owner",
      "outputs": [
        {
          "internalType": "address",
          "name": "",
          "type": "address"
        }
      ],
      "stateMutability": "view",
      "type": "function"
    },
    {
      "inputs": [
        {
          "internalType": "uint256",
          "name": "",
          "type": "uint256"
        },
        {
          "internalType": "uint256",
          "name": "",
          "type": "uint256"
        }
      ],
      "name": "projectBuyers",
      "outputs": [
        {
          "internalType": "address",
          "name": "",
          "type": "address"
        }
      ],
      "stateMutability": "view",
      "type": "function"
    },
    {
      "inputs": [
        {
          "internalType": "uint256",
          "name": "projectId",
          "type": "uint256"
        }
      ],
      "name": "queryProjectProto",
      "outputs": [
        {
          "components": [
            {
              "internalType": "string",
              "name": "description",
              "type": "string"
            },
            {
              "internalType": "address",
              "name": "ownerAddress",
              "type": "address"
            },
            {
              "internalType": "uint256",
              "name": "creationTimestamp",
              "type": "uint256"
            },
            {
              "internalType": "uint8",
              "name": "stakeRate100",
              "type": "uint8"
            },
            {
              "internalType": "uint256",
              "name": "maxTokenSoldCount",
              "type": "uint256"
            },
            {
              "internalType": "uint8",
              "name": "milestonesCount",
              "type": "uint8"
            },
            {
              "components": [
                {
                  "internalType": "string",
                  "name": "title",
                  "type": "string"
                },
                {
                  "internalType": "string",
                  "name": "description",
                  "type": "string"
                },
                {
                  "internalType": "uint256",
                  "name": "endTimestamp",
                  "type": "uint256"
                },
                {
                  "internalType": "string",
                  "name": "proofOfWork",
                  "type": "string"
                }
              ],
              "internalType": "struct ProjectMilestone[]",
              "name": "milestones",
              "type": "tuple[]"
            },
            {
              "internalType": "uint8",
              "name": "thresholdMilestoneIndex",
              "type": "uint8"
            },
            {
              "internalType": "uint256",
              "name": "coolDownInterval",
              "type": "uint256"
            },
            {
              "internalType": "uint256",
              "name": "lastUpdateTimestamp",
              "type": "uint256"
            },
            {
              "internalType": "uint8",
              "name": "nextMilestone",
              "type": "uint8"
            },
            {
              "internalType": "uint256",
              "name": "remainTokenCount",
              "type": "uint256"
            },
            {
              "internalType": "uint256",
              "name": "buyerCount",
              "type": "uint256"
            },
            {
              "internalType": "string",
              "name": "status",
              "type": "string"
            },
            {
              "internalType": "string",
              "name": "stage",
              "type": "string"
            }
          ],
          "internalType": "struct ProjectPojo",
          "name": "projectPojo",
          "type": "tuple"
        }
      ],
      "stateMutability": "view",
      "type": "function"
    },
    {
      "inputs": [
        {
          "internalType": "uint256",
          "name": "projectId",
          "type": "uint256"
        },
        {
          "internalType": "address",
          "name": "buyer",
          "type": "address"
        }
      ],
      "name": "queryPurchase",
      "outputs": [
        {
          "internalType": "uint256",
          "name": "value",
          "type": "uint256"
        }
      ],
      "stateMutability": "view",
      "type": "function"
    },
    {
      "inputs": [
        {
          "internalType": "uint256",
          "name": "projectId",
          "type": "uint256"
        }
      ],
      "name": "refund",
      "outputs": [],
      "stateMutability": "nonpayable",
      "type": "function"
    },
    {
      "inputs": [],
      "name": "renounceOwnership",
      "outputs": [],
      "stateMutability": "nonpayable",
      "type": "function"
    },
    {
      "inputs": [
        {
          "internalType": "address",
          "name": "newOwner",
          "type": "address"
        }
      ],
      "name": "transferOwnership",
      "outputs": [],
      "stateMutability": "nonpayable",
      "type": "function"
    }
  ],
  "bytecode": "0x60806040523480156200001157600080fd5b5060405162006a3b38038062006a3b833981810160405281019062000037919062000224565b620000576200004b620000d760201b60201c565b620000df60201b60201c565b6200007367e6ad38ed4b7f532060c01b620001a360201b60201c565b6200008f673b8734eb42d1ab3960c01b620001a360201b60201c565b80600160006101000a81548173ffffffffffffffffffffffffffffffffffffffff021916908373ffffffffffffffffffffffffffffffffffffffff1602179055505062000256565b600033905090565b60008060009054906101000a900473ffffffffffffffffffffffffffffffffffffffff169050816000806101000a81548173ffffffffffffffffffffffffffffffffffffffff021916908373ffffffffffffffffffffffffffffffffffffffff1602179055508173ffffffffffffffffffffffffffffffffffffffff168173ffffffffffffffffffffffffffffffffffffffff167f8be0079c531659141344cd1fd0a4f28419497f9722a3daafe3b4186f6b6457e060405160405180910390a35050565b50565b600080fd5b600073ffffffffffffffffffffffffffffffffffffffff82169050919050565b6000620001d882620001ab565b9050919050565b6000620001ec82620001cb565b9050919050565b620001fe81620001df565b81146200020a57600080fd5b50565b6000815190506200021e81620001f3565b92915050565b6000602082840312156200023d576200023c620001a6565b5b60006200024d848285016200020d565b91505092915050565b6167d580620002666000396000f3fe608060405234801561001057600080fd5b50600436106100cf5760003560e01c8063715018a61161008c578063b5bf2ecf11610066578063b5bf2ecf146101fe578063dc7d80051461021a578063e4f23e611461024a578063f2fde38b14610266576100cf565b8063715018a6146101a65780637f901d7a146101b05780638da5cb5b146101e0576100cf565b80630b6b90a9146100d45780630f9f5c5b146101045780632494114714610120578063278ecde11461013c5780635ad99c3f1461015857806361bc221a14610188575b600080fd5b6100ee60048036038101906100e991906156c2565b610282565b6040516100fb9190615743565b60405180910390f35b61011e600480360381019061011991906157fc565b6102d0565b005b61013a60048036038101906101359190615870565b610bd8565b005b61015660048036038101906101519190615870565b6114be565b005b610172600480360381019061016d91906158c2565b611aab565b60405161017f919061591a565b60405180910390f35b610190612679565b60405161019d919061591a565b60405180910390f35b6101ae61267f565b005b6101ca60048036038101906101c59190615870565b612693565b6040516101d79190615c7d565b60405180910390f35b6101e8612778565b6040516101f59190615743565b60405180910390f35b610218600480360381019061021391906156c2565b6127a1565b005b610234600480360381019061022f9190615ccb565b61314a565b604051610241919061591a565b60405180910390f35b610264600480360381019061025f9190615870565b6131cd565b005b610280600480360381019061027b9190615d0b565b613918565b005b6006602052816000526040600020818154811061029e57600080fd5b906000526020600020016000915091509054906101000a900473ffffffffffffffffffffffffffffffffffffffff1681565b6102e4672a1a9a2abdf1015460c01b61399b565b6102f86776ca8a1963abcfdd60c01b61399b565b61030c674b78c3d22f17031160c01b61399b565b60006103178561399e565b905061032d67c8ca34947be88f2260c01b61399b565b6103416765fda1ca8585e87760c01b61399b565b806000015173ffffffffffffffffffffffffffffffffffffffff163373ffffffffffffffffffffffffffffffffffffffff16146103d25761038c67744536808453920060c01b61399b565b6103a067bd26d8e5ad3ac5f260c01b61399b565b6040517f8baa579f00000000000000000000000000000000000000000000000000000000815260040160405180910390fd5b6103e667d8b16eccb01f622060c01b61399b565b6103fa6741d85eff87da420660c01b61399b565b61040e678c732b4e115ab0f860c01b61399b565b600061041986613b65565b905061042f67d39032d83bcd43ca60c01b61399b565b6104436718d8edcce425176160c01b61399b565b600181610100015160ff16146104ad5761046767fb9ead077641a9ae60c01b61399b565b61047b6707420719582a2a2f60c01b61399b565b6040517f2dc7fe0f00000000000000000000000000000000000000000000000000000000815260040160405180910390fd5b6104c167c4489392263436d260c01b61399b565b6104d567c749841bcb41385860c01b61399b565b6104e967699185726393bd9660c01b61399b565b60006104f8878760ff16613c70565b905061050e67de0414202cb8bbe860c01b61399b565b61052267700c53d33cd61bd660c01b61399b565b600042905061053b67fb933eb6a10fd1c060c01b61399b565b61054f6794bc70b74e9b92a060c01b61399b565b808460c001518460a001516105649190615d67565b11156105c45761057e673529ce484cdc4d1760c01b61399b565b610592675054d0a7f33c403e60c01b61399b565b6040517f809b1ed300000000000000000000000000000000000000000000000000000000815260040160405180910390fd5b6105d867c4f41ad3976b66a060c01b61399b565b6105ec67286727fafe64a01860c01b61399b565b610600675a1542314dfb63b560c01b61399b565b8260e0015160ff168760ff16101561066c5761062667a7bd84b932708b6b60c01b61399b565b61063a6795224c37c1e9fe7360c01b61399b565b6040517fb92690b200000000000000000000000000000000000000000000000000000000815260040160405180910390fd5b610680670968b0698ad2f99d60c01b61399b565b6106946704978513a69fbabe60c01b61399b565b6106a867d7ea5226d3e5f02a60c01b61399b565b6106b182613ece565b15610710576106ca673d0f29e29a1ec26d60c01b61399b565b6106de6790b34a7e0046238560c01b61399b565b6040517f4bec8c2500000000000000000000000000000000000000000000000000000000815260040160405180910390fd5b610724677234c688993dabaf60c01b61399b565b610738671ce4920ec1374dbe60c01b61399b565b61074c6788c3590419333d8e60c01b61399b565b6107568242613f1d565b156107b55761076f67df44add9db5938d260c01b61399b565b61078367eaad2aa1a0033a3060c01b61399b565b6040517f7a1a4e1e00000000000000000000000000000000000000000000000000000000815260040160405180910390fd5b6107c967d89343fcce89948c60c01b61399b565b6107dd6705c43e3240130f3f60c01b61399b565b6107f167558242017d94fe1060c01b61399b565b60008686905003610856576108106779f72e06b6eea1d960c01b61399b565b61082467bf7d9d10057ecafe60c01b61399b565b6040517fc2e63ef700000000000000000000000000000000000000000000000000000000815260040160405180910390fd5b61086a672368790fe0d0528c60c01b61399b565b61087e67965eaa2a3f86765e60c01b61399b565b85858080601f016020809104026020016040519081016040528093929190818152602001838380828437600081840152601f19601f8201169050808301925050505050505082606001819052506108df67cb8e4921aa0d8ff160c01b61399b565b6001876108ec9190615d9b565b8360e0019060ff16908160ff1681525050610911673719df001d750f8060c01b61399b565b8260c001805180919061092390615dd0565b60ff1660ff16815250506109416735b995c33a5843f760c01b61399b565b808360a001818152505061095f672dc59ecff06baff460c01b61399b565b610973672044d635bda626ed60c01b61399b565b8360a0015160ff168760ff16106109c25761099867641d1e682f48d36a60c01b61399b565b6109ac675fd070dd5b58b88b60c01b61399b565b60018360600190151590811515815250506109d7565b6109d6674703efa4e093a22760c01b61399b565b5b6109eb67d7b83e59451e458060c01b61399b565b6109ff6748d1493776060de560c01b61399b565b60018460800151610a109190615df9565b60ff168760ff1603610a5a57610a30674337daa2197674ec60c01b61399b565b610a44672d01c3404f6a478a60c01b61399b565b6001836080019015159081151581525050610a6f565b610a6e67fbcd92430c44db3d60c01b61399b565b5b610a83677e14dee13607e4ab60c01b61399b565b610a9767c0d5438ba2977c6e60c01b61399b565b610aa18884613f6b565b610ab567f7abef470524f14c60c01b61399b565b610ac9672c0705fa4adc551860c01b61399b565b610ad7888860ff168461407a565b610aeb67ed7614a42c8e415b60c01b61399b565b610aff67f5db384540561f1c60c01b61399b565b877fd7e09ddf6e37d5245e3a812f582f4835f581449495c8ab3cc3172b1d9734d71b88604051610b2f9190615e3d565b60405180910390a2610b4b6738a07d482fa17cac60c01b61399b565b610b5f67b610bdbc2d4a8ff260c01b61399b565b610b6a84844261412a565b15610bb957610b8367806b762cd5393e3e60c01b61399b565b610b97675e9fa17a20dba37760c01b61399b565b610bab6783ede017320f326860c01b61399b565b610bb4886131cd565b610bce565b610bcd677f54f084c782cc8860c01b61399b565b5b5050505050505050565b610bec6758466ba8b552903260c01b61399b565b610c006740bbc467485b50d460c01b61399b565b610c146788c408511b8c301e60c01b61399b565b6000610c1f8261399e565b9050610c35672a4ae80c871fd0c760c01b61399b565b60036000808152602001908152602001600020600360008481526020019081526020016000206000820160009054906101000a900473ffffffffffffffffffffffffffffffffffffffff168160000160006101000a81548173ffffffffffffffffffffffffffffffffffffffff021916908373ffffffffffffffffffffffffffffffffffffffff16021790555060018201816001019081610cd691906160a9565b506002820160009054906101000a900460ff168160020160006101000a81548160ff021916908360ff160217905550600382015481600301556004820160009054906101000a900460ff168160040160006101000a81548160ff021916908360ff1602179055506004820160019054906101000a900460ff168160040160016101000a81548160ff021916908360ff16021790555060058201548160050155600682015481600601556007820154816007015560088201548160080155905050610daa67f00452adaf9b58b260c01b61399b565b610dbe67d3e6b53dc9de60b360c01b61399b565b6000610dc983613b65565b9050610ddf6724bb4cf789da6bad60c01b61399b565b60046000808152602001908152602001600020600460008581526020019081526020016000206000820154816000015560018201548160010155600282015481600201556003820160009054906101000a900460ff168160030160006101000a81548160ff0219169083151502179055506003820160019054906101000a900460ff168160030160016101000a81548160ff021916908315150217905550600482015481600401556005820160009054906101000a900460ff168160050160006101000a81548160ff021916908360ff1602179055506005820160019054906101000a900460ff168160050160016101000a81548160ff021916908360ff1602179055506005820160029054906101000a900460ff168160050160026101000a81548160ff021916908360ff160217905550905050610f2867142e512f72b7c21d60c01b61399b565b610f3c67c6bf0a991e0a0d8d60c01b61399b565b816000015173ffffffffffffffffffffffffffffffffffffffff163373ffffffffffffffffffffffffffffffffffffffff1614610fcd57610f876707781f60899c5c8b60c01b61399b565b610f9b67c993ffbd7eda2c7860c01b61399b565b6040517f8baa579f00000000000000000000000000000000000000000000000000000000815260040160405180910390fd5b610fe1674e697f7567a9a66660c01b61399b565b610ff5671afb5ee3a25df05760c01b61399b565b611009672c23c5411b6177cf60c01b61399b565b600081610100015160ff16036110325761102d6791f81a54117a3a5560c01b61399b565b611431565b61104667b07787bf34812d6860c01b61399b565b61105a67c5460f4cea1c960660c01b61399b565b600181610100015160ff16036113d65761107e6715714c8140548c5960c01b61399b565b61109267bdd2e286402496a260c01b61399b565b6110a667ce5e5c29491dfeec60c01b61399b565b6110b1828242614251565b15611110576110ca67b0363c3c82c3bb1460c01b61399b565b6110de67186f9ce3a253a24260c01b61399b565b6040517f4b8b485c00000000000000000000000000000000000000000000000000000000815260040160405180910390fd5b6111246768171544a020770360c01b61399b565b611138671dd66d279744834e60c01b61399b565b61114c673ee1474854d762f260c01b61399b565b611162826000015161115d84614378565b6143cc565b611176677be38297d44ad07560c01b61399b565b61118a67a8d65449228e498060c01b61399b565b60006006600085815260200190815260200160002080548060200260200160405190810160405280929190818152602001828054801561121f57602002820191906000526020600020905b8160009054906101000a900473ffffffffffffffffffffffffffffffffffffffff1673ffffffffffffffffffffffffffffffffffffffff16815260200190600101908083116111d5575b5050505050905061123a678044ac871d4cd62c60c01b61399b565b61124e671c5498f6eedf00c160c01b61399b565b60005b81518110156113cf5761126e679cd67671622e76f960c01b61399b565b61128267b6c5f9467f71a02b60c01b61399b565b600082828151811061129757611296616191565b5b602002602001015190506112b567d32a2058db75bee860c01b61399b565b6112c9676059f832f154047260c01b61399b565b60006007600088815260200190815260200160002060008373ffffffffffffffffffffffffffffffffffffffff1673ffffffffffffffffffffffffffffffffffffffff16815260200190815260200160002054905061133267124edb27e0d576c260c01b61399b565b60006007600089815260200190815260200160002060008473ffffffffffffffffffffffffffffffffffffffff1673ffffffffffffffffffffffffffffffffffffffff1681526020019081526020016000208190555061139c676cd7c95cc8a95af160c01b61399b565b6113b0675083d121df76bf0060c01b61399b565b6113ba82826143cc565b505080806113c7906161c0565b915050611251565b5050611430565b6113ea671d5513429203314c60c01b61399b565b6113fe67f75857137be56ed960c01b61399b565b6040517fe50a91b900000000000000000000000000000000000000000000000000000000815260040160405180910390fd5b5b611445674e86c5bd1caed67360c01b61399b565b6005600084815260200190815260200160002060006114649190615427565b61147867c1a349e18ee5088260c01b61399b565b61148c67d515a889d520aea760c01b61399b565b827f74acb192d39829b88a66ad5363afa9120c5a306a458287a870351ae34a04d34660405160405180910390a2505050565b6114d2678c2692bad4c75cda60c01b61399b565b6114e667ae8158e64c734ff960c01b61399b565b6114fa67a476802d7fac031260c01b61399b565b60006115058261399e565b905061151b67088a02d1222a303a60c01b61399b565b61152f67e2e21ee6bc04a22860c01b61399b565b600061153a83613b65565b905061155067a37cf8ac9234d45e60c01b61399b565b611564678e9b9f9190afe66460c01b61399b565b600181610100015160ff16146115ce5761158867b3c4df2c22a2e21c60c01b61399b565b61159c67c002f553684480f060c01b61399b565b6040517f2dc7fe0f00000000000000000000000000000000000000000000000000000000815260040160405180910390fd5b6115e267824b30a57c4a2d8b60c01b61399b565b6115f667f7f85427246b2dc160c01b61399b565b61160a6707707580a8e3e07b60c01b61399b565b61161582824261412a565b156116745761162e67359eb0ba990501cd60c01b61399b565b6116426792c31ae6737390a660c01b61399b565b6040517fe8f82dd700000000000000000000000000000000000000000000000000000000815260040160405180910390fd5b611688670272c7f7be322e6160c01b61399b565b61169c67010be78951652fe560c01b61399b565b6116b0679ad215c06fd78c6660c01b61399b565b60006007600085815260200190815260200160002060003373ffffffffffffffffffffffffffffffffffffffff1673ffffffffffffffffffffffffffffffffffffffff168152602001908152602001600020549050611719674d936eba1625974760c01b61399b565b61172d676e701a6972ad76de60c01b61399b565b6000810361178f5761174967d888d77df4532f3c60c01b61399b565b61175d67d95b3c85e7f0369460c01b61399b565b6040517f3e07f1a100000000000000000000000000000000000000000000000000000000815260040160405180910390fd5b6117a3670b63cb30ee74eb8760c01b61399b565b6117b767b539996bb08dcbb060c01b61399b565b60006007600086815260200190815260200160002060003373ffffffffffffffffffffffffffffffffffffffff1673ffffffffffffffffffffffffffffffffffffffff1681526020019081526020016000208190555061182167f1d7378b81eb5f3360c01b61399b565b6118356745a48611b5774ce960c01b61399b565b611840838342614251565b1561197b5761185967eb65310f0c29c7f860c01b61399b565b61186d6730893c378e35e95960c01b61399b565b61188167bf8448df4e23802260c01b61399b565b60008061188f84868561454c565b915091506118a7670274062c5abf470a60c01b61399b565b6118bb6725d498563496c3f060c01b61399b565b6118c533836143cc565b6118d96733bec071bbdf9bb260c01b61399b565b6118ed670fe4d331446bba1760c01b61399b565b6118fb8560000151826143cc565b61190f67ce12accfb1a36fdf60c01b61399b565b6119236707a9aabe5ac494d060c01b61399b565b853373ffffffffffffffffffffffffffffffffffffffff167fb7048c2ad36aadee977bb16b4543a18866044d27a2ca753e1c7dbcfa7d7a6962848460405161196c929190616208565b60405180910390a35050611a73565b61198f67f85ddd82ce6492fd60c01b61399b565b6119a367fdf46d00e2a73fb560c01b61399b565b6119b767e95223d7c2a8a42960c01b61399b565b60006119c383836146a2565b90506119d9670c4dfa8f2681b86e60c01b61399b565b6119ed6723b0945c2562a23a60c01b61399b565b6119f733826143cc565b611a0b6721b4a7d0310263d260c01b61399b565b611a1f67f23cde643aa30a9660c01b61399b565b843373ffffffffffffffffffffffffffffffffffffffff167fb7048c2ad36aadee977bb16b4543a18866044d27a2ca753e1c7dbcfa7d7a6962836000604051611a6992919061626c565b60405180910390a3505b611a87675a8acffd987a0a3860c01b61399b565b611a9b67824c5b35e5ab948260c01b61399b565b611aa58483613f6b565b50505050565b6000611ac16703c503b27f6c159a60c01b61399b565b611ad5674bfbec845895768e60c01b61399b565b60026000815480929190611ae8906161c0565b9190505550611b0167b57e8b5fb2abfe7960c01b61399b565b6002549050611b1a67623f07046ca2d16760c01b61399b565b611b2e67f22feb3db84d9e1060c01b61399b565b6000828060000190611b4091906162a4565b905003611ba157611b5b67e6efbb006ee5e36860c01b61399b565b611b6f6705fe40560eb862c160c01b61399b565b6040517f0a37e92500000000000000000000000000000000000000000000000000000000815260040160405180910390fd5b611bb567396d071fe4970abd60c01b61399b565b611bc967ad99490a905f2aad60c01b61399b565b611bdd678041d39fbfabae7460c01b61399b565b6001826020016020810190611bf29190616307565b60ff161015611c5557611c0f6798e3781617a89e1060c01b61399b565b611c2367f797fb785a8fe07060c01b61399b565b6040517fab4102ac00000000000000000000000000000000000000000000000000000000815260040160405180910390fd5b611c696766ab489ad214bbee60c01b61399b565b611c7d67f392eb5de592545060c01b61399b565b611c9167710cdb233f6a4b9960c01b61399b565b600182604001351015611cf857611cb26788270be1d6a046ed60c01b61399b565b611cc6677534d6089d2e6f4660c01b61399b565b6040517fee4e342b00000000000000000000000000000000000000000000000000000000815260040160405180910390fd5b611d0c67f487e9b19cbf00a460c01b61399b565b611d2067680c6775a468155660c01b61399b565b611d3467659a99b8d84ab55360c01b61399b565b6000828060a00190611d469190616334565b90509050611d5e679de696000ad5420e60c01b61399b565b611d72679a6fec8895c14c3560c01b61399b565b80838060600190611d839190616397565b905014611de457611d9e6776bbf43fb793070a60c01b61399b565b611db2675a01d7cf5b04845060c01b61399b565b6040517f2d1ebeb800000000000000000000000000000000000000000000000000000000815260040160405180910390fd5b611df867e11d6f37a7f5f75460c01b61399b565b611e0c67072d0c71bbd0dac860c01b61399b565b611e2067e616be460d66491b60c01b61399b565b80838060800190611e319190616397565b905014611e9257611e4c6720a405695bde0f5760c01b61399b565b611e60674f6314749c62d3af60c01b61399b565b6040517f2d1ebeb800000000000000000000000000000000000000000000000000000000815260040160405180910390fd5b611ea6673dfc986d7a3ab37d60c01b61399b565b611eba673aa8ff503ca3efaa60c01b61399b565b611ece6795c433d39b3fbd2d60c01b61399b565b6000611ee4676c0cf99a9db701dc60c01b61399b565b611ef867f3d0c476e62b73b460c01b61399b565b42848060a00190611f099190616334565b6000818110611f1b57611f1a616191565b5b9050602002013511611f8157611f3b677ef1a6b2aee7b55960c01b61399b565b611f4f67f5012e458d3c1fc160c01b61399b565b6040517fa3644e9f00000000000000000000000000000000000000000000000000000000815260040160405180910390fd5b611f95673ea8fe12aab2265260c01b61399b565b611fa967ab738a879241746e60c01b61399b565b611fbd6707241090ee69135e60c01b61399b565b60005b8281101561226657611fdc67eb98aae558a6daed60c01b61399b565b611ff0675b30191f5e2bef7660c01b61399b565b6000858060a001906120029190616334565b8381811061201357612012616191565b5b90506020020135905061203067d0c73fe856e64b3660c01b61399b565b6120446763fdbaffd61e0d7860c01b61399b565b8083106120a55761205f674bb634fe1484de8460c01b61399b565b61207367a43655ab1f26dad160c01b61399b565b6040517fb7d0949700000000000000000000000000000000000000000000000000000000815260040160405180910390fd5b6120b96766c013618e0abffc60c01b61399b565b6120cd67527dacaeb62bc36f60c01b61399b565b8092506120e467e8a28a0080dab34360c01b61399b565b6120f867be9f076c437edfbd60c01b61399b565b600086806060019061210a9190616397565b8481811061211b5761211a616191565b5b905060200281019061212d91906162a4565b8080601f016020809104026020016040519081016040528093929190818152602001838380828437600081840152601f19601f82011690508083019250505050505050905061218667d1739fcf7c5343dd60c01b61399b565b61219a6703f48de3af1dbcb360c01b61399b565b60008780608001906121ac9190616397565b858181106121bd576121bc616191565b5b90506020028101906121cf91906162a4565b8080601f016020809104026020016040519081016040528093929190818152602001838380828437600081840152601f19601f8201169050808301925050505050505090506122286755431bdbba06a2ff60c01b61399b565b61223c67de720b92ac62411f60c01b61399b565b6122508761224b84848761476d565b6147d6565b505050808061225e906161c0565b915050611fc0565b5061227b67f68eb6decdfc334860c01b61399b565b61228f6742150901c207f41a60c01b61399b565b818460c00160208101906122a39190616307565b60ff1610612305576122bf675d1996b48cb52b4460c01b61399b565b6122d3677d81b6b62a59982e60c01b61399b565b6040517f5861ac5e00000000000000000000000000000000000000000000000000000000815260040160405180910390fd5b61231967542382f81c2aed3860c01b61399b565b61232d67b09369ecd53f4e6460c01b61399b565b61234167a44881135c1bfd1460c01b61399b565b60008460e00135116123a7576123616760c4c8273a5c9e9760c01b61399b565b612375679a2012bddf7e279a60c01b61399b565b6040517fa8e0bc8500000000000000000000000000000000000000000000000000000000815260040160405180910390fd5b6123bb67ac8e0c252c3ccabf60c01b61399b565b6123cf67231f79fbd99fa90a60c01b61399b565b61248b338580600001906123e391906162a4565b8760200160208101906123f69190616307565b8860400135878a60c001602081019061240f9190616307565b8b60e001358c8060a001906124249190616334565b8e60c00160208101906124379190616307565b60ff1681811061244a57612449616191565b5b905060200201358d8060a001906124619190616334565b60018e61246e91906163fa565b81811061247e5761247d616191565b5b90506020020135426148a1565b6003600085815260200190815260200160002060008201518160000160006101000a81548173ffffffffffffffffffffffffffffffffffffffff021916908373ffffffffffffffffffffffffffffffffffffffff16021790555060208201518160010190816124fa919061642e565b5060408201518160020160006101000a81548160ff021916908360ff1602179055506060820151816003015560808201518160040160006101000a81548160ff021916908360ff16021790555060a08201518160040160016101000a81548160ff021916908360ff16021790555060c0820151816005015560e08201518160060155610100820151816007015561012082015181600801559050506125a96779bbd213ef6f516760c01b61399b565b6125bd67f40ef19090c4566060c01b61399b565b6125d3836125ce866040013561498b565b613f6b565b6125e767e58b12d7883ce7e560c01b61399b565b6125fb67269b61692f7ba63660c01b61399b565b823373ffffffffffffffffffffffffffffffffffffffff167f3eace93fd0c19b6c99d9bde3f97f64d4236c6d3d477771c0c3836fc25d376bb7846040516126429190615e3d565b60405180910390a361265e6797dfce3166af160d60c01b61399b565b61267267e2042b2449267c9c60c01b61399b565b5050919050565b60025481565b612687614a3f565b6126916000614abd565b565b61269b61544b565b6126af67352d197f19d6199d60c01b61399b565b6126c367e2a719190029c08960c01b61399b565b6126d76770b0932ffa06945e60c01b61399b565b60006126e28361399e565b90506126f86704de3c7219de5e0360c01b61399b565b61270c678d1fe0a69dec4a5860c01b61399b565b600061271784613b65565b905061272d67affa4d6f90ac318f60c01b61399b565b61274167093e8525b89fe69960c01b61399b565b600061274c85614b81565b905061276267cfc042ee9059c20960c01b61399b565b61276e83838342614ddb565b9350505050919050565b60008060009054906101000a900473ffffffffffffffffffffffffffffffffffffffff16905090565b6127b567a4f475e931e13cd360c01b61399b565b6127c9678bd48eb855025c1360c01b61399b565b6127dd67b860833ebc7717cb60c01b61399b565b60006127e88261399e565b90506127fe6762d20fe56b51a1bd60c01b61399b565b612812672aa70005cda0490c60c01b61399b565b600061281d83613b65565b905061283367c42f7f74ef55bec460c01b61399b565b61284767c36d5d2bc3ebbaa260c01b61399b565b6000600160009054906101000a900473ffffffffffffffffffffffffffffffffffffffff1673ffffffffffffffffffffffffffffffffffffffff166323b872dd3330886040518463ffffffff1660e01b81526004016128a893929190616500565b6020604051808303816000875af11580156128c7573d6000803e3d6000fd5b505050506040513d601f19601f820116820180604052508101906128eb919061656f565b9050612901673ae9a8f7a26293d660c01b61399b565b61291567b1e45e077d426ea660c01b61399b565b806129745761292e67a1a7723f9c4d99ef60c01b61399b565b61294267ce620c6679b7e0e660c01b61399b565b6040517fbfa871c500000000000000000000000000000000000000000000000000000000815260040160405180910390fd5b6129886748c663fbe1c6d68560c01b61399b565b61299c67754cab12d3d9d95760c01b61399b565b6129b067a0acb36463df59ef60c01b61399b565b3373ffffffffffffffffffffffffffffffffffffffff16836000015173ffffffffffffffffffffffffffffffffffffffff1603612bff576129fb673da0377133a6494060c01b61399b565b612a0f67775d6864d9da7b5d60c01b61399b565b612a2367af69b404ab26c81d60c01b61399b565b600082610100015160ff1614612a8d57612a4767e5303bae72fe559360c01b61399b565b612a5b6739ad974b41505b9060c01b61399b565b6040517f378f52d100000000000000000000000000000000000000000000000000000000815260040160405180910390fd5b612aa16743292c2106df118c60c01b61399b565b612ab567f7709e15371a006360c01b61399b565b612ac967ff745e6134eeb8e060c01b61399b565b84612ad384614378565b14612b4757612aec67cf0c511b6851e74660c01b61399b565b612b0067266eff3188a8e06160c01b61399b565b84612b0a84614378565b6040517f46d86618000000000000000000000000000000000000000000000000000000008152600401612b3e929190616208565b60405180910390fd5b612b5b672a877249ac3cb6d960c01b61399b565b612b6f671e1eadf0578349b660c01b61399b565b600182610100019060ff16908160ff1681525050612b976719d07c47e3f2674660c01b61399b565b612bab671b3774bd9736e65460c01b61399b565b833373ffffffffffffffffffffffffffffffffffffffff167fd9cf864d1e601dbe70e5c673d763a8737acf74d0e3a562e9dbfa2d9e932116d787604051612bf2919061591a565b60405180910390a3613111565b612c136780ecea4a6c5b267660c01b61399b565b612c2767e36a34f5112d734760c01b61399b565b612c3b674bf8f93482aa00a160c01b61399b565b600182610100015160ff1614612ca557612c5f67536a694d5a93333f60c01b61399b565b612c7367b66376ce429491cd60c01b61399b565b6040517f2dc7fe0f00000000000000000000000000000000000000000000000000000000815260040160405180910390fd5b612cb96703648df0160a9a6760c01b61399b565b612ccd6749641f83cc09540560c01b61399b565b612ce167815cec325aa5996860c01b61399b565b612cec83834261412a565b15612d4b57612d0567a1fd69c5d750353460c01b61399b565b612d196780ef0478f38b155f60c01b61399b565b6040517fd677665000000000000000000000000000000000000000000000000000000000815260040160405180910390fd5b612d5f67c6d89bc18907bfce60c01b61399b565b612d73670e4be30669d41e3d60c01b61399b565b612d8767be8476eb34b7398560c01b61399b565b8482600001511015612dfe57612da7674a75cd96ea77461760c01b61399b565b612dbb67a3ea60f798f903b560c01b61399b565b8482600001516040517fa3895ba2000000000000000000000000000000000000000000000000000000008152600401612df5929190616208565b60405180910390fd5b612e1267de56386f9ff6f63260c01b61399b565b612e26677905cdc7b787dde460c01b61399b565b8482600001818151612e3891906163fa565b91508181525050612e5367837f64b4ae85337e60c01b61399b565b8482602001818151612e659190615d67565b91508181525050612e806729b05b6ef358944860c01b61399b565b612e9467b034fa1bb6a6ddb760c01b61399b565b60006007600086815260200190815260200160002060003373ffffffffffffffffffffffffffffffffffffffff1673ffffffffffffffffffffffffffffffffffffffff168152602001908152602001600020549050612efd67aff0c0f4335a9e7c60c01b61399b565b612f1167be35693235a5764760c01b61399b565b60008103612ff857612f2d678f438d1c38aab7b660c01b61399b565b612f4167bea99508a42cc7ae60c01b61399b565b826040018051809190612f53906161c0565b81525050612f6b6733eca3e25cbefc9760c01b61399b565b612f7f67cb9e5748eb35202160c01b61399b565b60066000868152602001908152602001600020339080600181540180825580915050600190039060005260206000200160009091909190916101000a81548173ffffffffffffffffffffffffffffffffffffffff021916908373ffffffffffffffffffffffffffffffffffffffff16021790555061300d565b61300c67d84b270eec0e065160c01b61399b565b5b61302167af2f2614ae720c7960c01b61399b565b858161302d9190615d67565b905061304367c37c1e3f946d13a760c01b61399b565b806007600087815260200190815260200160002060003373ffffffffffffffffffffffffffffffffffffffff1673ffffffffffffffffffffffffffffffffffffffff168152602001908152602001600020819055506130ac6746d9d2663f2f4b4260c01b61399b565b6130c067c583a9cf1379dd2760c01b61399b565b843373ffffffffffffffffffffffffffffffffffffffff167ff5a91574d9882c88af7aa33d99f0db5413f71f214cffcc17de8d3821d6c7146088604051613107919061591a565b60405180910390a3505b6131256704c70fd578ad635660c01b61399b565b613139672d1c803b544e6a4060c01b61399b565b6131438483613f6b565b5050505050565b60006131606796f1cca3d0835cf160c01b61399b565b6131746742ec313f312586be60c01b61399b565b6007600084815260200190815260200160002060008373ffffffffffffffffffffffffffffffffffffffff1673ffffffffffffffffffffffffffffffffffffffff16815260200190815260200160002054905092915050565b6131e1672e684e8b845d77a460c01b61399b565b6131f567b89ac35edb06053c60c01b61399b565b613209676f898e9bb0e4c00060c01b61399b565b60006132148261399e565b905061322a67f1160408cf8f8ad560c01b61399b565b61323e67dbe66e384ecd381260c01b61399b565b600061324983613b65565b905061325f67a3a979ad7a7cad6760c01b61399b565b6132736776e659f3e050308260c01b61399b565b600181610100015160ff16146132dd5761329767dab24c2d270f6df860c01b61399b565b6132ab67f6273d215b49584760c01b61399b565b6040517f2dc7fe0f00000000000000000000000000000000000000000000000000000000815260040160405180910390fd5b6132f1679c9991e4b5eae43160c01b61399b565b613305673d9976d9b2c3caac60c01b61399b565b61331967705d1bd350edb6f060c01b61399b565b816000015173ffffffffffffffffffffffffffffffffffffffff163373ffffffffffffffffffffffffffffffffffffffff1614158015613361575061335f82824261412a565b155b156133c05761337a67e32daa027861ab7c60c01b61399b565b61338e6702ce52acaa34fcd960c01b61399b565b6040517fe8f82dd700000000000000000000000000000000000000000000000000000000815260040160405180910390fd5b6133d4675b481df22ce8f21560c01b61399b565b6133e867757d56db49ce4c7d60c01b61399b565b600281610100019060ff16908160ff16815250506134106789ef35e2503066a460c01b61399b565b428160a001818152505061342e67def4a0fa8fdc3de660c01b61399b565b61344267d19347055cf79d0960c01b61399b565b61344c8382613f6b565b61346067ddbd85e366e4eb8460c01b61399b565b6134746774434143af9d0b6060c01b61399b565b6000816020015161348484614378565b61348e9190615d67565b90506134a467765706884190a86660c01b61399b565b6134b867c0122cbcd561740460c01b61399b565b6000836080015190506134d5676d65c70adb07ef6560c01b61399b565b6134e96711f9298aa58207ce60c01b61399b565b60008360c00151826134fb9190615df9565b9050613511672894aa468608dd1760c01b61399b565b613525679b4d8cd67e980f2660c01b61399b565b60008160ff1614613811576135446771c5cae91571174760c01b61399b565b6135586781701f71691d7e3960c01b61399b565b61356c675a8b117e19aebf7d60c01b61399b565b60006006600088815260200190815260200160002080548060200260200160405190810160405280929190818152602001828054801561360157602002820191906000526020600020905b8160009054906101000a900473ffffffffffffffffffffffffffffffffffffffff1673ffffffffffffffffffffffffffffffffffffffff16815260200190600101908083116135b7575b5050505050905061361c6738ae300d2173160660c01b61399b565b6136306721ea1269d001960260c01b61399b565b60005b815181101561380a57613650679fa32adf8b7cf8af60c01b61399b565b613664677f79d6850e07f06360c01b61399b565b600082828151811061367957613678616191565b5b60200260200101519050613697673b308c78ce21841060c01b61399b565b6136ab67e2c172490cd1938f60c01b61399b565b6000600760008b815260200190815260200160002060008373ffffffffffffffffffffffffffffffffffffffff1673ffffffffffffffffffffffffffffffffffffffff16815260200190815260200160002054905061371467f8266058d868efd060c01b61399b565b613728674827bc74648727ec60c01b61399b565b600060648a6040015160ff168361373f919061659c565b613749919061660d565b826137549190615d67565b905061376a67b1b762a782256bfc60c01b61399b565b61377e67d2e575ffa5a6297f60c01b61399b565b60008760ff168760ff1683613793919061659c565b61379d919061660d565b90506137b367b2e963db838b869660c01b61399b565b6137c76733c58206fc83552e60c01b61399b565b6137d184826143cc565b6137e567a7c2ca13723db1d860c01b61399b565b80896137f191906163fa565b9850505050508080613802906161c0565b915050613633565b5050613826565b6138256781c61240c24d95bd60c01b61399b565b5b61383a676a67663314f4d57760c01b61399b565b61384e672acc031564ac572660c01b61399b565b60008311156138a65761386b678fa7d3b50ccfe04f60c01b61399b565b61387f67b98b4de6c747297160c01b61399b565b61389367c0c084947f7ed82d60c01b61399b565b6138a18560000151846143cc565b6138bb565b6138ba67ef4430a4eddc130c60c01b61399b565b5b6138cf67c7c45751bd3226dc60c01b61399b565b6138e367b965aa20aa58ad2a60c01b61399b565b857f14b4183e201be6a1b013e8a321c9dba34a041dfc6d26969f78276f430eec8e1660405160405180910390a2505050505050565b613920614a3f565b600073ffffffffffffffffffffffffffffffffffffffff168173ffffffffffffffffffffffffffffffffffffffff160361398f576040517f08c379a0000000000000000000000000000000000000000000000000000000008152600401613986906166c1565b60405180910390fd5b61399881614abd565b50565b50565b6139a66154e3565b6139ba674bdaca25b3fe169260c01b61399b565b6139ce6757f0e297abc1680460c01b61399b565b60036000838152602001908152602001600020604051806101400160405290816000820160009054906101000a900473ffffffffffffffffffffffffffffffffffffffff1673ffffffffffffffffffffffffffffffffffffffff1673ffffffffffffffffffffffffffffffffffffffff168152602001600182018054613a5390615e87565b80601f0160208091040260200160405190810160405280929190818152602001828054613a7f90615e87565b8015613acc5780601f10613aa157610100808354040283529160200191613acc565b820191906000526020600020905b815481529060010190602001808311613aaf57829003601f168201915b505050505081526020016002820160009054906101000a900460ff1660ff1660ff168152602001600382015481526020016004820160009054906101000a900460ff1660ff1660ff1681526020016004820160019054906101000a900460ff1660ff1660ff1681526020016005820154815260200160068201548152602001600782015481526020016008820154815250509050919050565b613b6d615555565b613b816763a61bdb1be9c0f260c01b61399b565b613b9567dc5f725fe6ee2ab960c01b61399b565b60046000838152602001908152602001600020604051806101200160405290816000820154815260200160018201548152602001600282015481526020016003820160009054906101000a900460ff161515151581526020016003820160019054906101000a900460ff16151515158152602001600482015481526020016005820160009054906101000a900460ff1660ff1660ff1681526020016005820160019054906101000a900460ff1660ff1660ff1681526020016005820160029054906101000a900460ff1660ff1660ff16815250509050919050565b613c786155ae565b613c8c671eeba401414da10a60c01b61399b565b613ca0675b5cf8f8c30729b160c01b61399b565b600560008481526020019081526020016000208281548110613cc557613cc4616191565b5b9060005260206000209060040201604051806080016040529081600082018054613cee90615e87565b80601f0160208091040260200160405190810160405280929190818152602001828054613d1a90615e87565b8015613d675780601f10613d3c57610100808354040283529160200191613d67565b820191906000526020600020905b815481529060010190602001808311613d4a57829003601f168201915b50505050508152602001600182018054613d8090615e87565b80601f0160208091040260200160405190810160405280929190818152602001828054613dac90615e87565b8015613df95780601f10613dce57610100808354040283529160200191613df9565b820191906000526020600020905b815481529060010190602001808311613ddc57829003601f168201915b5050505050815260200160028201548152602001600382018054613e1c90615e87565b80601f0160208091040260200160405190810160405280929190818152602001828054613e4890615e87565b8015613e955780601f10613e6a57610100808354040283529160200191613e95565b820191906000526020600020905b815481529060010190602001808311613e7857829003601f168201915b5050505050815250509050613eb46704f3653a58d4aea660c01b61399b565b613ec867cbc55c72dac8087b60c01b61399b565b92915050565b6000613ee4670f4701c9eea62d8b60c01b615373565b613ef8671b8fbcfef17cff3560c01b615373565b613f0c674f17f7ebb7b7d21c60c01b615373565b600082606001515114159050919050565b6000613f33675deafcaf3fe4cc1e60c01b615373565b613f476722608c2daef65dc360c01b615373565b613f5b6744f2a6d37d4be79760c01b615373565b8183604001511115905092915050565b613f7f671e1f8269df0a66ec60c01b61399b565b613f93673f7401a9ebbc4f2260c01b61399b565b806004600084815260200190815260200160002060008201518160000155602082015181600101556040820151816002015560608201518160030160006101000a81548160ff02191690831515021790555060808201518160030160016101000a81548160ff02191690831515021790555060a0820151816004015560c08201518160050160006101000a81548160ff021916908360ff16021790555060e08201518160050160016101000a81548160ff021916908360ff1602179055506101008201518160050160026101000a81548160ff021916908360ff1602179055509050505050565b61408e6778ae06832775745260c01b61399b565b6140a267fdadb6169231192560c01b61399b565b806005600085815260200190815260200160002083815481106140c8576140c7616191565b5b906000526020600020906004020160008201518160000190816140eb919061642e565b506020820151816001019081614101919061642e565b50604082015181600201556060820151816003019081614121919061642e565b50905050505050565b6000614140672681343860bac09360c01b615373565b61415467a0ba0cd92e3da3bd60c01b615373565b614168670ae35bef134b936f60c01b615373565b600183610100015160ff16146141bd5761418c67f828fb08515a003260c01b615373565b6141a067ef4218bd0176ba0a60c01b615373565b6141b467c55be2f0dfad4cd260c01b615373565b6000905061424a565b6141d16763521a486ae45e7c60c01b615373565b6141e567f433828196140f0960c01b615373565b6141f96792d116567cbf661960c01b615373565b8260800151801561421a575061421967379789a9dbdcccc160c01b615376565b5b80614247575061422a8483615381565b8015614246575061424567507edb8432702ef760c01b615376565b5b5b90505b9392505050565b600061426767b6c0ed97ee00fde760c01b615373565b61427b678d46eac51cfd0cc160c01b615373565b61428f67eef774677fb9b5c760c01b615373565b600183610100015160ff16146142e4576142b367ca07a9e5fc1d86e460c01b615373565b6142c76706d11f30ef775e1060c01b615373565b6142db67ff015bfb24714a6360c01b615373565b60009050614371565b6142f8679386e0a5176fa5fc60c01b615373565b61430c67a1825039d407707c60c01b615373565b61432067e88a07cba9667f6360c01b615373565b826060015180156143415750614340678816737553f5980f60c01b615376565b5b8061436e575061435184836153d0565b801561436d575061436c67f3fabd49047ddb9a60c01b615376565b5b5b90505b9392505050565b600061438e67aa19c9a6bcd73e1c60c01b615373565b6143a2675c64265e110ddcbb60c01b615373565b60648260600151836040015160ff166143bb919061659c565b6143c5919061660d565b9050919050565b6143e0673933896c1d1d55be60c01b61399b565b6143f46767d8e659cc381d2460c01b61399b565b614408670c2400978ff14a8f60c01b61399b565b6000600160009054906101000a900473ffffffffffffffffffffffffffffffffffffffff1673ffffffffffffffffffffffffffffffffffffffff1663a9059cbb84846040518363ffffffff1660e01b81526004016144679291906166e1565b6020604051808303816000875af1158015614486573d6000803e3d6000fd5b505050506040513d601f19601f820116820180604052508101906144aa919061656f565b90506144c067d0638322fc42c6af60c01b61399b565b6144d467f04959e1c719a52560c01b61399b565b80614533576144ed67ef038c35e407969c60c01b61399b565b61450167ea189fe31f33409060c01b61399b565b6040517fbfa871c500000000000000000000000000000000000000000000000000000000815260040160405180910390fd5b614547673726894cde73d90a60c01b61399b565b505050565b60008061456367116777f73ab6a6a660c01b615373565b61457767e3915308a1ac421f60c01b615373565b61458b6791e7ca2966a89b3560c01b615373565b6000846080015160ff1690506145ab67018127cbf3e2e9bf60c01b615373565b808660c0015160ff16856145bf919061659c565b6145c9919061660d565b91506145df673e48494e61bd503160c01b615373565b81846145eb91906163fa565b9250614601674cd5ff1e16aca39860c01b615373565b83866000018181516146139190615d67565b9150818152505061462e67979808be62da5bd060c01b615373565b838660200181815161464091906163fa565b9150818152505061465b676bbc8b2c8837323460c01b615373565b85604001805180919061466d9061670a565b8152505061468567c246e5f7e357acc260c01b615373565b614699676b3c7999001eb3c660c01b615373565b50935093915050565b60006146b8674aa2df61b1e9604d60c01b615373565b6146cc674ae7c0b5b11101ae60c01b615373565b81836000018181516146de9190615d67565b915081815250506146f967d5e22f24d2790fed60c01b615373565b818360200181815161470b91906163fa565b91508181525050614726677c61985a327f7a8060c01b615373565b8260400180518091906147389061670a565b81525050614750671b89e007f1fdf38e60c01b615373565b614764671af1f1d8c8fc438f60c01b615373565b81905092915050565b6147756155ae565b61478967f8afff0e452f71b360c01b615373565b61479d676716fb803401852a60c01b615373565b60405180608001604052808581526020018481526020018381526020016040518060200160405280600081525081525090509392505050565b6147ea6767268f73c23b6d3360c01b61399b565b6147fe678bcc5e38f5d1663a60c01b61399b565b61481267487861b3b17ce36360c01b61399b565b600560008381526020019081526020016000208190806001815401808255809150506001900390600052602060002090600402016000909190919091506000820151816000019081614864919061642e565b50602082015181600101908161487a919061642e565b5060408201518160020155606082015181600301908161489a919061642e565b5050505050565b6148a96154e3565b6148bd6721adb09af4c9c5ff60c01b615373565b6148d167c7f5bebe493f8a8260c01b615373565b6040518061014001604052808d73ffffffffffffffffffffffffffffffffffffffff1681526020018c8c8080601f016020809104026020016040519081016040528093929190818152602001838380828437600081840152601f19601f8201169050808301925050505050505081526020018a60ff1681526020018981526020018860ff1681526020018760ff1681526020018681526020018381526020018581526020018481525090509b9a5050505050505050505050565b614993615555565b6149a767f94259efef0f2c3f60c01b615373565b6149bb67a6cdeddefc7654f160c01b615373565b604051806101200160405280838152602001600081526020016000815260200160001515815260200160001515815260200160008152602001600060ff168152602001600060ff168152602001600060ff168152509050614a2667322bcd7cb42845e260c01b615373565b614a3a67d7b6c3d7f22a4f8b60c01b615373565b919050565b614a4761541f565b73ffffffffffffffffffffffffffffffffffffffff16614a65612778565b73ffffffffffffffffffffffffffffffffffffffff1614614abb576040517f08c379a0000000000000000000000000000000000000000000000000000000008152600401614ab29061677f565b60405180910390fd5b565b60008060009054906101000a900473ffffffffffffffffffffffffffffffffffffffff169050816000806101000a81548173ffffffffffffffffffffffffffffffffffffffff021916908373ffffffffffffffffffffffffffffffffffffffff1602179055508173ffffffffffffffffffffffffffffffffffffffff168173ffffffffffffffffffffffffffffffffffffffff167f8be0079c531659141344cd1fd0a4f28419497f9722a3daafe3b4186f6b6457e060405160405180910390a35050565b6060614b97670392ec0404ab762d60c01b61399b565b614bab6715092ca99e91b9c060c01b61399b565b60056000838152602001908152602001600020805480602002602001604051908101604052809291908181526020016000905b82821015614dd05783829060005260206000209060040201604051806080016040529081600082018054614c1190615e87565b80601f0160208091040260200160405190810160405280929190818152602001828054614c3d90615e87565b8015614c8a5780601f10614c5f57610100808354040283529160200191614c8a565b820191906000526020600020905b815481529060010190602001808311614c6d57829003601f168201915b50505050508152602001600182018054614ca390615e87565b80601f0160208091040260200160405190810160405280929190818152602001828054614ccf90615e87565b8015614d1c5780601f10614cf157610100808354040283529160200191614d1c565b820191906000526020600020905b815481529060010190602001808311614cff57829003601f168201915b5050505050815260200160028201548152602001600382018054614d3f90615e87565b80601f0160208091040260200160405190810160405280929190818152602001828054614d6b90615e87565b8015614db85780601f10614d8d57610100808354040283529160200191614db8565b820191906000526020600020905b815481529060010190602001808311614d9b57829003601f168201915b50505050508152505081526020019060010190614bde565b505050509050919050565b614de361544b565b614df767838abdac09ec8fa660c01b615373565b614e0b6747d456ada822fda260c01b615373565b604051806101e0016040528086602001518152602001866000015173ffffffffffffffffffffffffffffffffffffffff168152602001838152602001866040015160ff16815260200186606001518152602001866080015160ff1681526020018481526020018660a0015160ff1681526020018660c0015181526020018560a0015181526020018560e0015160ff1681526020018560000151815260200185604001518152602001604051806020016040528060008152508152602001604051806020016040528060008152508152509050614ef16729165b85f0b9186260c01b615373565b614f056770f7bd6f7d8e98e560c01b615373565b600084610100015160ff1603614fae57614f29676e8bd8f0712e794860c01b615373565b614f3d673eb2714337c3f0ab60c01b615373565b6040518060400160405280600781526020017f50454e44494e4700000000000000000000000000000000000000000000000000815250816101a00181905250614f9067b907c70d2c69d59e60c01b615373565b60405180602001604052806000815250816101c0018190525061536b565b614fc267ad388ca124de949b60c01b615373565b614fd66757a80c15336145e460c01b615373565b600184610100015160ff160361520357614ffa67b170b2c97971df9060c01b615373565b61500e679a864bbb8226c8ac60c01b615373565b6040518060400160405280600781526020017f4f4e474f494e4700000000000000000000000000000000000000000000000000815250816101a00181905250615061679c2a9e1c1dd000e060c01b615373565b615075671487f0423f2f2ad560c01b615373565b61508085858461412a565b156150f157615099672790830a0e39e38760c01b615373565b6150ad67c2dc1da0d87cbd7360c01b615373565b6040518060400160405280600f81526020017f52656164792d546f2d46696e6973680000000000000000000000000000000000815250816101c001819052506151fe565b615105675449132ef80a6a7260c01b615373565b6151196706d763386ddcb51a60c01b615373565b615124858584614251565b156151955761513d67e67cfa10d6f05d3660c01b615373565b615151674e608c1389b4c7de60c01b615373565b6040518060400160405280600681526020017f4163746976650000000000000000000000000000000000000000000000000000815250816101c001819052506151fd565b6151a9675cc3b6a83306ac6a60c01b615373565b6151bd672fecced517f1d4d960c01b615373565b6040518060400160405280600481526020017f4f70656e00000000000000000000000000000000000000000000000000000000815250816101c001819052505b5b61536a565b61521767c596f033959c4dff60c01b615373565b61522b679dd39272cbf3214660c01b615373565b600284610100015160ff16036152d45761524f677c1e96aa5bb1174260c01b615373565b615263678ed1ce259e66687460c01b615373565b6040518060400160405280600881526020017f46494e4953484544000000000000000000000000000000000000000000000000815250816101a001819052506152b667c16252c3a3a7bcaf60c01b615373565b60405180602001604052806000815250816101c00181905250615369565b6152e8671dbca687a0148da960c01b615373565b6152fc678279c8cf32d10c4960c01b615373565b6040518060400160405280600781526020017f554e4b4e4f574e00000000000000000000000000000000000000000000000000815250816101a0018190525061534f67aec6a48a45dc208460c01b615373565b60405180602001604052806000815250816101c001819052505b5b5b949350505050565b50565b600060019050919050565b6000615397676d3bd08da6db971260c01b615373565b6153ab67b8ed54f869379d2360c01b615373565b6153bf676e6b895cb89a6b6f60c01b615373565b818361012001511115905092915050565b60006153e667e0d2ae598cf5eb8660c01b615373565b6153fa67fd47442b2f85532c60c01b615373565b61540e676860eb42c43f986e60c01b615373565b818361010001511115905092915050565b600033905090565b508054600082556004029060005260206000209081019061544891906155d6565b50565b604051806101e0016040528060608152602001600073ffffffffffffffffffffffffffffffffffffffff16815260200160008152602001600060ff16815260200160008152602001600060ff16815260200160608152602001600060ff1681526020016000815260200160008152602001600060ff168152602001600081526020016000815260200160608152602001606081525090565b604051806101400160405280600073ffffffffffffffffffffffffffffffffffffffff16815260200160608152602001600060ff16815260200160008152602001600060ff168152602001600060ff168152602001600081526020016000815260200160008152602001600081525090565b60405180610120016040528060008152602001600081526020016000815260200160001515815260200160001515815260200160008152602001600060ff168152602001600060ff168152602001600060ff1681525090565b6040518060800160405280606081526020016060815260200160008152602001606081525090565b5b8082111561562157600080820160006155f09190615625565b6001820160006156009190615625565b60028201600090556003820160006156189190615625565b506004016155d7565b5090565b50805461563190615e87565b6000825580601f106156435750615662565b601f0160209004906000526020600020908101906156619190615665565b5b50565b5b8082111561567e576000816000905550600101615666565b5090565b600080fd5b600080fd5b6000819050919050565b61569f8161568c565b81146156aa57600080fd5b50565b6000813590506156bc81615696565b92915050565b600080604083850312156156d9576156d8615682565b5b60006156e7858286016156ad565b92505060206156f8858286016156ad565b9150509250929050565b600073ffffffffffffffffffffffffffffffffffffffff82169050919050565b600061572d82615702565b9050919050565b61573d81615722565b82525050565b60006020820190506157586000830184615734565b92915050565b600060ff82169050919050565b6157748161575e565b811461577f57600080fd5b50565b6000813590506157918161576b565b92915050565b600080fd5b600080fd5b600080fd5b60008083601f8401126157bc576157bb615797565b5b8235905067ffffffffffffffff8111156157d9576157d861579c565b5b6020830191508360018202830111156157f5576157f46157a1565b5b9250929050565b6000806000806060858703121561581657615815615682565b5b6000615824878288016156ad565b945050602061583587828801615782565b935050604085013567ffffffffffffffff81111561585657615855615687565b5b615862878288016157a6565b925092505092959194509250565b60006020828403121561588657615885615682565b5b6000615894848285016156ad565b91505092915050565b600080fd5b600061010082840312156158b9576158b861589d565b5b81905092915050565b6000602082840312156158d8576158d7615682565b5b600082013567ffffffffffffffff8111156158f6576158f5615687565b5b615902848285016158a2565b91505092915050565b6159148161568c565b82525050565b600060208201905061592f600083018461590b565b92915050565b600081519050919050565b600082825260208201905092915050565b60005b8381101561596f578082015181840152602081019050615954565b60008484015250505050565b6000601f19601f8301169050919050565b600061599782615935565b6159a18185615940565b93506159b1818560208601615951565b6159ba8161597b565b840191505092915050565b6159ce81615722565b82525050565b6159dd8161568c565b82525050565b6159ec8161575e565b82525050565b600081519050919050565b600082825260208201905092915050565b6000819050602082019050919050565b60006080830160008301518482036000860152615a3b828261598c565b91505060208301518482036020860152615a55828261598c565b9150506040830151615a6a60408601826159d4565b5060608301518482036060860152615a82828261598c565b9150508091505092915050565b6000615a9b8383615a1e565b905092915050565b6000602082019050919050565b6000615abb826159f2565b615ac581856159fd565b935083602082028501615ad785615a0e565b8060005b85811015615b135784840389528151615af48582615a8f565b9450615aff83615aa3565b925060208a01995050600181019050615adb565b50829750879550505050505092915050565b60006101e0830160008301518482036000860152615b43828261598c565b9150506020830151615b5860208601826159c5565b506040830151615b6b60408601826159d4565b506060830151615b7e60608601826159e3565b506080830151615b9160808601826159d4565b5060a0830151615ba460a08601826159e3565b5060c083015184820360c0860152615bbc8282615ab0565b91505060e0830151615bd160e08601826159e3565b50610100830151615be66101008601826159d4565b50610120830151615bfb6101208601826159d4565b50610140830151615c106101408601826159e3565b50610160830151615c256101608601826159d4565b50610180830151615c3a6101808601826159d4565b506101a08301518482036101a0860152615c54828261598c565b9150506101c08301518482036101c0860152615c70828261598c565b9150508091505092915050565b60006020820190508181036000830152615c978184615b25565b905092915050565b615ca881615722565b8114615cb357600080fd5b50565b600081359050615cc581615c9f565b92915050565b60008060408385031215615ce257615ce1615682565b5b6000615cf0858286016156ad565b9250506020615d0185828601615cb6565b9150509250929050565b600060208284031215615d2157615d20615682565b5b6000615d2f84828501615cb6565b91505092915050565b7f4e487b7100000000000000000000000000000000000000000000000000000000600052601160045260246000fd5b6000615d728261568c565b9150615d7d8361568c565b9250828201905080821115615d9557615d94615d38565b5b92915050565b6000615da68261575e565b9150615db18361575e565b9250828201905060ff811115615dca57615dc9615d38565b5b92915050565b6000615ddb8261575e565b915060ff8203615dee57615ded615d38565b5b600182019050919050565b6000615e048261575e565b9150615e0f8361575e565b9250828203905060ff811115615e2857615e27615d38565b5b92915050565b615e378161575e565b82525050565b6000602082019050615e526000830184615e2e565b92915050565b7f4e487b7100000000000000000000000000000000000000000000000000000000600052602260045260246000fd5b60006002820490506001821680615e9f57607f821691505b602082108103615eb257615eb1615e58565b5b50919050565b600081549050615ec781615e87565b9050919050565b7f4e487b7100000000000000000000000000000000000000000000000000000000600052604160045260246000fd5b60008190508160005260206000209050919050565b60006020601f8301049050919050565b600082821b905092915050565b600060088302615f5f7fffffffffffffffffffffffffffffffffffffffffffffffffffffffffffffffff82615f22565b615f698683615f22565b95508019841693508086168417925050509392505050565b6000819050919050565b6000615fa6615fa1615f9c8461568c565b615f81565b61568c565b9050919050565b6000819050919050565b615fc083615f8b565b615fd4615fcc82615fad565b848454615f2f565b825550505050565b600090565b615fe9615fdc565b615ff4818484615fb7565b505050565b5b818110156160185761600d600082615fe1565b600181019050615ffa565b5050565b601f82111561605d5761602e81615efd565b61603784615f12565b81016020851015616046578190505b61605a61605285615f12565b830182615ff9565b50505b505050565b600082821c905092915050565b600061608060001984600802616062565b1980831691505092915050565b6000616099838361606f565b9150826002028217905092915050565b8181036160b757505061618f565b6160c082615eb8565b67ffffffffffffffff8111156160d9576160d8615ece565b5b6160e38254615e87565b6160ee82828561601c565b6000601f83116001811461611d576000841561610b578287015490505b616115858261608d565b865550616188565b601f19841661612b87615efd565b965061613686615efd565b60005b8281101561615e57848901548255600182019150600185019450602081019050616139565b8683101561617b5784890154616177601f89168261606f565b8355505b6001600288020188555050505b5050505050505b565b7f4e487b7100000000000000000000000000000000000000000000000000000000600052603260045260246000fd5b60006161cb8261568c565b91507fffffffffffffffffffffffffffffffffffffffffffffffffffffffffffffffff82036161fd576161fc615d38565b5b600182019050919050565b600060408201905061621d600083018561590b565b61622a602083018461590b565b9392505050565b6000819050919050565b600061625661625161624c84616231565b615f81565b61568c565b9050919050565b6162668161623b565b82525050565b6000604082019050616281600083018561590b565b61628e602083018461625d565b9392505050565b600080fd5b600080fd5b600080fd5b600080833560016020038436030381126162c1576162c0616295565b5b80840192508235915067ffffffffffffffff8211156162e3576162e261629a565b5b6020830192506001820236038313156162ff576162fe61629f565b5b509250929050565b60006020828403121561631d5761631c615682565b5b600061632b84828501615782565b91505092915050565b6000808335600160200384360303811261635157616350616295565b5b80840192508235915067ffffffffffffffff8211156163735761637261629a565b5b60208301925060208202360383131561638f5761638e61629f565b5b509250929050565b600080833560016020038436030381126163b4576163b3616295565b5b80840192508235915067ffffffffffffffff8211156163d6576163d561629a565b5b6020830192506020820236038313156163f2576163f161629f565b5b509250929050565b60006164058261568c565b91506164108361568c565b925082820390508181111561642857616427615d38565b5b92915050565b61643782615935565b67ffffffffffffffff8111156164505761644f615ece565b5b61645a8254615e87565b61646582828561601c565b600060209050601f8311600181146164985760008415616486578287015190505b616490858261608d565b8655506164f8565b601f1984166164a686615efd565b60005b828110156164ce578489015182556001820191506020850194506020810190506164a9565b868310156164eb57848901516164e7601f89168261606f565b8355505b6001600288020188555050505b505050505050565b60006060820190506165156000830186615734565b6165226020830185615734565b61652f604083018461590b565b949350505050565b60008115159050919050565b61654c81616537565b811461655757600080fd5b50565b60008151905061656981616543565b92915050565b60006020828403121561658557616584615682565b5b60006165938482850161655a565b91505092915050565b60006165a78261568c565b91506165b28361568c565b92508282026165c08161568c565b915082820484148315176165d7576165d6615d38565b5b5092915050565b7f4e487b7100000000000000000000000000000000000000000000000000000000600052601260045260246000fd5b60006166188261568c565b91506166238361568c565b925082616633576166326165de565b5b828204905092915050565b600082825260208201905092915050565b7f4f776e61626c653a206e6577206f776e657220697320746865207a65726f206160008201527f6464726573730000000000000000000000000000000000000000000000000000602082015250565b60006166ab60268361663e565b91506166b68261664f565b604082019050919050565b600060208201905081810360008301526166da8161669e565b9050919050565b60006040820190506166f66000830185615734565b616703602083018461590b565b9392505050565b60006167158261568c565b91506000820361672857616727615d38565b5b600182039050919050565b7f4f776e61626c653a2063616c6c6572206973206e6f7420746865206f776e6572600082015250565b600061676960208361663e565b915061677482616733565b602082019050919050565b600060208201905081810360008301526167988161675c565b905091905056fea26469706673582212200040aa8eb6a6a37706cdbd1a8e62410befcf7ff7c019e77ef9522c084354c8a564736f6c63430008110033",
  "linkReferences": {},
  "deployedLinkReferences": {}
}